{
	"loyalnames.sol": {
		"PapiGo": {
			"abi": [
				{
					"inputs": [],
					"stateMutability": "nonpayable",
					"type": "constructor"
				},
				{
					"anonymous": false,
					"inputs": [
						{
							"indexed": true,
							"internalType": "address",
							"name": "sender",
							"type": "address"
						},
						{
							"indexed": false,
							"internalType": "string",
							"name": "senderName",
							"type": "string"
						},
						{
							"indexed": true,
							"internalType": "address",
							"name": "recipient",
							"type": "address"
						},
						{
							"indexed": false,
							"internalType": "uint256",
							"name": "amount",
							"type": "uint256"
						},
						{
							"indexed": false,
							"internalType": "string",
							"name": "currency",
							"type": "string"
						}
					],
					"name": "Transaction",
					"type": "event"
				},
				{
					"inputs": [
						{
							"internalType": "address",
							"name": "",
							"type": "address"
						}
					],
					"name": "balancesUSDT",
					"outputs": [
						{
							"internalType": "uint256",
							"name": "",
							"type": "uint256"
						}
					],
					"stateMutability": "view",
					"type": "function"
				},
				{
					"inputs": [
						{
							"internalType": "address",
							"name": "",
							"type": "address"
						}
					],
					"name": "loyaltyLevels",
					"outputs": [
						{
							"internalType": "uint256",
							"name": "",
							"type": "uint256"
						}
					],
					"stateMutability": "view",
					"type": "function"
				},
				{
					"inputs": [
						{
							"internalType": "address",
							"name": "sender",
							"type": "address"
						},
						{
							"internalType": "address",
							"name": "recipient",
							"type": "address"
						},
						{
							"internalType": "uint256",
							"name": "amountUSDT",
							"type": "uint256"
						}
					],
					"name": "payTrip",
					"outputs": [],
					"stateMutability": "nonpayable",
					"type": "function"
				},
				{
					"inputs": [
						{
							"internalType": "address",
							"name": "",
							"type": "address"
						}
					],
					"name": "personalizedNames",
					"outputs": [
						{
							"internalType": "string",
							"name": "",
							"type": "string"
						}
					],
					"stateMutability": "view",
					"type": "function"
				},
				{
					"inputs": [
						{
							"internalType": "address",
							"name": "account",
							"type": "address"
						},
						{
							"internalType": "uint256",
							"name": "amountUSDT",
							"type": "uint256"
						}
					],
					"name": "setInitialBalance",
					"outputs": [],
					"stateMutability": "nonpayable",
					"type": "function"
				},
				{
					"inputs": [
						{
							"internalType": "address",
							"name": "account",
							"type": "address"
						},
						{
							"internalType": "uint256",
							"name": "level",
							"type": "uint256"
						}
					],
					"name": "setLoyaltyLevel",
					"outputs": [],
					"stateMutability": "nonpayable",
					"type": "function"
				},
				{
					"inputs": [
						{
							"internalType": "address",
							"name": "account",
							"type": "address"
						},
						{
							"internalType": "string",
							"name": "name",
							"type": "string"
						}
					],
					"name": "setPersonalizedName",
					"outputs": [],
					"stateMutability": "nonpayable",
					"type": "function"
				}
			],
			"devdoc": {
				"kind": "dev",
				"methods": {},
				"version": 1
			},
			"evm": {
				"assembly": "    /* \"loyalnames.sol\":123:1910  contract PapiGo {... */\n  mstore(0x40, 0x80)\n    /* \"loyalnames.sol\":600:708  constructor() {... */\n  callvalue\n  dup1\n  iszero\n  tag_1\n  jumpi\n  0x00\n  dup1\n  revert\ntag_1:\n  pop\n    /* \"loyalnames.sol\":640:682  0xdAC17F958D2ee523a2206206994597C13D831ec7 */\n  0xdac17f958d2ee523a2206206994597c13d831ec7\n    /* \"loyalnames.sol\":624:630  tether */\n  0x00\n  dup1\n    /* \"loyalnames.sol\":624:683  tether = IERC20(0xdAC17F958D2ee523a2206206994597C13D831ec7) */\n  0x0100\n  exp\n  dup2\n  sload\n  dup2\n  0xffffffffffffffffffffffffffffffffffffffff\n  mul\n  not\n  and\n  swap1\n  dup4\n  0xffffffffffffffffffffffffffffffffffffffff\n  and\n  mul\n  or\n  swap1\n  sstore\n  pop\n    /* \"loyalnames.sol\":123:1910  contract PapiGo {... */\n  dataSize(sub_0)\n  dup1\n  dataOffset(sub_0)\n  0x00\n  codecopy\n  0x00\n  return\nstop\n\nsub_0: assembly {\n        /* \"loyalnames.sol\":123:1910  contract PapiGo {... */\n      mstore(0x40, 0x80)\n      callvalue\n      dup1\n      iszero\n      tag_1\n      jumpi\n      0x00\n      dup1\n      revert\n    tag_1:\n      pop\n      jumpi(tag_2, lt(calldatasize, 0x04))\n      shr(0xe0, calldataload(0x00))\n      dup1\n      0x854572b4\n      gt\n      tag_10\n      jumpi\n      dup1\n      0x854572b4\n      eq\n      tag_6\n      jumpi\n      dup1\n      0xae7b0ca1\n      eq\n      tag_7\n      jumpi\n      dup1\n      0xd1ef621d\n      eq\n      tag_8\n      jumpi\n      dup1\n      0xebbc9b32\n      eq\n      tag_9\n      jumpi\n      jump(tag_2)\n    tag_10:\n      dup1\n      0x0b34b555\n      eq\n      tag_3\n      jumpi\n      dup1\n      0x1d3b9755\n      eq\n      tag_4\n      jumpi\n      dup1\n      0x56b89be4\n      eq\n      tag_5\n      jumpi\n    tag_2:\n      0x00\n      dup1\n      revert\n        /* \"loyalnames.sol\":1419:1592  function setInitialBalance(address account, uint amountUSDT) external {... */\n    tag_3:\n      tag_11\n      0x04\n      dup1\n      calldatasize\n      sub\n      dup2\n      add\n      swap1\n      tag_12\n      swap2\n      swap1\n      tag_13\n      jump\t// in\n    tag_12:\n      tag_14\n      jump\t// in\n    tag_11:\n      stop\n        /* \"loyalnames.sol\":378:429  mapping(address => string) public personalizedNames */\n    tag_4:\n      tag_15\n      0x04\n      dup1\n      calldatasize\n      sub\n      dup2\n      add\n      swap1\n      tag_16\n      swap2\n      swap1\n      tag_17\n      jump\t// in\n    tag_16:\n      tag_18\n      jump\t// in\n    tag_15:\n      mload(0x40)\n      tag_19\n      swap2\n      swap1\n      tag_20\n      jump\t// in\n    tag_19:\n      mload(0x40)\n      dup1\n      swap2\n      sub\n      swap1\n      return\n        /* \"loyalnames.sol\":172:216  mapping(address => uint) public balancesUSDT */\n    tag_5:\n      tag_21\n      0x04\n      dup1\n      calldatasize\n      sub\n      dup2\n      add\n      swap1\n      tag_22\n      swap2\n      swap1\n      tag_17\n      jump\t// in\n    tag_22:\n      tag_23\n      jump\t// in\n    tag_21:\n      mload(0x40)\n      tag_24\n      swap2\n      swap1\n      tag_25\n      jump\t// in\n    tag_24:\n      mload(0x40)\n      dup1\n      swap2\n      sub\n      swap1\n      return\n        /* \"loyalnames.sol\":291:336  mapping(address => uint) public loyaltyLevels */\n    tag_6:\n      tag_26\n      0x04\n      dup1\n      calldatasize\n      sub\n      dup2\n      add\n      swap1\n      tag_27\n      swap2\n      swap1\n      tag_17\n      jump\t// in\n    tag_27:\n      tag_28\n      jump\t// in\n    tag_26:\n      mload(0x40)\n      tag_29\n      swap2\n      swap1\n      tag_25\n      jump\t// in\n    tag_29:\n      mload(0x40)\n      dup1\n      swap2\n      sub\n      swap1\n      return\n        /* \"loyalnames.sol\":1783:1908  function setPersonalizedName(address account, string memory name) external {... */\n    tag_7:\n      tag_30\n      0x04\n      dup1\n      calldatasize\n      sub\n      dup2\n      add\n      swap1\n      tag_31\n      swap2\n      swap1\n      tag_32\n      jump\t// in\n    tag_31:\n      tag_33\n      jump\t// in\n    tag_30:\n      stop\n        /* \"loyalnames.sol\":1598:1777  function setLoyaltyLevel(address account, uint level) external {... */\n    tag_8:\n      tag_34\n      0x04\n      dup1\n      calldatasize\n      sub\n      dup2\n      add\n      swap1\n      tag_35\n      swap2\n      swap1\n      tag_13\n      jump\t// in\n    tag_35:\n      tag_36\n      jump\t// in\n    tag_34:\n      stop\n        /* \"loyalnames.sol\":714:1413  function payTrip(address sender, address recipient, uint amountUSDT) external {... */\n    tag_9:\n      tag_37\n      0x04\n      dup1\n      calldatasize\n      sub\n      dup2\n      add\n      swap1\n      tag_38\n      swap2\n      swap1\n      tag_39\n      jump\t// in\n    tag_38:\n      tag_40\n      jump\t// in\n    tag_37:\n      stop\n        /* \"loyalnames.sol\":1419:1592  function setInitialBalance(address account, uint amountUSDT) external {... */\n    tag_14:\n        /* \"loyalnames.sol\":1521:1522  0 */\n      0x00\n        /* \"loyalnames.sol\":1507:1517  amountUSDT */\n      dup2\n        /* \"loyalnames.sol\":1507:1522  amountUSDT >= 0 */\n      lt\n      iszero\n        /* \"loyalnames.sol\":1499:1541  require(amountUSDT >= 0, \"Invalid amount\") */\n      tag_42\n      jumpi\n      mload(0x40)\n      0x08c379a000000000000000000000000000000000000000000000000000000000\n      dup2\n      mstore\n      0x04\n      add\n      tag_43\n      swap1\n      tag_44\n      jump\t// in\n    tag_43:\n      mload(0x40)\n      dup1\n      swap2\n      sub\n      swap1\n      revert\n    tag_42:\n        /* \"loyalnames.sol\":1575:1585  amountUSDT */\n      dup1\n        /* \"loyalnames.sol\":1551:1563  balancesUSDT */\n      0x01\n        /* \"loyalnames.sol\":1551:1572  balancesUSDT[account] */\n      0x00\n        /* \"loyalnames.sol\":1564:1571  account */\n      dup5\n        /* \"loyalnames.sol\":1551:1572  balancesUSDT[account] */\n      0xffffffffffffffffffffffffffffffffffffffff\n      and\n      0xffffffffffffffffffffffffffffffffffffffff\n      and\n      dup2\n      mstore\n      0x20\n      add\n      swap1\n      dup2\n      mstore\n      0x20\n      add\n      0x00\n      keccak256\n        /* \"loyalnames.sol\":1551:1585  balancesUSDT[account] = amountUSDT */\n      dup2\n      swap1\n      sstore\n      pop\n        /* \"loyalnames.sol\":1419:1592  function setInitialBalance(address account, uint amountUSDT) external {... */\n      pop\n      pop\n      jump\t// out\n        /* \"loyalnames.sol\":378:429  mapping(address => string) public personalizedNames */\n    tag_18:\n      mstore(0x20, 0x03)\n      dup1\n      0x00\n      mstore\n      keccak256(0x00, 0x40)\n      0x00\n      swap2\n      pop\n      swap1\n      pop\n      dup1\n      sload\n      tag_45\n      swap1\n      tag_46\n      jump\t// in\n    tag_45:\n      dup1\n      0x1f\n      add\n      0x20\n      dup1\n      swap2\n      div\n      mul\n      0x20\n      add\n      mload(0x40)\n      swap1\n      dup2\n      add\n      0x40\n      mstore\n      dup1\n      swap3\n      swap2\n      swap1\n      dup2\n      dup2\n      mstore\n      0x20\n      add\n      dup3\n      dup1\n      sload\n      tag_47\n      swap1\n      tag_46\n      jump\t// in\n    tag_47:\n      dup1\n      iszero\n      tag_48\n      jumpi\n      dup1\n      0x1f\n      lt\n      tag_49\n      jumpi\n      0x0100\n      dup1\n      dup4\n      sload\n      div\n      mul\n      dup4\n      mstore\n      swap2\n      0x20\n      add\n      swap2\n      jump(tag_48)\n    tag_49:\n      dup3\n      add\n      swap2\n      swap1\n      0x00\n      mstore\n      keccak256(0x00, 0x20)\n      swap1\n    tag_50:\n      dup2\n      sload\n      dup2\n      mstore\n      swap1\n      0x01\n      add\n      swap1\n      0x20\n      add\n      dup1\n      dup4\n      gt\n      tag_50\n      jumpi\n      dup3\n      swap1\n      sub\n      0x1f\n      and\n      dup3\n      add\n      swap2\n    tag_48:\n      pop\n      pop\n      pop\n      pop\n      pop\n      dup2\n      jump\t// out\n        /* \"loyalnames.sol\":172:216  mapping(address => uint) public balancesUSDT */\n    tag_23:\n      mstore(0x20, 0x01)\n      dup1\n      0x00\n      mstore\n      keccak256(0x00, 0x40)\n      0x00\n      swap2\n      pop\n      swap1\n      pop\n      sload\n      dup2\n      jump\t// out\n        /* \"loyalnames.sol\":291:336  mapping(address => uint) public loyaltyLevels */\n    tag_28:\n      mstore(0x20, 0x02)\n      dup1\n      0x00\n      mstore\n      keccak256(0x00, 0x40)\n      0x00\n      swap2\n      pop\n      swap1\n      pop\n      sload\n      dup2\n      jump\t// out\n        /* \"loyalnames.sol\":1783:1908  function setPersonalizedName(address account, string memory name) external {... */\n    tag_33:\n        /* \"loyalnames.sol\":1897:1901  name */\n      dup1\n        /* \"loyalnames.sol\":1868:1885  personalizedNames */\n      0x03\n        /* \"loyalnames.sol\":1868:1894  personalizedNames[account] */\n      0x00\n        /* \"loyalnames.sol\":1886:1893  account */\n      dup5\n        /* \"loyalnames.sol\":1868:1894  personalizedNames[account] */\n      0xffffffffffffffffffffffffffffffffffffffff\n      and\n      0xffffffffffffffffffffffffffffffffffffffff\n      and\n      dup2\n      mstore\n      0x20\n      add\n      swap1\n      dup2\n      mstore\n      0x20\n      add\n      0x00\n      keccak256\n        /* \"loyalnames.sol\":1868:1901  personalizedNames[account] = name */\n      swap1\n      dup2\n      tag_52\n      swap2\n      swap1\n      tag_53\n      jump\t// in\n    tag_52:\n      pop\n        /* \"loyalnames.sol\":1783:1908  function setPersonalizedName(address account, string memory name) external {... */\n      pop\n      pop\n      jump\t// out\n        /* \"loyalnames.sol\":1598:1777  function setLoyaltyLevel(address account, uint level) external {... */\n    tag_36:\n        /* \"loyalnames.sol\":1688:1689  1 */\n      0x01\n        /* \"loyalnames.sol\":1679:1684  level */\n      dup2\n        /* \"loyalnames.sol\":1679:1689  level >= 1 */\n      lt\n      iszero\n        /* \"loyalnames.sol\":1679:1704  level >= 1 && level <= 10 */\n      dup1\n      iszero\n      tag_55\n      jumpi\n      pop\n        /* \"loyalnames.sol\":1702:1704  10 */\n      0x0a\n        /* \"loyalnames.sol\":1693:1698  level */\n      dup2\n        /* \"loyalnames.sol\":1693:1704  level <= 10 */\n      gt\n      iszero\n        /* \"loyalnames.sol\":1679:1704  level >= 1 && level <= 10 */\n    tag_55:\n        /* \"loyalnames.sol\":1671:1730  require(level >= 1 && level <= 10, \"Invalid loyalty level\") */\n      tag_56\n      jumpi\n      mload(0x40)\n      0x08c379a000000000000000000000000000000000000000000000000000000000\n      dup2\n      mstore\n      0x04\n      add\n      tag_57\n      swap1\n      tag_58\n      jump\t// in\n    tag_57:\n      mload(0x40)\n      dup1\n      swap2\n      sub\n      swap1\n      revert\n    tag_56:\n        /* \"loyalnames.sol\":1765:1770  level */\n      dup1\n        /* \"loyalnames.sol\":1740:1753  loyaltyLevels */\n      0x02\n        /* \"loyalnames.sol\":1740:1762  loyaltyLevels[account] */\n      0x00\n        /* \"loyalnames.sol\":1754:1761  account */\n      dup5\n        /* \"loyalnames.sol\":1740:1762  loyaltyLevels[account] */\n      0xffffffffffffffffffffffffffffffffffffffff\n      and\n      0xffffffffffffffffffffffffffffffffffffffff\n      and\n      dup2\n      mstore\n      0x20\n      add\n      swap1\n      dup2\n      mstore\n      0x20\n      add\n      0x00\n      keccak256\n        /* \"loyalnames.sol\":1740:1770  loyaltyLevels[account] = level */\n      dup2\n      swap1\n      sstore\n      pop\n        /* \"loyalnames.sol\":1598:1777  function setLoyaltyLevel(address account, uint level) external {... */\n      pop\n      pop\n      jump\t// out\n        /* \"loyalnames.sol\":714:1413  function payTrip(address sender, address recipient, uint amountUSDT) external {... */\n    tag_40:\n        /* \"loyalnames.sol\":823:824  0 */\n      0x00\n        /* \"loyalnames.sol\":810:820  amountUSDT */\n      dup2\n        /* \"loyalnames.sol\":810:824  amountUSDT > 0 */\n      gt\n        /* \"loyalnames.sol\":802:843  require(amountUSDT > 0, \"Invalid amount\") */\n      tag_60\n      jumpi\n      mload(0x40)\n      0x08c379a000000000000000000000000000000000000000000000000000000000\n      dup2\n      mstore\n      0x04\n      add\n      tag_61\n      swap1\n      tag_44\n      jump\t// in\n    tag_61:\n      mload(0x40)\n      dup1\n      swap2\n      sub\n      swap1\n      revert\n    tag_60:\n        /* \"loyalnames.sol\":854:874  uint discountPercent */\n      0x00\n        /* \"loyalnames.sol\":877:890  loyaltyLevels */\n      0x02\n        /* \"loyalnames.sol\":877:898  loyaltyLevels[sender] */\n      0x00\n        /* \"loyalnames.sol\":891:897  sender */\n      dup6\n        /* \"loyalnames.sol\":877:898  loyaltyLevels[sender] */\n      0xffffffffffffffffffffffffffffffffffffffff\n      and\n      0xffffffffffffffffffffffffffffffffffffffff\n      and\n      dup2\n      mstore\n      0x20\n      add\n      swap1\n      dup2\n      mstore\n      0x20\n      add\n      0x00\n      keccak256\n      sload\n        /* \"loyalnames.sol\":854:898  uint discountPercent = loyaltyLevels[sender] */\n      swap1\n      pop\n        /* \"loyalnames.sol\":908:927  uint discountAmount */\n      0x00\n        /* \"loyalnames.sol\":963:966  100 */\n      0x64\n        /* \"loyalnames.sol\":944:959  discountPercent */\n      dup3\n        /* \"loyalnames.sol\":931:941  amountUSDT */\n      dup5\n        /* \"loyalnames.sol\":931:959  amountUSDT * discountPercent */\n      tag_62\n      swap2\n      swap1\n      tag_63\n      jump\t// in\n    tag_62:\n        /* \"loyalnames.sol\":930:966  (amountUSDT * discountPercent) / 100 */\n      tag_64\n      swap2\n      swap1\n      tag_65\n      jump\t// in\n    tag_64:\n        /* \"loyalnames.sol\":908:966  uint discountAmount = (amountUSDT * discountPercent) / 100 */\n      swap1\n      pop\n        /* \"loyalnames.sol\":976:994  uint payableAmount */\n      0x00\n        /* \"loyalnames.sol\":1010:1024  discountAmount */\n      dup2\n        /* \"loyalnames.sol\":997:1007  amountUSDT */\n      dup5\n        /* \"loyalnames.sol\":997:1024  amountUSDT - discountAmount */\n      tag_66\n      swap2\n      swap1\n      tag_67\n      jump\t// in\n    tag_66:\n        /* \"loyalnames.sol\":976:1024  uint payableAmount = amountUSDT - discountAmount */\n      swap1\n      pop\n        /* \"loyalnames.sol\":1067:1080  payableAmount */\n      dup1\n        /* \"loyalnames.sol\":1043:1055  balancesUSDT */\n      0x01\n        /* \"loyalnames.sol\":1043:1063  balancesUSDT[sender] */\n      0x00\n        /* \"loyalnames.sol\":1056:1062  sender */\n      dup9\n        /* \"loyalnames.sol\":1043:1063  balancesUSDT[sender] */\n      0xffffffffffffffffffffffffffffffffffffffff\n      and\n      0xffffffffffffffffffffffffffffffffffffffff\n      and\n      dup2\n      mstore\n      0x20\n      add\n      swap1\n      dup2\n      mstore\n      0x20\n      add\n      0x00\n      keccak256\n      sload\n        /* \"loyalnames.sol\":1043:1080  balancesUSDT[sender] >= payableAmount */\n      lt\n      iszero\n        /* \"loyalnames.sol\":1035:1105  require(balancesUSDT[sender] >= payableAmount, \"Insufficient balance\") */\n      tag_68\n      jumpi\n      mload(0x40)\n      0x08c379a000000000000000000000000000000000000000000000000000000000\n      dup2\n      mstore\n      0x04\n      add\n      tag_69\n      swap1\n      tag_70\n      jump\t// in\n    tag_69:\n      mload(0x40)\n      dup1\n      swap2\n      sub\n      swap1\n      revert\n    tag_68:\n        /* \"loyalnames.sol\":1140:1153  payableAmount */\n      dup1\n        /* \"loyalnames.sol\":1116:1128  balancesUSDT */\n      0x01\n        /* \"loyalnames.sol\":1116:1136  balancesUSDT[sender] */\n      0x00\n        /* \"loyalnames.sol\":1129:1135  sender */\n      dup9\n        /* \"loyalnames.sol\":1116:1136  balancesUSDT[sender] */\n      0xffffffffffffffffffffffffffffffffffffffff\n      and\n      0xffffffffffffffffffffffffffffffffffffffff\n      and\n      dup2\n      mstore\n      0x20\n      add\n      swap1\n      dup2\n      mstore\n      0x20\n      add\n      0x00\n      keccak256\n      0x00\n        /* \"loyalnames.sol\":1116:1153  balancesUSDT[sender] -= payableAmount */\n      dup3\n      dup3\n      sload\n      tag_71\n      swap2\n      swap1\n      tag_67\n      jump\t// in\n    tag_71:\n      swap3\n      pop\n      pop\n      dup2\n      swap1\n      sstore\n      pop\n        /* \"loyalnames.sol\":1246:1256  amountUSDT */\n      dup4\n        /* \"loyalnames.sol\":1219:1231  balancesUSDT */\n      0x01\n        /* \"loyalnames.sol\":1219:1242  balancesUSDT[recipient] */\n      0x00\n        /* \"loyalnames.sol\":1232:1241  recipient */\n      dup8\n        /* \"loyalnames.sol\":1219:1242  balancesUSDT[recipient] */\n      0xffffffffffffffffffffffffffffffffffffffff\n      and\n      0xffffffffffffffffffffffffffffffffffffffff\n      and\n      dup2\n      mstore\n      0x20\n      add\n      swap1\n      dup2\n      mstore\n      0x20\n      add\n      0x00\n      keccak256\n      0x00\n        /* \"loyalnames.sol\":1219:1256  balancesUSDT[recipient] += amountUSDT */\n      dup3\n      dup3\n      sload\n      tag_72\n      swap2\n      swap1\n      tag_73\n      jump\t// in\n    tag_72:\n      swap3\n      pop\n      pop\n      dup2\n      swap1\n      sstore\n      pop\n        /* \"loyalnames.sol\":1373:1382  recipient */\n      dup5\n        /* \"loyalnames.sol\":1326:1406  Transaction(sender, personalizedNames[sender], recipient, payableAmount, \"USDT\") */\n      0xffffffffffffffffffffffffffffffffffffffff\n      and\n        /* \"loyalnames.sol\":1338:1344  sender */\n      dup7\n        /* \"loyalnames.sol\":1326:1406  Transaction(sender, personalizedNames[sender], recipient, payableAmount, \"USDT\") */\n      0xffffffffffffffffffffffffffffffffffffffff\n      and\n      0x2d10da11c03458ba24a6a930bb71c9b4808efd7018671297c18be4945ef0a062\n        /* \"loyalnames.sol\":1346:1363  personalizedNames */\n      0x03\n        /* \"loyalnames.sol\":1346:1371  personalizedNames[sender] */\n      0x00\n        /* \"loyalnames.sol\":1364:1370  sender */\n      dup11\n        /* \"loyalnames.sol\":1346:1371  personalizedNames[sender] */\n      0xffffffffffffffffffffffffffffffffffffffff\n      and\n      0xffffffffffffffffffffffffffffffffffffffff\n      and\n      dup2\n      mstore\n      0x20\n      add\n      swap1\n      dup2\n      mstore\n      0x20\n      add\n      0x00\n      keccak256\n        /* \"loyalnames.sol\":1384:1397  payableAmount */\n      dup5\n        /* \"loyalnames.sol\":1326:1406  Transaction(sender, personalizedNames[sender], recipient, payableAmount, \"USDT\") */\n      mload(0x40)\n      tag_74\n      swap3\n      swap2\n      swap1\n      tag_75\n      jump\t// in\n    tag_74:\n      mload(0x40)\n      dup1\n      swap2\n      sub\n      swap1\n      log3\n        /* \"loyalnames.sol\":792:1413  {... */\n      pop\n      pop\n      pop\n        /* \"loyalnames.sol\":714:1413  function payTrip(address sender, address recipient, uint amountUSDT) external {... */\n      pop\n      pop\n      pop\n      jump\t// out\n        /* \"#utility.yul\":7:82   */\n    tag_76:\n        /* \"#utility.yul\":40:46   */\n      0x00\n        /* \"#utility.yul\":73:75   */\n      0x40\n        /* \"#utility.yul\":67:76   */\n      mload\n        /* \"#utility.yul\":57:76   */\n      swap1\n      pop\n        /* \"#utility.yul\":7:82   */\n      swap1\n      jump\t// out\n        /* \"#utility.yul\":88:205   */\n    tag_77:\n        /* \"#utility.yul\":197:198   */\n      0x00\n        /* \"#utility.yul\":194:195   */\n      dup1\n        /* \"#utility.yul\":187:199   */\n      revert\n        /* \"#utility.yul\":211:328   */\n    tag_78:\n        /* \"#utility.yul\":320:321   */\n      0x00\n        /* \"#utility.yul\":317:318   */\n      dup1\n        /* \"#utility.yul\":310:322   */\n      revert\n        /* \"#utility.yul\":334:460   */\n    tag_79:\n        /* \"#utility.yul\":371:378   */\n      0x00\n        /* \"#utility.yul\":411:453   */\n      0xffffffffffffffffffffffffffffffffffffffff\n        /* \"#utility.yul\":404:409   */\n      dup3\n        /* \"#utility.yul\":400:454   */\n      and\n        /* \"#utility.yul\":389:454   */\n      swap1\n      pop\n        /* \"#utility.yul\":334:460   */\n      swap2\n      swap1\n      pop\n      jump\t// out\n        /* \"#utility.yul\":466:562   */\n    tag_80:\n        /* \"#utility.yul\":503:510   */\n      0x00\n        /* \"#utility.yul\":532:556   */\n      tag_134\n        /* \"#utility.yul\":550:555   */\n      dup3\n        /* \"#utility.yul\":532:556   */\n      tag_79\n      jump\t// in\n    tag_134:\n        /* \"#utility.yul\":521:556   */\n      swap1\n      pop\n        /* \"#utility.yul\":466:562   */\n      swap2\n      swap1\n      pop\n      jump\t// out\n        /* \"#utility.yul\":568:690   */\n    tag_81:\n        /* \"#utility.yul\":641:665   */\n      tag_136\n        /* \"#utility.yul\":659:664   */\n      dup2\n        /* \"#utility.yul\":641:665   */\n      tag_80\n      jump\t// in\n    tag_136:\n        /* \"#utility.yul\":634:639   */\n      dup2\n        /* \"#utility.yul\":631:666   */\n      eq\n        /* \"#utility.yul\":621:684   */\n      tag_137\n      jumpi\n        /* \"#utility.yul\":680:681   */\n      0x00\n        /* \"#utility.yul\":677:678   */\n      dup1\n        /* \"#utility.yul\":670:682   */\n      revert\n        /* \"#utility.yul\":621:684   */\n    tag_137:\n        /* \"#utility.yul\":568:690   */\n      pop\n      jump\t// out\n        /* \"#utility.yul\":696:835   */\n    tag_82:\n        /* \"#utility.yul\":742:747   */\n      0x00\n        /* \"#utility.yul\":780:786   */\n      dup2\n        /* \"#utility.yul\":767:787   */\n      calldataload\n        /* \"#utility.yul\":758:787   */\n      swap1\n      pop\n        /* \"#utility.yul\":796:829   */\n      tag_139\n        /* \"#utility.yul\":823:828   */\n      dup2\n        /* \"#utility.yul\":796:829   */\n      tag_81\n      jump\t// in\n    tag_139:\n        /* \"#utility.yul\":696:835   */\n      swap3\n      swap2\n      pop\n      pop\n      jump\t// out\n        /* \"#utility.yul\":841:918   */\n    tag_83:\n        /* \"#utility.yul\":878:885   */\n      0x00\n        /* \"#utility.yul\":907:912   */\n      dup2\n        /* \"#utility.yul\":896:912   */\n      swap1\n      pop\n        /* \"#utility.yul\":841:918   */\n      swap2\n      swap1\n      pop\n      jump\t// out\n        /* \"#utility.yul\":924:1046   */\n    tag_84:\n        /* \"#utility.yul\":997:1021   */\n      tag_142\n        /* \"#utility.yul\":1015:1020   */\n      dup2\n        /* \"#utility.yul\":997:1021   */\n      tag_83\n      jump\t// in\n    tag_142:\n        /* \"#utility.yul\":990:995   */\n      dup2\n        /* \"#utility.yul\":987:1022   */\n      eq\n        /* \"#utility.yul\":977:1040   */\n      tag_143\n      jumpi\n        /* \"#utility.yul\":1036:1037   */\n      0x00\n        /* \"#utility.yul\":1033:1034   */\n      dup1\n        /* \"#utility.yul\":1026:1038   */\n      revert\n        /* \"#utility.yul\":977:1040   */\n    tag_143:\n        /* \"#utility.yul\":924:1046   */\n      pop\n      jump\t// out\n        /* \"#utility.yul\":1052:1191   */\n    tag_85:\n        /* \"#utility.yul\":1098:1103   */\n      0x00\n        /* \"#utility.yul\":1136:1142   */\n      dup2\n        /* \"#utility.yul\":1123:1143   */\n      calldataload\n        /* \"#utility.yul\":1114:1143   */\n      swap1\n      pop\n        /* \"#utility.yul\":1152:1185   */\n      tag_145\n        /* \"#utility.yul\":1179:1184   */\n      dup2\n        /* \"#utility.yul\":1152:1185   */\n      tag_84\n      jump\t// in\n    tag_145:\n        /* \"#utility.yul\":1052:1191   */\n      swap3\n      swap2\n      pop\n      pop\n      jump\t// out\n        /* \"#utility.yul\":1197:1671   */\n    tag_13:\n        /* \"#utility.yul\":1265:1271   */\n      0x00\n        /* \"#utility.yul\":1273:1279   */\n      dup1\n        /* \"#utility.yul\":1322:1324   */\n      0x40\n        /* \"#utility.yul\":1310:1319   */\n      dup4\n        /* \"#utility.yul\":1301:1308   */\n      dup6\n        /* \"#utility.yul\":1297:1320   */\n      sub\n        /* \"#utility.yul\":1293:1325   */\n      slt\n        /* \"#utility.yul\":1290:1409   */\n      iszero\n      tag_147\n      jumpi\n        /* \"#utility.yul\":1328:1407   */\n      tag_148\n      tag_77\n      jump\t// in\n    tag_148:\n        /* \"#utility.yul\":1290:1409   */\n    tag_147:\n        /* \"#utility.yul\":1448:1449   */\n      0x00\n        /* \"#utility.yul\":1473:1526   */\n      tag_149\n        /* \"#utility.yul\":1518:1525   */\n      dup6\n        /* \"#utility.yul\":1509:1515   */\n      dup3\n        /* \"#utility.yul\":1498:1507   */\n      dup7\n        /* \"#utility.yul\":1494:1516   */\n      add\n        /* \"#utility.yul\":1473:1526   */\n      tag_82\n      jump\t// in\n    tag_149:\n        /* \"#utility.yul\":1463:1526   */\n      swap3\n      pop\n        /* \"#utility.yul\":1419:1536   */\n      pop\n        /* \"#utility.yul\":1575:1577   */\n      0x20\n        /* \"#utility.yul\":1601:1654   */\n      tag_150\n        /* \"#utility.yul\":1646:1653   */\n      dup6\n        /* \"#utility.yul\":1637:1643   */\n      dup3\n        /* \"#utility.yul\":1626:1635   */\n      dup7\n        /* \"#utility.yul\":1622:1644   */\n      add\n        /* \"#utility.yul\":1601:1654   */\n      tag_85\n      jump\t// in\n    tag_150:\n        /* \"#utility.yul\":1591:1654   */\n      swap2\n      pop\n        /* \"#utility.yul\":1546:1664   */\n      pop\n        /* \"#utility.yul\":1197:1671   */\n      swap3\n      pop\n      swap3\n      swap1\n      pop\n      jump\t// out\n        /* \"#utility.yul\":1677:2006   */\n    tag_17:\n        /* \"#utility.yul\":1736:1742   */\n      0x00\n        /* \"#utility.yul\":1785:1787   */\n      0x20\n        /* \"#utility.yul\":1773:1782   */\n      dup3\n        /* \"#utility.yul\":1764:1771   */\n      dup5\n        /* \"#utility.yul\":1760:1783   */\n      sub\n        /* \"#utility.yul\":1756:1788   */\n      slt\n        /* \"#utility.yul\":1753:1872   */\n      iszero\n      tag_152\n      jumpi\n        /* \"#utility.yul\":1791:1870   */\n      tag_153\n      tag_77\n      jump\t// in\n    tag_153:\n        /* \"#utility.yul\":1753:1872   */\n    tag_152:\n        /* \"#utility.yul\":1911:1912   */\n      0x00\n        /* \"#utility.yul\":1936:1989   */\n      tag_154\n        /* \"#utility.yul\":1981:1988   */\n      dup5\n        /* \"#utility.yul\":1972:1978   */\n      dup3\n        /* \"#utility.yul\":1961:1970   */\n      dup6\n        /* \"#utility.yul\":1957:1979   */\n      add\n        /* \"#utility.yul\":1936:1989   */\n      tag_82\n      jump\t// in\n    tag_154:\n        /* \"#utility.yul\":1926:1989   */\n      swap2\n      pop\n        /* \"#utility.yul\":1882:1999   */\n      pop\n        /* \"#utility.yul\":1677:2006   */\n      swap3\n      swap2\n      pop\n      pop\n      jump\t// out\n        /* \"#utility.yul\":2012:2111   */\n    tag_86:\n        /* \"#utility.yul\":2064:2070   */\n      0x00\n        /* \"#utility.yul\":2098:2103   */\n      dup2\n        /* \"#utility.yul\":2092:2104   */\n      mload\n        /* \"#utility.yul\":2082:2104   */\n      swap1\n      pop\n        /* \"#utility.yul\":2012:2111   */\n      swap2\n      swap1\n      pop\n      jump\t// out\n        /* \"#utility.yul\":2117:2286   */\n    tag_87:\n        /* \"#utility.yul\":2201:2212   */\n      0x00\n        /* \"#utility.yul\":2235:2241   */\n      dup3\n        /* \"#utility.yul\":2230:2233   */\n      dup3\n        /* \"#utility.yul\":2223:2242   */\n      mstore\n        /* \"#utility.yul\":2275:2279   */\n      0x20\n        /* \"#utility.yul\":2270:2273   */\n      dup3\n        /* \"#utility.yul\":2266:2280   */\n      add\n        /* \"#utility.yul\":2251:2280   */\n      swap1\n      pop\n        /* \"#utility.yul\":2117:2286   */\n      swap3\n      swap2\n      pop\n      pop\n      jump\t// out\n        /* \"#utility.yul\":2292:2538   */\n    tag_88:\n        /* \"#utility.yul\":2373:2374   */\n      0x00\n        /* \"#utility.yul\":2383:2496   */\n    tag_158:\n        /* \"#utility.yul\":2397:2403   */\n      dup4\n        /* \"#utility.yul\":2394:2395   */\n      dup2\n        /* \"#utility.yul\":2391:2404   */\n      lt\n        /* \"#utility.yul\":2383:2496   */\n      iszero\n      tag_160\n      jumpi\n        /* \"#utility.yul\":2482:2483   */\n      dup1\n        /* \"#utility.yul\":2477:2480   */\n      dup3\n        /* \"#utility.yul\":2473:2484   */\n      add\n        /* \"#utility.yul\":2467:2485   */\n      mload\n        /* \"#utility.yul\":2463:2464   */\n      dup2\n        /* \"#utility.yul\":2458:2461   */\n      dup5\n        /* \"#utility.yul\":2454:2465   */\n      add\n        /* \"#utility.yul\":2447:2486   */\n      mstore\n        /* \"#utility.yul\":2419:2421   */\n      0x20\n        /* \"#utility.yul\":2416:2417   */\n      dup2\n        /* \"#utility.yul\":2412:2422   */\n      add\n        /* \"#utility.yul\":2407:2422   */\n      swap1\n      pop\n        /* \"#utility.yul\":2383:2496   */\n      jump(tag_158)\n    tag_160:\n        /* \"#utility.yul\":2530:2531   */\n      0x00\n        /* \"#utility.yul\":2521:2527   */\n      dup5\n        /* \"#utility.yul\":2516:2519   */\n      dup5\n        /* \"#utility.yul\":2512:2528   */\n      add\n        /* \"#utility.yul\":2505:2532   */\n      mstore\n        /* \"#utility.yul\":2354:2538   */\n      pop\n        /* \"#utility.yul\":2292:2538   */\n      pop\n      pop\n      pop\n      jump\t// out\n        /* \"#utility.yul\":2544:2646   */\n    tag_89:\n        /* \"#utility.yul\":2585:2591   */\n      0x00\n        /* \"#utility.yul\":2636:2638   */\n      0x1f\n        /* \"#utility.yul\":2632:2639   */\n      not\n        /* \"#utility.yul\":2627:2629   */\n      0x1f\n        /* \"#utility.yul\":2620:2625   */\n      dup4\n        /* \"#utility.yul\":2616:2630   */\n      add\n        /* \"#utility.yul\":2612:2640   */\n      and\n        /* \"#utility.yul\":2602:2640   */\n      swap1\n      pop\n        /* \"#utility.yul\":2544:2646   */\n      swap2\n      swap1\n      pop\n      jump\t// out\n        /* \"#utility.yul\":2652:3029   */\n    tag_90:\n        /* \"#utility.yul\":2740:2743   */\n      0x00\n        /* \"#utility.yul\":2768:2807   */\n      tag_163\n        /* \"#utility.yul\":2801:2806   */\n      dup3\n        /* \"#utility.yul\":2768:2807   */\n      tag_86\n      jump\t// in\n    tag_163:\n        /* \"#utility.yul\":2823:2894   */\n      tag_164\n        /* \"#utility.yul\":2887:2893   */\n      dup2\n        /* \"#utility.yul\":2882:2885   */\n      dup6\n        /* \"#utility.yul\":2823:2894   */\n      tag_87\n      jump\t// in\n    tag_164:\n        /* \"#utility.yul\":2816:2894   */\n      swap4\n      pop\n        /* \"#utility.yul\":2903:2968   */\n      tag_165\n        /* \"#utility.yul\":2961:2967   */\n      dup2\n        /* \"#utility.yul\":2956:2959   */\n      dup6\n        /* \"#utility.yul\":2949:2953   */\n      0x20\n        /* \"#utility.yul\":2942:2947   */\n      dup7\n        /* \"#utility.yul\":2938:2954   */\n      add\n        /* \"#utility.yul\":2903:2968   */\n      tag_88\n      jump\t// in\n    tag_165:\n        /* \"#utility.yul\":2993:3022   */\n      tag_166\n        /* \"#utility.yul\":3015:3021   */\n      dup2\n        /* \"#utility.yul\":2993:3022   */\n      tag_89\n      jump\t// in\n    tag_166:\n        /* \"#utility.yul\":2988:2991   */\n      dup5\n        /* \"#utility.yul\":2984:3023   */\n      add\n        /* \"#utility.yul\":2977:3023   */\n      swap2\n      pop\n        /* \"#utility.yul\":2744:3029   */\n      pop\n        /* \"#utility.yul\":2652:3029   */\n      swap3\n      swap2\n      pop\n      pop\n      jump\t// out\n        /* \"#utility.yul\":3035:3348   */\n    tag_20:\n        /* \"#utility.yul\":3148:3152   */\n      0x00\n        /* \"#utility.yul\":3186:3188   */\n      0x20\n        /* \"#utility.yul\":3175:3184   */\n      dup3\n        /* \"#utility.yul\":3171:3189   */\n      add\n        /* \"#utility.yul\":3163:3189   */\n      swap1\n      pop\n        /* \"#utility.yul\":3235:3244   */\n      dup2\n        /* \"#utility.yul\":3229:3233   */\n      dup2\n        /* \"#utility.yul\":3225:3245   */\n      sub\n        /* \"#utility.yul\":3221:3222   */\n      0x00\n        /* \"#utility.yul\":3210:3219   */\n      dup4\n        /* \"#utility.yul\":3206:3223   */\n      add\n        /* \"#utility.yul\":3199:3246   */\n      mstore\n        /* \"#utility.yul\":3263:3341   */\n      tag_168\n        /* \"#utility.yul\":3336:3340   */\n      dup2\n        /* \"#utility.yul\":3327:3333   */\n      dup5\n        /* \"#utility.yul\":3263:3341   */\n      tag_90\n      jump\t// in\n    tag_168:\n        /* \"#utility.yul\":3255:3341   */\n      swap1\n      pop\n        /* \"#utility.yul\":3035:3348   */\n      swap3\n      swap2\n      pop\n      pop\n      jump\t// out\n        /* \"#utility.yul\":3354:3472   */\n    tag_91:\n        /* \"#utility.yul\":3441:3465   */\n      tag_170\n        /* \"#utility.yul\":3459:3464   */\n      dup2\n        /* \"#utility.yul\":3441:3465   */\n      tag_83\n      jump\t// in\n    tag_170:\n        /* \"#utility.yul\":3436:3439   */\n      dup3\n        /* \"#utility.yul\":3429:3466   */\n      mstore\n        /* \"#utility.yul\":3354:3472   */\n      pop\n      pop\n      jump\t// out\n        /* \"#utility.yul\":3478:3700   */\n    tag_25:\n        /* \"#utility.yul\":3571:3575   */\n      0x00\n        /* \"#utility.yul\":3609:3611   */\n      0x20\n        /* \"#utility.yul\":3598:3607   */\n      dup3\n        /* \"#utility.yul\":3594:3612   */\n      add\n        /* \"#utility.yul\":3586:3612   */\n      swap1\n      pop\n        /* \"#utility.yul\":3622:3693   */\n      tag_172\n        /* \"#utility.yul\":3690:3691   */\n      0x00\n        /* \"#utility.yul\":3679:3688   */\n      dup4\n        /* \"#utility.yul\":3675:3692   */\n      add\n        /* \"#utility.yul\":3666:3672   */\n      dup5\n        /* \"#utility.yul\":3622:3693   */\n      tag_91\n      jump\t// in\n    tag_172:\n        /* \"#utility.yul\":3478:3700   */\n      swap3\n      swap2\n      pop\n      pop\n      jump\t// out\n        /* \"#utility.yul\":3706:3823   */\n    tag_92:\n        /* \"#utility.yul\":3815:3816   */\n      0x00\n        /* \"#utility.yul\":3812:3813   */\n      dup1\n        /* \"#utility.yul\":3805:3817   */\n      revert\n        /* \"#utility.yul\":3829:3946   */\n    tag_93:\n        /* \"#utility.yul\":3938:3939   */\n      0x00\n        /* \"#utility.yul\":3935:3936   */\n      dup1\n        /* \"#utility.yul\":3928:3940   */\n      revert\n        /* \"#utility.yul\":3952:4132   */\n    tag_94:\n        /* \"#utility.yul\":4000:4077   */\n      0x4e487b7100000000000000000000000000000000000000000000000000000000\n        /* \"#utility.yul\":3997:3998   */\n      0x00\n        /* \"#utility.yul\":3990:4078   */\n      mstore\n        /* \"#utility.yul\":4097:4101   */\n      0x41\n        /* \"#utility.yul\":4094:4095   */\n      0x04\n        /* \"#utility.yul\":4087:4102   */\n      mstore\n        /* \"#utility.yul\":4121:4125   */\n      0x24\n        /* \"#utility.yul\":4118:4119   */\n      0x00\n        /* \"#utility.yul\":4111:4126   */\n      revert\n        /* \"#utility.yul\":4138:4419   */\n    tag_95:\n        /* \"#utility.yul\":4221:4248   */\n      tag_177\n        /* \"#utility.yul\":4243:4247   */\n      dup3\n        /* \"#utility.yul\":4221:4248   */\n      tag_89\n      jump\t// in\n    tag_177:\n        /* \"#utility.yul\":4213:4219   */\n      dup2\n        /* \"#utility.yul\":4209:4249   */\n      add\n        /* \"#utility.yul\":4351:4357   */\n      dup2\n        /* \"#utility.yul\":4339:4349   */\n      dup2\n        /* \"#utility.yul\":4336:4358   */\n      lt\n        /* \"#utility.yul\":4315:4333   */\n      0xffffffffffffffff\n        /* \"#utility.yul\":4303:4313   */\n      dup3\n        /* \"#utility.yul\":4300:4334   */\n      gt\n        /* \"#utility.yul\":4297:4359   */\n      or\n        /* \"#utility.yul\":4294:4382   */\n      iszero\n      tag_178\n      jumpi\n        /* \"#utility.yul\":4362:4380   */\n      tag_179\n      tag_94\n      jump\t// in\n    tag_179:\n        /* \"#utility.yul\":4294:4382   */\n    tag_178:\n        /* \"#utility.yul\":4402:4412   */\n      dup1\n        /* \"#utility.yul\":4398:4400   */\n      0x40\n        /* \"#utility.yul\":4391:4413   */\n      mstore\n        /* \"#utility.yul\":4181:4419   */\n      pop\n        /* \"#utility.yul\":4138:4419   */\n      pop\n      pop\n      jump\t// out\n        /* \"#utility.yul\":4425:4554   */\n    tag_96:\n        /* \"#utility.yul\":4459:4465   */\n      0x00\n        /* \"#utility.yul\":4486:4506   */\n      tag_181\n      tag_76\n      jump\t// in\n    tag_181:\n        /* \"#utility.yul\":4476:4506   */\n      swap1\n      pop\n        /* \"#utility.yul\":4515:4548   */\n      tag_182\n        /* \"#utility.yul\":4543:4547   */\n      dup3\n        /* \"#utility.yul\":4535:4541   */\n      dup3\n        /* \"#utility.yul\":4515:4548   */\n      tag_95\n      jump\t// in\n    tag_182:\n        /* \"#utility.yul\":4425:4554   */\n      swap2\n      swap1\n      pop\n      jump\t// out\n        /* \"#utility.yul\":4560:4868   */\n    tag_97:\n        /* \"#utility.yul\":4622:4626   */\n      0x00\n        /* \"#utility.yul\":4712:4730   */\n      0xffffffffffffffff\n        /* \"#utility.yul\":4704:4710   */\n      dup3\n        /* \"#utility.yul\":4701:4731   */\n      gt\n        /* \"#utility.yul\":4698:4754   */\n      iszero\n      tag_184\n      jumpi\n        /* \"#utility.yul\":4734:4752   */\n      tag_185\n      tag_94\n      jump\t// in\n    tag_185:\n        /* \"#utility.yul\":4698:4754   */\n    tag_184:\n        /* \"#utility.yul\":4772:4801   */\n      tag_186\n        /* \"#utility.yul\":4794:4800   */\n      dup3\n        /* \"#utility.yul\":4772:4801   */\n      tag_89\n      jump\t// in\n    tag_186:\n        /* \"#utility.yul\":4764:4801   */\n      swap1\n      pop\n        /* \"#utility.yul\":4856:4860   */\n      0x20\n        /* \"#utility.yul\":4850:4854   */\n      dup2\n        /* \"#utility.yul\":4846:4861   */\n      add\n        /* \"#utility.yul\":4838:4861   */\n      swap1\n      pop\n        /* \"#utility.yul\":4560:4868   */\n      swap2\n      swap1\n      pop\n      jump\t// out\n        /* \"#utility.yul\":4874:5020   */\n    tag_98:\n        /* \"#utility.yul\":4971:4977   */\n      dup3\n        /* \"#utility.yul\":4966:4969   */\n      dup2\n        /* \"#utility.yul\":4961:4964   */\n      dup4\n        /* \"#utility.yul\":4948:4978   */\n      calldatacopy\n        /* \"#utility.yul\":5012:5013   */\n      0x00\n        /* \"#utility.yul\":5003:5009   */\n      dup4\n        /* \"#utility.yul\":4998:5001   */\n      dup4\n        /* \"#utility.yul\":4994:5010   */\n      add\n        /* \"#utility.yul\":4987:5014   */\n      mstore\n        /* \"#utility.yul\":4874:5020   */\n      pop\n      pop\n      pop\n      jump\t// out\n        /* \"#utility.yul\":5026:5451   */\n    tag_99:\n        /* \"#utility.yul\":5104:5109   */\n      0x00\n        /* \"#utility.yul\":5129:5195   */\n      tag_189\n        /* \"#utility.yul\":5145:5194   */\n      tag_190\n        /* \"#utility.yul\":5187:5193   */\n      dup5\n        /* \"#utility.yul\":5145:5194   */\n      tag_97\n      jump\t// in\n    tag_190:\n        /* \"#utility.yul\":5129:5195   */\n      tag_96\n      jump\t// in\n    tag_189:\n        /* \"#utility.yul\":5120:5195   */\n      swap1\n      pop\n        /* \"#utility.yul\":5218:5224   */\n      dup3\n        /* \"#utility.yul\":5211:5216   */\n      dup2\n        /* \"#utility.yul\":5204:5225   */\n      mstore\n        /* \"#utility.yul\":5256:5260   */\n      0x20\n        /* \"#utility.yul\":5249:5254   */\n      dup2\n        /* \"#utility.yul\":5245:5261   */\n      add\n        /* \"#utility.yul\":5294:5297   */\n      dup5\n        /* \"#utility.yul\":5285:5291   */\n      dup5\n        /* \"#utility.yul\":5280:5283   */\n      dup5\n        /* \"#utility.yul\":5276:5292   */\n      add\n        /* \"#utility.yul\":5273:5298   */\n      gt\n        /* \"#utility.yul\":5270:5382   */\n      iszero\n      tag_191\n      jumpi\n        /* \"#utility.yul\":5301:5380   */\n      tag_192\n      tag_93\n      jump\t// in\n    tag_192:\n        /* \"#utility.yul\":5270:5382   */\n    tag_191:\n        /* \"#utility.yul\":5391:5445   */\n      tag_193\n        /* \"#utility.yul\":5438:5444   */\n      dup5\n        /* \"#utility.yul\":5433:5436   */\n      dup3\n        /* \"#utility.yul\":5428:5431   */\n      dup6\n        /* \"#utility.yul\":5391:5445   */\n      tag_98\n      jump\t// in\n    tag_193:\n        /* \"#utility.yul\":5110:5451   */\n      pop\n        /* \"#utility.yul\":5026:5451   */\n      swap4\n      swap3\n      pop\n      pop\n      pop\n      jump\t// out\n        /* \"#utility.yul\":5471:5811   */\n    tag_100:\n        /* \"#utility.yul\":5527:5532   */\n      0x00\n        /* \"#utility.yul\":5576:5579   */\n      dup3\n        /* \"#utility.yul\":5569:5573   */\n      0x1f\n        /* \"#utility.yul\":5561:5567   */\n      dup4\n        /* \"#utility.yul\":5557:5574   */\n      add\n        /* \"#utility.yul\":5553:5580   */\n      slt\n        /* \"#utility.yul\":5543:5665   */\n      tag_195\n      jumpi\n        /* \"#utility.yul\":5584:5663   */\n      tag_196\n      tag_92\n      jump\t// in\n    tag_196:\n        /* \"#utility.yul\":5543:5665   */\n    tag_195:\n        /* \"#utility.yul\":5701:5707   */\n      dup2\n        /* \"#utility.yul\":5688:5708   */\n      calldataload\n        /* \"#utility.yul\":5726:5805   */\n      tag_197\n        /* \"#utility.yul\":5801:5804   */\n      dup5\n        /* \"#utility.yul\":5793:5799   */\n      dup3\n        /* \"#utility.yul\":5786:5790   */\n      0x20\n        /* \"#utility.yul\":5778:5784   */\n      dup7\n        /* \"#utility.yul\":5774:5791   */\n      add\n        /* \"#utility.yul\":5726:5805   */\n      tag_99\n      jump\t// in\n    tag_197:\n        /* \"#utility.yul\":5717:5805   */\n      swap2\n      pop\n        /* \"#utility.yul\":5533:5811   */\n      pop\n        /* \"#utility.yul\":5471:5811   */\n      swap3\n      swap2\n      pop\n      pop\n      jump\t// out\n        /* \"#utility.yul\":5817:6471   */\n    tag_32:\n        /* \"#utility.yul\":5895:5901   */\n      0x00\n        /* \"#utility.yul\":5903:5909   */\n      dup1\n        /* \"#utility.yul\":5952:5954   */\n      0x40\n        /* \"#utility.yul\":5940:5949   */\n      dup4\n        /* \"#utility.yul\":5931:5938   */\n      dup6\n        /* \"#utility.yul\":5927:5950   */\n      sub\n        /* \"#utility.yul\":5923:5955   */\n      slt\n        /* \"#utility.yul\":5920:6039   */\n      iszero\n      tag_199\n      jumpi\n        /* \"#utility.yul\":5958:6037   */\n      tag_200\n      tag_77\n      jump\t// in\n    tag_200:\n        /* \"#utility.yul\":5920:6039   */\n    tag_199:\n        /* \"#utility.yul\":6078:6079   */\n      0x00\n        /* \"#utility.yul\":6103:6156   */\n      tag_201\n        /* \"#utility.yul\":6148:6155   */\n      dup6\n        /* \"#utility.yul\":6139:6145   */\n      dup3\n        /* \"#utility.yul\":6128:6137   */\n      dup7\n        /* \"#utility.yul\":6124:6146   */\n      add\n        /* \"#utility.yul\":6103:6156   */\n      tag_82\n      jump\t// in\n    tag_201:\n        /* \"#utility.yul\":6093:6156   */\n      swap3\n      pop\n        /* \"#utility.yul\":6049:6166   */\n      pop\n        /* \"#utility.yul\":6233:6235   */\n      0x20\n        /* \"#utility.yul\":6222:6231   */\n      dup4\n        /* \"#utility.yul\":6218:6236   */\n      add\n        /* \"#utility.yul\":6205:6237   */\n      calldataload\n        /* \"#utility.yul\":6264:6282   */\n      0xffffffffffffffff\n        /* \"#utility.yul\":6256:6262   */\n      dup2\n        /* \"#utility.yul\":6253:6283   */\n      gt\n        /* \"#utility.yul\":6250:6367   */\n      iszero\n      tag_202\n      jumpi\n        /* \"#utility.yul\":6286:6365   */\n      tag_203\n      tag_78\n      jump\t// in\n    tag_203:\n        /* \"#utility.yul\":6250:6367   */\n    tag_202:\n        /* \"#utility.yul\":6391:6454   */\n      tag_204\n        /* \"#utility.yul\":6446:6453   */\n      dup6\n        /* \"#utility.yul\":6437:6443   */\n      dup3\n        /* \"#utility.yul\":6426:6435   */\n      dup7\n        /* \"#utility.yul\":6422:6444   */\n      add\n        /* \"#utility.yul\":6391:6454   */\n      tag_100\n      jump\t// in\n    tag_204:\n        /* \"#utility.yul\":6381:6454   */\n      swap2\n      pop\n        /* \"#utility.yul\":6176:6464   */\n      pop\n        /* \"#utility.yul\":5817:6471   */\n      swap3\n      pop\n      swap3\n      swap1\n      pop\n      jump\t// out\n        /* \"#utility.yul\":6477:7096   */\n    tag_39:\n        /* \"#utility.yul\":6554:6560   */\n      0x00\n        /* \"#utility.yul\":6562:6568   */\n      dup1\n        /* \"#utility.yul\":6570:6576   */\n      0x00\n        /* \"#utility.yul\":6619:6621   */\n      0x60\n        /* \"#utility.yul\":6607:6616   */\n      dup5\n        /* \"#utility.yul\":6598:6605   */\n      dup7\n        /* \"#utility.yul\":6594:6617   */\n      sub\n        /* \"#utility.yul\":6590:6622   */\n      slt\n        /* \"#utility.yul\":6587:6706   */\n      iszero\n      tag_206\n      jumpi\n        /* \"#utility.yul\":6625:6704   */\n      tag_207\n      tag_77\n      jump\t// in\n    tag_207:\n        /* \"#utility.yul\":6587:6706   */\n    tag_206:\n        /* \"#utility.yul\":6745:6746   */\n      0x00\n        /* \"#utility.yul\":6770:6823   */\n      tag_208\n        /* \"#utility.yul\":6815:6822   */\n      dup7\n        /* \"#utility.yul\":6806:6812   */\n      dup3\n        /* \"#utility.yul\":6795:6804   */\n      dup8\n        /* \"#utility.yul\":6791:6813   */\n      add\n        /* \"#utility.yul\":6770:6823   */\n      tag_82\n      jump\t// in\n    tag_208:\n        /* \"#utility.yul\":6760:6823   */\n      swap4\n      pop\n        /* \"#utility.yul\":6716:6833   */\n      pop\n        /* \"#utility.yul\":6872:6874   */\n      0x20\n        /* \"#utility.yul\":6898:6951   */\n      tag_209\n        /* \"#utility.yul\":6943:6950   */\n      dup7\n        /* \"#utility.yul\":6934:6940   */\n      dup3\n        /* \"#utility.yul\":6923:6932   */\n      dup8\n        /* \"#utility.yul\":6919:6941   */\n      add\n        /* \"#utility.yul\":6898:6951   */\n      tag_82\n      jump\t// in\n    tag_209:\n        /* \"#utility.yul\":6888:6951   */\n      swap3\n      pop\n        /* \"#utility.yul\":6843:6961   */\n      pop\n        /* \"#utility.yul\":7000:7002   */\n      0x40\n        /* \"#utility.yul\":7026:7079   */\n      tag_210\n        /* \"#utility.yul\":7071:7078   */\n      dup7\n        /* \"#utility.yul\":7062:7068   */\n      dup3\n        /* \"#utility.yul\":7051:7060   */\n      dup8\n        /* \"#utility.yul\":7047:7069   */\n      add\n        /* \"#utility.yul\":7026:7079   */\n      tag_85\n      jump\t// in\n    tag_210:\n        /* \"#utility.yul\":7016:7079   */\n      swap2\n      pop\n        /* \"#utility.yul\":6971:7089   */\n      pop\n        /* \"#utility.yul\":6477:7096   */\n      swap3\n      pop\n      swap3\n      pop\n      swap3\n      jump\t// out\n        /* \"#utility.yul\":7102:7266   */\n    tag_101:\n        /* \"#utility.yul\":7242:7258   */\n      0x496e76616c696420616d6f756e74000000000000000000000000000000000000\n        /* \"#utility.yul\":7238:7239   */\n      0x00\n        /* \"#utility.yul\":7230:7236   */\n      dup3\n        /* \"#utility.yul\":7226:7240   */\n      add\n        /* \"#utility.yul\":7219:7259   */\n      mstore\n        /* \"#utility.yul\":7102:7266   */\n      pop\n      jump\t// out\n        /* \"#utility.yul\":7272:7638   */\n    tag_102:\n        /* \"#utility.yul\":7414:7417   */\n      0x00\n        /* \"#utility.yul\":7435:7502   */\n      tag_213\n        /* \"#utility.yul\":7499:7501   */\n      0x0e\n        /* \"#utility.yul\":7494:7497   */\n      dup4\n        /* \"#utility.yul\":7435:7502   */\n      tag_87\n      jump\t// in\n    tag_213:\n        /* \"#utility.yul\":7428:7502   */\n      swap2\n      pop\n        /* \"#utility.yul\":7511:7604   */\n      tag_214\n        /* \"#utility.yul\":7600:7603   */\n      dup3\n        /* \"#utility.yul\":7511:7604   */\n      tag_101\n      jump\t// in\n    tag_214:\n        /* \"#utility.yul\":7629:7631   */\n      0x20\n        /* \"#utility.yul\":7624:7627   */\n      dup3\n        /* \"#utility.yul\":7620:7632   */\n      add\n        /* \"#utility.yul\":7613:7632   */\n      swap1\n      pop\n        /* \"#utility.yul\":7272:7638   */\n      swap2\n      swap1\n      pop\n      jump\t// out\n        /* \"#utility.yul\":7644:8063   */\n    tag_44:\n        /* \"#utility.yul\":7810:7814   */\n      0x00\n        /* \"#utility.yul\":7848:7850   */\n      0x20\n        /* \"#utility.yul\":7837:7846   */\n      dup3\n        /* \"#utility.yul\":7833:7851   */\n      add\n        /* \"#utility.yul\":7825:7851   */\n      swap1\n      pop\n        /* \"#utility.yul\":7897:7906   */\n      dup2\n        /* \"#utility.yul\":7891:7895   */\n      dup2\n        /* \"#utility.yul\":7887:7907   */\n      sub\n        /* \"#utility.yul\":7883:7884   */\n      0x00\n        /* \"#utility.yul\":7872:7881   */\n      dup4\n        /* \"#utility.yul\":7868:7885   */\n      add\n        /* \"#utility.yul\":7861:7908   */\n      mstore\n        /* \"#utility.yul\":7925:8056   */\n      tag_216\n        /* \"#utility.yul\":8051:8055   */\n      dup2\n        /* \"#utility.yul\":7925:8056   */\n      tag_102\n      jump\t// in\n    tag_216:\n        /* \"#utility.yul\":7917:8056   */\n      swap1\n      pop\n        /* \"#utility.yul\":7644:8063   */\n      swap2\n      swap1\n      pop\n      jump\t// out\n        /* \"#utility.yul\":8069:8249   */\n    tag_103:\n        /* \"#utility.yul\":8117:8194   */\n      0x4e487b7100000000000000000000000000000000000000000000000000000000\n        /* \"#utility.yul\":8114:8115   */\n      0x00\n        /* \"#utility.yul\":8107:8195   */\n      mstore\n        /* \"#utility.yul\":8214:8218   */\n      0x22\n        /* \"#utility.yul\":8211:8212   */\n      0x04\n        /* \"#utility.yul\":8204:8219   */\n      mstore\n        /* \"#utility.yul\":8238:8242   */\n      0x24\n        /* \"#utility.yul\":8235:8236   */\n      0x00\n        /* \"#utility.yul\":8228:8243   */\n      revert\n        /* \"#utility.yul\":8255:8575   */\n    tag_46:\n        /* \"#utility.yul\":8299:8305   */\n      0x00\n        /* \"#utility.yul\":8336:8337   */\n      0x02\n        /* \"#utility.yul\":8330:8334   */\n      dup3\n        /* \"#utility.yul\":8326:8338   */\n      div\n        /* \"#utility.yul\":8316:8338   */\n      swap1\n      pop\n        /* \"#utility.yul\":8383:8384   */\n      0x01\n        /* \"#utility.yul\":8377:8381   */\n      dup3\n        /* \"#utility.yul\":8373:8385   */\n      and\n        /* \"#utility.yul\":8404:8422   */\n      dup1\n        /* \"#utility.yul\":8394:8475   */\n      tag_219\n      jumpi\n        /* \"#utility.yul\":8460:8464   */\n      0x7f\n        /* \"#utility.yul\":8452:8458   */\n      dup3\n        /* \"#utility.yul\":8448:8465   */\n      and\n        /* \"#utility.yul\":8438:8465   */\n      swap2\n      pop\n        /* \"#utility.yul\":8394:8475   */\n    tag_219:\n        /* \"#utility.yul\":8522:8524   */\n      0x20\n        /* \"#utility.yul\":8514:8520   */\n      dup3\n        /* \"#utility.yul\":8511:8525   */\n      lt\n        /* \"#utility.yul\":8491:8509   */\n      dup2\n        /* \"#utility.yul\":8488:8526   */\n      sub\n        /* \"#utility.yul\":8485:8569   */\n      tag_220\n      jumpi\n        /* \"#utility.yul\":8541:8559   */\n      tag_221\n      tag_103\n      jump\t// in\n    tag_221:\n        /* \"#utility.yul\":8485:8569   */\n    tag_220:\n        /* \"#utility.yul\":8306:8575   */\n      pop\n        /* \"#utility.yul\":8255:8575   */\n      swap2\n      swap1\n      pop\n      jump\t// out\n        /* \"#utility.yul\":8581:8722   */\n    tag_104:\n        /* \"#utility.yul\":8630:8634   */\n      0x00\n        /* \"#utility.yul\":8653:8656   */\n      dup2\n        /* \"#utility.yul\":8645:8656   */\n      swap1\n      pop\n        /* \"#utility.yul\":8676:8679   */\n      dup2\n        /* \"#utility.yul\":8673:8674   */\n      0x00\n        /* \"#utility.yul\":8666:8680   */\n      mstore\n        /* \"#utility.yul\":8710:8714   */\n      0x20\n        /* \"#utility.yul\":8707:8708   */\n      0x00\n        /* \"#utility.yul\":8697:8715   */\n      keccak256\n        /* \"#utility.yul\":8689:8715   */\n      swap1\n      pop\n        /* \"#utility.yul\":8581:8722   */\n      swap2\n      swap1\n      pop\n      jump\t// out\n        /* \"#utility.yul\":8728:8821   */\n    tag_105:\n        /* \"#utility.yul\":8765:8771   */\n      0x00\n        /* \"#utility.yul\":8812:8814   */\n      0x20\n        /* \"#utility.yul\":8807:8809   */\n      0x1f\n        /* \"#utility.yul\":8800:8805   */\n      dup4\n        /* \"#utility.yul\":8796:8810   */\n      add\n        /* \"#utility.yul\":8792:8815   */\n      div\n        /* \"#utility.yul\":8782:8815   */\n      swap1\n      pop\n        /* \"#utility.yul\":8728:8821   */\n      swap2\n      swap1\n      pop\n      jump\t// out\n        /* \"#utility.yul\":8827:8934   */\n    tag_106:\n        /* \"#utility.yul\":8871:8879   */\n      0x00\n        /* \"#utility.yul\":8921:8926   */\n      dup3\n        /* \"#utility.yul\":8915:8919   */\n      dup3\n        /* \"#utility.yul\":8911:8927   */\n      shl\n        /* \"#utility.yul\":8890:8927   */\n      swap1\n      pop\n        /* \"#utility.yul\":8827:8934   */\n      swap3\n      swap2\n      pop\n      pop\n      jump\t// out\n        /* \"#utility.yul\":8940:9333   */\n    tag_107:\n        /* \"#utility.yul\":9009:9015   */\n      0x00\n        /* \"#utility.yul\":9059:9060   */\n      0x08\n        /* \"#utility.yul\":9047:9057   */\n      dup4\n        /* \"#utility.yul\":9043:9061   */\n      mul\n        /* \"#utility.yul\":9082:9179   */\n      tag_226\n        /* \"#utility.yul\":9112:9178   */\n      0xffffffffffffffffffffffffffffffffffffffffffffffffffffffffffffffff\n        /* \"#utility.yul\":9101:9110   */\n      dup3\n        /* \"#utility.yul\":9082:9179   */\n      tag_106\n      jump\t// in\n    tag_226:\n        /* \"#utility.yul\":9200:9239   */\n      tag_227\n        /* \"#utility.yul\":9230:9238   */\n      dup7\n        /* \"#utility.yul\":9219:9228   */\n      dup4\n        /* \"#utility.yul\":9200:9239   */\n      tag_106\n      jump\t// in\n    tag_227:\n        /* \"#utility.yul\":9188:9239   */\n      swap6\n      pop\n        /* \"#utility.yul\":9272:9276   */\n      dup1\n        /* \"#utility.yul\":9268:9277   */\n      not\n        /* \"#utility.yul\":9261:9266   */\n      dup5\n        /* \"#utility.yul\":9257:9278   */\n      and\n        /* \"#utility.yul\":9248:9278   */\n      swap4\n      pop\n        /* \"#utility.yul\":9321:9325   */\n      dup1\n        /* \"#utility.yul\":9311:9319   */\n      dup7\n        /* \"#utility.yul\":9307:9326   */\n      and\n        /* \"#utility.yul\":9300:9305   */\n      dup5\n        /* \"#utility.yul\":9297:9327   */\n      or\n        /* \"#utility.yul\":9287:9327   */\n      swap3\n      pop\n        /* \"#utility.yul\":9016:9333   */\n      pop\n      pop\n        /* \"#utility.yul\":8940:9333   */\n      swap4\n      swap3\n      pop\n      pop\n      pop\n      jump\t// out\n        /* \"#utility.yul\":9339:9399   */\n    tag_108:\n        /* \"#utility.yul\":9367:9370   */\n      0x00\n        /* \"#utility.yul\":9388:9393   */\n      dup2\n        /* \"#utility.yul\":9381:9393   */\n      swap1\n      pop\n        /* \"#utility.yul\":9339:9399   */\n      swap2\n      swap1\n      pop\n      jump\t// out\n        /* \"#utility.yul\":9405:9547   */\n    tag_109:\n        /* \"#utility.yul\":9455:9464   */\n      0x00\n        /* \"#utility.yul\":9488:9541   */\n      tag_230\n        /* \"#utility.yul\":9506:9540   */\n      tag_231\n        /* \"#utility.yul\":9515:9539   */\n      tag_232\n        /* \"#utility.yul\":9533:9538   */\n      dup5\n        /* \"#utility.yul\":9515:9539   */\n      tag_83\n      jump\t// in\n    tag_232:\n        /* \"#utility.yul\":9506:9540   */\n      tag_108\n      jump\t// in\n    tag_231:\n        /* \"#utility.yul\":9488:9541   */\n      tag_83\n      jump\t// in\n    tag_230:\n        /* \"#utility.yul\":9475:9541   */\n      swap1\n      pop\n        /* \"#utility.yul\":9405:9547   */\n      swap2\n      swap1\n      pop\n      jump\t// out\n        /* \"#utility.yul\":9553:9628   */\n    tag_110:\n        /* \"#utility.yul\":9596:9599   */\n      0x00\n        /* \"#utility.yul\":9617:9622   */\n      dup2\n        /* \"#utility.yul\":9610:9622   */\n      swap1\n      pop\n        /* \"#utility.yul\":9553:9628   */\n      swap2\n      swap1\n      pop\n      jump\t// out\n        /* \"#utility.yul\":9634:9903   */\n    tag_111:\n        /* \"#utility.yul\":9744:9783   */\n      tag_235\n        /* \"#utility.yul\":9775:9782   */\n      dup4\n        /* \"#utility.yul\":9744:9783   */\n      tag_109\n      jump\t// in\n    tag_235:\n        /* \"#utility.yul\":9805:9896   */\n      tag_236\n        /* \"#utility.yul\":9854:9895   */\n      tag_237\n        /* \"#utility.yul\":9878:9894   */\n      dup3\n        /* \"#utility.yul\":9854:9895   */\n      tag_110\n      jump\t// in\n    tag_237:\n        /* \"#utility.yul\":9846:9852   */\n      dup5\n        /* \"#utility.yul\":9839:9843   */\n      dup5\n        /* \"#utility.yul\":9833:9844   */\n      sload\n        /* \"#utility.yul\":9805:9896   */\n      tag_107\n      jump\t// in\n    tag_236:\n        /* \"#utility.yul\":9799:9803   */\n      dup3\n        /* \"#utility.yul\":9792:9897   */\n      sstore\n        /* \"#utility.yul\":9710:9903   */\n      pop\n        /* \"#utility.yul\":9634:9903   */\n      pop\n      pop\n      pop\n      jump\t// out\n        /* \"#utility.yul\":9909:9982   */\n    tag_112:\n        /* \"#utility.yul\":9954:9957   */\n      0x00\n        /* \"#utility.yul\":9909:9982   */\n      swap1\n      jump\t// out\n        /* \"#utility.yul\":9988:10177   */\n    tag_113:\n        /* \"#utility.yul\":10065:10097   */\n      tag_240\n      tag_112\n      jump\t// in\n    tag_240:\n        /* \"#utility.yul\":10106:10171   */\n      tag_241\n        /* \"#utility.yul\":10164:10170   */\n      dup2\n        /* \"#utility.yul\":10156:10162   */\n      dup5\n        /* \"#utility.yul\":10150:10154   */\n      dup5\n        /* \"#utility.yul\":10106:10171   */\n      tag_111\n      jump\t// in\n    tag_241:\n        /* \"#utility.yul\":10041:10177   */\n      pop\n        /* \"#utility.yul\":9988:10177   */\n      pop\n      pop\n      jump\t// out\n        /* \"#utility.yul\":10183:10369   */\n    tag_114:\n        /* \"#utility.yul\":10243:10363   */\n    tag_243:\n        /* \"#utility.yul\":10260:10263   */\n      dup2\n        /* \"#utility.yul\":10253:10258   */\n      dup2\n        /* \"#utility.yul\":10250:10264   */\n      lt\n        /* \"#utility.yul\":10243:10363   */\n      iszero\n      tag_245\n      jumpi\n        /* \"#utility.yul\":10314:10353   */\n      tag_246\n        /* \"#utility.yul\":10351:10352   */\n      0x00\n        /* \"#utility.yul\":10344:10349   */\n      dup3\n        /* \"#utility.yul\":10314:10353   */\n      tag_113\n      jump\t// in\n    tag_246:\n        /* \"#utility.yul\":10287:10288   */\n      0x01\n        /* \"#utility.yul\":10280:10285   */\n      dup2\n        /* \"#utility.yul\":10276:10289   */\n      add\n        /* \"#utility.yul\":10267:10289   */\n      swap1\n      pop\n        /* \"#utility.yul\":10243:10363   */\n      jump(tag_243)\n    tag_245:\n        /* \"#utility.yul\":10183:10369   */\n      pop\n      pop\n      jump\t// out\n        /* \"#utility.yul\":10375:10918   */\n    tag_115:\n        /* \"#utility.yul\":10476:10478   */\n      0x1f\n        /* \"#utility.yul\":10471:10474   */\n      dup3\n        /* \"#utility.yul\":10468:10479   */\n      gt\n        /* \"#utility.yul\":10465:10911   */\n      iszero\n      tag_248\n      jumpi\n        /* \"#utility.yul\":10510:10548   */\n      tag_249\n        /* \"#utility.yul\":10542:10547   */\n      dup2\n        /* \"#utility.yul\":10510:10548   */\n      tag_104\n      jump\t// in\n    tag_249:\n        /* \"#utility.yul\":10594:10623   */\n      tag_250\n        /* \"#utility.yul\":10612:10622   */\n      dup5\n        /* \"#utility.yul\":10594:10623   */\n      tag_105\n      jump\t// in\n    tag_250:\n        /* \"#utility.yul\":10584:10592   */\n      dup2\n        /* \"#utility.yul\":10580:10624   */\n      add\n        /* \"#utility.yul\":10777:10779   */\n      0x20\n        /* \"#utility.yul\":10765:10775   */\n      dup6\n        /* \"#utility.yul\":10762:10780   */\n      lt\n        /* \"#utility.yul\":10759:10808   */\n      iszero\n      tag_251\n      jumpi\n        /* \"#utility.yul\":10798:10806   */\n      dup2\n        /* \"#utility.yul\":10783:10806   */\n      swap1\n      pop\n        /* \"#utility.yul\":10759:10808   */\n    tag_251:\n        /* \"#utility.yul\":10821:10901   */\n      tag_252\n        /* \"#utility.yul\":10877:10899   */\n      tag_253\n        /* \"#utility.yul\":10895:10898   */\n      dup6\n        /* \"#utility.yul\":10877:10899   */\n      tag_105\n      jump\t// in\n    tag_253:\n        /* \"#utility.yul\":10867:10875   */\n      dup4\n        /* \"#utility.yul\":10863:10900   */\n      add\n        /* \"#utility.yul\":10850:10861   */\n      dup3\n        /* \"#utility.yul\":10821:10901   */\n      tag_114\n      jump\t// in\n    tag_252:\n        /* \"#utility.yul\":10480:10911   */\n      pop\n      pop\n        /* \"#utility.yul\":10465:10911   */\n    tag_248:\n        /* \"#utility.yul\":10375:10918   */\n      pop\n      pop\n      pop\n      jump\t// out\n        /* \"#utility.yul\":10924:11041   */\n    tag_116:\n        /* \"#utility.yul\":10978:10986   */\n      0x00\n        /* \"#utility.yul\":11028:11033   */\n      dup3\n        /* \"#utility.yul\":11022:11026   */\n      dup3\n        /* \"#utility.yul\":11018:11034   */\n      shr\n        /* \"#utility.yul\":10997:11034   */\n      swap1\n      pop\n        /* \"#utility.yul\":10924:11041   */\n      swap3\n      swap2\n      pop\n      pop\n      jump\t// out\n        /* \"#utility.yul\":11047:11216   */\n    tag_117:\n        /* \"#utility.yul\":11091:11097   */\n      0x00\n        /* \"#utility.yul\":11124:11175   */\n      tag_256\n        /* \"#utility.yul\":11172:11173   */\n      0x00\n        /* \"#utility.yul\":11168:11174   */\n      not\n        /* \"#utility.yul\":11160:11165   */\n      dup5\n        /* \"#utility.yul\":11157:11158   */\n      0x08\n        /* \"#utility.yul\":11153:11166   */\n      mul\n        /* \"#utility.yul\":11124:11175   */\n      tag_116\n      jump\t// in\n    tag_256:\n        /* \"#utility.yul\":11120:11176   */\n      not\n        /* \"#utility.yul\":11205:11209   */\n      dup1\n        /* \"#utility.yul\":11199:11203   */\n      dup4\n        /* \"#utility.yul\":11195:11210   */\n      and\n        /* \"#utility.yul\":11185:11210   */\n      swap2\n      pop\n        /* \"#utility.yul\":11098:11216   */\n      pop\n        /* \"#utility.yul\":11047:11216   */\n      swap3\n      swap2\n      pop\n      pop\n      jump\t// out\n        /* \"#utility.yul\":11221:11516   */\n    tag_118:\n        /* \"#utility.yul\":11297:11301   */\n      0x00\n        /* \"#utility.yul\":11443:11472   */\n      tag_258\n        /* \"#utility.yul\":11468:11471   */\n      dup4\n        /* \"#utility.yul\":11462:11466   */\n      dup4\n        /* \"#utility.yul\":11443:11472   */\n      tag_117\n      jump\t// in\n    tag_258:\n        /* \"#utility.yul\":11435:11472   */\n      swap2\n      pop\n        /* \"#utility.yul\":11505:11508   */\n      dup3\n        /* \"#utility.yul\":11502:11503   */\n      0x02\n        /* \"#utility.yul\":11498:11509   */\n      mul\n        /* \"#utility.yul\":11492:11496   */\n      dup3\n        /* \"#utility.yul\":11489:11510   */\n      or\n        /* \"#utility.yul\":11481:11510   */\n      swap1\n      pop\n        /* \"#utility.yul\":11221:11516   */\n      swap3\n      swap2\n      pop\n      pop\n      jump\t// out\n        /* \"#utility.yul\":11521:12916   */\n    tag_53:\n        /* \"#utility.yul\":11638:11675   */\n      tag_260\n        /* \"#utility.yul\":11671:11674   */\n      dup3\n        /* \"#utility.yul\":11638:11675   */\n      tag_86\n      jump\t// in\n    tag_260:\n        /* \"#utility.yul\":11740:11758   */\n      0xffffffffffffffff\n        /* \"#utility.yul\":11732:11738   */\n      dup2\n        /* \"#utility.yul\":11729:11759   */\n      gt\n        /* \"#utility.yul\":11726:11782   */\n      iszero\n      tag_261\n      jumpi\n        /* \"#utility.yul\":11762:11780   */\n      tag_262\n      tag_94\n      jump\t// in\n    tag_262:\n        /* \"#utility.yul\":11726:11782   */\n    tag_261:\n        /* \"#utility.yul\":11806:11844   */\n      tag_263\n        /* \"#utility.yul\":11838:11842   */\n      dup3\n        /* \"#utility.yul\":11832:11843   */\n      sload\n        /* \"#utility.yul\":11806:11844   */\n      tag_46\n      jump\t// in\n    tag_263:\n        /* \"#utility.yul\":11891:11958   */\n      tag_264\n        /* \"#utility.yul\":11951:11957   */\n      dup3\n        /* \"#utility.yul\":11943:11949   */\n      dup3\n        /* \"#utility.yul\":11937:11941   */\n      dup6\n        /* \"#utility.yul\":11891:11958   */\n      tag_115\n      jump\t// in\n    tag_264:\n        /* \"#utility.yul\":11985:11986   */\n      0x00\n        /* \"#utility.yul\":12009:12013   */\n      0x20\n        /* \"#utility.yul\":11996:12013   */\n      swap1\n      pop\n        /* \"#utility.yul\":12041:12043   */\n      0x1f\n        /* \"#utility.yul\":12033:12039   */\n      dup4\n        /* \"#utility.yul\":12030:12044   */\n      gt\n        /* \"#utility.yul\":12058:12059   */\n      0x01\n        /* \"#utility.yul\":12053:12671   */\n      dup2\n      eq\n      tag_266\n      jumpi\n        /* \"#utility.yul\":12715:12716   */\n      0x00\n        /* \"#utility.yul\":12732:12738   */\n      dup5\n        /* \"#utility.yul\":12729:12806   */\n      iszero\n      tag_267\n      jumpi\n        /* \"#utility.yul\":12781:12790   */\n      dup3\n        /* \"#utility.yul\":12776:12779   */\n      dup8\n        /* \"#utility.yul\":12772:12791   */\n      add\n        /* \"#utility.yul\":12766:12792   */\n      mload\n        /* \"#utility.yul\":12757:12792   */\n      swap1\n      pop\n        /* \"#utility.yul\":12729:12806   */\n    tag_267:\n        /* \"#utility.yul\":12832:12899   */\n      tag_268\n        /* \"#utility.yul\":12892:12898   */\n      dup6\n        /* \"#utility.yul\":12885:12890   */\n      dup3\n        /* \"#utility.yul\":12832:12899   */\n      tag_118\n      jump\t// in\n    tag_268:\n        /* \"#utility.yul\":12826:12830   */\n      dup7\n        /* \"#utility.yul\":12819:12900   */\n      sstore\n        /* \"#utility.yul\":12688:12910   */\n      pop\n        /* \"#utility.yul\":12023:12910   */\n      jump(tag_265)\n        /* \"#utility.yul\":12053:12671   */\n    tag_266:\n        /* \"#utility.yul\":12105:12109   */\n      0x1f\n        /* \"#utility.yul\":12101:12110   */\n      not\n        /* \"#utility.yul\":12093:12099   */\n      dup5\n        /* \"#utility.yul\":12089:12111   */\n      and\n        /* \"#utility.yul\":12139:12176   */\n      tag_269\n        /* \"#utility.yul\":12171:12175   */\n      dup7\n        /* \"#utility.yul\":12139:12176   */\n      tag_104\n      jump\t// in\n    tag_269:\n        /* \"#utility.yul\":12198:12199   */\n      0x00\n        /* \"#utility.yul\":12212:12420   */\n    tag_270:\n        /* \"#utility.yul\":12226:12233   */\n      dup3\n        /* \"#utility.yul\":12223:12224   */\n      dup2\n        /* \"#utility.yul\":12220:12234   */\n      lt\n        /* \"#utility.yul\":12212:12420   */\n      iszero\n      tag_272\n      jumpi\n        /* \"#utility.yul\":12305:12314   */\n      dup5\n        /* \"#utility.yul\":12300:12303   */\n      dup10\n        /* \"#utility.yul\":12296:12315   */\n      add\n        /* \"#utility.yul\":12290:12316   */\n      mload\n        /* \"#utility.yul\":12282:12288   */\n      dup3\n        /* \"#utility.yul\":12275:12317   */\n      sstore\n        /* \"#utility.yul\":12356:12357   */\n      0x01\n        /* \"#utility.yul\":12348:12354   */\n      dup3\n        /* \"#utility.yul\":12344:12358   */\n      add\n        /* \"#utility.yul\":12334:12358   */\n      swap2\n      pop\n        /* \"#utility.yul\":12403:12405   */\n      0x20\n        /* \"#utility.yul\":12392:12401   */\n      dup6\n        /* \"#utility.yul\":12388:12406   */\n      add\n        /* \"#utility.yul\":12375:12406   */\n      swap5\n      pop\n        /* \"#utility.yul\":12249:12253   */\n      0x20\n        /* \"#utility.yul\":12246:12247   */\n      dup2\n        /* \"#utility.yul\":12242:12254   */\n      add\n        /* \"#utility.yul\":12237:12254   */\n      swap1\n      pop\n        /* \"#utility.yul\":12212:12420   */\n      jump(tag_270)\n    tag_272:\n        /* \"#utility.yul\":12448:12454   */\n      dup7\n        /* \"#utility.yul\":12439:12446   */\n      dup4\n        /* \"#utility.yul\":12436:12455   */\n      lt\n        /* \"#utility.yul\":12433:12612   */\n      iszero\n      tag_273\n      jumpi\n        /* \"#utility.yul\":12506:12515   */\n      dup5\n        /* \"#utility.yul\":12501:12504   */\n      dup10\n        /* \"#utility.yul\":12497:12516   */\n      add\n        /* \"#utility.yul\":12491:12517   */\n      mload\n        /* \"#utility.yul\":12549:12597   */\n      tag_274\n        /* \"#utility.yul\":12591:12595   */\n      0x1f\n        /* \"#utility.yul\":12583:12589   */\n      dup10\n        /* \"#utility.yul\":12579:12596   */\n      and\n        /* \"#utility.yul\":12568:12577   */\n      dup3\n        /* \"#utility.yul\":12549:12597   */\n      tag_117\n      jump\t// in\n    tag_274:\n        /* \"#utility.yul\":12541:12547   */\n      dup4\n        /* \"#utility.yul\":12534:12598   */\n      sstore\n        /* \"#utility.yul\":12456:12612   */\n      pop\n        /* \"#utility.yul\":12433:12612   */\n    tag_273:\n        /* \"#utility.yul\":12658:12659   */\n      0x01\n        /* \"#utility.yul\":12654:12655   */\n      0x02\n        /* \"#utility.yul\":12646:12652   */\n      dup9\n        /* \"#utility.yul\":12642:12656   */\n      mul\n        /* \"#utility.yul\":12638:12660   */\n      add\n        /* \"#utility.yul\":12632:12636   */\n      dup9\n        /* \"#utility.yul\":12625:12661   */\n      sstore\n        /* \"#utility.yul\":12060:12671   */\n      pop\n      pop\n      pop\n        /* \"#utility.yul\":12023:12910   */\n    tag_265:\n      pop\n        /* \"#utility.yul\":11613:12916   */\n      pop\n      pop\n      pop\n        /* \"#utility.yul\":11521:12916   */\n      pop\n      pop\n      jump\t// out\n        /* \"#utility.yul\":12922:13093   */\n    tag_119:\n        /* \"#utility.yul\":13062:13085   */\n      0x496e76616c6964206c6f79616c7479206c6576656c0000000000000000000000\n        /* \"#utility.yul\":13058:13059   */\n      0x00\n        /* \"#utility.yul\":13050:13056   */\n      dup3\n        /* \"#utility.yul\":13046:13060   */\n      add\n        /* \"#utility.yul\":13039:13086   */\n      mstore\n        /* \"#utility.yul\":12922:13093   */\n      pop\n      jump\t// out\n        /* \"#utility.yul\":13099:13465   */\n    tag_120:\n        /* \"#utility.yul\":13241:13244   */\n      0x00\n        /* \"#utility.yul\":13262:13329   */\n      tag_277\n        /* \"#utility.yul\":13326:13328   */\n      0x15\n        /* \"#utility.yul\":13321:13324   */\n      dup4\n        /* \"#utility.yul\":13262:13329   */\n      tag_87\n      jump\t// in\n    tag_277:\n        /* \"#utility.yul\":13255:13329   */\n      swap2\n      pop\n        /* \"#utility.yul\":13338:13431   */\n      tag_278\n        /* \"#utility.yul\":13427:13430   */\n      dup3\n        /* \"#utility.yul\":13338:13431   */\n      tag_119\n      jump\t// in\n    tag_278:\n        /* \"#utility.yul\":13456:13458   */\n      0x20\n        /* \"#utility.yul\":13451:13454   */\n      dup3\n        /* \"#utility.yul\":13447:13459   */\n      add\n        /* \"#utility.yul\":13440:13459   */\n      swap1\n      pop\n        /* \"#utility.yul\":13099:13465   */\n      swap2\n      swap1\n      pop\n      jump\t// out\n        /* \"#utility.yul\":13471:13890   */\n    tag_58:\n        /* \"#utility.yul\":13637:13641   */\n      0x00\n        /* \"#utility.yul\":13675:13677   */\n      0x20\n        /* \"#utility.yul\":13664:13673   */\n      dup3\n        /* \"#utility.yul\":13660:13678   */\n      add\n        /* \"#utility.yul\":13652:13678   */\n      swap1\n      pop\n        /* \"#utility.yul\":13724:13733   */\n      dup2\n        /* \"#utility.yul\":13718:13722   */\n      dup2\n        /* \"#utility.yul\":13714:13734   */\n      sub\n        /* \"#utility.yul\":13710:13711   */\n      0x00\n        /* \"#utility.yul\":13699:13708   */\n      dup4\n        /* \"#utility.yul\":13695:13712   */\n      add\n        /* \"#utility.yul\":13688:13735   */\n      mstore\n        /* \"#utility.yul\":13752:13883   */\n      tag_280\n        /* \"#utility.yul\":13878:13882   */\n      dup2\n        /* \"#utility.yul\":13752:13883   */\n      tag_120\n      jump\t// in\n    tag_280:\n        /* \"#utility.yul\":13744:13883   */\n      swap1\n      pop\n        /* \"#utility.yul\":13471:13890   */\n      swap2\n      swap1\n      pop\n      jump\t// out\n        /* \"#utility.yul\":13896:14076   */\n    tag_121:\n        /* \"#utility.yul\":13944:14021   */\n      0x4e487b7100000000000000000000000000000000000000000000000000000000\n        /* \"#utility.yul\":13941:13942   */\n      0x00\n        /* \"#utility.yul\":13934:14022   */\n      mstore\n        /* \"#utility.yul\":14041:14045   */\n      0x11\n        /* \"#utility.yul\":14038:14039   */\n      0x04\n        /* \"#utility.yul\":14031:14046   */\n      mstore\n        /* \"#utility.yul\":14065:14069   */\n      0x24\n        /* \"#utility.yul\":14062:14063   */\n      0x00\n        /* \"#utility.yul\":14055:14070   */\n      revert\n        /* \"#utility.yul\":14082:14492   */\n    tag_63:\n        /* \"#utility.yul\":14122:14129   */\n      0x00\n        /* \"#utility.yul\":14145:14165   */\n      tag_283\n        /* \"#utility.yul\":14163:14164   */\n      dup3\n        /* \"#utility.yul\":14145:14165   */\n      tag_83\n      jump\t// in\n    tag_283:\n        /* \"#utility.yul\":14140:14165   */\n      swap2\n      pop\n        /* \"#utility.yul\":14179:14199   */\n      tag_284\n        /* \"#utility.yul\":14197:14198   */\n      dup4\n        /* \"#utility.yul\":14179:14199   */\n      tag_83\n      jump\t// in\n    tag_284:\n        /* \"#utility.yul\":14174:14199   */\n      swap3\n      pop\n        /* \"#utility.yul\":14234:14235   */\n      dup3\n        /* \"#utility.yul\":14231:14232   */\n      dup3\n        /* \"#utility.yul\":14227:14236   */\n      mul\n        /* \"#utility.yul\":14256:14286   */\n      tag_285\n        /* \"#utility.yul\":14274:14285   */\n      dup2\n        /* \"#utility.yul\":14256:14286   */\n      tag_83\n      jump\t// in\n    tag_285:\n        /* \"#utility.yul\":14245:14286   */\n      swap2\n      pop\n        /* \"#utility.yul\":14435:14436   */\n      dup3\n        /* \"#utility.yul\":14426:14433   */\n      dup3\n        /* \"#utility.yul\":14422:14437   */\n      div\n        /* \"#utility.yul\":14419:14420   */\n      dup5\n        /* \"#utility.yul\":14416:14438   */\n      eq\n        /* \"#utility.yul\":14396:14397   */\n      dup4\n        /* \"#utility.yul\":14389:14398   */\n      iszero\n        /* \"#utility.yul\":14369:14452   */\n      or\n        /* \"#utility.yul\":14346:14485   */\n      tag_286\n      jumpi\n        /* \"#utility.yul\":14465:14483   */\n      tag_287\n      tag_121\n      jump\t// in\n    tag_287:\n        /* \"#utility.yul\":14346:14485   */\n    tag_286:\n        /* \"#utility.yul\":14130:14492   */\n      pop\n        /* \"#utility.yul\":14082:14492   */\n      swap3\n      swap2\n      pop\n      pop\n      jump\t// out\n        /* \"#utility.yul\":14498:14678   */\n    tag_122:\n        /* \"#utility.yul\":14546:14623   */\n      0x4e487b7100000000000000000000000000000000000000000000000000000000\n        /* \"#utility.yul\":14543:14544   */\n      0x00\n        /* \"#utility.yul\":14536:14624   */\n      mstore\n        /* \"#utility.yul\":14643:14647   */\n      0x12\n        /* \"#utility.yul\":14640:14641   */\n      0x04\n        /* \"#utility.yul\":14633:14648   */\n      mstore\n        /* \"#utility.yul\":14667:14671   */\n      0x24\n        /* \"#utility.yul\":14664:14665   */\n      0x00\n        /* \"#utility.yul\":14657:14672   */\n      revert\n        /* \"#utility.yul\":14684:14869   */\n    tag_65:\n        /* \"#utility.yul\":14724:14725   */\n      0x00\n        /* \"#utility.yul\":14741:14761   */\n      tag_290\n        /* \"#utility.yul\":14759:14760   */\n      dup3\n        /* \"#utility.yul\":14741:14761   */\n      tag_83\n      jump\t// in\n    tag_290:\n        /* \"#utility.yul\":14736:14761   */\n      swap2\n      pop\n        /* \"#utility.yul\":14775:14795   */\n      tag_291\n        /* \"#utility.yul\":14793:14794   */\n      dup4\n        /* \"#utility.yul\":14775:14795   */\n      tag_83\n      jump\t// in\n    tag_291:\n        /* \"#utility.yul\":14770:14795   */\n      swap3\n      pop\n        /* \"#utility.yul\":14814:14815   */\n      dup3\n        /* \"#utility.yul\":14804:14839   */\n      tag_292\n      jumpi\n        /* \"#utility.yul\":14819:14837   */\n      tag_293\n      tag_122\n      jump\t// in\n    tag_293:\n        /* \"#utility.yul\":14804:14839   */\n    tag_292:\n        /* \"#utility.yul\":14861:14862   */\n      dup3\n        /* \"#utility.yul\":14858:14859   */\n      dup3\n        /* \"#utility.yul\":14854:14863   */\n      div\n        /* \"#utility.yul\":14849:14863   */\n      swap1\n      pop\n        /* \"#utility.yul\":14684:14869   */\n      swap3\n      swap2\n      pop\n      pop\n      jump\t// out\n        /* \"#utility.yul\":14875:15069   */\n    tag_67:\n        /* \"#utility.yul\":14915:14919   */\n      0x00\n        /* \"#utility.yul\":14935:14955   */\n      tag_295\n        /* \"#utility.yul\":14953:14954   */\n      dup3\n        /* \"#utility.yul\":14935:14955   */\n      tag_83\n      jump\t// in\n    tag_295:\n        /* \"#utility.yul\":14930:14955   */\n      swap2\n      pop\n        /* \"#utility.yul\":14969:14989   */\n      tag_296\n        /* \"#utility.yul\":14987:14988   */\n      dup4\n        /* \"#utility.yul\":14969:14989   */\n      tag_83\n      jump\t// in\n    tag_296:\n        /* \"#utility.yul\":14964:14989   */\n      swap3\n      pop\n        /* \"#utility.yul\":15013:15014   */\n      dup3\n        /* \"#utility.yul\":15010:15011   */\n      dup3\n        /* \"#utility.yul\":15006:15015   */\n      sub\n        /* \"#utility.yul\":14998:15015   */\n      swap1\n      pop\n        /* \"#utility.yul\":15037:15038   */\n      dup2\n        /* \"#utility.yul\":15031:15035   */\n      dup2\n        /* \"#utility.yul\":15028:15039   */\n      gt\n        /* \"#utility.yul\":15025:15062   */\n      iszero\n      tag_297\n      jumpi\n        /* \"#utility.yul\":15042:15060   */\n      tag_298\n      tag_121\n      jump\t// in\n    tag_298:\n        /* \"#utility.yul\":15025:15062   */\n    tag_297:\n        /* \"#utility.yul\":14875:15069   */\n      swap3\n      swap2\n      pop\n      pop\n      jump\t// out\n        /* \"#utility.yul\":15075:15245   */\n    tag_123:\n        /* \"#utility.yul\":15215:15237   */\n      0x496e73756666696369656e742062616c616e6365000000000000000000000000\n        /* \"#utility.yul\":15211:15212   */\n      0x00\n        /* \"#utility.yul\":15203:15209   */\n      dup3\n        /* \"#utility.yul\":15199:15213   */\n      add\n        /* \"#utility.yul\":15192:15238   */\n      mstore\n        /* \"#utility.yul\":15075:15245   */\n      pop\n      jump\t// out\n        /* \"#utility.yul\":15251:15617   */\n    tag_124:\n        /* \"#utility.yul\":15393:15396   */\n      0x00\n        /* \"#utility.yul\":15414:15481   */\n      tag_301\n        /* \"#utility.yul\":15478:15480   */\n      0x14\n        /* \"#utility.yul\":15473:15476   */\n      dup4\n        /* \"#utility.yul\":15414:15481   */\n      tag_87\n      jump\t// in\n    tag_301:\n        /* \"#utility.yul\":15407:15481   */\n      swap2\n      pop\n        /* \"#utility.yul\":15490:15583   */\n      tag_302\n        /* \"#utility.yul\":15579:15582   */\n      dup3\n        /* \"#utility.yul\":15490:15583   */\n      tag_123\n      jump\t// in\n    tag_302:\n        /* \"#utility.yul\":15608:15610   */\n      0x20\n        /* \"#utility.yul\":15603:15606   */\n      dup3\n        /* \"#utility.yul\":15599:15611   */\n      add\n        /* \"#utility.yul\":15592:15611   */\n      swap1\n      pop\n        /* \"#utility.yul\":15251:15617   */\n      swap2\n      swap1\n      pop\n      jump\t// out\n        /* \"#utility.yul\":15623:16042   */\n    tag_70:\n        /* \"#utility.yul\":15789:15793   */\n      0x00\n        /* \"#utility.yul\":15827:15829   */\n      0x20\n        /* \"#utility.yul\":15816:15825   */\n      dup3\n        /* \"#utility.yul\":15812:15830   */\n      add\n        /* \"#utility.yul\":15804:15830   */\n      swap1\n      pop\n        /* \"#utility.yul\":15876:15885   */\n      dup2\n        /* \"#utility.yul\":15870:15874   */\n      dup2\n        /* \"#utility.yul\":15866:15886   */\n      sub\n        /* \"#utility.yul\":15862:15863   */\n      0x00\n        /* \"#utility.yul\":15851:15860   */\n      dup4\n        /* \"#utility.yul\":15847:15864   */\n      add\n        /* \"#utility.yul\":15840:15887   */\n      mstore\n        /* \"#utility.yul\":15904:16035   */\n      tag_304\n        /* \"#utility.yul\":16030:16034   */\n      dup2\n        /* \"#utility.yul\":15904:16035   */\n      tag_124\n      jump\t// in\n    tag_304:\n        /* \"#utility.yul\":15896:16035   */\n      swap1\n      pop\n        /* \"#utility.yul\":15623:16042   */\n      swap2\n      swap1\n      pop\n      jump\t// out\n        /* \"#utility.yul\":16048:16239   */\n    tag_73:\n        /* \"#utility.yul\":16088:16091   */\n      0x00\n        /* \"#utility.yul\":16107:16127   */\n      tag_306\n        /* \"#utility.yul\":16125:16126   */\n      dup3\n        /* \"#utility.yul\":16107:16127   */\n      tag_83\n      jump\t// in\n    tag_306:\n        /* \"#utility.yul\":16102:16127   */\n      swap2\n      pop\n        /* \"#utility.yul\":16141:16161   */\n      tag_307\n        /* \"#utility.yul\":16159:16160   */\n      dup4\n        /* \"#utility.yul\":16141:16161   */\n      tag_83\n      jump\t// in\n    tag_307:\n        /* \"#utility.yul\":16136:16161   */\n      swap3\n      pop\n        /* \"#utility.yul\":16184:16185   */\n      dup3\n        /* \"#utility.yul\":16181:16182   */\n      dup3\n        /* \"#utility.yul\":16177:16186   */\n      add\n        /* \"#utility.yul\":16170:16186   */\n      swap1\n      pop\n        /* \"#utility.yul\":16205:16208   */\n      dup1\n        /* \"#utility.yul\":16202:16203   */\n      dup3\n        /* \"#utility.yul\":16199:16209   */\n      gt\n        /* \"#utility.yul\":16196:16232   */\n      iszero\n      tag_308\n      jumpi\n        /* \"#utility.yul\":16212:16230   */\n      tag_309\n      tag_121\n      jump\t// in\n    tag_309:\n        /* \"#utility.yul\":16196:16232   */\n    tag_308:\n        /* \"#utility.yul\":16048:16239   */\n      swap3\n      swap2\n      pop\n      pop\n      jump\t// out\n        /* \"#utility.yul\":16269:17100   */\n    tag_125:\n        /* \"#utility.yul\":16354:16357   */\n      0x00\n        /* \"#utility.yul\":16391:16396   */\n      dup2\n        /* \"#utility.yul\":16385:16397   */\n      sload\n        /* \"#utility.yul\":16420:16456   */\n      tag_311\n        /* \"#utility.yul\":16446:16455   */\n      dup2\n        /* \"#utility.yul\":16420:16456   */\n      tag_46\n      jump\t// in\n    tag_311:\n        /* \"#utility.yul\":16472:16543   */\n      tag_312\n        /* \"#utility.yul\":16536:16542   */\n      dup2\n        /* \"#utility.yul\":16531:16534   */\n      dup7\n        /* \"#utility.yul\":16472:16543   */\n      tag_87\n      jump\t// in\n    tag_312:\n        /* \"#utility.yul\":16465:16543   */\n      swap5\n      pop\n        /* \"#utility.yul\":16574:16575   */\n      0x01\n        /* \"#utility.yul\":16563:16572   */\n      dup3\n        /* \"#utility.yul\":16559:16576   */\n      and\n        /* \"#utility.yul\":16590:16591   */\n      0x00\n        /* \"#utility.yul\":16585:16749   */\n      dup2\n      eq\n      tag_314\n      jumpi\n        /* \"#utility.yul\":16763:16764   */\n      0x01\n        /* \"#utility.yul\":16758:17094   */\n      dup2\n      eq\n      tag_315\n      jumpi\n        /* \"#utility.yul\":16552:17094   */\n      jump(tag_313)\n        /* \"#utility.yul\":16585:16749   */\n    tag_314:\n        /* \"#utility.yul\":16669:16673   */\n      0xff\n        /* \"#utility.yul\":16665:16674   */\n      not\n        /* \"#utility.yul\":16654:16663   */\n      dup4\n        /* \"#utility.yul\":16650:16675   */\n      and\n        /* \"#utility.yul\":16645:16648   */\n      dup7\n        /* \"#utility.yul\":16638:16676   */\n      mstore\n        /* \"#utility.yul\":16729:16735   */\n      dup2\n        /* \"#utility.yul\":16722:16736   */\n      iszero\n        /* \"#utility.yul\":16715:16737   */\n      iszero\n        /* \"#utility.yul\":16709:16713   */\n      0x20\n        /* \"#utility.yul\":16705:16738   */\n      mul\n        /* \"#utility.yul\":16700:16703   */\n      dup7\n        /* \"#utility.yul\":16696:16739   */\n      add\n        /* \"#utility.yul\":16689:16739   */\n      swap4\n      pop\n        /* \"#utility.yul\":16585:16749   */\n      jump(tag_313)\n        /* \"#utility.yul\":16758:17094   */\n    tag_315:\n        /* \"#utility.yul\":16825:16863   */\n      tag_316\n        /* \"#utility.yul\":16857:16862   */\n      dup6\n        /* \"#utility.yul\":16825:16863   */\n      tag_104\n      jump\t// in\n    tag_316:\n        /* \"#utility.yul\":16885:16886   */\n      0x00\n        /* \"#utility.yul\":16899:17053   */\n    tag_317:\n        /* \"#utility.yul\":16913:16919   */\n      dup4\n        /* \"#utility.yul\":16910:16911   */\n      dup2\n        /* \"#utility.yul\":16907:16920   */\n      lt\n        /* \"#utility.yul\":16899:17053   */\n      iszero\n      tag_319\n      jumpi\n        /* \"#utility.yul\":16987:16994   */\n      dup2\n        /* \"#utility.yul\":16981:16995   */\n      sload\n        /* \"#utility.yul\":16977:16978   */\n      dup2\n        /* \"#utility.yul\":16972:16975   */\n      dup10\n        /* \"#utility.yul\":16968:16979   */\n      add\n        /* \"#utility.yul\":16961:16996   */\n      mstore\n        /* \"#utility.yul\":17037:17038   */\n      0x01\n        /* \"#utility.yul\":17028:17035   */\n      dup3\n        /* \"#utility.yul\":17024:17039   */\n      add\n        /* \"#utility.yul\":17013:17039   */\n      swap2\n      pop\n        /* \"#utility.yul\":16935:16939   */\n      0x20\n        /* \"#utility.yul\":16932:16933   */\n      dup2\n        /* \"#utility.yul\":16928:16940   */\n      add\n        /* \"#utility.yul\":16923:16940   */\n      swap1\n      pop\n        /* \"#utility.yul\":16899:17053   */\n      jump(tag_317)\n    tag_319:\n        /* \"#utility.yul\":17082:17083   */\n      dup1\n        /* \"#utility.yul\":17077:17080   */\n      dup9\n        /* \"#utility.yul\":17073:17084   */\n      add\n        /* \"#utility.yul\":17066:17084   */\n      swap6\n      pop\n        /* \"#utility.yul\":16765:17094   */\n      pop\n      pop\n        /* \"#utility.yul\":16552:17094   */\n    tag_313:\n      pop\n        /* \"#utility.yul\":16358:17100   */\n      pop\n      pop\n        /* \"#utility.yul\":16269:17100   */\n      swap3\n      swap2\n      pop\n      pop\n      jump\t// out\n        /* \"#utility.yul\":17106:17260   */\n    tag_126:\n        /* \"#utility.yul\":17246:17252   */\n      0x5553445400000000000000000000000000000000000000000000000000000000\n        /* \"#utility.yul\":17242:17243   */\n      0x00\n        /* \"#utility.yul\":17234:17240   */\n      dup3\n        /* \"#utility.yul\":17230:17244   */\n      add\n        /* \"#utility.yul\":17223:17253   */\n      mstore\n        /* \"#utility.yul\":17106:17260   */\n      pop\n      jump\t// out\n        /* \"#utility.yul\":17266:17631   */\n    tag_127:\n        /* \"#utility.yul\":17408:17411   */\n      0x00\n        /* \"#utility.yul\":17429:17495   */\n      tag_322\n        /* \"#utility.yul\":17493:17494   */\n      0x04\n        /* \"#utility.yul\":17488:17491   */\n      dup4\n        /* \"#utility.yul\":17429:17495   */\n      tag_87\n      jump\t// in\n    tag_322:\n        /* \"#utility.yul\":17422:17495   */\n      swap2\n      pop\n        /* \"#utility.yul\":17504:17597   */\n      tag_323\n        /* \"#utility.yul\":17593:17596   */\n      dup3\n        /* \"#utility.yul\":17504:17597   */\n      tag_126\n      jump\t// in\n    tag_323:\n        /* \"#utility.yul\":17622:17624   */\n      0x20\n        /* \"#utility.yul\":17617:17620   */\n      dup3\n        /* \"#utility.yul\":17613:17625   */\n      add\n        /* \"#utility.yul\":17606:17625   */\n      swap1\n      pop\n        /* \"#utility.yul\":17266:17631   */\n      swap2\n      swap1\n      pop\n      jump\t// out\n        /* \"#utility.yul\":17637:18361   */\n    tag_75:\n        /* \"#utility.yul\":17876:17880   */\n      0x00\n        /* \"#utility.yul\":17914:17916   */\n      0x60\n        /* \"#utility.yul\":17903:17912   */\n      dup3\n        /* \"#utility.yul\":17899:17917   */\n      add\n        /* \"#utility.yul\":17891:17917   */\n      swap1\n      pop\n        /* \"#utility.yul\":17963:17972   */\n      dup2\n        /* \"#utility.yul\":17957:17961   */\n      dup2\n        /* \"#utility.yul\":17953:17973   */\n      sub\n        /* \"#utility.yul\":17949:17950   */\n      0x00\n        /* \"#utility.yul\":17938:17947   */\n      dup4\n        /* \"#utility.yul\":17934:17951   */\n      add\n        /* \"#utility.yul\":17927:17974   */\n      mstore\n        /* \"#utility.yul\":17991:18066   */\n      tag_325\n        /* \"#utility.yul\":18061:18065   */\n      dup2\n        /* \"#utility.yul\":18052:18058   */\n      dup6\n        /* \"#utility.yul\":17991:18066   */\n      tag_125\n      jump\t// in\n    tag_325:\n        /* \"#utility.yul\":17983:18066   */\n      swap1\n      pop\n        /* \"#utility.yul\":18076:18148   */\n      tag_326\n        /* \"#utility.yul\":18144:18146   */\n      0x20\n        /* \"#utility.yul\":18133:18142   */\n      dup4\n        /* \"#utility.yul\":18129:18147   */\n      add\n        /* \"#utility.yul\":18120:18126   */\n      dup5\n        /* \"#utility.yul\":18076:18148   */\n      tag_91\n      jump\t// in\n    tag_326:\n        /* \"#utility.yul\":18195:18204   */\n      dup2\n        /* \"#utility.yul\":18189:18193   */\n      dup2\n        /* \"#utility.yul\":18185:18205   */\n      sub\n        /* \"#utility.yul\":18180:18182   */\n      0x40\n        /* \"#utility.yul\":18169:18178   */\n      dup4\n        /* \"#utility.yul\":18165:18183   */\n      add\n        /* \"#utility.yul\":18158:18206   */\n      mstore\n        /* \"#utility.yul\":18223:18354   */\n      tag_327\n        /* \"#utility.yul\":18349:18353   */\n      dup2\n        /* \"#utility.yul\":18223:18354   */\n      tag_127\n      jump\t// in\n    tag_327:\n        /* \"#utility.yul\":18215:18354   */\n      swap1\n      pop\n        /* \"#utility.yul\":17637:18361   */\n      swap4\n      swap3\n      pop\n      pop\n      pop\n      jump\t// out\n\n    auxdata: 0xa2646970667358221220c74ad7b5ecdb1ad99ed3d400cb247669ead9e214e8268f0853854e2de98e6fb264736f6c63430008120033\n}\n",
				"bytecode": {
					"linkReferences": {},
					"object": "608060405234801561001057600080fd5b5073dac17f958d2ee523a2206206994597c13d831ec76000806101000a81548173ffffffffffffffffffffffffffffffffffffffff021916908373ffffffffffffffffffffffffffffffffffffffff1602179055506110cf806100746000396000f3fe608060405234801561001057600080fd5b506004361061007d5760003560e01c8063854572b41161005b578063854572b4146100fe578063ae7b0ca11461012e578063d1ef621d1461014a578063ebbc9b32146101665761007d565b80630b34b555146100825780631d3b97551461009e57806356b89be4146100ce575b600080fd5b61009c600480360381019061009791906106fe565b610182565b005b6100b860048036038101906100b3919061073e565b61020e565b6040516100c591906107fb565b60405180910390f35b6100e860048036038101906100e3919061073e565b6102ae565b6040516100f5919061082c565b60405180910390f35b6101186004803603810190610113919061073e565b6102c6565b604051610125919061082c565b60405180910390f35b6101486004803603810190610143919061097c565b6102de565b005b610164600480360381019061015f91906106fe565b61032f565b005b610180600480360381019061017b91906109d8565b6103c8565b005b60008110156101c6576040517f08c379a00000000000000000000000000000000000000000000000000000000081526004016101bd90610a77565b60405180910390fd5b80600160008473ffffffffffffffffffffffffffffffffffffffff1673ffffffffffffffffffffffffffffffffffffffff168152602001908152602001600020819055505050565b6003602052806000526040600020600091509050805461022d90610ac6565b80601f016020809104026020016040519081016040528092919081815260200182805461025990610ac6565b80156102a65780601f1061027b576101008083540402835291602001916102a6565b820191906000526020600020905b81548152906001019060200180831161028957829003601f168201915b505050505081565b60016020528060005260406000206000915090505481565b60026020528060005260406000206000915090505481565b80600360008473ffffffffffffffffffffffffffffffffffffffff1673ffffffffffffffffffffffffffffffffffffffff168152602001908152602001600020908161032a9190610ca3565b505050565b600181101580156103415750600a8111155b610380576040517f08c379a000000000000000000000000000000000000000000000000000000000815260040161037790610dc1565b60405180910390fd5b80600260008473ffffffffffffffffffffffffffffffffffffffff1673ffffffffffffffffffffffffffffffffffffffff168152602001908152602001600020819055505050565b6000811161040b576040517f08c379a000000000000000000000000000000000000000000000000000000000815260040161040290610a77565b60405180910390fd5b6000600260008573ffffffffffffffffffffffffffffffffffffffff1673ffffffffffffffffffffffffffffffffffffffff16815260200190815260200160002054905060006064828461045f9190610e10565b6104699190610e81565b9050600081846104799190610eb2565b905080600160008873ffffffffffffffffffffffffffffffffffffffff1673ffffffffffffffffffffffffffffffffffffffff1681526020019081526020016000205410156104fd576040517f08c379a00000000000000000000000000000000000000000000000000000000081526004016104f490610f32565b60405180910390fd5b80600160008873ffffffffffffffffffffffffffffffffffffffff1673ffffffffffffffffffffffffffffffffffffffff168152602001908152602001600020600082825461054c9190610eb2565b9250508190555083600160008773ffffffffffffffffffffffffffffffffffffffff1673ffffffffffffffffffffffffffffffffffffffff16815260200190815260200160002060008282546105a29190610f52565b925050819055508473ffffffffffffffffffffffffffffffffffffffff168673ffffffffffffffffffffffffffffffffffffffff167f2d10da11c03458ba24a6a930bb71c9b4808efd7018671297c18be4945ef0a062600360008a73ffffffffffffffffffffffffffffffffffffffff1673ffffffffffffffffffffffffffffffffffffffff16815260200190815260200160002084604051610646929190611056565b60405180910390a3505050505050565b6000604051905090565b600080fd5b600080fd5b600073ffffffffffffffffffffffffffffffffffffffff82169050919050565b60006106958261066a565b9050919050565b6106a58161068a565b81146106b057600080fd5b50565b6000813590506106c28161069c565b92915050565b6000819050919050565b6106db816106c8565b81146106e657600080fd5b50565b6000813590506106f8816106d2565b92915050565b6000806040838503121561071557610714610660565b5b6000610723858286016106b3565b9250506020610734858286016106e9565b9150509250929050565b60006020828403121561075457610753610660565b5b6000610762848285016106b3565b91505092915050565b600081519050919050565b600082825260208201905092915050565b60005b838110156107a557808201518184015260208101905061078a565b60008484015250505050565b6000601f19601f8301169050919050565b60006107cd8261076b565b6107d78185610776565b93506107e7818560208601610787565b6107f0816107b1565b840191505092915050565b6000602082019050818103600083015261081581846107c2565b905092915050565b610826816106c8565b82525050565b6000602082019050610841600083018461081d565b92915050565b600080fd5b600080fd5b7f4e487b7100000000000000000000000000000000000000000000000000000000600052604160045260246000fd5b610889826107b1565b810181811067ffffffffffffffff821117156108a8576108a7610851565b5b80604052505050565b60006108bb610656565b90506108c78282610880565b919050565b600067ffffffffffffffff8211156108e7576108e6610851565b5b6108f0826107b1565b9050602081019050919050565b82818337600083830152505050565b600061091f61091a846108cc565b6108b1565b90508281526020810184848401111561093b5761093a61084c565b5b6109468482856108fd565b509392505050565b600082601f83011261096357610962610847565b5b813561097384826020860161090c565b91505092915050565b6000806040838503121561099357610992610660565b5b60006109a1858286016106b3565b925050602083013567ffffffffffffffff8111156109c2576109c1610665565b5b6109ce8582860161094e565b9150509250929050565b6000806000606084860312156109f1576109f0610660565b5b60006109ff868287016106b3565b9350506020610a10868287016106b3565b9250506040610a21868287016106e9565b9150509250925092565b7f496e76616c696420616d6f756e74000000000000000000000000000000000000600082015250565b6000610a61600e83610776565b9150610a6c82610a2b565b602082019050919050565b60006020820190508181036000830152610a9081610a54565b9050919050565b7f4e487b7100000000000000000000000000000000000000000000000000000000600052602260045260246000fd5b60006002820490506001821680610ade57607f821691505b602082108103610af157610af0610a97565b5b50919050565b60008190508160005260206000209050919050565b60006020601f8301049050919050565b600082821b905092915050565b600060088302610b597fffffffffffffffffffffffffffffffffffffffffffffffffffffffffffffffff82610b1c565b610b638683610b1c565b95508019841693508086168417925050509392505050565b6000819050919050565b6000610ba0610b9b610b96846106c8565b610b7b565b6106c8565b9050919050565b6000819050919050565b610bba83610b85565b610bce610bc682610ba7565b848454610b29565b825550505050565b600090565b610be3610bd6565b610bee818484610bb1565b505050565b5b81811015610c1257610c07600082610bdb565b600181019050610bf4565b5050565b601f821115610c5757610c2881610af7565b610c3184610b0c565b81016020851015610c40578190505b610c54610c4c85610b0c565b830182610bf3565b50505b505050565b600082821c905092915050565b6000610c7a60001984600802610c5c565b1980831691505092915050565b6000610c938383610c69565b9150826002028217905092915050565b610cac8261076b565b67ffffffffffffffff811115610cc557610cc4610851565b5b610ccf8254610ac6565b610cda828285610c16565b600060209050601f831160018114610d0d5760008415610cfb578287015190505b610d058582610c87565b865550610d6d565b601f198416610d1b86610af7565b60005b82811015610d4357848901518255600182019150602085019450602081019050610d1e565b86831015610d605784890151610d5c601f891682610c69565b8355505b6001600288020188555050505b505050505050565b7f496e76616c6964206c6f79616c7479206c6576656c0000000000000000000000600082015250565b6000610dab601583610776565b9150610db682610d75565b602082019050919050565b60006020820190508181036000830152610dda81610d9e565b9050919050565b7f4e487b7100000000000000000000000000000000000000000000000000000000600052601160045260246000fd5b6000610e1b826106c8565b9150610e26836106c8565b9250828202610e34816106c8565b91508282048414831517610e4b57610e4a610de1565b5b5092915050565b7f4e487b7100000000000000000000000000000000000000000000000000000000600052601260045260246000fd5b6000610e8c826106c8565b9150610e97836106c8565b925082610ea757610ea6610e52565b5b828204905092915050565b6000610ebd826106c8565b9150610ec8836106c8565b9250828203905081811115610ee057610edf610de1565b5b92915050565b7f496e73756666696369656e742062616c616e6365000000000000000000000000600082015250565b6000610f1c601483610776565b9150610f2782610ee6565b602082019050919050565b60006020820190508181036000830152610f4b81610f0f565b9050919050565b6000610f5d826106c8565b9150610f68836106c8565b9250828201905080821115610f8057610f7f610de1565b5b92915050565b60008154610f9381610ac6565b610f9d8186610776565b94506001821660008114610fb85760018114610fce57611001565b60ff198316865281151560200286019350611001565b610fd785610af7565b60005b83811015610ff957815481890152600182019150602081019050610fda565b808801955050505b50505092915050565b7f5553445400000000000000000000000000000000000000000000000000000000600082015250565b6000611040600483610776565b915061104b8261100a565b602082019050919050565b600060608201905081810360008301526110708185610f86565b905061107f602083018461081d565b818103604083015261109081611033565b9050939250505056fea2646970667358221220c74ad7b5ecdb1ad99ed3d400cb247669ead9e214e8268f0853854e2de98e6fb264736f6c63430008120033",
					"opcodes": "PUSH1 0x80 PUSH1 0x40 MSTORE CALLVALUE DUP1 ISZERO PUSH2 0x10 JUMPI PUSH1 0x0 DUP1 REVERT JUMPDEST POP PUSH20 0xDAC17F958D2EE523A2206206994597C13D831EC7 PUSH1 0x0 DUP1 PUSH2 0x100 EXP DUP2 SLOAD DUP2 PUSH20 0xFFFFFFFFFFFFFFFFFFFFFFFFFFFFFFFFFFFFFFFF MUL NOT AND SWAP1 DUP4 PUSH20 0xFFFFFFFFFFFFFFFFFFFFFFFFFFFFFFFFFFFFFFFF AND MUL OR SWAP1 SSTORE POP PUSH2 0x10CF DUP1 PUSH2 0x74 PUSH1 0x0 CODECOPY PUSH1 0x0 RETURN INVALID PUSH1 0x80 PUSH1 0x40 MSTORE CALLVALUE DUP1 ISZERO PUSH2 0x10 JUMPI PUSH1 0x0 DUP1 REVERT JUMPDEST POP PUSH1 0x4 CALLDATASIZE LT PUSH2 0x7D JUMPI PUSH1 0x0 CALLDATALOAD PUSH1 0xE0 SHR DUP1 PUSH4 0x854572B4 GT PUSH2 0x5B JUMPI DUP1 PUSH4 0x854572B4 EQ PUSH2 0xFE JUMPI DUP1 PUSH4 0xAE7B0CA1 EQ PUSH2 0x12E JUMPI DUP1 PUSH4 0xD1EF621D EQ PUSH2 0x14A JUMPI DUP1 PUSH4 0xEBBC9B32 EQ PUSH2 0x166 JUMPI PUSH2 0x7D JUMP JUMPDEST DUP1 PUSH4 0xB34B555 EQ PUSH2 0x82 JUMPI DUP1 PUSH4 0x1D3B9755 EQ PUSH2 0x9E JUMPI DUP1 PUSH4 0x56B89BE4 EQ PUSH2 0xCE JUMPI JUMPDEST PUSH1 0x0 DUP1 REVERT JUMPDEST PUSH2 0x9C PUSH1 0x4 DUP1 CALLDATASIZE SUB DUP2 ADD SWAP1 PUSH2 0x97 SWAP2 SWAP1 PUSH2 0x6FE JUMP JUMPDEST PUSH2 0x182 JUMP JUMPDEST STOP JUMPDEST PUSH2 0xB8 PUSH1 0x4 DUP1 CALLDATASIZE SUB DUP2 ADD SWAP1 PUSH2 0xB3 SWAP2 SWAP1 PUSH2 0x73E JUMP JUMPDEST PUSH2 0x20E JUMP JUMPDEST PUSH1 0x40 MLOAD PUSH2 0xC5 SWAP2 SWAP1 PUSH2 0x7FB JUMP JUMPDEST PUSH1 0x40 MLOAD DUP1 SWAP2 SUB SWAP1 RETURN JUMPDEST PUSH2 0xE8 PUSH1 0x4 DUP1 CALLDATASIZE SUB DUP2 ADD SWAP1 PUSH2 0xE3 SWAP2 SWAP1 PUSH2 0x73E JUMP JUMPDEST PUSH2 0x2AE JUMP JUMPDEST PUSH1 0x40 MLOAD PUSH2 0xF5 SWAP2 SWAP1 PUSH2 0x82C JUMP JUMPDEST PUSH1 0x40 MLOAD DUP1 SWAP2 SUB SWAP1 RETURN JUMPDEST PUSH2 0x118 PUSH1 0x4 DUP1 CALLDATASIZE SUB DUP2 ADD SWAP1 PUSH2 0x113 SWAP2 SWAP1 PUSH2 0x73E JUMP JUMPDEST PUSH2 0x2C6 JUMP JUMPDEST PUSH1 0x40 MLOAD PUSH2 0x125 SWAP2 SWAP1 PUSH2 0x82C JUMP JUMPDEST PUSH1 0x40 MLOAD DUP1 SWAP2 SUB SWAP1 RETURN JUMPDEST PUSH2 0x148 PUSH1 0x4 DUP1 CALLDATASIZE SUB DUP2 ADD SWAP1 PUSH2 0x143 SWAP2 SWAP1 PUSH2 0x97C JUMP JUMPDEST PUSH2 0x2DE JUMP JUMPDEST STOP JUMPDEST PUSH2 0x164 PUSH1 0x4 DUP1 CALLDATASIZE SUB DUP2 ADD SWAP1 PUSH2 0x15F SWAP2 SWAP1 PUSH2 0x6FE JUMP JUMPDEST PUSH2 0x32F JUMP JUMPDEST STOP JUMPDEST PUSH2 0x180 PUSH1 0x4 DUP1 CALLDATASIZE SUB DUP2 ADD SWAP1 PUSH2 0x17B SWAP2 SWAP1 PUSH2 0x9D8 JUMP JUMPDEST PUSH2 0x3C8 JUMP JUMPDEST STOP JUMPDEST PUSH1 0x0 DUP2 LT ISZERO PUSH2 0x1C6 JUMPI PUSH1 0x40 MLOAD PUSH32 0x8C379A000000000000000000000000000000000000000000000000000000000 DUP2 MSTORE PUSH1 0x4 ADD PUSH2 0x1BD SWAP1 PUSH2 0xA77 JUMP JUMPDEST PUSH1 0x40 MLOAD DUP1 SWAP2 SUB SWAP1 REVERT JUMPDEST DUP1 PUSH1 0x1 PUSH1 0x0 DUP5 PUSH20 0xFFFFFFFFFFFFFFFFFFFFFFFFFFFFFFFFFFFFFFFF AND PUSH20 0xFFFFFFFFFFFFFFFFFFFFFFFFFFFFFFFFFFFFFFFF AND DUP2 MSTORE PUSH1 0x20 ADD SWAP1 DUP2 MSTORE PUSH1 0x20 ADD PUSH1 0x0 KECCAK256 DUP2 SWAP1 SSTORE POP POP POP JUMP JUMPDEST PUSH1 0x3 PUSH1 0x20 MSTORE DUP1 PUSH1 0x0 MSTORE PUSH1 0x40 PUSH1 0x0 KECCAK256 PUSH1 0x0 SWAP2 POP SWAP1 POP DUP1 SLOAD PUSH2 0x22D SWAP1 PUSH2 0xAC6 JUMP JUMPDEST DUP1 PUSH1 0x1F ADD PUSH1 0x20 DUP1 SWAP2 DIV MUL PUSH1 0x20 ADD PUSH1 0x40 MLOAD SWAP1 DUP2 ADD PUSH1 0x40 MSTORE DUP1 SWAP3 SWAP2 SWAP1 DUP2 DUP2 MSTORE PUSH1 0x20 ADD DUP3 DUP1 SLOAD PUSH2 0x259 SWAP1 PUSH2 0xAC6 JUMP JUMPDEST DUP1 ISZERO PUSH2 0x2A6 JUMPI DUP1 PUSH1 0x1F LT PUSH2 0x27B JUMPI PUSH2 0x100 DUP1 DUP4 SLOAD DIV MUL DUP4 MSTORE SWAP2 PUSH1 0x20 ADD SWAP2 PUSH2 0x2A6 JUMP JUMPDEST DUP3 ADD SWAP2 SWAP1 PUSH1 0x0 MSTORE PUSH1 0x20 PUSH1 0x0 KECCAK256 SWAP1 JUMPDEST DUP2 SLOAD DUP2 MSTORE SWAP1 PUSH1 0x1 ADD SWAP1 PUSH1 0x20 ADD DUP1 DUP4 GT PUSH2 0x289 JUMPI DUP3 SWAP1 SUB PUSH1 0x1F AND DUP3 ADD SWAP2 JUMPDEST POP POP POP POP POP DUP2 JUMP JUMPDEST PUSH1 0x1 PUSH1 0x20 MSTORE DUP1 PUSH1 0x0 MSTORE PUSH1 0x40 PUSH1 0x0 KECCAK256 PUSH1 0x0 SWAP2 POP SWAP1 POP SLOAD DUP2 JUMP JUMPDEST PUSH1 0x2 PUSH1 0x20 MSTORE DUP1 PUSH1 0x0 MSTORE PUSH1 0x40 PUSH1 0x0 KECCAK256 PUSH1 0x0 SWAP2 POP SWAP1 POP SLOAD DUP2 JUMP JUMPDEST DUP1 PUSH1 0x3 PUSH1 0x0 DUP5 PUSH20 0xFFFFFFFFFFFFFFFFFFFFFFFFFFFFFFFFFFFFFFFF AND PUSH20 0xFFFFFFFFFFFFFFFFFFFFFFFFFFFFFFFFFFFFFFFF AND DUP2 MSTORE PUSH1 0x20 ADD SWAP1 DUP2 MSTORE PUSH1 0x20 ADD PUSH1 0x0 KECCAK256 SWAP1 DUP2 PUSH2 0x32A SWAP2 SWAP1 PUSH2 0xCA3 JUMP JUMPDEST POP POP POP JUMP JUMPDEST PUSH1 0x1 DUP2 LT ISZERO DUP1 ISZERO PUSH2 0x341 JUMPI POP PUSH1 0xA DUP2 GT ISZERO JUMPDEST PUSH2 0x380 JUMPI PUSH1 0x40 MLOAD PUSH32 0x8C379A000000000000000000000000000000000000000000000000000000000 DUP2 MSTORE PUSH1 0x4 ADD PUSH2 0x377 SWAP1 PUSH2 0xDC1 JUMP JUMPDEST PUSH1 0x40 MLOAD DUP1 SWAP2 SUB SWAP1 REVERT JUMPDEST DUP1 PUSH1 0x2 PUSH1 0x0 DUP5 PUSH20 0xFFFFFFFFFFFFFFFFFFFFFFFFFFFFFFFFFFFFFFFF AND PUSH20 0xFFFFFFFFFFFFFFFFFFFFFFFFFFFFFFFFFFFFFFFF AND DUP2 MSTORE PUSH1 0x20 ADD SWAP1 DUP2 MSTORE PUSH1 0x20 ADD PUSH1 0x0 KECCAK256 DUP2 SWAP1 SSTORE POP POP POP JUMP JUMPDEST PUSH1 0x0 DUP2 GT PUSH2 0x40B JUMPI PUSH1 0x40 MLOAD PUSH32 0x8C379A000000000000000000000000000000000000000000000000000000000 DUP2 MSTORE PUSH1 0x4 ADD PUSH2 0x402 SWAP1 PUSH2 0xA77 JUMP JUMPDEST PUSH1 0x40 MLOAD DUP1 SWAP2 SUB SWAP1 REVERT JUMPDEST PUSH1 0x0 PUSH1 0x2 PUSH1 0x0 DUP6 PUSH20 0xFFFFFFFFFFFFFFFFFFFFFFFFFFFFFFFFFFFFFFFF AND PUSH20 0xFFFFFFFFFFFFFFFFFFFFFFFFFFFFFFFFFFFFFFFF AND DUP2 MSTORE PUSH1 0x20 ADD SWAP1 DUP2 MSTORE PUSH1 0x20 ADD PUSH1 0x0 KECCAK256 SLOAD SWAP1 POP PUSH1 0x0 PUSH1 0x64 DUP3 DUP5 PUSH2 0x45F SWAP2 SWAP1 PUSH2 0xE10 JUMP JUMPDEST PUSH2 0x469 SWAP2 SWAP1 PUSH2 0xE81 JUMP JUMPDEST SWAP1 POP PUSH1 0x0 DUP2 DUP5 PUSH2 0x479 SWAP2 SWAP1 PUSH2 0xEB2 JUMP JUMPDEST SWAP1 POP DUP1 PUSH1 0x1 PUSH1 0x0 DUP9 PUSH20 0xFFFFFFFFFFFFFFFFFFFFFFFFFFFFFFFFFFFFFFFF AND PUSH20 0xFFFFFFFFFFFFFFFFFFFFFFFFFFFFFFFFFFFFFFFF AND DUP2 MSTORE PUSH1 0x20 ADD SWAP1 DUP2 MSTORE PUSH1 0x20 ADD PUSH1 0x0 KECCAK256 SLOAD LT ISZERO PUSH2 0x4FD JUMPI PUSH1 0x40 MLOAD PUSH32 0x8C379A000000000000000000000000000000000000000000000000000000000 DUP2 MSTORE PUSH1 0x4 ADD PUSH2 0x4F4 SWAP1 PUSH2 0xF32 JUMP JUMPDEST PUSH1 0x40 MLOAD DUP1 SWAP2 SUB SWAP1 REVERT JUMPDEST DUP1 PUSH1 0x1 PUSH1 0x0 DUP9 PUSH20 0xFFFFFFFFFFFFFFFFFFFFFFFFFFFFFFFFFFFFFFFF AND PUSH20 0xFFFFFFFFFFFFFFFFFFFFFFFFFFFFFFFFFFFFFFFF AND DUP2 MSTORE PUSH1 0x20 ADD SWAP1 DUP2 MSTORE PUSH1 0x20 ADD PUSH1 0x0 KECCAK256 PUSH1 0x0 DUP3 DUP3 SLOAD PUSH2 0x54C SWAP2 SWAP1 PUSH2 0xEB2 JUMP JUMPDEST SWAP3 POP POP DUP2 SWAP1 SSTORE POP DUP4 PUSH1 0x1 PUSH1 0x0 DUP8 PUSH20 0xFFFFFFFFFFFFFFFFFFFFFFFFFFFFFFFFFFFFFFFF AND PUSH20 0xFFFFFFFFFFFFFFFFFFFFFFFFFFFFFFFFFFFFFFFF AND DUP2 MSTORE PUSH1 0x20 ADD SWAP1 DUP2 MSTORE PUSH1 0x20 ADD PUSH1 0x0 KECCAK256 PUSH1 0x0 DUP3 DUP3 SLOAD PUSH2 0x5A2 SWAP2 SWAP1 PUSH2 0xF52 JUMP JUMPDEST SWAP3 POP POP DUP2 SWAP1 SSTORE POP DUP5 PUSH20 0xFFFFFFFFFFFFFFFFFFFFFFFFFFFFFFFFFFFFFFFF AND DUP7 PUSH20 0xFFFFFFFFFFFFFFFFFFFFFFFFFFFFFFFFFFFFFFFF AND PUSH32 0x2D10DA11C03458BA24A6A930BB71C9B4808EFD7018671297C18BE4945EF0A062 PUSH1 0x3 PUSH1 0x0 DUP11 PUSH20 0xFFFFFFFFFFFFFFFFFFFFFFFFFFFFFFFFFFFFFFFF AND PUSH20 0xFFFFFFFFFFFFFFFFFFFFFFFFFFFFFFFFFFFFFFFF AND DUP2 MSTORE PUSH1 0x20 ADD SWAP1 DUP2 MSTORE PUSH1 0x20 ADD PUSH1 0x0 KECCAK256 DUP5 PUSH1 0x40 MLOAD PUSH2 0x646 SWAP3 SWAP2 SWAP1 PUSH2 0x1056 JUMP JUMPDEST PUSH1 0x40 MLOAD DUP1 SWAP2 SUB SWAP1 LOG3 POP POP POP POP POP POP JUMP JUMPDEST PUSH1 0x0 PUSH1 0x40 MLOAD SWAP1 POP SWAP1 JUMP JUMPDEST PUSH1 0x0 DUP1 REVERT JUMPDEST PUSH1 0x0 DUP1 REVERT JUMPDEST PUSH1 0x0 PUSH20 0xFFFFFFFFFFFFFFFFFFFFFFFFFFFFFFFFFFFFFFFF DUP3 AND SWAP1 POP SWAP2 SWAP1 POP JUMP JUMPDEST PUSH1 0x0 PUSH2 0x695 DUP3 PUSH2 0x66A JUMP JUMPDEST SWAP1 POP SWAP2 SWAP1 POP JUMP JUMPDEST PUSH2 0x6A5 DUP2 PUSH2 0x68A JUMP JUMPDEST DUP2 EQ PUSH2 0x6B0 JUMPI PUSH1 0x0 DUP1 REVERT JUMPDEST POP JUMP JUMPDEST PUSH1 0x0 DUP2 CALLDATALOAD SWAP1 POP PUSH2 0x6C2 DUP2 PUSH2 0x69C JUMP JUMPDEST SWAP3 SWAP2 POP POP JUMP JUMPDEST PUSH1 0x0 DUP2 SWAP1 POP SWAP2 SWAP1 POP JUMP JUMPDEST PUSH2 0x6DB DUP2 PUSH2 0x6C8 JUMP JUMPDEST DUP2 EQ PUSH2 0x6E6 JUMPI PUSH1 0x0 DUP1 REVERT JUMPDEST POP JUMP JUMPDEST PUSH1 0x0 DUP2 CALLDATALOAD SWAP1 POP PUSH2 0x6F8 DUP2 PUSH2 0x6D2 JUMP JUMPDEST SWAP3 SWAP2 POP POP JUMP JUMPDEST PUSH1 0x0 DUP1 PUSH1 0x40 DUP4 DUP6 SUB SLT ISZERO PUSH2 0x715 JUMPI PUSH2 0x714 PUSH2 0x660 JUMP JUMPDEST JUMPDEST PUSH1 0x0 PUSH2 0x723 DUP6 DUP3 DUP7 ADD PUSH2 0x6B3 JUMP JUMPDEST SWAP3 POP POP PUSH1 0x20 PUSH2 0x734 DUP6 DUP3 DUP7 ADD PUSH2 0x6E9 JUMP JUMPDEST SWAP2 POP POP SWAP3 POP SWAP3 SWAP1 POP JUMP JUMPDEST PUSH1 0x0 PUSH1 0x20 DUP3 DUP5 SUB SLT ISZERO PUSH2 0x754 JUMPI PUSH2 0x753 PUSH2 0x660 JUMP JUMPDEST JUMPDEST PUSH1 0x0 PUSH2 0x762 DUP5 DUP3 DUP6 ADD PUSH2 0x6B3 JUMP JUMPDEST SWAP2 POP POP SWAP3 SWAP2 POP POP JUMP JUMPDEST PUSH1 0x0 DUP2 MLOAD SWAP1 POP SWAP2 SWAP1 POP JUMP JUMPDEST PUSH1 0x0 DUP3 DUP3 MSTORE PUSH1 0x20 DUP3 ADD SWAP1 POP SWAP3 SWAP2 POP POP JUMP JUMPDEST PUSH1 0x0 JUMPDEST DUP4 DUP2 LT ISZERO PUSH2 0x7A5 JUMPI DUP1 DUP3 ADD MLOAD DUP2 DUP5 ADD MSTORE PUSH1 0x20 DUP2 ADD SWAP1 POP PUSH2 0x78A JUMP JUMPDEST PUSH1 0x0 DUP5 DUP5 ADD MSTORE POP POP POP POP JUMP JUMPDEST PUSH1 0x0 PUSH1 0x1F NOT PUSH1 0x1F DUP4 ADD AND SWAP1 POP SWAP2 SWAP1 POP JUMP JUMPDEST PUSH1 0x0 PUSH2 0x7CD DUP3 PUSH2 0x76B JUMP JUMPDEST PUSH2 0x7D7 DUP2 DUP6 PUSH2 0x776 JUMP JUMPDEST SWAP4 POP PUSH2 0x7E7 DUP2 DUP6 PUSH1 0x20 DUP7 ADD PUSH2 0x787 JUMP JUMPDEST PUSH2 0x7F0 DUP2 PUSH2 0x7B1 JUMP JUMPDEST DUP5 ADD SWAP2 POP POP SWAP3 SWAP2 POP POP JUMP JUMPDEST PUSH1 0x0 PUSH1 0x20 DUP3 ADD SWAP1 POP DUP2 DUP2 SUB PUSH1 0x0 DUP4 ADD MSTORE PUSH2 0x815 DUP2 DUP5 PUSH2 0x7C2 JUMP JUMPDEST SWAP1 POP SWAP3 SWAP2 POP POP JUMP JUMPDEST PUSH2 0x826 DUP2 PUSH2 0x6C8 JUMP JUMPDEST DUP3 MSTORE POP POP JUMP JUMPDEST PUSH1 0x0 PUSH1 0x20 DUP3 ADD SWAP1 POP PUSH2 0x841 PUSH1 0x0 DUP4 ADD DUP5 PUSH2 0x81D JUMP JUMPDEST SWAP3 SWAP2 POP POP JUMP JUMPDEST PUSH1 0x0 DUP1 REVERT JUMPDEST PUSH1 0x0 DUP1 REVERT JUMPDEST PUSH32 0x4E487B7100000000000000000000000000000000000000000000000000000000 PUSH1 0x0 MSTORE PUSH1 0x41 PUSH1 0x4 MSTORE PUSH1 0x24 PUSH1 0x0 REVERT JUMPDEST PUSH2 0x889 DUP3 PUSH2 0x7B1 JUMP JUMPDEST DUP2 ADD DUP2 DUP2 LT PUSH8 0xFFFFFFFFFFFFFFFF DUP3 GT OR ISZERO PUSH2 0x8A8 JUMPI PUSH2 0x8A7 PUSH2 0x851 JUMP JUMPDEST JUMPDEST DUP1 PUSH1 0x40 MSTORE POP POP POP JUMP JUMPDEST PUSH1 0x0 PUSH2 0x8BB PUSH2 0x656 JUMP JUMPDEST SWAP1 POP PUSH2 0x8C7 DUP3 DUP3 PUSH2 0x880 JUMP JUMPDEST SWAP2 SWAP1 POP JUMP JUMPDEST PUSH1 0x0 PUSH8 0xFFFFFFFFFFFFFFFF DUP3 GT ISZERO PUSH2 0x8E7 JUMPI PUSH2 0x8E6 PUSH2 0x851 JUMP JUMPDEST JUMPDEST PUSH2 0x8F0 DUP3 PUSH2 0x7B1 JUMP JUMPDEST SWAP1 POP PUSH1 0x20 DUP2 ADD SWAP1 POP SWAP2 SWAP1 POP JUMP JUMPDEST DUP3 DUP2 DUP4 CALLDATACOPY PUSH1 0x0 DUP4 DUP4 ADD MSTORE POP POP POP JUMP JUMPDEST PUSH1 0x0 PUSH2 0x91F PUSH2 0x91A DUP5 PUSH2 0x8CC JUMP JUMPDEST PUSH2 0x8B1 JUMP JUMPDEST SWAP1 POP DUP3 DUP2 MSTORE PUSH1 0x20 DUP2 ADD DUP5 DUP5 DUP5 ADD GT ISZERO PUSH2 0x93B JUMPI PUSH2 0x93A PUSH2 0x84C JUMP JUMPDEST JUMPDEST PUSH2 0x946 DUP5 DUP3 DUP6 PUSH2 0x8FD JUMP JUMPDEST POP SWAP4 SWAP3 POP POP POP JUMP JUMPDEST PUSH1 0x0 DUP3 PUSH1 0x1F DUP4 ADD SLT PUSH2 0x963 JUMPI PUSH2 0x962 PUSH2 0x847 JUMP JUMPDEST JUMPDEST DUP2 CALLDATALOAD PUSH2 0x973 DUP5 DUP3 PUSH1 0x20 DUP7 ADD PUSH2 0x90C JUMP JUMPDEST SWAP2 POP POP SWAP3 SWAP2 POP POP JUMP JUMPDEST PUSH1 0x0 DUP1 PUSH1 0x40 DUP4 DUP6 SUB SLT ISZERO PUSH2 0x993 JUMPI PUSH2 0x992 PUSH2 0x660 JUMP JUMPDEST JUMPDEST PUSH1 0x0 PUSH2 0x9A1 DUP6 DUP3 DUP7 ADD PUSH2 0x6B3 JUMP JUMPDEST SWAP3 POP POP PUSH1 0x20 DUP4 ADD CALLDATALOAD PUSH8 0xFFFFFFFFFFFFFFFF DUP2 GT ISZERO PUSH2 0x9C2 JUMPI PUSH2 0x9C1 PUSH2 0x665 JUMP JUMPDEST JUMPDEST PUSH2 0x9CE DUP6 DUP3 DUP7 ADD PUSH2 0x94E JUMP JUMPDEST SWAP2 POP POP SWAP3 POP SWAP3 SWAP1 POP JUMP JUMPDEST PUSH1 0x0 DUP1 PUSH1 0x0 PUSH1 0x60 DUP5 DUP7 SUB SLT ISZERO PUSH2 0x9F1 JUMPI PUSH2 0x9F0 PUSH2 0x660 JUMP JUMPDEST JUMPDEST PUSH1 0x0 PUSH2 0x9FF DUP7 DUP3 DUP8 ADD PUSH2 0x6B3 JUMP JUMPDEST SWAP4 POP POP PUSH1 0x20 PUSH2 0xA10 DUP7 DUP3 DUP8 ADD PUSH2 0x6B3 JUMP JUMPDEST SWAP3 POP POP PUSH1 0x40 PUSH2 0xA21 DUP7 DUP3 DUP8 ADD PUSH2 0x6E9 JUMP JUMPDEST SWAP2 POP POP SWAP3 POP SWAP3 POP SWAP3 JUMP JUMPDEST PUSH32 0x496E76616C696420616D6F756E74000000000000000000000000000000000000 PUSH1 0x0 DUP3 ADD MSTORE POP JUMP JUMPDEST PUSH1 0x0 PUSH2 0xA61 PUSH1 0xE DUP4 PUSH2 0x776 JUMP JUMPDEST SWAP2 POP PUSH2 0xA6C DUP3 PUSH2 0xA2B JUMP JUMPDEST PUSH1 0x20 DUP3 ADD SWAP1 POP SWAP2 SWAP1 POP JUMP JUMPDEST PUSH1 0x0 PUSH1 0x20 DUP3 ADD SWAP1 POP DUP2 DUP2 SUB PUSH1 0x0 DUP4 ADD MSTORE PUSH2 0xA90 DUP2 PUSH2 0xA54 JUMP JUMPDEST SWAP1 POP SWAP2 SWAP1 POP JUMP JUMPDEST PUSH32 0x4E487B7100000000000000000000000000000000000000000000000000000000 PUSH1 0x0 MSTORE PUSH1 0x22 PUSH1 0x4 MSTORE PUSH1 0x24 PUSH1 0x0 REVERT JUMPDEST PUSH1 0x0 PUSH1 0x2 DUP3 DIV SWAP1 POP PUSH1 0x1 DUP3 AND DUP1 PUSH2 0xADE JUMPI PUSH1 0x7F DUP3 AND SWAP2 POP JUMPDEST PUSH1 0x20 DUP3 LT DUP2 SUB PUSH2 0xAF1 JUMPI PUSH2 0xAF0 PUSH2 0xA97 JUMP JUMPDEST JUMPDEST POP SWAP2 SWAP1 POP JUMP JUMPDEST PUSH1 0x0 DUP2 SWAP1 POP DUP2 PUSH1 0x0 MSTORE PUSH1 0x20 PUSH1 0x0 KECCAK256 SWAP1 POP SWAP2 SWAP1 POP JUMP JUMPDEST PUSH1 0x0 PUSH1 0x20 PUSH1 0x1F DUP4 ADD DIV SWAP1 POP SWAP2 SWAP1 POP JUMP JUMPDEST PUSH1 0x0 DUP3 DUP3 SHL SWAP1 POP SWAP3 SWAP2 POP POP JUMP JUMPDEST PUSH1 0x0 PUSH1 0x8 DUP4 MUL PUSH2 0xB59 PUSH32 0xFFFFFFFFFFFFFFFFFFFFFFFFFFFFFFFFFFFFFFFFFFFFFFFFFFFFFFFFFFFFFFFF DUP3 PUSH2 0xB1C JUMP JUMPDEST PUSH2 0xB63 DUP7 DUP4 PUSH2 0xB1C JUMP JUMPDEST SWAP6 POP DUP1 NOT DUP5 AND SWAP4 POP DUP1 DUP7 AND DUP5 OR SWAP3 POP POP POP SWAP4 SWAP3 POP POP POP JUMP JUMPDEST PUSH1 0x0 DUP2 SWAP1 POP SWAP2 SWAP1 POP JUMP JUMPDEST PUSH1 0x0 PUSH2 0xBA0 PUSH2 0xB9B PUSH2 0xB96 DUP5 PUSH2 0x6C8 JUMP JUMPDEST PUSH2 0xB7B JUMP JUMPDEST PUSH2 0x6C8 JUMP JUMPDEST SWAP1 POP SWAP2 SWAP1 POP JUMP JUMPDEST PUSH1 0x0 DUP2 SWAP1 POP SWAP2 SWAP1 POP JUMP JUMPDEST PUSH2 0xBBA DUP4 PUSH2 0xB85 JUMP JUMPDEST PUSH2 0xBCE PUSH2 0xBC6 DUP3 PUSH2 0xBA7 JUMP JUMPDEST DUP5 DUP5 SLOAD PUSH2 0xB29 JUMP JUMPDEST DUP3 SSTORE POP POP POP POP JUMP JUMPDEST PUSH1 0x0 SWAP1 JUMP JUMPDEST PUSH2 0xBE3 PUSH2 0xBD6 JUMP JUMPDEST PUSH2 0xBEE DUP2 DUP5 DUP5 PUSH2 0xBB1 JUMP JUMPDEST POP POP POP JUMP JUMPDEST JUMPDEST DUP2 DUP2 LT ISZERO PUSH2 0xC12 JUMPI PUSH2 0xC07 PUSH1 0x0 DUP3 PUSH2 0xBDB JUMP JUMPDEST PUSH1 0x1 DUP2 ADD SWAP1 POP PUSH2 0xBF4 JUMP JUMPDEST POP POP JUMP JUMPDEST PUSH1 0x1F DUP3 GT ISZERO PUSH2 0xC57 JUMPI PUSH2 0xC28 DUP2 PUSH2 0xAF7 JUMP JUMPDEST PUSH2 0xC31 DUP5 PUSH2 0xB0C JUMP JUMPDEST DUP2 ADD PUSH1 0x20 DUP6 LT ISZERO PUSH2 0xC40 JUMPI DUP2 SWAP1 POP JUMPDEST PUSH2 0xC54 PUSH2 0xC4C DUP6 PUSH2 0xB0C JUMP JUMPDEST DUP4 ADD DUP3 PUSH2 0xBF3 JUMP JUMPDEST POP POP JUMPDEST POP POP POP JUMP JUMPDEST PUSH1 0x0 DUP3 DUP3 SHR SWAP1 POP SWAP3 SWAP2 POP POP JUMP JUMPDEST PUSH1 0x0 PUSH2 0xC7A PUSH1 0x0 NOT DUP5 PUSH1 0x8 MUL PUSH2 0xC5C JUMP JUMPDEST NOT DUP1 DUP4 AND SWAP2 POP POP SWAP3 SWAP2 POP POP JUMP JUMPDEST PUSH1 0x0 PUSH2 0xC93 DUP4 DUP4 PUSH2 0xC69 JUMP JUMPDEST SWAP2 POP DUP3 PUSH1 0x2 MUL DUP3 OR SWAP1 POP SWAP3 SWAP2 POP POP JUMP JUMPDEST PUSH2 0xCAC DUP3 PUSH2 0x76B JUMP JUMPDEST PUSH8 0xFFFFFFFFFFFFFFFF DUP2 GT ISZERO PUSH2 0xCC5 JUMPI PUSH2 0xCC4 PUSH2 0x851 JUMP JUMPDEST JUMPDEST PUSH2 0xCCF DUP3 SLOAD PUSH2 0xAC6 JUMP JUMPDEST PUSH2 0xCDA DUP3 DUP3 DUP6 PUSH2 0xC16 JUMP JUMPDEST PUSH1 0x0 PUSH1 0x20 SWAP1 POP PUSH1 0x1F DUP4 GT PUSH1 0x1 DUP2 EQ PUSH2 0xD0D JUMPI PUSH1 0x0 DUP5 ISZERO PUSH2 0xCFB JUMPI DUP3 DUP8 ADD MLOAD SWAP1 POP JUMPDEST PUSH2 0xD05 DUP6 DUP3 PUSH2 0xC87 JUMP JUMPDEST DUP7 SSTORE POP PUSH2 0xD6D JUMP JUMPDEST PUSH1 0x1F NOT DUP5 AND PUSH2 0xD1B DUP7 PUSH2 0xAF7 JUMP JUMPDEST PUSH1 0x0 JUMPDEST DUP3 DUP2 LT ISZERO PUSH2 0xD43 JUMPI DUP5 DUP10 ADD MLOAD DUP3 SSTORE PUSH1 0x1 DUP3 ADD SWAP2 POP PUSH1 0x20 DUP6 ADD SWAP5 POP PUSH1 0x20 DUP2 ADD SWAP1 POP PUSH2 0xD1E JUMP JUMPDEST DUP7 DUP4 LT ISZERO PUSH2 0xD60 JUMPI DUP5 DUP10 ADD MLOAD PUSH2 0xD5C PUSH1 0x1F DUP10 AND DUP3 PUSH2 0xC69 JUMP JUMPDEST DUP4 SSTORE POP JUMPDEST PUSH1 0x1 PUSH1 0x2 DUP9 MUL ADD DUP9 SSTORE POP POP POP JUMPDEST POP POP POP POP POP POP JUMP JUMPDEST PUSH32 0x496E76616C6964206C6F79616C7479206C6576656C0000000000000000000000 PUSH1 0x0 DUP3 ADD MSTORE POP JUMP JUMPDEST PUSH1 0x0 PUSH2 0xDAB PUSH1 0x15 DUP4 PUSH2 0x776 JUMP JUMPDEST SWAP2 POP PUSH2 0xDB6 DUP3 PUSH2 0xD75 JUMP JUMPDEST PUSH1 0x20 DUP3 ADD SWAP1 POP SWAP2 SWAP1 POP JUMP JUMPDEST PUSH1 0x0 PUSH1 0x20 DUP3 ADD SWAP1 POP DUP2 DUP2 SUB PUSH1 0x0 DUP4 ADD MSTORE PUSH2 0xDDA DUP2 PUSH2 0xD9E JUMP JUMPDEST SWAP1 POP SWAP2 SWAP1 POP JUMP JUMPDEST PUSH32 0x4E487B7100000000000000000000000000000000000000000000000000000000 PUSH1 0x0 MSTORE PUSH1 0x11 PUSH1 0x4 MSTORE PUSH1 0x24 PUSH1 0x0 REVERT JUMPDEST PUSH1 0x0 PUSH2 0xE1B DUP3 PUSH2 0x6C8 JUMP JUMPDEST SWAP2 POP PUSH2 0xE26 DUP4 PUSH2 0x6C8 JUMP JUMPDEST SWAP3 POP DUP3 DUP3 MUL PUSH2 0xE34 DUP2 PUSH2 0x6C8 JUMP JUMPDEST SWAP2 POP DUP3 DUP3 DIV DUP5 EQ DUP4 ISZERO OR PUSH2 0xE4B JUMPI PUSH2 0xE4A PUSH2 0xDE1 JUMP JUMPDEST JUMPDEST POP SWAP3 SWAP2 POP POP JUMP JUMPDEST PUSH32 0x4E487B7100000000000000000000000000000000000000000000000000000000 PUSH1 0x0 MSTORE PUSH1 0x12 PUSH1 0x4 MSTORE PUSH1 0x24 PUSH1 0x0 REVERT JUMPDEST PUSH1 0x0 PUSH2 0xE8C DUP3 PUSH2 0x6C8 JUMP JUMPDEST SWAP2 POP PUSH2 0xE97 DUP4 PUSH2 0x6C8 JUMP JUMPDEST SWAP3 POP DUP3 PUSH2 0xEA7 JUMPI PUSH2 0xEA6 PUSH2 0xE52 JUMP JUMPDEST JUMPDEST DUP3 DUP3 DIV SWAP1 POP SWAP3 SWAP2 POP POP JUMP JUMPDEST PUSH1 0x0 PUSH2 0xEBD DUP3 PUSH2 0x6C8 JUMP JUMPDEST SWAP2 POP PUSH2 0xEC8 DUP4 PUSH2 0x6C8 JUMP JUMPDEST SWAP3 POP DUP3 DUP3 SUB SWAP1 POP DUP2 DUP2 GT ISZERO PUSH2 0xEE0 JUMPI PUSH2 0xEDF PUSH2 0xDE1 JUMP JUMPDEST JUMPDEST SWAP3 SWAP2 POP POP JUMP JUMPDEST PUSH32 0x496E73756666696369656E742062616C616E6365000000000000000000000000 PUSH1 0x0 DUP3 ADD MSTORE POP JUMP JUMPDEST PUSH1 0x0 PUSH2 0xF1C PUSH1 0x14 DUP4 PUSH2 0x776 JUMP JUMPDEST SWAP2 POP PUSH2 0xF27 DUP3 PUSH2 0xEE6 JUMP JUMPDEST PUSH1 0x20 DUP3 ADD SWAP1 POP SWAP2 SWAP1 POP JUMP JUMPDEST PUSH1 0x0 PUSH1 0x20 DUP3 ADD SWAP1 POP DUP2 DUP2 SUB PUSH1 0x0 DUP4 ADD MSTORE PUSH2 0xF4B DUP2 PUSH2 0xF0F JUMP JUMPDEST SWAP1 POP SWAP2 SWAP1 POP JUMP JUMPDEST PUSH1 0x0 PUSH2 0xF5D DUP3 PUSH2 0x6C8 JUMP JUMPDEST SWAP2 POP PUSH2 0xF68 DUP4 PUSH2 0x6C8 JUMP JUMPDEST SWAP3 POP DUP3 DUP3 ADD SWAP1 POP DUP1 DUP3 GT ISZERO PUSH2 0xF80 JUMPI PUSH2 0xF7F PUSH2 0xDE1 JUMP JUMPDEST JUMPDEST SWAP3 SWAP2 POP POP JUMP JUMPDEST PUSH1 0x0 DUP2 SLOAD PUSH2 0xF93 DUP2 PUSH2 0xAC6 JUMP JUMPDEST PUSH2 0xF9D DUP2 DUP7 PUSH2 0x776 JUMP JUMPDEST SWAP5 POP PUSH1 0x1 DUP3 AND PUSH1 0x0 DUP2 EQ PUSH2 0xFB8 JUMPI PUSH1 0x1 DUP2 EQ PUSH2 0xFCE JUMPI PUSH2 0x1001 JUMP JUMPDEST PUSH1 0xFF NOT DUP4 AND DUP7 MSTORE DUP2 ISZERO ISZERO PUSH1 0x20 MUL DUP7 ADD SWAP4 POP PUSH2 0x1001 JUMP JUMPDEST PUSH2 0xFD7 DUP6 PUSH2 0xAF7 JUMP JUMPDEST PUSH1 0x0 JUMPDEST DUP4 DUP2 LT ISZERO PUSH2 0xFF9 JUMPI DUP2 SLOAD DUP2 DUP10 ADD MSTORE PUSH1 0x1 DUP3 ADD SWAP2 POP PUSH1 0x20 DUP2 ADD SWAP1 POP PUSH2 0xFDA JUMP JUMPDEST DUP1 DUP9 ADD SWAP6 POP POP POP JUMPDEST POP POP POP SWAP3 SWAP2 POP POP JUMP JUMPDEST PUSH32 0x5553445400000000000000000000000000000000000000000000000000000000 PUSH1 0x0 DUP3 ADD MSTORE POP JUMP JUMPDEST PUSH1 0x0 PUSH2 0x1040 PUSH1 0x4 DUP4 PUSH2 0x776 JUMP JUMPDEST SWAP2 POP PUSH2 0x104B DUP3 PUSH2 0x100A JUMP JUMPDEST PUSH1 0x20 DUP3 ADD SWAP1 POP SWAP2 SWAP1 POP JUMP JUMPDEST PUSH1 0x0 PUSH1 0x60 DUP3 ADD SWAP1 POP DUP2 DUP2 SUB PUSH1 0x0 DUP4 ADD MSTORE PUSH2 0x1070 DUP2 DUP6 PUSH2 0xF86 JUMP JUMPDEST SWAP1 POP PUSH2 0x107F PUSH1 0x20 DUP4 ADD DUP5 PUSH2 0x81D JUMP JUMPDEST DUP2 DUP2 SUB PUSH1 0x40 DUP4 ADD MSTORE PUSH2 0x1090 DUP2 PUSH2 0x1033 JUMP JUMPDEST SWAP1 POP SWAP4 SWAP3 POP POP POP JUMP INVALID LOG2 PUSH5 0x6970667358 0x22 SLT KECCAK256 0xC7 0x4A 0xD7 0xB5 0xEC 0xDB BYTE 0xD9 SWAP15 0xD3 0xD4 STOP 0xCB 0x24 PUSH23 0x69EAD9E214E8268F0853854E2DE98E6FB264736F6C6343 STOP ADDMOD SLT STOP CALLER "
				},
				"gasEstimates": {
					"creation": {
						"codeDepositCost": "860600",
						"executionCost": "25163",
						"totalCost": "885763"
					},
					"external": {
						"balancesUSDT(address)": "2859",
						"loyaltyLevels(address)": "2814",
						"payTrip(address,address,uint256)": "infinite",
						"personalizedNames(address)": "infinite",
						"setInitialBalance(address,uint256)": "22859",
						"setLoyaltyLevel(address,uint256)": "22936",
						"setPersonalizedName(address,string)": "infinite"
					}
				},
				"methodIdentifiers": {
					"balancesUSDT(address)": "56b89be4",
					"loyaltyLevels(address)": "854572b4",
					"payTrip(address,address,uint256)": "ebbc9b32",
					"personalizedNames(address)": "1d3b9755",
					"setInitialBalance(address,uint256)": "0b34b555",
					"setLoyaltyLevel(address,uint256)": "d1ef621d",
					"setPersonalizedName(address,string)": "ae7b0ca1"
				}
			},
			"storageLayout": {
				"storage": [
					{
						"astId": 83,
						"contract": "loyalnames.sol:PapiGo",
						"label": "tether",
						"offset": 0,
						"slot": "0",
						"type": "t_contract(IERC20)77"
					},
					{
						"astId": 87,
						"contract": "loyalnames.sol:PapiGo",
						"label": "balancesUSDT",
						"offset": 0,
						"slot": "1",
						"type": "t_mapping(t_address,t_uint256)"
					},
					{
						"astId": 91,
						"contract": "loyalnames.sol:PapiGo",
						"label": "loyaltyLevels",
						"offset": 0,
						"slot": "2",
						"type": "t_mapping(t_address,t_uint256)"
					},
					{
						"astId": 95,
						"contract": "loyalnames.sol:PapiGo",
						"label": "personalizedNames",
						"offset": 0,
						"slot": "3",
						"type": "t_mapping(t_address,t_string_storage)"
					}
				],
				"types": {
					"t_address": {
						"encoding": "inplace",
						"label": "address",
						"numberOfBytes": "20"
					},
					"t_contract(IERC20)77": {
						"encoding": "inplace",
						"label": "contract IERC20",
						"numberOfBytes": "20"
					},
					"t_mapping(t_address,t_string_storage)": {
						"encoding": "mapping",
						"key": "t_address",
						"label": "mapping(address => string)",
						"numberOfBytes": "32",
						"value": "t_string_storage"
					},
					"t_mapping(t_address,t_uint256)": {
						"encoding": "mapping",
						"key": "t_address",
						"label": "mapping(address => uint256)",
						"numberOfBytes": "32",
						"value": "t_uint256"
					},
					"t_string_storage": {
						"encoding": "bytes",
						"label": "string",
						"numberOfBytes": "32"
					},
					"t_uint256": {
						"encoding": "inplace",
						"label": "uint256",
						"numberOfBytes": "32"
					}
				}
			},
			"userdoc": {
				"kind": "user",
				"methods": {},
				"version": 1
			}
		}
	}
}