{
	"Papigo_Contract.sol": {
		"PapiGo": {
			"abi": [
				{
					"inputs": [],
					"stateMutability": "nonpayable",
					"type": "constructor"
				},
				{
					"anonymous": false,
					"inputs": [
						{
							"indexed": true,
							"internalType": "address",
							"name": "sender",
							"type": "address"
						},
						{
							"indexed": true,
							"internalType": "address",
							"name": "recipient",
							"type": "address"
						},
						{
							"indexed": false,
							"internalType": "uint256",
							"name": "amount",
							"type": "uint256"
						},
						{
							"indexed": false,
							"internalType": "string",
							"name": "currency",
							"type": "string"
						}
					],
					"name": "Transaction",
					"type": "event"
				},
				{
					"inputs": [
						{
							"internalType": "address",
							"name": "",
							"type": "address"
						}
					],
					"name": "balancesUSDT",
					"outputs": [
						{
							"internalType": "uint256",
							"name": "",
							"type": "uint256"
						}
					],
					"stateMutability": "view",
					"type": "function"
				},
				{
					"inputs": [],
					"name": "intermediary",
					"outputs": [
						{
							"internalType": "address",
							"name": "",
							"type": "address"
						}
					],
					"stateMutability": "view",
					"type": "function"
				},
				{
					"inputs": [
						{
							"internalType": "address",
							"name": "sender",
							"type": "address"
						},
						{
							"internalType": "address",
							"name": "recipient",
							"type": "address"
						},
						{
							"internalType": "uint256",
							"name": "amountUSDT",
							"type": "uint256"
						}
					],
					"name": "payTrip",
					"outputs": [],
					"stateMutability": "nonpayable",
					"type": "function"
				},
				{
					"inputs": [
						{
							"internalType": "address",
							"name": "account",
							"type": "address"
						},
						{
							"internalType": "uint256",
							"name": "amountUSDT",
							"type": "uint256"
						}
					],
					"name": "setInitialBalance",
					"outputs": [],
					"stateMutability": "nonpayable",
					"type": "function"
				},
				{
					"inputs": [
						{
							"internalType": "address",
							"name": "_intermediary",
							"type": "address"
						}
					],
					"name": "setIntermediary",
					"outputs": [],
					"stateMutability": "nonpayable",
					"type": "function"
				}
			],
			"devdoc": {
				"kind": "dev",
				"methods": {},
				"version": 1
			},
			"evm": {
				"assembly": "    /* \"Papigo_Contract.sol\":123:1812  contract PapiGo {... */\n  mstore(0x40, 0x80)\n    /* \"Papigo_Contract.sol\":443:551  constructor() {... */\n  callvalue\n  dup1\n  iszero\n  tag_1\n  jumpi\n  0x00\n  dup1\n  revert\ntag_1:\n  pop\n    /* \"Papigo_Contract.sol\":483:525  0xdAC17F958D2ee523a2206206994597C13D831ec7 */\n  0xdac17f958d2ee523a2206206994597c13d831ec7\n    /* \"Papigo_Contract.sol\":467:473  tether */\n  0x00\n  dup1\n    /* \"Papigo_Contract.sol\":467:526  tether = IERC20(0xdAC17F958D2ee523a2206206994597C13D831ec7) */\n  0x0100\n  exp\n  dup2\n  sload\n  dup2\n  0xffffffffffffffffffffffffffffffffffffffff\n  mul\n  not\n  and\n  swap1\n  dup4\n  0xffffffffffffffffffffffffffffffffffffffff\n  and\n  mul\n  or\n  swap1\n  sstore\n  pop\n    /* \"Papigo_Contract.sol\":123:1812  contract PapiGo {... */\n  dataSize(sub_0)\n  dup1\n  dataOffset(sub_0)\n  0x00\n  codecopy\n  0x00\n  return\nstop\n\nsub_0: assembly {\n        /* \"Papigo_Contract.sol\":123:1812  contract PapiGo {... */\n      mstore(0x40, 0x80)\n      callvalue\n      dup1\n      iszero\n      tag_1\n      jumpi\n      0x00\n      dup1\n      revert\n    tag_1:\n      pop\n      jumpi(tag_2, lt(calldatasize, 0x04))\n      shr(0xe0, calldataload(0x00))\n      dup1\n      0x0b34b555\n      eq\n      tag_3\n      jumpi\n      dup1\n      0x56b89be4\n      eq\n      tag_4\n      jumpi\n      dup1\n      0x79fd022e\n      eq\n      tag_5\n      jumpi\n      dup1\n      0xa61bab2f\n      eq\n      tag_6\n      jumpi\n      dup1\n      0xebbc9b32\n      eq\n      tag_7\n      jumpi\n    tag_2:\n      0x00\n      dup1\n      revert\n        /* \"Papigo_Contract.sol\":1647:1810  function setInitialBalance(address account, uint amountUSDT) external {... */\n    tag_3:\n      tag_8\n      0x04\n      dup1\n      calldatasize\n      sub\n      dup2\n      add\n      swap1\n      tag_9\n      swap2\n      swap1\n      tag_10\n      jump\t// in\n    tag_9:\n      tag_11\n      jump\t// in\n    tag_8:\n      stop\n        /* \"Papigo_Contract.sol\":172:216  mapping(address => uint) public balancesUSDT */\n    tag_4:\n      tag_12\n      0x04\n      dup1\n      calldatasize\n      sub\n      dup2\n      add\n      swap1\n      tag_13\n      swap2\n      swap1\n      tag_14\n      jump\t// in\n    tag_13:\n      tag_15\n      jump\t// in\n    tag_12:\n      mload(0x40)\n      tag_16\n      swap2\n      swap1\n      tag_17\n      jump\t// in\n    tag_16:\n      mload(0x40)\n      dup1\n      swap2\n      sub\n      swap1\n      return\n        /* \"Papigo_Contract.sol\":283:310  address public intermediary */\n    tag_5:\n      tag_18\n      tag_19\n      jump\t// in\n    tag_18:\n      mload(0x40)\n      tag_20\n      swap2\n      swap1\n      tag_21\n      jump\t// in\n    tag_20:\n      mload(0x40)\n      dup1\n      swap2\n      sub\n      swap1\n      return\n        /* \"Papigo_Contract.sol\":561:774  function setIntermediary(address _intermediary) external {... */\n    tag_6:\n      tag_22\n      0x04\n      dup1\n      calldatasize\n      sub\n      dup2\n      add\n      swap1\n      tag_23\n      swap2\n      swap1\n      tag_14\n      jump\t// in\n    tag_23:\n      tag_24\n      jump\t// in\n    tag_22:\n      stop\n        /* \"Papigo_Contract.sol\":780:1641  function payTrip(address sender, address recipient, uint amountUSDT) external {... */\n    tag_7:\n      tag_25\n      0x04\n      dup1\n      calldatasize\n      sub\n      dup2\n      add\n      swap1\n      tag_26\n      swap2\n      swap1\n      tag_27\n      jump\t// in\n    tag_26:\n      tag_28\n      jump\t// in\n    tag_25:\n      stop\n        /* \"Papigo_Contract.sol\":1647:1810  function setInitialBalance(address account, uint amountUSDT) external {... */\n    tag_11:\n        /* \"Papigo_Contract.sol\":1793:1803  amountUSDT */\n      dup1\n        /* \"Papigo_Contract.sol\":1769:1781  balancesUSDT */\n      0x01\n        /* \"Papigo_Contract.sol\":1769:1790  balancesUSDT[account] */\n      0x00\n        /* \"Papigo_Contract.sol\":1782:1789  account */\n      dup5\n        /* \"Papigo_Contract.sol\":1769:1790  balancesUSDT[account] */\n      0xffffffffffffffffffffffffffffffffffffffff\n      and\n      0xffffffffffffffffffffffffffffffffffffffff\n      and\n      dup2\n      mstore\n      0x20\n      add\n      swap1\n      dup2\n      mstore\n      0x20\n      add\n      0x00\n      keccak256\n        /* \"Papigo_Contract.sol\":1769:1803  balancesUSDT[account] = amountUSDT */\n      dup2\n      swap1\n      sstore\n      pop\n        /* \"Papigo_Contract.sol\":1647:1810  function setInitialBalance(address account, uint amountUSDT) external {... */\n      pop\n      pop\n      jump\t// out\n        /* \"Papigo_Contract.sol\":172:216  mapping(address => uint) public balancesUSDT */\n    tag_15:\n      mstore(0x20, 0x01)\n      dup1\n      0x00\n      mstore\n      keccak256(0x00, 0x40)\n      0x00\n      swap2\n      pop\n      swap1\n      pop\n      sload\n      dup2\n      jump\t// out\n        /* \"Papigo_Contract.sol\":283:310  address public intermediary */\n    tag_19:\n      0x02\n      0x00\n      swap1\n      sload\n      swap1\n      0x0100\n      exp\n      swap1\n      div\n      0xffffffffffffffffffffffffffffffffffffffff\n      and\n      dup2\n      jump\t// out\n        /* \"Papigo_Contract.sol\":561:774  function setIntermediary(address _intermediary) external {... */\n    tag_24:\n        /* \"Papigo_Contract.sol\":661:662  0 */\n      0x00\n        /* \"Papigo_Contract.sol\":636:663  _intermediary != address(0) */\n      0xffffffffffffffffffffffffffffffffffffffff\n      and\n        /* \"Papigo_Contract.sol\":636:649  _intermediary */\n      dup2\n        /* \"Papigo_Contract.sol\":636:663  _intermediary != address(0) */\n      0xffffffffffffffffffffffffffffffffffffffff\n      and\n      sub\n        /* \"Papigo_Contract.sol\":628:696  require(_intermediary != address(0), \"Invalid intermediary address\") */\n      tag_31\n      jumpi\n      mload(0x40)\n      0x08c379a000000000000000000000000000000000000000000000000000000000\n      dup2\n      mstore\n      0x04\n      add\n      tag_32\n      swap1\n      tag_33\n      jump\t// in\n    tag_32:\n      mload(0x40)\n      dup1\n      swap2\n      sub\n      swap1\n      revert\n    tag_31:\n        /* \"Papigo_Contract.sol\":721:734  _intermediary */\n      dup1\n        /* \"Papigo_Contract.sol\":706:718  intermediary */\n      0x02\n      0x00\n        /* \"Papigo_Contract.sol\":706:734  intermediary = _intermediary */\n      0x0100\n      exp\n      dup2\n      sload\n      dup2\n      0xffffffffffffffffffffffffffffffffffffffff\n      mul\n      not\n      and\n      swap1\n      dup4\n      0xffffffffffffffffffffffffffffffffffffffff\n      and\n      mul\n      or\n      swap1\n      sstore\n      pop\n        /* \"Papigo_Contract.sol\":561:774  function setIntermediary(address _intermediary) external {... */\n      pop\n      jump\t// out\n        /* \"Papigo_Contract.sol\":780:1641  function payTrip(address sender, address recipient, uint amountUSDT) external {... */\n    tag_28:\n        /* \"Papigo_Contract.sol\":900:901  0 */\n      0x00\n        /* \"Papigo_Contract.sol\":876:902  intermediary != address(0) */\n      0xffffffffffffffffffffffffffffffffffffffff\n      and\n        /* \"Papigo_Contract.sol\":876:888  intermediary */\n      0x02\n      0x00\n      swap1\n      sload\n      swap1\n      0x0100\n      exp\n      swap1\n      div\n      0xffffffffffffffffffffffffffffffffffffffff\n      and\n        /* \"Papigo_Contract.sol\":876:902  intermediary != address(0) */\n      0xffffffffffffffffffffffffffffffffffffffff\n      and\n      sub\n        /* \"Papigo_Contract.sol\":868:935  require(intermediary != address(0), \"Intermediary address not set\") */\n      tag_35\n      jumpi\n      mload(0x40)\n      0x08c379a000000000000000000000000000000000000000000000000000000000\n      dup2\n      mstore\n      0x04\n      add\n      tag_36\n      swap1\n      tag_37\n      jump\t// in\n    tag_36:\n      mload(0x40)\n      dup1\n      swap2\n      sub\n      swap1\n      revert\n    tag_35:\n        /* \"Papigo_Contract.sol\":954:974  uint intermediaryFee */\n      0x00\n        /* \"Papigo_Contract.sol\":996:999  100 */\n      0x64\n        /* \"Papigo_Contract.sol\":991:992  5 */\n      0x05\n        /* \"Papigo_Contract.sol\":978:988  amountUSDT */\n      dup4\n        /* \"Papigo_Contract.sol\":978:992  amountUSDT * 5 */\n      tag_38\n      swap2\n      swap1\n      tag_39\n      jump\t// in\n    tag_38:\n        /* \"Papigo_Contract.sol\":977:999  (amountUSDT * 5) / 100 */\n      tag_40\n      swap2\n      swap1\n      tag_41\n      jump\t// in\n    tag_40:\n        /* \"Papigo_Contract.sol\":954:999  uint intermediaryFee = (amountUSDT * 5) / 100 */\n      swap1\n      pop\n        /* \"Papigo_Contract.sol\":1032:1051  uint amountAfterFee */\n      0x00\n        /* \"Papigo_Contract.sol\":1067:1082  intermediaryFee */\n      dup2\n        /* \"Papigo_Contract.sol\":1054:1064  amountUSDT */\n      dup4\n        /* \"Papigo_Contract.sol\":1054:1082  amountUSDT - intermediaryFee */\n      tag_42\n      swap2\n      swap1\n      tag_43\n      jump\t// in\n    tag_42:\n        /* \"Papigo_Contract.sol\":1032:1082  uint amountAfterFee = amountUSDT - intermediaryFee */\n      swap1\n      pop\n        /* \"Papigo_Contract.sol\":1164:1174  amountUSDT */\n      dup3\n        /* \"Papigo_Contract.sol\":1140:1152  balancesUSDT */\n      0x01\n        /* \"Papigo_Contract.sol\":1140:1160  balancesUSDT[sender] */\n      0x00\n        /* \"Papigo_Contract.sol\":1153:1159  sender */\n      dup8\n        /* \"Papigo_Contract.sol\":1140:1160  balancesUSDT[sender] */\n      0xffffffffffffffffffffffffffffffffffffffff\n      and\n      0xffffffffffffffffffffffffffffffffffffffff\n      and\n      dup2\n      mstore\n      0x20\n      add\n      swap1\n      dup2\n      mstore\n      0x20\n      add\n      0x00\n      keccak256\n      0x00\n        /* \"Papigo_Contract.sol\":1140:1174  balancesUSDT[sender] -= amountUSDT */\n      dup3\n      dup3\n      sload\n      tag_44\n      swap2\n      swap1\n      tag_43\n      jump\t// in\n    tag_44:\n      swap3\n      pop\n      pop\n      dup2\n      swap1\n      sstore\n      pop\n        /* \"Papigo_Contract.sol\":1257:1272  intermediaryFee */\n      dup2\n        /* \"Papigo_Contract.sol\":1227:1239  balancesUSDT */\n      0x01\n        /* \"Papigo_Contract.sol\":1227:1253  balancesUSDT[intermediary] */\n      0x00\n        /* \"Papigo_Contract.sol\":1240:1252  intermediary */\n      0x02\n      0x00\n      swap1\n      sload\n      swap1\n      0x0100\n      exp\n      swap1\n      div\n      0xffffffffffffffffffffffffffffffffffffffff\n      and\n        /* \"Papigo_Contract.sol\":1227:1253  balancesUSDT[intermediary] */\n      0xffffffffffffffffffffffffffffffffffffffff\n      and\n      0xffffffffffffffffffffffffffffffffffffffff\n      and\n      dup2\n      mstore\n      0x20\n      add\n      swap1\n      dup2\n      mstore\n      0x20\n      add\n      0x00\n      keccak256\n      0x00\n        /* \"Papigo_Contract.sol\":1227:1272  balancesUSDT[intermediary] += intermediaryFee */\n      dup3\n      dup3\n      sload\n      tag_45\n      swap2\n      swap1\n      tag_46\n      jump\t// in\n    tag_45:\n      swap3\n      pop\n      pop\n      dup2\n      swap1\n      sstore\n      pop\n        /* \"Papigo_Contract.sol\":1357:1371  amountAfterFee */\n      dup1\n        /* \"Papigo_Contract.sol\":1330:1342  balancesUSDT */\n      0x01\n        /* \"Papigo_Contract.sol\":1330:1353  balancesUSDT[recipient] */\n      0x00\n        /* \"Papigo_Contract.sol\":1343:1352  recipient */\n      dup7\n        /* \"Papigo_Contract.sol\":1330:1353  balancesUSDT[recipient] */\n      0xffffffffffffffffffffffffffffffffffffffff\n      and\n      0xffffffffffffffffffffffffffffffffffffffff\n      and\n      dup2\n      mstore\n      0x20\n      add\n      swap1\n      dup2\n      mstore\n      0x20\n      add\n      0x00\n      keccak256\n      0x00\n        /* \"Papigo_Contract.sol\":1330:1371  balancesUSDT[recipient] += amountAfterFee */\n      dup3\n      dup3\n      sload\n      tag_47\n      swap2\n      swap1\n      tag_46\n      jump\t// in\n    tag_47:\n      swap3\n      pop\n      pop\n      dup2\n      swap1\n      sstore\n      pop\n        /* \"Papigo_Contract.sol\":1462:1471  recipient */\n      dup4\n        /* \"Papigo_Contract.sol\":1442:1492  Transaction(sender, recipient, amountUSDT, \"USDT\") */\n      0xffffffffffffffffffffffffffffffffffffffff\n      and\n        /* \"Papigo_Contract.sol\":1454:1460  sender */\n      dup6\n        /* \"Papigo_Contract.sol\":1442:1492  Transaction(sender, recipient, amountUSDT, \"USDT\") */\n      0xffffffffffffffffffffffffffffffffffffffff\n      and\n      0x7438b3ab3d18b29df7bf7fe592cc95dc9b3d321d1f880ad411f65b98df9bbd50\n        /* \"Papigo_Contract.sol\":1473:1483  amountUSDT */\n      dup6\n        /* \"Papigo_Contract.sol\":1442:1492  Transaction(sender, recipient, amountUSDT, \"USDT\") */\n      mload(0x40)\n      tag_48\n      swap2\n      swap1\n      tag_49\n      jump\t// in\n    tag_48:\n      mload(0x40)\n      dup1\n      swap2\n      sub\n      swap1\n      log3\n        /* \"Papigo_Contract.sol\":1527:1539  intermediary */\n      0x02\n      0x00\n      swap1\n      sload\n      swap1\n      0x0100\n      exp\n      swap1\n      div\n      0xffffffffffffffffffffffffffffffffffffffff\n      and\n        /* \"Papigo_Contract.sol\":1507:1565  Transaction(sender, intermediary, intermediaryFee, \"USDT\") */\n      0xffffffffffffffffffffffffffffffffffffffff\n      and\n        /* \"Papigo_Contract.sol\":1519:1525  sender */\n      dup6\n        /* \"Papigo_Contract.sol\":1507:1565  Transaction(sender, intermediary, intermediaryFee, \"USDT\") */\n      0xffffffffffffffffffffffffffffffffffffffff\n      and\n      0x7438b3ab3d18b29df7bf7fe592cc95dc9b3d321d1f880ad411f65b98df9bbd50\n        /* \"Papigo_Contract.sol\":1541:1556  intermediaryFee */\n      dup5\n        /* \"Papigo_Contract.sol\":1507:1565  Transaction(sender, intermediary, intermediaryFee, \"USDT\") */\n      mload(0x40)\n      tag_50\n      swap2\n      swap1\n      tag_49\n      jump\t// in\n    tag_50:\n      mload(0x40)\n      dup1\n      swap2\n      sub\n      swap1\n      log3\n        /* \"Papigo_Contract.sol\":858:1641  {... */\n      pop\n      pop\n        /* \"Papigo_Contract.sol\":780:1641  function payTrip(address sender, address recipient, uint amountUSDT) external {... */\n      pop\n      pop\n      pop\n      jump\t// out\n        /* \"#utility.yul\":88:205   */\n    tag_52:\n        /* \"#utility.yul\":197:198   */\n      0x00\n        /* \"#utility.yul\":194:195   */\n      dup1\n        /* \"#utility.yul\":187:199   */\n      revert\n        /* \"#utility.yul\":334:460   */\n    tag_54:\n        /* \"#utility.yul\":371:378   */\n      0x00\n        /* \"#utility.yul\":411:453   */\n      0xffffffffffffffffffffffffffffffffffffffff\n        /* \"#utility.yul\":404:409   */\n      dup3\n        /* \"#utility.yul\":400:454   */\n      and\n        /* \"#utility.yul\":389:454   */\n      swap1\n      pop\n        /* \"#utility.yul\":334:460   */\n      swap2\n      swap1\n      pop\n      jump\t// out\n        /* \"#utility.yul\":466:562   */\n    tag_55:\n        /* \"#utility.yul\":503:510   */\n      0x00\n        /* \"#utility.yul\":532:556   */\n      tag_78\n        /* \"#utility.yul\":550:555   */\n      dup3\n        /* \"#utility.yul\":532:556   */\n      tag_54\n      jump\t// in\n    tag_78:\n        /* \"#utility.yul\":521:556   */\n      swap1\n      pop\n        /* \"#utility.yul\":466:562   */\n      swap2\n      swap1\n      pop\n      jump\t// out\n        /* \"#utility.yul\":568:690   */\n    tag_56:\n        /* \"#utility.yul\":641:665   */\n      tag_80\n        /* \"#utility.yul\":659:664   */\n      dup2\n        /* \"#utility.yul\":641:665   */\n      tag_55\n      jump\t// in\n    tag_80:\n        /* \"#utility.yul\":634:639   */\n      dup2\n        /* \"#utility.yul\":631:666   */\n      eq\n        /* \"#utility.yul\":621:684   */\n      tag_81\n      jumpi\n        /* \"#utility.yul\":680:681   */\n      0x00\n        /* \"#utility.yul\":677:678   */\n      dup1\n        /* \"#utility.yul\":670:682   */\n      revert\n        /* \"#utility.yul\":621:684   */\n    tag_81:\n        /* \"#utility.yul\":568:690   */\n      pop\n      jump\t// out\n        /* \"#utility.yul\":696:835   */\n    tag_57:\n        /* \"#utility.yul\":742:747   */\n      0x00\n        /* \"#utility.yul\":780:786   */\n      dup2\n        /* \"#utility.yul\":767:787   */\n      calldataload\n        /* \"#utility.yul\":758:787   */\n      swap1\n      pop\n        /* \"#utility.yul\":796:829   */\n      tag_83\n        /* \"#utility.yul\":823:828   */\n      dup2\n        /* \"#utility.yul\":796:829   */\n      tag_56\n      jump\t// in\n    tag_83:\n        /* \"#utility.yul\":696:835   */\n      swap3\n      swap2\n      pop\n      pop\n      jump\t// out\n        /* \"#utility.yul\":841:918   */\n    tag_58:\n        /* \"#utility.yul\":878:885   */\n      0x00\n        /* \"#utility.yul\":907:912   */\n      dup2\n        /* \"#utility.yul\":896:912   */\n      swap1\n      pop\n        /* \"#utility.yul\":841:918   */\n      swap2\n      swap1\n      pop\n      jump\t// out\n        /* \"#utility.yul\":924:1046   */\n    tag_59:\n        /* \"#utility.yul\":997:1021   */\n      tag_86\n        /* \"#utility.yul\":1015:1020   */\n      dup2\n        /* \"#utility.yul\":997:1021   */\n      tag_58\n      jump\t// in\n    tag_86:\n        /* \"#utility.yul\":990:995   */\n      dup2\n        /* \"#utility.yul\":987:1022   */\n      eq\n        /* \"#utility.yul\":977:1040   */\n      tag_87\n      jumpi\n        /* \"#utility.yul\":1036:1037   */\n      0x00\n        /* \"#utility.yul\":1033:1034   */\n      dup1\n        /* \"#utility.yul\":1026:1038   */\n      revert\n        /* \"#utility.yul\":977:1040   */\n    tag_87:\n        /* \"#utility.yul\":924:1046   */\n      pop\n      jump\t// out\n        /* \"#utility.yul\":1052:1191   */\n    tag_60:\n        /* \"#utility.yul\":1098:1103   */\n      0x00\n        /* \"#utility.yul\":1136:1142   */\n      dup2\n        /* \"#utility.yul\":1123:1143   */\n      calldataload\n        /* \"#utility.yul\":1114:1143   */\n      swap1\n      pop\n        /* \"#utility.yul\":1152:1185   */\n      tag_89\n        /* \"#utility.yul\":1179:1184   */\n      dup2\n        /* \"#utility.yul\":1152:1185   */\n      tag_59\n      jump\t// in\n    tag_89:\n        /* \"#utility.yul\":1052:1191   */\n      swap3\n      swap2\n      pop\n      pop\n      jump\t// out\n        /* \"#utility.yul\":1197:1671   */\n    tag_10:\n        /* \"#utility.yul\":1265:1271   */\n      0x00\n        /* \"#utility.yul\":1273:1279   */\n      dup1\n        /* \"#utility.yul\":1322:1324   */\n      0x40\n        /* \"#utility.yul\":1310:1319   */\n      dup4\n        /* \"#utility.yul\":1301:1308   */\n      dup6\n        /* \"#utility.yul\":1297:1320   */\n      sub\n        /* \"#utility.yul\":1293:1325   */\n      slt\n        /* \"#utility.yul\":1290:1409   */\n      iszero\n      tag_91\n      jumpi\n        /* \"#utility.yul\":1328:1407   */\n      tag_92\n      tag_52\n      jump\t// in\n    tag_92:\n        /* \"#utility.yul\":1290:1409   */\n    tag_91:\n        /* \"#utility.yul\":1448:1449   */\n      0x00\n        /* \"#utility.yul\":1473:1526   */\n      tag_93\n        /* \"#utility.yul\":1518:1525   */\n      dup6\n        /* \"#utility.yul\":1509:1515   */\n      dup3\n        /* \"#utility.yul\":1498:1507   */\n      dup7\n        /* \"#utility.yul\":1494:1516   */\n      add\n        /* \"#utility.yul\":1473:1526   */\n      tag_57\n      jump\t// in\n    tag_93:\n        /* \"#utility.yul\":1463:1526   */\n      swap3\n      pop\n        /* \"#utility.yul\":1419:1536   */\n      pop\n        /* \"#utility.yul\":1575:1577   */\n      0x20\n        /* \"#utility.yul\":1601:1654   */\n      tag_94\n        /* \"#utility.yul\":1646:1653   */\n      dup6\n        /* \"#utility.yul\":1637:1643   */\n      dup3\n        /* \"#utility.yul\":1626:1635   */\n      dup7\n        /* \"#utility.yul\":1622:1644   */\n      add\n        /* \"#utility.yul\":1601:1654   */\n      tag_60\n      jump\t// in\n    tag_94:\n        /* \"#utility.yul\":1591:1654   */\n      swap2\n      pop\n        /* \"#utility.yul\":1546:1664   */\n      pop\n        /* \"#utility.yul\":1197:1671   */\n      swap3\n      pop\n      swap3\n      swap1\n      pop\n      jump\t// out\n        /* \"#utility.yul\":1677:2006   */\n    tag_14:\n        /* \"#utility.yul\":1736:1742   */\n      0x00\n        /* \"#utility.yul\":1785:1787   */\n      0x20\n        /* \"#utility.yul\":1773:1782   */\n      dup3\n        /* \"#utility.yul\":1764:1771   */\n      dup5\n        /* \"#utility.yul\":1760:1783   */\n      sub\n        /* \"#utility.yul\":1756:1788   */\n      slt\n        /* \"#utility.yul\":1753:1872   */\n      iszero\n      tag_96\n      jumpi\n        /* \"#utility.yul\":1791:1870   */\n      tag_97\n      tag_52\n      jump\t// in\n    tag_97:\n        /* \"#utility.yul\":1753:1872   */\n    tag_96:\n        /* \"#utility.yul\":1911:1912   */\n      0x00\n        /* \"#utility.yul\":1936:1989   */\n      tag_98\n        /* \"#utility.yul\":1981:1988   */\n      dup5\n        /* \"#utility.yul\":1972:1978   */\n      dup3\n        /* \"#utility.yul\":1961:1970   */\n      dup6\n        /* \"#utility.yul\":1957:1979   */\n      add\n        /* \"#utility.yul\":1936:1989   */\n      tag_57\n      jump\t// in\n    tag_98:\n        /* \"#utility.yul\":1926:1989   */\n      swap2\n      pop\n        /* \"#utility.yul\":1882:1999   */\n      pop\n        /* \"#utility.yul\":1677:2006   */\n      swap3\n      swap2\n      pop\n      pop\n      jump\t// out\n        /* \"#utility.yul\":2012:2130   */\n    tag_61:\n        /* \"#utility.yul\":2099:2123   */\n      tag_100\n        /* \"#utility.yul\":2117:2122   */\n      dup2\n        /* \"#utility.yul\":2099:2123   */\n      tag_58\n      jump\t// in\n    tag_100:\n        /* \"#utility.yul\":2094:2097   */\n      dup3\n        /* \"#utility.yul\":2087:2124   */\n      mstore\n        /* \"#utility.yul\":2012:2130   */\n      pop\n      pop\n      jump\t// out\n        /* \"#utility.yul\":2136:2358   */\n    tag_17:\n        /* \"#utility.yul\":2229:2233   */\n      0x00\n        /* \"#utility.yul\":2267:2269   */\n      0x20\n        /* \"#utility.yul\":2256:2265   */\n      dup3\n        /* \"#utility.yul\":2252:2270   */\n      add\n        /* \"#utility.yul\":2244:2270   */\n      swap1\n      pop\n        /* \"#utility.yul\":2280:2351   */\n      tag_102\n        /* \"#utility.yul\":2348:2349   */\n      0x00\n        /* \"#utility.yul\":2337:2346   */\n      dup4\n        /* \"#utility.yul\":2333:2350   */\n      add\n        /* \"#utility.yul\":2324:2330   */\n      dup5\n        /* \"#utility.yul\":2280:2351   */\n      tag_61\n      jump\t// in\n    tag_102:\n        /* \"#utility.yul\":2136:2358   */\n      swap3\n      swap2\n      pop\n      pop\n      jump\t// out\n        /* \"#utility.yul\":2364:2482   */\n    tag_62:\n        /* \"#utility.yul\":2451:2475   */\n      tag_104\n        /* \"#utility.yul\":2469:2474   */\n      dup2\n        /* \"#utility.yul\":2451:2475   */\n      tag_55\n      jump\t// in\n    tag_104:\n        /* \"#utility.yul\":2446:2449   */\n      dup3\n        /* \"#utility.yul\":2439:2476   */\n      mstore\n        /* \"#utility.yul\":2364:2482   */\n      pop\n      pop\n      jump\t// out\n        /* \"#utility.yul\":2488:2710   */\n    tag_21:\n        /* \"#utility.yul\":2581:2585   */\n      0x00\n        /* \"#utility.yul\":2619:2621   */\n      0x20\n        /* \"#utility.yul\":2608:2617   */\n      dup3\n        /* \"#utility.yul\":2604:2622   */\n      add\n        /* \"#utility.yul\":2596:2622   */\n      swap1\n      pop\n        /* \"#utility.yul\":2632:2703   */\n      tag_106\n        /* \"#utility.yul\":2700:2701   */\n      0x00\n        /* \"#utility.yul\":2689:2698   */\n      dup4\n        /* \"#utility.yul\":2685:2702   */\n      add\n        /* \"#utility.yul\":2676:2682   */\n      dup5\n        /* \"#utility.yul\":2632:2703   */\n      tag_62\n      jump\t// in\n    tag_106:\n        /* \"#utility.yul\":2488:2710   */\n      swap3\n      swap2\n      pop\n      pop\n      jump\t// out\n        /* \"#utility.yul\":2716:3335   */\n    tag_27:\n        /* \"#utility.yul\":2793:2799   */\n      0x00\n        /* \"#utility.yul\":2801:2807   */\n      dup1\n        /* \"#utility.yul\":2809:2815   */\n      0x00\n        /* \"#utility.yul\":2858:2860   */\n      0x60\n        /* \"#utility.yul\":2846:2855   */\n      dup5\n        /* \"#utility.yul\":2837:2844   */\n      dup7\n        /* \"#utility.yul\":2833:2856   */\n      sub\n        /* \"#utility.yul\":2829:2861   */\n      slt\n        /* \"#utility.yul\":2826:2945   */\n      iszero\n      tag_108\n      jumpi\n        /* \"#utility.yul\":2864:2943   */\n      tag_109\n      tag_52\n      jump\t// in\n    tag_109:\n        /* \"#utility.yul\":2826:2945   */\n    tag_108:\n        /* \"#utility.yul\":2984:2985   */\n      0x00\n        /* \"#utility.yul\":3009:3062   */\n      tag_110\n        /* \"#utility.yul\":3054:3061   */\n      dup7\n        /* \"#utility.yul\":3045:3051   */\n      dup3\n        /* \"#utility.yul\":3034:3043   */\n      dup8\n        /* \"#utility.yul\":3030:3052   */\n      add\n        /* \"#utility.yul\":3009:3062   */\n      tag_57\n      jump\t// in\n    tag_110:\n        /* \"#utility.yul\":2999:3062   */\n      swap4\n      pop\n        /* \"#utility.yul\":2955:3072   */\n      pop\n        /* \"#utility.yul\":3111:3113   */\n      0x20\n        /* \"#utility.yul\":3137:3190   */\n      tag_111\n        /* \"#utility.yul\":3182:3189   */\n      dup7\n        /* \"#utility.yul\":3173:3179   */\n      dup3\n        /* \"#utility.yul\":3162:3171   */\n      dup8\n        /* \"#utility.yul\":3158:3180   */\n      add\n        /* \"#utility.yul\":3137:3190   */\n      tag_57\n      jump\t// in\n    tag_111:\n        /* \"#utility.yul\":3127:3190   */\n      swap3\n      pop\n        /* \"#utility.yul\":3082:3200   */\n      pop\n        /* \"#utility.yul\":3239:3241   */\n      0x40\n        /* \"#utility.yul\":3265:3318   */\n      tag_112\n        /* \"#utility.yul\":3310:3317   */\n      dup7\n        /* \"#utility.yul\":3301:3307   */\n      dup3\n        /* \"#utility.yul\":3290:3299   */\n      dup8\n        /* \"#utility.yul\":3286:3308   */\n      add\n        /* \"#utility.yul\":3265:3318   */\n      tag_60\n      jump\t// in\n    tag_112:\n        /* \"#utility.yul\":3255:3318   */\n      swap2\n      pop\n        /* \"#utility.yul\":3210:3328   */\n      pop\n        /* \"#utility.yul\":2716:3335   */\n      swap3\n      pop\n      swap3\n      pop\n      swap3\n      jump\t// out\n        /* \"#utility.yul\":3341:3510   */\n    tag_63:\n        /* \"#utility.yul\":3425:3436   */\n      0x00\n        /* \"#utility.yul\":3459:3465   */\n      dup3\n        /* \"#utility.yul\":3454:3457   */\n      dup3\n        /* \"#utility.yul\":3447:3466   */\n      mstore\n        /* \"#utility.yul\":3499:3503   */\n      0x20\n        /* \"#utility.yul\":3494:3497   */\n      dup3\n        /* \"#utility.yul\":3490:3504   */\n      add\n        /* \"#utility.yul\":3475:3504   */\n      swap1\n      pop\n        /* \"#utility.yul\":3341:3510   */\n      swap3\n      swap2\n      pop\n      pop\n      jump\t// out\n        /* \"#utility.yul\":3516:3694   */\n    tag_64:\n        /* \"#utility.yul\":3656:3686   */\n      0x496e76616c696420696e7465726d656469617279206164647265737300000000\n        /* \"#utility.yul\":3652:3653   */\n      0x00\n        /* \"#utility.yul\":3644:3650   */\n      dup3\n        /* \"#utility.yul\":3640:3654   */\n      add\n        /* \"#utility.yul\":3633:3687   */\n      mstore\n        /* \"#utility.yul\":3516:3694   */\n      pop\n      jump\t// out\n        /* \"#utility.yul\":3700:4066   */\n    tag_65:\n        /* \"#utility.yul\":3842:3845   */\n      0x00\n        /* \"#utility.yul\":3863:3930   */\n      tag_116\n        /* \"#utility.yul\":3927:3929   */\n      0x1c\n        /* \"#utility.yul\":3922:3925   */\n      dup4\n        /* \"#utility.yul\":3863:3930   */\n      tag_63\n      jump\t// in\n    tag_116:\n        /* \"#utility.yul\":3856:3930   */\n      swap2\n      pop\n        /* \"#utility.yul\":3939:4032   */\n      tag_117\n        /* \"#utility.yul\":4028:4031   */\n      dup3\n        /* \"#utility.yul\":3939:4032   */\n      tag_64\n      jump\t// in\n    tag_117:\n        /* \"#utility.yul\":4057:4059   */\n      0x20\n        /* \"#utility.yul\":4052:4055   */\n      dup3\n        /* \"#utility.yul\":4048:4060   */\n      add\n        /* \"#utility.yul\":4041:4060   */\n      swap1\n      pop\n        /* \"#utility.yul\":3700:4066   */\n      swap2\n      swap1\n      pop\n      jump\t// out\n        /* \"#utility.yul\":4072:4491   */\n    tag_33:\n        /* \"#utility.yul\":4238:4242   */\n      0x00\n        /* \"#utility.yul\":4276:4278   */\n      0x20\n        /* \"#utility.yul\":4265:4274   */\n      dup3\n        /* \"#utility.yul\":4261:4279   */\n      add\n        /* \"#utility.yul\":4253:4279   */\n      swap1\n      pop\n        /* \"#utility.yul\":4325:4334   */\n      dup2\n        /* \"#utility.yul\":4319:4323   */\n      dup2\n        /* \"#utility.yul\":4315:4335   */\n      sub\n        /* \"#utility.yul\":4311:4312   */\n      0x00\n        /* \"#utility.yul\":4300:4309   */\n      dup4\n        /* \"#utility.yul\":4296:4313   */\n      add\n        /* \"#utility.yul\":4289:4336   */\n      mstore\n        /* \"#utility.yul\":4353:4484   */\n      tag_119\n        /* \"#utility.yul\":4479:4483   */\n      dup2\n        /* \"#utility.yul\":4353:4484   */\n      tag_65\n      jump\t// in\n    tag_119:\n        /* \"#utility.yul\":4345:4484   */\n      swap1\n      pop\n        /* \"#utility.yul\":4072:4491   */\n      swap2\n      swap1\n      pop\n      jump\t// out\n        /* \"#utility.yul\":4497:4675   */\n    tag_66:\n        /* \"#utility.yul\":4637:4667   */\n      0x496e7465726d6564696172792061646472657373206e6f742073657400000000\n        /* \"#utility.yul\":4633:4634   */\n      0x00\n        /* \"#utility.yul\":4625:4631   */\n      dup3\n        /* \"#utility.yul\":4621:4635   */\n      add\n        /* \"#utility.yul\":4614:4668   */\n      mstore\n        /* \"#utility.yul\":4497:4675   */\n      pop\n      jump\t// out\n        /* \"#utility.yul\":4681:5047   */\n    tag_67:\n        /* \"#utility.yul\":4823:4826   */\n      0x00\n        /* \"#utility.yul\":4844:4911   */\n      tag_122\n        /* \"#utility.yul\":4908:4910   */\n      0x1c\n        /* \"#utility.yul\":4903:4906   */\n      dup4\n        /* \"#utility.yul\":4844:4911   */\n      tag_63\n      jump\t// in\n    tag_122:\n        /* \"#utility.yul\":4837:4911   */\n      swap2\n      pop\n        /* \"#utility.yul\":4920:5013   */\n      tag_123\n        /* \"#utility.yul\":5009:5012   */\n      dup3\n        /* \"#utility.yul\":4920:5013   */\n      tag_66\n      jump\t// in\n    tag_123:\n        /* \"#utility.yul\":5038:5040   */\n      0x20\n        /* \"#utility.yul\":5033:5036   */\n      dup3\n        /* \"#utility.yul\":5029:5041   */\n      add\n        /* \"#utility.yul\":5022:5041   */\n      swap1\n      pop\n        /* \"#utility.yul\":4681:5047   */\n      swap2\n      swap1\n      pop\n      jump\t// out\n        /* \"#utility.yul\":5053:5472   */\n    tag_37:\n        /* \"#utility.yul\":5219:5223   */\n      0x00\n        /* \"#utility.yul\":5257:5259   */\n      0x20\n        /* \"#utility.yul\":5246:5255   */\n      dup3\n        /* \"#utility.yul\":5242:5260   */\n      add\n        /* \"#utility.yul\":5234:5260   */\n      swap1\n      pop\n        /* \"#utility.yul\":5306:5315   */\n      dup2\n        /* \"#utility.yul\":5300:5304   */\n      dup2\n        /* \"#utility.yul\":5296:5316   */\n      sub\n        /* \"#utility.yul\":5292:5293   */\n      0x00\n        /* \"#utility.yul\":5281:5290   */\n      dup4\n        /* \"#utility.yul\":5277:5294   */\n      add\n        /* \"#utility.yul\":5270:5317   */\n      mstore\n        /* \"#utility.yul\":5334:5465   */\n      tag_125\n        /* \"#utility.yul\":5460:5464   */\n      dup2\n        /* \"#utility.yul\":5334:5465   */\n      tag_67\n      jump\t// in\n    tag_125:\n        /* \"#utility.yul\":5326:5465   */\n      swap1\n      pop\n        /* \"#utility.yul\":5053:5472   */\n      swap2\n      swap1\n      pop\n      jump\t// out\n        /* \"#utility.yul\":5478:5658   */\n    tag_68:\n        /* \"#utility.yul\":5526:5603   */\n      0x4e487b7100000000000000000000000000000000000000000000000000000000\n        /* \"#utility.yul\":5523:5524   */\n      0x00\n        /* \"#utility.yul\":5516:5604   */\n      mstore\n        /* \"#utility.yul\":5623:5627   */\n      0x11\n        /* \"#utility.yul\":5620:5621   */\n      0x04\n        /* \"#utility.yul\":5613:5628   */\n      mstore\n        /* \"#utility.yul\":5647:5651   */\n      0x24\n        /* \"#utility.yul\":5644:5645   */\n      0x00\n        /* \"#utility.yul\":5637:5652   */\n      revert\n        /* \"#utility.yul\":5664:6074   */\n    tag_39:\n        /* \"#utility.yul\":5704:5711   */\n      0x00\n        /* \"#utility.yul\":5727:5747   */\n      tag_128\n        /* \"#utility.yul\":5745:5746   */\n      dup3\n        /* \"#utility.yul\":5727:5747   */\n      tag_58\n      jump\t// in\n    tag_128:\n        /* \"#utility.yul\":5722:5747   */\n      swap2\n      pop\n        /* \"#utility.yul\":5761:5781   */\n      tag_129\n        /* \"#utility.yul\":5779:5780   */\n      dup4\n        /* \"#utility.yul\":5761:5781   */\n      tag_58\n      jump\t// in\n    tag_129:\n        /* \"#utility.yul\":5756:5781   */\n      swap3\n      pop\n        /* \"#utility.yul\":5816:5817   */\n      dup3\n        /* \"#utility.yul\":5813:5814   */\n      dup3\n        /* \"#utility.yul\":5809:5818   */\n      mul\n        /* \"#utility.yul\":5838:5868   */\n      tag_130\n        /* \"#utility.yul\":5856:5867   */\n      dup2\n        /* \"#utility.yul\":5838:5868   */\n      tag_58\n      jump\t// in\n    tag_130:\n        /* \"#utility.yul\":5827:5868   */\n      swap2\n      pop\n        /* \"#utility.yul\":6017:6018   */\n      dup3\n        /* \"#utility.yul\":6008:6015   */\n      dup3\n        /* \"#utility.yul\":6004:6019   */\n      div\n        /* \"#utility.yul\":6001:6002   */\n      dup5\n        /* \"#utility.yul\":5998:6020   */\n      eq\n        /* \"#utility.yul\":5978:5979   */\n      dup4\n        /* \"#utility.yul\":5971:5980   */\n      iszero\n        /* \"#utility.yul\":5951:6034   */\n      or\n        /* \"#utility.yul\":5928:6067   */\n      tag_131\n      jumpi\n        /* \"#utility.yul\":6047:6065   */\n      tag_132\n      tag_68\n      jump\t// in\n    tag_132:\n        /* \"#utility.yul\":5928:6067   */\n    tag_131:\n        /* \"#utility.yul\":5712:6074   */\n      pop\n        /* \"#utility.yul\":5664:6074   */\n      swap3\n      swap2\n      pop\n      pop\n      jump\t// out\n        /* \"#utility.yul\":6080:6260   */\n    tag_69:\n        /* \"#utility.yul\":6128:6205   */\n      0x4e487b7100000000000000000000000000000000000000000000000000000000\n        /* \"#utility.yul\":6125:6126   */\n      0x00\n        /* \"#utility.yul\":6118:6206   */\n      mstore\n        /* \"#utility.yul\":6225:6229   */\n      0x12\n        /* \"#utility.yul\":6222:6223   */\n      0x04\n        /* \"#utility.yul\":6215:6230   */\n      mstore\n        /* \"#utility.yul\":6249:6253   */\n      0x24\n        /* \"#utility.yul\":6246:6247   */\n      0x00\n        /* \"#utility.yul\":6239:6254   */\n      revert\n        /* \"#utility.yul\":6266:6451   */\n    tag_41:\n        /* \"#utility.yul\":6306:6307   */\n      0x00\n        /* \"#utility.yul\":6323:6343   */\n      tag_135\n        /* \"#utility.yul\":6341:6342   */\n      dup3\n        /* \"#utility.yul\":6323:6343   */\n      tag_58\n      jump\t// in\n    tag_135:\n        /* \"#utility.yul\":6318:6343   */\n      swap2\n      pop\n        /* \"#utility.yul\":6357:6377   */\n      tag_136\n        /* \"#utility.yul\":6375:6376   */\n      dup4\n        /* \"#utility.yul\":6357:6377   */\n      tag_58\n      jump\t// in\n    tag_136:\n        /* \"#utility.yul\":6352:6377   */\n      swap3\n      pop\n        /* \"#utility.yul\":6396:6397   */\n      dup3\n        /* \"#utility.yul\":6386:6421   */\n      tag_137\n      jumpi\n        /* \"#utility.yul\":6401:6419   */\n      tag_138\n      tag_69\n      jump\t// in\n    tag_138:\n        /* \"#utility.yul\":6386:6421   */\n    tag_137:\n        /* \"#utility.yul\":6443:6444   */\n      dup3\n        /* \"#utility.yul\":6440:6441   */\n      dup3\n        /* \"#utility.yul\":6436:6445   */\n      div\n        /* \"#utility.yul\":6431:6445   */\n      swap1\n      pop\n        /* \"#utility.yul\":6266:6451   */\n      swap3\n      swap2\n      pop\n      pop\n      jump\t// out\n        /* \"#utility.yul\":6457:6651   */\n    tag_43:\n        /* \"#utility.yul\":6497:6501   */\n      0x00\n        /* \"#utility.yul\":6517:6537   */\n      tag_140\n        /* \"#utility.yul\":6535:6536   */\n      dup3\n        /* \"#utility.yul\":6517:6537   */\n      tag_58\n      jump\t// in\n    tag_140:\n        /* \"#utility.yul\":6512:6537   */\n      swap2\n      pop\n        /* \"#utility.yul\":6551:6571   */\n      tag_141\n        /* \"#utility.yul\":6569:6570   */\n      dup4\n        /* \"#utility.yul\":6551:6571   */\n      tag_58\n      jump\t// in\n    tag_141:\n        /* \"#utility.yul\":6546:6571   */\n      swap3\n      pop\n        /* \"#utility.yul\":6595:6596   */\n      dup3\n        /* \"#utility.yul\":6592:6593   */\n      dup3\n        /* \"#utility.yul\":6588:6597   */\n      sub\n        /* \"#utility.yul\":6580:6597   */\n      swap1\n      pop\n        /* \"#utility.yul\":6619:6620   */\n      dup2\n        /* \"#utility.yul\":6613:6617   */\n      dup2\n        /* \"#utility.yul\":6610:6621   */\n      gt\n        /* \"#utility.yul\":6607:6644   */\n      iszero\n      tag_142\n      jumpi\n        /* \"#utility.yul\":6624:6642   */\n      tag_143\n      tag_68\n      jump\t// in\n    tag_143:\n        /* \"#utility.yul\":6607:6644   */\n    tag_142:\n        /* \"#utility.yul\":6457:6651   */\n      swap3\n      swap2\n      pop\n      pop\n      jump\t// out\n        /* \"#utility.yul\":6657:6848   */\n    tag_46:\n        /* \"#utility.yul\":6697:6700   */\n      0x00\n        /* \"#utility.yul\":6716:6736   */\n      tag_145\n        /* \"#utility.yul\":6734:6735   */\n      dup3\n        /* \"#utility.yul\":6716:6736   */\n      tag_58\n      jump\t// in\n    tag_145:\n        /* \"#utility.yul\":6711:6736   */\n      swap2\n      pop\n        /* \"#utility.yul\":6750:6770   */\n      tag_146\n        /* \"#utility.yul\":6768:6769   */\n      dup4\n        /* \"#utility.yul\":6750:6770   */\n      tag_58\n      jump\t// in\n    tag_146:\n        /* \"#utility.yul\":6745:6770   */\n      swap3\n      pop\n        /* \"#utility.yul\":6793:6794   */\n      dup3\n        /* \"#utility.yul\":6790:6791   */\n      dup3\n        /* \"#utility.yul\":6786:6795   */\n      add\n        /* \"#utility.yul\":6779:6795   */\n      swap1\n      pop\n        /* \"#utility.yul\":6814:6817   */\n      dup1\n        /* \"#utility.yul\":6811:6812   */\n      dup3\n        /* \"#utility.yul\":6808:6818   */\n      gt\n        /* \"#utility.yul\":6805:6841   */\n      iszero\n      tag_147\n      jumpi\n        /* \"#utility.yul\":6821:6839   */\n      tag_148\n      tag_68\n      jump\t// in\n    tag_148:\n        /* \"#utility.yul\":6805:6841   */\n    tag_147:\n        /* \"#utility.yul\":6657:6848   */\n      swap3\n      swap2\n      pop\n      pop\n      jump\t// out\n        /* \"#utility.yul\":6854:7008   */\n    tag_70:\n        /* \"#utility.yul\":6994:7000   */\n      0x5553445400000000000000000000000000000000000000000000000000000000\n        /* \"#utility.yul\":6990:6991   */\n      0x00\n        /* \"#utility.yul\":6982:6988   */\n      dup3\n        /* \"#utility.yul\":6978:6992   */\n      add\n        /* \"#utility.yul\":6971:7001   */\n      mstore\n        /* \"#utility.yul\":6854:7008   */\n      pop\n      jump\t// out\n        /* \"#utility.yul\":7014:7379   */\n    tag_71:\n        /* \"#utility.yul\":7156:7159   */\n      0x00\n        /* \"#utility.yul\":7177:7243   */\n      tag_151\n        /* \"#utility.yul\":7241:7242   */\n      0x04\n        /* \"#utility.yul\":7236:7239   */\n      dup4\n        /* \"#utility.yul\":7177:7243   */\n      tag_63\n      jump\t// in\n    tag_151:\n        /* \"#utility.yul\":7170:7243   */\n      swap2\n      pop\n        /* \"#utility.yul\":7252:7345   */\n      tag_152\n        /* \"#utility.yul\":7341:7344   */\n      dup3\n        /* \"#utility.yul\":7252:7345   */\n      tag_70\n      jump\t// in\n    tag_152:\n        /* \"#utility.yul\":7370:7372   */\n      0x20\n        /* \"#utility.yul\":7365:7368   */\n      dup3\n        /* \"#utility.yul\":7361:7373   */\n      add\n        /* \"#utility.yul\":7354:7373   */\n      swap1\n      pop\n        /* \"#utility.yul\":7014:7379   */\n      swap2\n      swap1\n      pop\n      jump\t// out\n        /* \"#utility.yul\":7385:7914   */\n    tag_49:\n        /* \"#utility.yul\":7579:7583   */\n      0x00\n        /* \"#utility.yul\":7617:7619   */\n      0x40\n        /* \"#utility.yul\":7606:7615   */\n      dup3\n        /* \"#utility.yul\":7602:7620   */\n      add\n        /* \"#utility.yul\":7594:7620   */\n      swap1\n      pop\n        /* \"#utility.yul\":7630:7701   */\n      tag_154\n        /* \"#utility.yul\":7698:7699   */\n      0x00\n        /* \"#utility.yul\":7687:7696   */\n      dup4\n        /* \"#utility.yul\":7683:7700   */\n      add\n        /* \"#utility.yul\":7674:7680   */\n      dup5\n        /* \"#utility.yul\":7630:7701   */\n      tag_61\n      jump\t// in\n    tag_154:\n        /* \"#utility.yul\":7748:7757   */\n      dup2\n        /* \"#utility.yul\":7742:7746   */\n      dup2\n        /* \"#utility.yul\":7738:7758   */\n      sub\n        /* \"#utility.yul\":7733:7735   */\n      0x20\n        /* \"#utility.yul\":7722:7731   */\n      dup4\n        /* \"#utility.yul\":7718:7736   */\n      add\n        /* \"#utility.yul\":7711:7759   */\n      mstore\n        /* \"#utility.yul\":7776:7907   */\n      tag_155\n        /* \"#utility.yul\":7902:7906   */\n      dup2\n        /* \"#utility.yul\":7776:7907   */\n      tag_71\n      jump\t// in\n    tag_155:\n        /* \"#utility.yul\":7768:7907   */\n      swap1\n      pop\n        /* \"#utility.yul\":7385:7914   */\n      swap3\n      swap2\n      pop\n      pop\n      jump\t// out\n\n    auxdata: 0xa2646970667358221220c688d05a865c3520ac5f337c48692160b3973ca63e37d6cc0159e76bce581dc664736f6c63430008120033\n}\n",
				"bytecode": {
					"linkReferences": {},
					"object": "608060405234801561001057600080fd5b5073dac17f958d2ee523a2206206994597c13d831ec76000806101000a81548173ffffffffffffffffffffffffffffffffffffffff021916908373ffffffffffffffffffffffffffffffffffffffff16021790555061098b806100746000396000f3fe608060405234801561001057600080fd5b50600436106100575760003560e01c80630b34b5551461005c57806356b89be41461007857806379fd022e146100a8578063a61bab2f146100c6578063ebbc9b32146100e2575b600080fd5b610076600480360381019061007191906105a5565b6100fe565b005b610092600480360381019061008d91906105e5565b610146565b60405161009f9190610621565b60405180910390f35b6100b061015e565b6040516100bd919061064b565b60405180910390f35b6100e060048036038101906100db91906105e5565b610184565b005b6100fc60048036038101906100f79190610666565b610237565b005b80600160008473ffffffffffffffffffffffffffffffffffffffff1673ffffffffffffffffffffffffffffffffffffffff168152602001908152602001600020819055505050565b60016020528060005260406000206000915090505481565b600260009054906101000a900473ffffffffffffffffffffffffffffffffffffffff1681565b600073ffffffffffffffffffffffffffffffffffffffff168173ffffffffffffffffffffffffffffffffffffffff16036101f3576040517f08c379a00000000000000000000000000000000000000000000000000000000081526004016101ea90610716565b60405180910390fd5b80600260006101000a81548173ffffffffffffffffffffffffffffffffffffffff021916908373ffffffffffffffffffffffffffffffffffffffff16021790555050565b600073ffffffffffffffffffffffffffffffffffffffff16600260009054906101000a900473ffffffffffffffffffffffffffffffffffffffff1673ffffffffffffffffffffffffffffffffffffffff16036102c8576040517f08c379a00000000000000000000000000000000000000000000000000000000081526004016102bf90610782565b60405180910390fd5b600060646005836102d991906107d1565b6102e39190610842565b9050600081836102f39190610873565b905082600160008773ffffffffffffffffffffffffffffffffffffffff1673ffffffffffffffffffffffffffffffffffffffff16815260200190815260200160002060008282546103449190610873565b925050819055508160016000600260009054906101000a900473ffffffffffffffffffffffffffffffffffffffff1673ffffffffffffffffffffffffffffffffffffffff1673ffffffffffffffffffffffffffffffffffffffff16815260200190815260200160002060008282546103bc91906108a7565b9250508190555080600160008673ffffffffffffffffffffffffffffffffffffffff1673ffffffffffffffffffffffffffffffffffffffff168152602001908152602001600020600082825461041291906108a7565b925050819055508373ffffffffffffffffffffffffffffffffffffffff168573ffffffffffffffffffffffffffffffffffffffff167f7438b3ab3d18b29df7bf7fe592cc95dc9b3d321d1f880ad411f65b98df9bbd50856040516104769190610927565b60405180910390a3600260009054906101000a900473ffffffffffffffffffffffffffffffffffffffff1673ffffffffffffffffffffffffffffffffffffffff168573ffffffffffffffffffffffffffffffffffffffff167f7438b3ab3d18b29df7bf7fe592cc95dc9b3d321d1f880ad411f65b98df9bbd50846040516104fd9190610927565b60405180910390a35050505050565b600080fd5b600073ffffffffffffffffffffffffffffffffffffffff82169050919050565b600061053c82610511565b9050919050565b61054c81610531565b811461055757600080fd5b50565b60008135905061056981610543565b92915050565b6000819050919050565b6105828161056f565b811461058d57600080fd5b50565b60008135905061059f81610579565b92915050565b600080604083850312156105bc576105bb61050c565b5b60006105ca8582860161055a565b92505060206105db85828601610590565b9150509250929050565b6000602082840312156105fb576105fa61050c565b5b60006106098482850161055a565b91505092915050565b61061b8161056f565b82525050565b60006020820190506106366000830184610612565b92915050565b61064581610531565b82525050565b6000602082019050610660600083018461063c565b92915050565b60008060006060848603121561067f5761067e61050c565b5b600061068d8682870161055a565b935050602061069e8682870161055a565b92505060406106af86828701610590565b9150509250925092565b600082825260208201905092915050565b7f496e76616c696420696e7465726d656469617279206164647265737300000000600082015250565b6000610700601c836106b9565b915061070b826106ca565b602082019050919050565b6000602082019050818103600083015261072f816106f3565b9050919050565b7f496e7465726d6564696172792061646472657373206e6f742073657400000000600082015250565b600061076c601c836106b9565b915061077782610736565b602082019050919050565b6000602082019050818103600083015261079b8161075f565b9050919050565b7f4e487b7100000000000000000000000000000000000000000000000000000000600052601160045260246000fd5b60006107dc8261056f565b91506107e78361056f565b92508282026107f58161056f565b9150828204841483151761080c5761080b6107a2565b5b5092915050565b7f4e487b7100000000000000000000000000000000000000000000000000000000600052601260045260246000fd5b600061084d8261056f565b91506108588361056f565b92508261086857610867610813565b5b828204905092915050565b600061087e8261056f565b91506108898361056f565b92508282039050818111156108a1576108a06107a2565b5b92915050565b60006108b28261056f565b91506108bd8361056f565b92508282019050808211156108d5576108d46107a2565b5b92915050565b7f5553445400000000000000000000000000000000000000000000000000000000600082015250565b60006109116004836106b9565b915061091c826108db565b602082019050919050565b600060408201905061093c6000830184610612565b818103602083015261094d81610904565b90509291505056fea2646970667358221220c688d05a865c3520ac5f337c48692160b3973ca63e37d6cc0159e76bce581dc664736f6c63430008120033",
					"opcodes": "PUSH1 0x80 PUSH1 0x40 MSTORE CALLVALUE DUP1 ISZERO PUSH2 0x10 JUMPI PUSH1 0x0 DUP1 REVERT JUMPDEST POP PUSH20 0xDAC17F958D2EE523A2206206994597C13D831EC7 PUSH1 0x0 DUP1 PUSH2 0x100 EXP DUP2 SLOAD DUP2 PUSH20 0xFFFFFFFFFFFFFFFFFFFFFFFFFFFFFFFFFFFFFFFF MUL NOT AND SWAP1 DUP4 PUSH20 0xFFFFFFFFFFFFFFFFFFFFFFFFFFFFFFFFFFFFFFFF AND MUL OR SWAP1 SSTORE POP PUSH2 0x98B DUP1 PUSH2 0x74 PUSH1 0x0 CODECOPY PUSH1 0x0 RETURN INVALID PUSH1 0x80 PUSH1 0x40 MSTORE CALLVALUE DUP1 ISZERO PUSH2 0x10 JUMPI PUSH1 0x0 DUP1 REVERT JUMPDEST POP PUSH1 0x4 CALLDATASIZE LT PUSH2 0x57 JUMPI PUSH1 0x0 CALLDATALOAD PUSH1 0xE0 SHR DUP1 PUSH4 0xB34B555 EQ PUSH2 0x5C JUMPI DUP1 PUSH4 0x56B89BE4 EQ PUSH2 0x78 JUMPI DUP1 PUSH4 0x79FD022E EQ PUSH2 0xA8 JUMPI DUP1 PUSH4 0xA61BAB2F EQ PUSH2 0xC6 JUMPI DUP1 PUSH4 0xEBBC9B32 EQ PUSH2 0xE2 JUMPI JUMPDEST PUSH1 0x0 DUP1 REVERT JUMPDEST PUSH2 0x76 PUSH1 0x4 DUP1 CALLDATASIZE SUB DUP2 ADD SWAP1 PUSH2 0x71 SWAP2 SWAP1 PUSH2 0x5A5 JUMP JUMPDEST PUSH2 0xFE JUMP JUMPDEST STOP JUMPDEST PUSH2 0x92 PUSH1 0x4 DUP1 CALLDATASIZE SUB DUP2 ADD SWAP1 PUSH2 0x8D SWAP2 SWAP1 PUSH2 0x5E5 JUMP JUMPDEST PUSH2 0x146 JUMP JUMPDEST PUSH1 0x40 MLOAD PUSH2 0x9F SWAP2 SWAP1 PUSH2 0x621 JUMP JUMPDEST PUSH1 0x40 MLOAD DUP1 SWAP2 SUB SWAP1 RETURN JUMPDEST PUSH2 0xB0 PUSH2 0x15E JUMP JUMPDEST PUSH1 0x40 MLOAD PUSH2 0xBD SWAP2 SWAP1 PUSH2 0x64B JUMP JUMPDEST PUSH1 0x40 MLOAD DUP1 SWAP2 SUB SWAP1 RETURN JUMPDEST PUSH2 0xE0 PUSH1 0x4 DUP1 CALLDATASIZE SUB DUP2 ADD SWAP1 PUSH2 0xDB SWAP2 SWAP1 PUSH2 0x5E5 JUMP JUMPDEST PUSH2 0x184 JUMP JUMPDEST STOP JUMPDEST PUSH2 0xFC PUSH1 0x4 DUP1 CALLDATASIZE SUB DUP2 ADD SWAP1 PUSH2 0xF7 SWAP2 SWAP1 PUSH2 0x666 JUMP JUMPDEST PUSH2 0x237 JUMP JUMPDEST STOP JUMPDEST DUP1 PUSH1 0x1 PUSH1 0x0 DUP5 PUSH20 0xFFFFFFFFFFFFFFFFFFFFFFFFFFFFFFFFFFFFFFFF AND PUSH20 0xFFFFFFFFFFFFFFFFFFFFFFFFFFFFFFFFFFFFFFFF AND DUP2 MSTORE PUSH1 0x20 ADD SWAP1 DUP2 MSTORE PUSH1 0x20 ADD PUSH1 0x0 KECCAK256 DUP2 SWAP1 SSTORE POP POP POP JUMP JUMPDEST PUSH1 0x1 PUSH1 0x20 MSTORE DUP1 PUSH1 0x0 MSTORE PUSH1 0x40 PUSH1 0x0 KECCAK256 PUSH1 0x0 SWAP2 POP SWAP1 POP SLOAD DUP2 JUMP JUMPDEST PUSH1 0x2 PUSH1 0x0 SWAP1 SLOAD SWAP1 PUSH2 0x100 EXP SWAP1 DIV PUSH20 0xFFFFFFFFFFFFFFFFFFFFFFFFFFFFFFFFFFFFFFFF AND DUP2 JUMP JUMPDEST PUSH1 0x0 PUSH20 0xFFFFFFFFFFFFFFFFFFFFFFFFFFFFFFFFFFFFFFFF AND DUP2 PUSH20 0xFFFFFFFFFFFFFFFFFFFFFFFFFFFFFFFFFFFFFFFF AND SUB PUSH2 0x1F3 JUMPI PUSH1 0x40 MLOAD PUSH32 0x8C379A000000000000000000000000000000000000000000000000000000000 DUP2 MSTORE PUSH1 0x4 ADD PUSH2 0x1EA SWAP1 PUSH2 0x716 JUMP JUMPDEST PUSH1 0x40 MLOAD DUP1 SWAP2 SUB SWAP1 REVERT JUMPDEST DUP1 PUSH1 0x2 PUSH1 0x0 PUSH2 0x100 EXP DUP2 SLOAD DUP2 PUSH20 0xFFFFFFFFFFFFFFFFFFFFFFFFFFFFFFFFFFFFFFFF MUL NOT AND SWAP1 DUP4 PUSH20 0xFFFFFFFFFFFFFFFFFFFFFFFFFFFFFFFFFFFFFFFF AND MUL OR SWAP1 SSTORE POP POP JUMP JUMPDEST PUSH1 0x0 PUSH20 0xFFFFFFFFFFFFFFFFFFFFFFFFFFFFFFFFFFFFFFFF AND PUSH1 0x2 PUSH1 0x0 SWAP1 SLOAD SWAP1 PUSH2 0x100 EXP SWAP1 DIV PUSH20 0xFFFFFFFFFFFFFFFFFFFFFFFFFFFFFFFFFFFFFFFF AND PUSH20 0xFFFFFFFFFFFFFFFFFFFFFFFFFFFFFFFFFFFFFFFF AND SUB PUSH2 0x2C8 JUMPI PUSH1 0x40 MLOAD PUSH32 0x8C379A000000000000000000000000000000000000000000000000000000000 DUP2 MSTORE PUSH1 0x4 ADD PUSH2 0x2BF SWAP1 PUSH2 0x782 JUMP JUMPDEST PUSH1 0x40 MLOAD DUP1 SWAP2 SUB SWAP1 REVERT JUMPDEST PUSH1 0x0 PUSH1 0x64 PUSH1 0x5 DUP4 PUSH2 0x2D9 SWAP2 SWAP1 PUSH2 0x7D1 JUMP JUMPDEST PUSH2 0x2E3 SWAP2 SWAP1 PUSH2 0x842 JUMP JUMPDEST SWAP1 POP PUSH1 0x0 DUP2 DUP4 PUSH2 0x2F3 SWAP2 SWAP1 PUSH2 0x873 JUMP JUMPDEST SWAP1 POP DUP3 PUSH1 0x1 PUSH1 0x0 DUP8 PUSH20 0xFFFFFFFFFFFFFFFFFFFFFFFFFFFFFFFFFFFFFFFF AND PUSH20 0xFFFFFFFFFFFFFFFFFFFFFFFFFFFFFFFFFFFFFFFF AND DUP2 MSTORE PUSH1 0x20 ADD SWAP1 DUP2 MSTORE PUSH1 0x20 ADD PUSH1 0x0 KECCAK256 PUSH1 0x0 DUP3 DUP3 SLOAD PUSH2 0x344 SWAP2 SWAP1 PUSH2 0x873 JUMP JUMPDEST SWAP3 POP POP DUP2 SWAP1 SSTORE POP DUP2 PUSH1 0x1 PUSH1 0x0 PUSH1 0x2 PUSH1 0x0 SWAP1 SLOAD SWAP1 PUSH2 0x100 EXP SWAP1 DIV PUSH20 0xFFFFFFFFFFFFFFFFFFFFFFFFFFFFFFFFFFFFFFFF AND PUSH20 0xFFFFFFFFFFFFFFFFFFFFFFFFFFFFFFFFFFFFFFFF AND PUSH20 0xFFFFFFFFFFFFFFFFFFFFFFFFFFFFFFFFFFFFFFFF AND DUP2 MSTORE PUSH1 0x20 ADD SWAP1 DUP2 MSTORE PUSH1 0x20 ADD PUSH1 0x0 KECCAK256 PUSH1 0x0 DUP3 DUP3 SLOAD PUSH2 0x3BC SWAP2 SWAP1 PUSH2 0x8A7 JUMP JUMPDEST SWAP3 POP POP DUP2 SWAP1 SSTORE POP DUP1 PUSH1 0x1 PUSH1 0x0 DUP7 PUSH20 0xFFFFFFFFFFFFFFFFFFFFFFFFFFFFFFFFFFFFFFFF AND PUSH20 0xFFFFFFFFFFFFFFFFFFFFFFFFFFFFFFFFFFFFFFFF AND DUP2 MSTORE PUSH1 0x20 ADD SWAP1 DUP2 MSTORE PUSH1 0x20 ADD PUSH1 0x0 KECCAK256 PUSH1 0x0 DUP3 DUP3 SLOAD PUSH2 0x412 SWAP2 SWAP1 PUSH2 0x8A7 JUMP JUMPDEST SWAP3 POP POP DUP2 SWAP1 SSTORE POP DUP4 PUSH20 0xFFFFFFFFFFFFFFFFFFFFFFFFFFFFFFFFFFFFFFFF AND DUP6 PUSH20 0xFFFFFFFFFFFFFFFFFFFFFFFFFFFFFFFFFFFFFFFF AND PUSH32 0x7438B3AB3D18B29DF7BF7FE592CC95DC9B3D321D1F880AD411F65B98DF9BBD50 DUP6 PUSH1 0x40 MLOAD PUSH2 0x476 SWAP2 SWAP1 PUSH2 0x927 JUMP JUMPDEST PUSH1 0x40 MLOAD DUP1 SWAP2 SUB SWAP1 LOG3 PUSH1 0x2 PUSH1 0x0 SWAP1 SLOAD SWAP1 PUSH2 0x100 EXP SWAP1 DIV PUSH20 0xFFFFFFFFFFFFFFFFFFFFFFFFFFFFFFFFFFFFFFFF AND PUSH20 0xFFFFFFFFFFFFFFFFFFFFFFFFFFFFFFFFFFFFFFFF AND DUP6 PUSH20 0xFFFFFFFFFFFFFFFFFFFFFFFFFFFFFFFFFFFFFFFF AND PUSH32 0x7438B3AB3D18B29DF7BF7FE592CC95DC9B3D321D1F880AD411F65B98DF9BBD50 DUP5 PUSH1 0x40 MLOAD PUSH2 0x4FD SWAP2 SWAP1 PUSH2 0x927 JUMP JUMPDEST PUSH1 0x40 MLOAD DUP1 SWAP2 SUB SWAP1 LOG3 POP POP POP POP POP JUMP JUMPDEST PUSH1 0x0 DUP1 REVERT JUMPDEST PUSH1 0x0 PUSH20 0xFFFFFFFFFFFFFFFFFFFFFFFFFFFFFFFFFFFFFFFF DUP3 AND SWAP1 POP SWAP2 SWAP1 POP JUMP JUMPDEST PUSH1 0x0 PUSH2 0x53C DUP3 PUSH2 0x511 JUMP JUMPDEST SWAP1 POP SWAP2 SWAP1 POP JUMP JUMPDEST PUSH2 0x54C DUP2 PUSH2 0x531 JUMP JUMPDEST DUP2 EQ PUSH2 0x557 JUMPI PUSH1 0x0 DUP1 REVERT JUMPDEST POP JUMP JUMPDEST PUSH1 0x0 DUP2 CALLDATALOAD SWAP1 POP PUSH2 0x569 DUP2 PUSH2 0x543 JUMP JUMPDEST SWAP3 SWAP2 POP POP JUMP JUMPDEST PUSH1 0x0 DUP2 SWAP1 POP SWAP2 SWAP1 POP JUMP JUMPDEST PUSH2 0x582 DUP2 PUSH2 0x56F JUMP JUMPDEST DUP2 EQ PUSH2 0x58D JUMPI PUSH1 0x0 DUP1 REVERT JUMPDEST POP JUMP JUMPDEST PUSH1 0x0 DUP2 CALLDATALOAD SWAP1 POP PUSH2 0x59F DUP2 PUSH2 0x579 JUMP JUMPDEST SWAP3 SWAP2 POP POP JUMP JUMPDEST PUSH1 0x0 DUP1 PUSH1 0x40 DUP4 DUP6 SUB SLT ISZERO PUSH2 0x5BC JUMPI PUSH2 0x5BB PUSH2 0x50C JUMP JUMPDEST JUMPDEST PUSH1 0x0 PUSH2 0x5CA DUP6 DUP3 DUP7 ADD PUSH2 0x55A JUMP JUMPDEST SWAP3 POP POP PUSH1 0x20 PUSH2 0x5DB DUP6 DUP3 DUP7 ADD PUSH2 0x590 JUMP JUMPDEST SWAP2 POP POP SWAP3 POP SWAP3 SWAP1 POP JUMP JUMPDEST PUSH1 0x0 PUSH1 0x20 DUP3 DUP5 SUB SLT ISZERO PUSH2 0x5FB JUMPI PUSH2 0x5FA PUSH2 0x50C JUMP JUMPDEST JUMPDEST PUSH1 0x0 PUSH2 0x609 DUP5 DUP3 DUP6 ADD PUSH2 0x55A JUMP JUMPDEST SWAP2 POP POP SWAP3 SWAP2 POP POP JUMP JUMPDEST PUSH2 0x61B DUP2 PUSH2 0x56F JUMP JUMPDEST DUP3 MSTORE POP POP JUMP JUMPDEST PUSH1 0x0 PUSH1 0x20 DUP3 ADD SWAP1 POP PUSH2 0x636 PUSH1 0x0 DUP4 ADD DUP5 PUSH2 0x612 JUMP JUMPDEST SWAP3 SWAP2 POP POP JUMP JUMPDEST PUSH2 0x645 DUP2 PUSH2 0x531 JUMP JUMPDEST DUP3 MSTORE POP POP JUMP JUMPDEST PUSH1 0x0 PUSH1 0x20 DUP3 ADD SWAP1 POP PUSH2 0x660 PUSH1 0x0 DUP4 ADD DUP5 PUSH2 0x63C JUMP JUMPDEST SWAP3 SWAP2 POP POP JUMP JUMPDEST PUSH1 0x0 DUP1 PUSH1 0x0 PUSH1 0x60 DUP5 DUP7 SUB SLT ISZERO PUSH2 0x67F JUMPI PUSH2 0x67E PUSH2 0x50C JUMP JUMPDEST JUMPDEST PUSH1 0x0 PUSH2 0x68D DUP7 DUP3 DUP8 ADD PUSH2 0x55A JUMP JUMPDEST SWAP4 POP POP PUSH1 0x20 PUSH2 0x69E DUP7 DUP3 DUP8 ADD PUSH2 0x55A JUMP JUMPDEST SWAP3 POP POP PUSH1 0x40 PUSH2 0x6AF DUP7 DUP3 DUP8 ADD PUSH2 0x590 JUMP JUMPDEST SWAP2 POP POP SWAP3 POP SWAP3 POP SWAP3 JUMP JUMPDEST PUSH1 0x0 DUP3 DUP3 MSTORE PUSH1 0x20 DUP3 ADD SWAP1 POP SWAP3 SWAP2 POP POP JUMP JUMPDEST PUSH32 0x496E76616C696420696E7465726D656469617279206164647265737300000000 PUSH1 0x0 DUP3 ADD MSTORE POP JUMP JUMPDEST PUSH1 0x0 PUSH2 0x700 PUSH1 0x1C DUP4 PUSH2 0x6B9 JUMP JUMPDEST SWAP2 POP PUSH2 0x70B DUP3 PUSH2 0x6CA JUMP JUMPDEST PUSH1 0x20 DUP3 ADD SWAP1 POP SWAP2 SWAP1 POP JUMP JUMPDEST PUSH1 0x0 PUSH1 0x20 DUP3 ADD SWAP1 POP DUP2 DUP2 SUB PUSH1 0x0 DUP4 ADD MSTORE PUSH2 0x72F DUP2 PUSH2 0x6F3 JUMP JUMPDEST SWAP1 POP SWAP2 SWAP1 POP JUMP JUMPDEST PUSH32 0x496E7465726D6564696172792061646472657373206E6F742073657400000000 PUSH1 0x0 DUP3 ADD MSTORE POP JUMP JUMPDEST PUSH1 0x0 PUSH2 0x76C PUSH1 0x1C DUP4 PUSH2 0x6B9 JUMP JUMPDEST SWAP2 POP PUSH2 0x777 DUP3 PUSH2 0x736 JUMP JUMPDEST PUSH1 0x20 DUP3 ADD SWAP1 POP SWAP2 SWAP1 POP JUMP JUMPDEST PUSH1 0x0 PUSH1 0x20 DUP3 ADD SWAP1 POP DUP2 DUP2 SUB PUSH1 0x0 DUP4 ADD MSTORE PUSH2 0x79B DUP2 PUSH2 0x75F JUMP JUMPDEST SWAP1 POP SWAP2 SWAP1 POP JUMP JUMPDEST PUSH32 0x4E487B7100000000000000000000000000000000000000000000000000000000 PUSH1 0x0 MSTORE PUSH1 0x11 PUSH1 0x4 MSTORE PUSH1 0x24 PUSH1 0x0 REVERT JUMPDEST PUSH1 0x0 PUSH2 0x7DC DUP3 PUSH2 0x56F JUMP JUMPDEST SWAP2 POP PUSH2 0x7E7 DUP4 PUSH2 0x56F JUMP JUMPDEST SWAP3 POP DUP3 DUP3 MUL PUSH2 0x7F5 DUP2 PUSH2 0x56F JUMP JUMPDEST SWAP2 POP DUP3 DUP3 DIV DUP5 EQ DUP4 ISZERO OR PUSH2 0x80C JUMPI PUSH2 0x80B PUSH2 0x7A2 JUMP JUMPDEST JUMPDEST POP SWAP3 SWAP2 POP POP JUMP JUMPDEST PUSH32 0x4E487B7100000000000000000000000000000000000000000000000000000000 PUSH1 0x0 MSTORE PUSH1 0x12 PUSH1 0x4 MSTORE PUSH1 0x24 PUSH1 0x0 REVERT JUMPDEST PUSH1 0x0 PUSH2 0x84D DUP3 PUSH2 0x56F JUMP JUMPDEST SWAP2 POP PUSH2 0x858 DUP4 PUSH2 0x56F JUMP JUMPDEST SWAP3 POP DUP3 PUSH2 0x868 JUMPI PUSH2 0x867 PUSH2 0x813 JUMP JUMPDEST JUMPDEST DUP3 DUP3 DIV SWAP1 POP SWAP3 SWAP2 POP POP JUMP JUMPDEST PUSH1 0x0 PUSH2 0x87E DUP3 PUSH2 0x56F JUMP JUMPDEST SWAP2 POP PUSH2 0x889 DUP4 PUSH2 0x56F JUMP JUMPDEST SWAP3 POP DUP3 DUP3 SUB SWAP1 POP DUP2 DUP2 GT ISZERO PUSH2 0x8A1 JUMPI PUSH2 0x8A0 PUSH2 0x7A2 JUMP JUMPDEST JUMPDEST SWAP3 SWAP2 POP POP JUMP JUMPDEST PUSH1 0x0 PUSH2 0x8B2 DUP3 PUSH2 0x56F JUMP JUMPDEST SWAP2 POP PUSH2 0x8BD DUP4 PUSH2 0x56F JUMP JUMPDEST SWAP3 POP DUP3 DUP3 ADD SWAP1 POP DUP1 DUP3 GT ISZERO PUSH2 0x8D5 JUMPI PUSH2 0x8D4 PUSH2 0x7A2 JUMP JUMPDEST JUMPDEST SWAP3 SWAP2 POP POP JUMP JUMPDEST PUSH32 0x5553445400000000000000000000000000000000000000000000000000000000 PUSH1 0x0 DUP3 ADD MSTORE POP JUMP JUMPDEST PUSH1 0x0 PUSH2 0x911 PUSH1 0x4 DUP4 PUSH2 0x6B9 JUMP JUMPDEST SWAP2 POP PUSH2 0x91C DUP3 PUSH2 0x8DB JUMP JUMPDEST PUSH1 0x20 DUP3 ADD SWAP1 POP SWAP2 SWAP1 POP JUMP JUMPDEST PUSH1 0x0 PUSH1 0x40 DUP3 ADD SWAP1 POP PUSH2 0x93C PUSH1 0x0 DUP4 ADD DUP5 PUSH2 0x612 JUMP JUMPDEST DUP2 DUP2 SUB PUSH1 0x20 DUP4 ADD MSTORE PUSH2 0x94D DUP2 PUSH2 0x904 JUMP JUMPDEST SWAP1 POP SWAP3 SWAP2 POP POP JUMP INVALID LOG2 PUSH5 0x6970667358 0x22 SLT KECCAK256 0xC6 DUP9 0xD0 GAS DUP7 0x5C CALLDATALOAD KECCAK256 0xAC 0x5F CALLER PUSH29 0x48692160B3973CA63E37D6CC0159E76BCE581DC664736F6C6343000812 STOP CALLER "
				},
				"gasEstimates": {
					"creation": {
						"codeDepositCost": "488600",
						"executionCost": "24791",
						"totalCost": "513391"
					},
					"external": {
						"balancesUSDT(address)": "2814",
						"intermediary()": "2536",
						"payTrip(address,address,uint256)": "infinite",
						"setInitialBalance(address,uint256)": "22810",
						"setIntermediary(address)": "24801"
					}
				},
				"methodIdentifiers": {
					"balancesUSDT(address)": "56b89be4",
					"intermediary()": "79fd022e",
					"payTrip(address,address,uint256)": "ebbc9b32",
					"setInitialBalance(address,uint256)": "0b34b555",
					"setIntermediary(address)": "a61bab2f"
				}
			},
			"storageLayout": {
				"storage": [
					{
						"astId": 83,
						"contract": "Papigo_Contract.sol:PapiGo",
						"label": "tether",
						"offset": 0,
						"slot": "0",
						"type": "t_contract(IERC20)77"
					},
					{
						"astId": 87,
						"contract": "Papigo_Contract.sol:PapiGo",
						"label": "balancesUSDT",
						"offset": 0,
						"slot": "1",
						"type": "t_mapping(t_address,t_uint256)"
					},
					{
						"astId": 89,
						"contract": "Papigo_Contract.sol:PapiGo",
						"label": "intermediary",
						"offset": 0,
						"slot": "2",
						"type": "t_address"
					}
				],
				"types": {
					"t_address": {
						"encoding": "inplace",
						"label": "address",
						"numberOfBytes": "20"
					},
					"t_contract(IERC20)77": {
						"encoding": "inplace",
						"label": "contract IERC20",
						"numberOfBytes": "20"
					},
					"t_mapping(t_address,t_uint256)": {
						"encoding": "mapping",
						"key": "t_address",
						"label": "mapping(address => uint256)",
						"numberOfBytes": "32",
						"value": "t_uint256"
					},
					"t_uint256": {
						"encoding": "inplace",
						"label": "uint256",
						"numberOfBytes": "32"
					}
				}
			},
			"userdoc": {
				"kind": "user",
				"methods": {},
				"version": 1
			}
		}
	}
}