{
	"testo.sol": {
		"PaymentSystem": {
			"abi": [
				{
					"inputs": [],
					"stateMutability": "nonpayable",
					"type": "constructor"
				},
				{
					"anonymous": false,
					"inputs": [
						{
							"indexed": true,
							"internalType": "address",
							"name": "sender",
							"type": "address"
						},
						{
							"indexed": true,
							"internalType": "address",
							"name": "recipient",
							"type": "address"
						},
						{
							"indexed": false,
							"internalType": "uint256",
							"name": "amount",
							"type": "uint256"
						}
					],
					"name": "PaymentSent",
					"type": "event"
				},
				{
					"inputs": [
						{
							"internalType": "address",
							"name": "",
							"type": "address"
						}
					],
					"name": "driverBalances",
					"outputs": [
						{
							"internalType": "uint256",
							"name": "",
							"type": "uint256"
						}
					],
					"stateMutability": "view",
					"type": "function"
				},
				{
					"inputs": [
						{
							"internalType": "address",
							"name": "driver",
							"type": "address"
						}
					],
					"name": "getDriverBalance",
					"outputs": [
						{
							"internalType": "uint256",
							"name": "",
							"type": "uint256"
						}
					],
					"stateMutability": "view",
					"type": "function"
				},
				{
					"inputs": [
						{
							"internalType": "address",
							"name": "rider",
							"type": "address"
						}
					],
					"name": "getRiderBalance",
					"outputs": [
						{
							"internalType": "uint256",
							"name": "",
							"type": "uint256"
						}
					],
					"stateMutability": "view",
					"type": "function"
				},
				{
					"inputs": [
						{
							"internalType": "address",
							"name": "",
							"type": "address"
						}
					],
					"name": "riderBalances",
					"outputs": [
						{
							"internalType": "uint256",
							"name": "",
							"type": "uint256"
						}
					],
					"stateMutability": "view",
					"type": "function"
				},
				{
					"inputs": [
						{
							"internalType": "address",
							"name": "rider",
							"type": "address"
						},
						{
							"internalType": "address",
							"name": "driver",
							"type": "address"
						},
						{
							"internalType": "uint256",
							"name": "amount",
							"type": "uint256"
						}
					],
					"name": "sendPayment",
					"outputs": [],
					"stateMutability": "nonpayable",
					"type": "function"
				}
			],
			"devdoc": {
				"kind": "dev",
				"methods": {},
				"version": 1
			},
			"evm": {
				"assembly": "    /* \"testo.sol\":65:1551  contract PaymentSystem {... */\n  mstore(0x40, 0x80)\n    /* \"testo.sol\":295:940  constructor() {... */\n  callvalue\n  dup1\n  iszero\n  tag_1\n  jumpi\n  0x00\n  dup1\n  revert\ntag_1:\n  pop\n    /* \"testo.sol\":319:342  address[] memory riders */\n  0x00\n    /* \"testo.sol\":359:360  4 */\n  0x04\n    /* \"testo.sol\":345:361  new address[](4) */\n  0xffffffffffffffff\n  dup2\n  gt\n  iszero\n  tag_4\n  jumpi\n  tag_5\n  tag_6\n  jump\t// in\ntag_5:\ntag_4:\n  mload(0x40)\n  swap1\n  dup1\n  dup3\n  mstore\n  dup1\n  0x20\n  mul\n  0x20\n  add\n  dup3\n  add\n  0x40\n  mstore\n  dup1\n  iszero\n  tag_7\n  jumpi\n  dup2\n  0x20\n  add\n  0x20\n  dup3\n  mul\n  dup1\n  calldatasize\n  dup4\n  calldatacopy\n  dup1\n  dup3\n  add\n  swap2\n  pop\n  pop\n  swap1\n  pop\ntag_7:\n  pop\n    /* \"testo.sol\":319:361  address[] memory riders = new address[](4) */\n  swap1\n  pop\n    /* \"testo.sol\":391:433  0xc814FD5B49f9564dc2FFB42018c67FC8cFd70686 */\n  0xc814fd5b49f9564dc2ffb42018c67fc8cfd70686\n    /* \"testo.sol\":371:377  riders */\n  dup2\n    /* \"testo.sol\":378:379  0 */\n  0x00\n    /* \"testo.sol\":371:380  riders[0] */\n  dup2\n  mload\n  dup2\n  lt\n  tag_8\n  jumpi\n  tag_9\n  tag_10\n  jump\t// in\ntag_9:\ntag_8:\n  0x20\n  mul\n  0x20\n  add\n  add\n    /* \"testo.sol\":371:434  riders[0] = address(0xc814FD5B49f9564dc2FFB42018c67FC8cFd70686) */\n  swap1\n  0xffffffffffffffffffffffffffffffffffffffff\n  and\n  swap1\n  dup2\n  0xffffffffffffffffffffffffffffffffffffffff\n  and\n  dup2\n  mstore\n  pop\n  pop\n    /* \"testo.sol\":464:506  0x233f1320C329312Ba98534b62E7B79a26d52a7EF */\n  0x233f1320c329312ba98534b62e7b79a26d52a7ef\n    /* \"testo.sol\":444:450  riders */\n  dup2\n    /* \"testo.sol\":451:452  1 */\n  0x01\n    /* \"testo.sol\":444:453  riders[1] */\n  dup2\n  mload\n  dup2\n  lt\n  tag_11\n  jumpi\n  tag_12\n  tag_10\n  jump\t// in\ntag_12:\ntag_11:\n  0x20\n  mul\n  0x20\n  add\n  add\n    /* \"testo.sol\":444:507  riders[1] = address(0x233f1320C329312Ba98534b62E7B79a26d52a7EF) */\n  swap1\n  0xffffffffffffffffffffffffffffffffffffffff\n  and\n  swap1\n  dup2\n  0xffffffffffffffffffffffffffffffffffffffff\n  and\n  dup2\n  mstore\n  pop\n  pop\n    /* \"testo.sol\":537:579  0x445e9bE1C0A1050d1143A149498d60Ff91bBbBDD */\n  0x445e9be1c0a1050d1143a149498d60ff91bbbbdd\n    /* \"testo.sol\":517:523  riders */\n  dup2\n    /* \"testo.sol\":524:525  2 */\n  0x02\n    /* \"testo.sol\":517:526  riders[2] */\n  dup2\n  mload\n  dup2\n  lt\n  tag_13\n  jumpi\n  tag_14\n  tag_10\n  jump\t// in\ntag_14:\ntag_13:\n  0x20\n  mul\n  0x20\n  add\n  add\n    /* \"testo.sol\":517:580  riders[2] = address(0x445e9bE1C0A1050d1143A149498d60Ff91bBbBDD) */\n  swap1\n  0xffffffffffffffffffffffffffffffffffffffff\n  and\n  swap1\n  dup2\n  0xffffffffffffffffffffffffffffffffffffffff\n  and\n  dup2\n  mstore\n  pop\n  pop\n    /* \"testo.sol\":610:652  0x91AC40503FaDb96f6bF3661F440ce2B0c1B059a1 */\n  0x91ac40503fadb96f6bf3661f440ce2b0c1b059a1\n    /* \"testo.sol\":590:596  riders */\n  dup2\n    /* \"testo.sol\":597:598  3 */\n  0x03\n    /* \"testo.sol\":590:599  riders[3] */\n  dup2\n  mload\n  dup2\n  lt\n  tag_15\n  jumpi\n  tag_16\n  tag_10\n  jump\t// in\ntag_16:\ntag_15:\n  0x20\n  mul\n  0x20\n  add\n  add\n    /* \"testo.sol\":590:653  riders[3] = address(0x91AC40503FaDb96f6bF3661F440ce2B0c1B059a1) */\n  swap1\n  0xffffffffffffffffffffffffffffffffffffffff\n  and\n  swap1\n  dup2\n  0xffffffffffffffffffffffffffffffffffffffff\n  and\n  dup2\n  mstore\n  pop\n  pop\n    /* \"testo.sol\":664:691  uint256 initialRiderBalance */\n  0x00\n    /* \"testo.sol\":694:704  1000 ether */\n  0x3635c9adc5dea00000\n    /* \"testo.sol\":664:704  uint256 initialRiderBalance = 1000 ether */\n  swap1\n  pop\n    /* \"testo.sol\":714:742  uint256 initialDriverBalance */\n  0x00\n    /* \"testo.sol\":762:771  uint256 i */\n  dup1\n    /* \"testo.sol\":757:934  for (uint256 i = 0; i < riders.length; i++) {... */\ntag_17:\n    /* \"testo.sol\":781:787  riders */\n  dup4\n    /* \"testo.sol\":781:794  riders.length */\n  mload\n    /* \"testo.sol\":777:778  i */\n  dup2\n    /* \"testo.sol\":777:794  i < riders.length */\n  lt\n    /* \"testo.sol\":757:934  for (uint256 i = 0; i < riders.length; i++) {... */\n  iszero\n  tag_18\n  jumpi\n    /* \"testo.sol\":842:861  initialRiderBalance */\n  dup3\n    /* \"testo.sol\":815:828  riderBalances */\n  0x00\n    /* \"testo.sol\":815:839  riderBalances[riders[i]] */\n  dup1\n    /* \"testo.sol\":829:835  riders */\n  dup7\n    /* \"testo.sol\":836:837  i */\n  dup5\n    /* \"testo.sol\":829:838  riders[i] */\n  dup2\n  mload\n  dup2\n  lt\n  tag_20\n  jumpi\n  tag_21\n  tag_10\n  jump\t// in\ntag_21:\ntag_20:\n  0x20\n  mul\n  0x20\n  add\n  add\n  mload\n    /* \"testo.sol\":815:839  riderBalances[riders[i]] */\n  0xffffffffffffffffffffffffffffffffffffffff\n  and\n  0xffffffffffffffffffffffffffffffffffffffff\n  and\n  dup2\n  mstore\n  0x20\n  add\n  swap1\n  dup2\n  mstore\n  0x20\n  add\n  0x00\n  keccak256\n    /* \"testo.sol\":815:861  riderBalances[riders[i]] = initialRiderBalance */\n  dup2\n  swap1\n  sstore\n  pop\n    /* \"testo.sol\":903:923  initialDriverBalance */\n  dup2\n    /* \"testo.sol\":875:889  driverBalances */\n  0x01\n    /* \"testo.sol\":875:900  driverBalances[riders[i]] */\n  0x00\n    /* \"testo.sol\":890:896  riders */\n  dup7\n    /* \"testo.sol\":897:898  i */\n  dup5\n    /* \"testo.sol\":890:899  riders[i] */\n  dup2\n  mload\n  dup2\n  lt\n  tag_22\n  jumpi\n  tag_23\n  tag_10\n  jump\t// in\ntag_23:\ntag_22:\n  0x20\n  mul\n  0x20\n  add\n  add\n  mload\n    /* \"testo.sol\":875:900  driverBalances[riders[i]] */\n  0xffffffffffffffffffffffffffffffffffffffff\n  and\n  0xffffffffffffffffffffffffffffffffffffffff\n  and\n  dup2\n  mstore\n  0x20\n  add\n  swap1\n  dup2\n  mstore\n  0x20\n  add\n  0x00\n  keccak256\n    /* \"testo.sol\":875:923  driverBalances[riders[i]] = initialDriverBalance */\n  dup2\n  swap1\n  sstore\n  pop\n    /* \"testo.sol\":796:799  i++ */\n  dup1\n  dup1\n  tag_24\n  swap1\n  tag_25\n  jump\t// in\ntag_24:\n  swap2\n  pop\n  pop\n    /* \"testo.sol\":757:934  for (uint256 i = 0; i < riders.length; i++) {... */\n  jump(tag_17)\ntag_18:\n  pop\n    /* \"testo.sol\":309:940  {... */\n  pop\n  pop\n  pop\n    /* \"testo.sol\":65:1551  contract PaymentSystem {... */\n  jump(tag_26)\n    /* \"#utility.yul\":7:187   */\ntag_6:\n    /* \"#utility.yul\":55:132   */\n  0x4e487b7100000000000000000000000000000000000000000000000000000000\n    /* \"#utility.yul\":52:53   */\n  0x00\n    /* \"#utility.yul\":45:133   */\n  mstore\n    /* \"#utility.yul\":152:156   */\n  0x41\n    /* \"#utility.yul\":149:150   */\n  0x04\n    /* \"#utility.yul\":142:157   */\n  mstore\n    /* \"#utility.yul\":176:180   */\n  0x24\n    /* \"#utility.yul\":173:174   */\n  0x00\n    /* \"#utility.yul\":166:181   */\n  revert\n    /* \"#utility.yul\":193:373   */\ntag_10:\n    /* \"#utility.yul\":241:318   */\n  0x4e487b7100000000000000000000000000000000000000000000000000000000\n    /* \"#utility.yul\":238:239   */\n  0x00\n    /* \"#utility.yul\":231:319   */\n  mstore\n    /* \"#utility.yul\":338:342   */\n  0x32\n    /* \"#utility.yul\":335:336   */\n  0x04\n    /* \"#utility.yul\":328:343   */\n  mstore\n    /* \"#utility.yul\":362:366   */\n  0x24\n    /* \"#utility.yul\":359:360   */\n  0x00\n    /* \"#utility.yul\":352:367   */\n  revert\n    /* \"#utility.yul\":379:559   */\ntag_27:\n    /* \"#utility.yul\":427:504   */\n  0x4e487b7100000000000000000000000000000000000000000000000000000000\n    /* \"#utility.yul\":424:425   */\n  0x00\n    /* \"#utility.yul\":417:505   */\n  mstore\n    /* \"#utility.yul\":524:528   */\n  0x11\n    /* \"#utility.yul\":521:522   */\n  0x04\n    /* \"#utility.yul\":514:529   */\n  mstore\n    /* \"#utility.yul\":548:552   */\n  0x24\n    /* \"#utility.yul\":545:546   */\n  0x00\n    /* \"#utility.yul\":538:553   */\n  revert\n    /* \"#utility.yul\":565:642   */\ntag_28:\n    /* \"#utility.yul\":602:609   */\n  0x00\n    /* \"#utility.yul\":631:636   */\n  dup2\n    /* \"#utility.yul\":620:636   */\n  swap1\n  pop\n    /* \"#utility.yul\":565:642   */\n  swap2\n  swap1\n  pop\n  jump\t// out\n    /* \"#utility.yul\":648:881   */\ntag_25:\n    /* \"#utility.yul\":687:690   */\n  0x00\n    /* \"#utility.yul\":710:734   */\n  tag_35\n    /* \"#utility.yul\":728:733   */\n  dup3\n    /* \"#utility.yul\":710:734   */\n  tag_28\n  jump\t// in\ntag_35:\n    /* \"#utility.yul\":701:734   */\n  swap2\n  pop\n    /* \"#utility.yul\":756:822   */\n  0xffffffffffffffffffffffffffffffffffffffffffffffffffffffffffffffff\n    /* \"#utility.yul\":749:754   */\n  dup3\n    /* \"#utility.yul\":746:823   */\n  sub\n    /* \"#utility.yul\":743:846   */\n  tag_36\n  jumpi\n    /* \"#utility.yul\":826:844   */\n  tag_37\n  tag_27\n  jump\t// in\ntag_37:\n    /* \"#utility.yul\":743:846   */\ntag_36:\n    /* \"#utility.yul\":873:874   */\n  0x01\n    /* \"#utility.yul\":866:871   */\n  dup3\n    /* \"#utility.yul\":862:875   */\n  add\n    /* \"#utility.yul\":855:875   */\n  swap1\n  pop\n    /* \"#utility.yul\":648:881   */\n  swap2\n  swap1\n  pop\n  jump\t// out\n    /* \"testo.sol\":65:1551  contract PaymentSystem {... */\ntag_26:\n  dataSize(sub_0)\n  dup1\n  dataOffset(sub_0)\n  0x00\n  codecopy\n  0x00\n  return\nstop\n\nsub_0: assembly {\n        /* \"testo.sol\":65:1551  contract PaymentSystem {... */\n      mstore(0x40, 0x80)\n      callvalue\n      dup1\n      iszero\n      tag_1\n      jumpi\n      0x00\n      dup1\n      revert\n    tag_1:\n      pop\n      jumpi(tag_2, lt(calldatasize, 0x04))\n      shr(0xe0, calldataload(0x00))\n      dup1\n      0x395801e7\n      eq\n      tag_3\n      jumpi\n      dup1\n      0x666255cb\n      eq\n      tag_4\n      jumpi\n      dup1\n      0xb0c63947\n      eq\n      tag_5\n      jumpi\n      dup1\n      0xc2993eee\n      eq\n      tag_6\n      jumpi\n      dup1\n      0xc53735a3\n      eq\n      tag_7\n      jumpi\n    tag_2:\n      0x00\n      dup1\n      revert\n        /* \"testo.sol\":946:1301  function sendPayment(address rider, address driver, uint256 amount) external {... */\n    tag_3:\n      tag_8\n      0x04\n      dup1\n      calldatasize\n      sub\n      dup2\n      add\n      swap1\n      tag_9\n      swap2\n      swap1\n      tag_10\n      jump\t// in\n    tag_9:\n      tag_11\n      jump\t// in\n    tag_8:\n      stop\n        /* \"testo.sol\":1429:1549  function getDriverBalance(address driver) external view returns (uint256) {... */\n    tag_4:\n      tag_12\n      0x04\n      dup1\n      calldatasize\n      sub\n      dup2\n      add\n      swap1\n      tag_13\n      swap2\n      swap1\n      tag_14\n      jump\t// in\n    tag_13:\n      tag_15\n      jump\t// in\n    tag_12:\n      mload(0x40)\n      tag_16\n      swap2\n      swap1\n      tag_17\n      jump\t// in\n    tag_16:\n      mload(0x40)\n      dup1\n      swap2\n      sub\n      swap1\n      return\n        /* \"testo.sol\":1307:1423  function getRiderBalance(address rider) external view returns (uint256) {... */\n    tag_5:\n      tag_18\n      0x04\n      dup1\n      calldatasize\n      sub\n      dup2\n      add\n      swap1\n      tag_19\n      swap2\n      swap1\n      tag_14\n      jump\t// in\n    tag_19:\n      tag_20\n      jump\t// in\n    tag_18:\n      mload(0x40)\n      tag_21\n      swap2\n      swap1\n      tag_17\n      jump\t// in\n    tag_21:\n      mload(0x40)\n      dup1\n      swap2\n      sub\n      swap1\n      return\n        /* \"testo.sol\":94:142  mapping(address => uint256) public riderBalances */\n    tag_6:\n      tag_22\n      0x04\n      dup1\n      calldatasize\n      sub\n      dup2\n      add\n      swap1\n      tag_23\n      swap2\n      swap1\n      tag_14\n      jump\t// in\n    tag_23:\n      tag_24\n      jump\t// in\n    tag_22:\n      mload(0x40)\n      tag_25\n      swap2\n      swap1\n      tag_17\n      jump\t// in\n    tag_25:\n      mload(0x40)\n      dup1\n      swap2\n      sub\n      swap1\n      return\n        /* \"testo.sol\":148:197  mapping(address => uint256) public driverBalances */\n    tag_7:\n      tag_26\n      0x04\n      dup1\n      calldatasize\n      sub\n      dup2\n      add\n      swap1\n      tag_27\n      swap2\n      swap1\n      tag_14\n      jump\t// in\n    tag_27:\n      tag_28\n      jump\t// in\n    tag_26:\n      mload(0x40)\n      tag_29\n      swap2\n      swap1\n      tag_17\n      jump\t// in\n    tag_29:\n      mload(0x40)\n      dup1\n      swap2\n      sub\n      swap1\n      return\n        /* \"testo.sol\":946:1301  function sendPayment(address rider, address driver, uint256 amount) external {... */\n    tag_11:\n        /* \"testo.sol\":1050:1051  0 */\n      0x00\n        /* \"testo.sol\":1041:1047  amount */\n      dup2\n        /* \"testo.sol\":1041:1051  amount > 0 */\n      gt\n        /* \"testo.sol\":1033:1088  require(amount > 0, \"Amount must be greater than zero\") */\n      tag_31\n      jumpi\n      mload(0x40)\n      0x08c379a000000000000000000000000000000000000000000000000000000000\n      dup2\n      mstore\n      0x04\n      add\n      tag_32\n      swap1\n      tag_33\n      jump\t// in\n    tag_32:\n      mload(0x40)\n      dup1\n      swap2\n      sub\n      swap1\n      revert\n    tag_31:\n        /* \"testo.sol\":1130:1136  amount */\n      dup1\n        /* \"testo.sol\":1106:1119  riderBalances */\n      0x00\n        /* \"testo.sol\":1106:1126  riderBalances[rider] */\n      dup1\n        /* \"testo.sol\":1120:1125  rider */\n      dup6\n        /* \"testo.sol\":1106:1126  riderBalances[rider] */\n      0xffffffffffffffffffffffffffffffffffffffff\n      and\n      0xffffffffffffffffffffffffffffffffffffffff\n      and\n      dup2\n      mstore\n      0x20\n      add\n      swap1\n      dup2\n      mstore\n      0x20\n      add\n      0x00\n      keccak256\n      sload\n        /* \"testo.sol\":1106:1136  riderBalances[rider] >= amount */\n      lt\n      iszero\n        /* \"testo.sol\":1098:1161  require(riderBalances[rider] >= amount, \"Insufficient balance\") */\n      tag_34\n      jumpi\n      mload(0x40)\n      0x08c379a000000000000000000000000000000000000000000000000000000000\n      dup2\n      mstore\n      0x04\n      add\n      tag_35\n      swap1\n      tag_36\n      jump\t// in\n    tag_35:\n      mload(0x40)\n      dup1\n      swap2\n      sub\n      swap1\n      revert\n    tag_34:\n        /* \"testo.sol\":1196:1202  amount */\n      dup1\n        /* \"testo.sol\":1172:1185  riderBalances */\n      0x00\n        /* \"testo.sol\":1172:1192  riderBalances[rider] */\n      dup1\n        /* \"testo.sol\":1186:1191  rider */\n      dup6\n        /* \"testo.sol\":1172:1192  riderBalances[rider] */\n      0xffffffffffffffffffffffffffffffffffffffff\n      and\n      0xffffffffffffffffffffffffffffffffffffffff\n      and\n      dup2\n      mstore\n      0x20\n      add\n      swap1\n      dup2\n      mstore\n      0x20\n      add\n      0x00\n      keccak256\n      0x00\n        /* \"testo.sol\":1172:1202  riderBalances[rider] -= amount */\n      dup3\n      dup3\n      sload\n      tag_37\n      swap2\n      swap1\n      tag_38\n      jump\t// in\n    tag_37:\n      swap3\n      pop\n      pop\n      dup2\n      swap1\n      sstore\n      pop\n        /* \"testo.sol\":1238:1244  amount */\n      dup1\n        /* \"testo.sol\":1212:1226  driverBalances */\n      0x01\n        /* \"testo.sol\":1212:1234  driverBalances[driver] */\n      0x00\n        /* \"testo.sol\":1227:1233  driver */\n      dup5\n        /* \"testo.sol\":1212:1234  driverBalances[driver] */\n      0xffffffffffffffffffffffffffffffffffffffff\n      and\n      0xffffffffffffffffffffffffffffffffffffffff\n      and\n      dup2\n      mstore\n      0x20\n      add\n      swap1\n      dup2\n      mstore\n      0x20\n      add\n      0x00\n      keccak256\n      0x00\n        /* \"testo.sol\":1212:1244  driverBalances[driver] += amount */\n      dup3\n      dup3\n      sload\n      tag_39\n      swap2\n      swap1\n      tag_40\n      jump\t// in\n    tag_39:\n      swap3\n      pop\n      pop\n      dup2\n      swap1\n      sstore\n      pop\n        /* \"testo.sol\":1279:1285  driver */\n      dup2\n        /* \"testo.sol\":1260:1294  PaymentSent(rider, driver, amount) */\n      0xffffffffffffffffffffffffffffffffffffffff\n      and\n        /* \"testo.sol\":1272:1277  rider */\n      dup4\n        /* \"testo.sol\":1260:1294  PaymentSent(rider, driver, amount) */\n      0xffffffffffffffffffffffffffffffffffffffff\n      and\n      0xd52bd61f7c422d441e024604f4517878fd3305d6acf0fe37baef23ed21af6bc9\n        /* \"testo.sol\":1287:1293  amount */\n      dup4\n        /* \"testo.sol\":1260:1294  PaymentSent(rider, driver, amount) */\n      mload(0x40)\n      tag_41\n      swap2\n      swap1\n      tag_17\n      jump\t// in\n    tag_41:\n      mload(0x40)\n      dup1\n      swap2\n      sub\n      swap1\n      log3\n        /* \"testo.sol\":946:1301  function sendPayment(address rider, address driver, uint256 amount) external {... */\n      pop\n      pop\n      pop\n      jump\t// out\n        /* \"testo.sol\":1429:1549  function getDriverBalance(address driver) external view returns (uint256) {... */\n    tag_15:\n        /* \"testo.sol\":1494:1501  uint256 */\n      0x00\n        /* \"testo.sol\":1520:1534  driverBalances */\n      0x01\n        /* \"testo.sol\":1520:1542  driverBalances[driver] */\n      0x00\n        /* \"testo.sol\":1535:1541  driver */\n      dup4\n        /* \"testo.sol\":1520:1542  driverBalances[driver] */\n      0xffffffffffffffffffffffffffffffffffffffff\n      and\n      0xffffffffffffffffffffffffffffffffffffffff\n      and\n      dup2\n      mstore\n      0x20\n      add\n      swap1\n      dup2\n      mstore\n      0x20\n      add\n      0x00\n      keccak256\n      sload\n        /* \"testo.sol\":1513:1542  return driverBalances[driver] */\n      swap1\n      pop\n        /* \"testo.sol\":1429:1549  function getDriverBalance(address driver) external view returns (uint256) {... */\n      swap2\n      swap1\n      pop\n      jump\t// out\n        /* \"testo.sol\":1307:1423  function getRiderBalance(address rider) external view returns (uint256) {... */\n    tag_20:\n        /* \"testo.sol\":1370:1377  uint256 */\n      0x00\n        /* \"testo.sol\":1396:1409  riderBalances */\n      dup1\n        /* \"testo.sol\":1396:1416  riderBalances[rider] */\n      0x00\n        /* \"testo.sol\":1410:1415  rider */\n      dup4\n        /* \"testo.sol\":1396:1416  riderBalances[rider] */\n      0xffffffffffffffffffffffffffffffffffffffff\n      and\n      0xffffffffffffffffffffffffffffffffffffffff\n      and\n      dup2\n      mstore\n      0x20\n      add\n      swap1\n      dup2\n      mstore\n      0x20\n      add\n      0x00\n      keccak256\n      sload\n        /* \"testo.sol\":1389:1416  return riderBalances[rider] */\n      swap1\n      pop\n        /* \"testo.sol\":1307:1423  function getRiderBalance(address rider) external view returns (uint256) {... */\n      swap2\n      swap1\n      pop\n      jump\t// out\n        /* \"testo.sol\":94:142  mapping(address => uint256) public riderBalances */\n    tag_24:\n      mstore(0x20, 0x00)\n      dup1\n      0x00\n      mstore\n      keccak256(0x00, 0x40)\n      0x00\n      swap2\n      pop\n      swap1\n      pop\n      sload\n      dup2\n      jump\t// out\n        /* \"testo.sol\":148:197  mapping(address => uint256) public driverBalances */\n    tag_28:\n      mstore(0x20, 0x01)\n      dup1\n      0x00\n      mstore\n      keccak256(0x00, 0x40)\n      0x00\n      swap2\n      pop\n      swap1\n      pop\n      sload\n      dup2\n      jump\t// out\n        /* \"#utility.yul\":88:205   */\n    tag_45:\n        /* \"#utility.yul\":197:198   */\n      0x00\n        /* \"#utility.yul\":194:195   */\n      dup1\n        /* \"#utility.yul\":187:199   */\n      revert\n        /* \"#utility.yul\":334:460   */\n    tag_47:\n        /* \"#utility.yul\":371:378   */\n      0x00\n        /* \"#utility.yul\":411:453   */\n      0xffffffffffffffffffffffffffffffffffffffff\n        /* \"#utility.yul\":404:409   */\n      dup3\n        /* \"#utility.yul\":400:454   */\n      and\n        /* \"#utility.yul\":389:454   */\n      swap1\n      pop\n        /* \"#utility.yul\":334:460   */\n      swap2\n      swap1\n      pop\n      jump\t// out\n        /* \"#utility.yul\":466:562   */\n    tag_48:\n        /* \"#utility.yul\":503:510   */\n      0x00\n        /* \"#utility.yul\":532:556   */\n      tag_67\n        /* \"#utility.yul\":550:555   */\n      dup3\n        /* \"#utility.yul\":532:556   */\n      tag_47\n      jump\t// in\n    tag_67:\n        /* \"#utility.yul\":521:556   */\n      swap1\n      pop\n        /* \"#utility.yul\":466:562   */\n      swap2\n      swap1\n      pop\n      jump\t// out\n        /* \"#utility.yul\":568:690   */\n    tag_49:\n        /* \"#utility.yul\":641:665   */\n      tag_69\n        /* \"#utility.yul\":659:664   */\n      dup2\n        /* \"#utility.yul\":641:665   */\n      tag_48\n      jump\t// in\n    tag_69:\n        /* \"#utility.yul\":634:639   */\n      dup2\n        /* \"#utility.yul\":631:666   */\n      eq\n        /* \"#utility.yul\":621:684   */\n      tag_70\n      jumpi\n        /* \"#utility.yul\":680:681   */\n      0x00\n        /* \"#utility.yul\":677:678   */\n      dup1\n        /* \"#utility.yul\":670:682   */\n      revert\n        /* \"#utility.yul\":621:684   */\n    tag_70:\n        /* \"#utility.yul\":568:690   */\n      pop\n      jump\t// out\n        /* \"#utility.yul\":696:835   */\n    tag_50:\n        /* \"#utility.yul\":742:747   */\n      0x00\n        /* \"#utility.yul\":780:786   */\n      dup2\n        /* \"#utility.yul\":767:787   */\n      calldataload\n        /* \"#utility.yul\":758:787   */\n      swap1\n      pop\n        /* \"#utility.yul\":796:829   */\n      tag_72\n        /* \"#utility.yul\":823:828   */\n      dup2\n        /* \"#utility.yul\":796:829   */\n      tag_49\n      jump\t// in\n    tag_72:\n        /* \"#utility.yul\":696:835   */\n      swap3\n      swap2\n      pop\n      pop\n      jump\t// out\n        /* \"#utility.yul\":841:918   */\n    tag_51:\n        /* \"#utility.yul\":878:885   */\n      0x00\n        /* \"#utility.yul\":907:912   */\n      dup2\n        /* \"#utility.yul\":896:912   */\n      swap1\n      pop\n        /* \"#utility.yul\":841:918   */\n      swap2\n      swap1\n      pop\n      jump\t// out\n        /* \"#utility.yul\":924:1046   */\n    tag_52:\n        /* \"#utility.yul\":997:1021   */\n      tag_75\n        /* \"#utility.yul\":1015:1020   */\n      dup2\n        /* \"#utility.yul\":997:1021   */\n      tag_51\n      jump\t// in\n    tag_75:\n        /* \"#utility.yul\":990:995   */\n      dup2\n        /* \"#utility.yul\":987:1022   */\n      eq\n        /* \"#utility.yul\":977:1040   */\n      tag_76\n      jumpi\n        /* \"#utility.yul\":1036:1037   */\n      0x00\n        /* \"#utility.yul\":1033:1034   */\n      dup1\n        /* \"#utility.yul\":1026:1038   */\n      revert\n        /* \"#utility.yul\":977:1040   */\n    tag_76:\n        /* \"#utility.yul\":924:1046   */\n      pop\n      jump\t// out\n        /* \"#utility.yul\":1052:1191   */\n    tag_53:\n        /* \"#utility.yul\":1098:1103   */\n      0x00\n        /* \"#utility.yul\":1136:1142   */\n      dup2\n        /* \"#utility.yul\":1123:1143   */\n      calldataload\n        /* \"#utility.yul\":1114:1143   */\n      swap1\n      pop\n        /* \"#utility.yul\":1152:1185   */\n      tag_78\n        /* \"#utility.yul\":1179:1184   */\n      dup2\n        /* \"#utility.yul\":1152:1185   */\n      tag_52\n      jump\t// in\n    tag_78:\n        /* \"#utility.yul\":1052:1191   */\n      swap3\n      swap2\n      pop\n      pop\n      jump\t// out\n        /* \"#utility.yul\":1197:1816   */\n    tag_10:\n        /* \"#utility.yul\":1274:1280   */\n      0x00\n        /* \"#utility.yul\":1282:1288   */\n      dup1\n        /* \"#utility.yul\":1290:1296   */\n      0x00\n        /* \"#utility.yul\":1339:1341   */\n      0x60\n        /* \"#utility.yul\":1327:1336   */\n      dup5\n        /* \"#utility.yul\":1318:1325   */\n      dup7\n        /* \"#utility.yul\":1314:1337   */\n      sub\n        /* \"#utility.yul\":1310:1342   */\n      slt\n        /* \"#utility.yul\":1307:1426   */\n      iszero\n      tag_80\n      jumpi\n        /* \"#utility.yul\":1345:1424   */\n      tag_81\n      tag_45\n      jump\t// in\n    tag_81:\n        /* \"#utility.yul\":1307:1426   */\n    tag_80:\n        /* \"#utility.yul\":1465:1466   */\n      0x00\n        /* \"#utility.yul\":1490:1543   */\n      tag_82\n        /* \"#utility.yul\":1535:1542   */\n      dup7\n        /* \"#utility.yul\":1526:1532   */\n      dup3\n        /* \"#utility.yul\":1515:1524   */\n      dup8\n        /* \"#utility.yul\":1511:1533   */\n      add\n        /* \"#utility.yul\":1490:1543   */\n      tag_50\n      jump\t// in\n    tag_82:\n        /* \"#utility.yul\":1480:1543   */\n      swap4\n      pop\n        /* \"#utility.yul\":1436:1553   */\n      pop\n        /* \"#utility.yul\":1592:1594   */\n      0x20\n        /* \"#utility.yul\":1618:1671   */\n      tag_83\n        /* \"#utility.yul\":1663:1670   */\n      dup7\n        /* \"#utility.yul\":1654:1660   */\n      dup3\n        /* \"#utility.yul\":1643:1652   */\n      dup8\n        /* \"#utility.yul\":1639:1661   */\n      add\n        /* \"#utility.yul\":1618:1671   */\n      tag_50\n      jump\t// in\n    tag_83:\n        /* \"#utility.yul\":1608:1671   */\n      swap3\n      pop\n        /* \"#utility.yul\":1563:1681   */\n      pop\n        /* \"#utility.yul\":1720:1722   */\n      0x40\n        /* \"#utility.yul\":1746:1799   */\n      tag_84\n        /* \"#utility.yul\":1791:1798   */\n      dup7\n        /* \"#utility.yul\":1782:1788   */\n      dup3\n        /* \"#utility.yul\":1771:1780   */\n      dup8\n        /* \"#utility.yul\":1767:1789   */\n      add\n        /* \"#utility.yul\":1746:1799   */\n      tag_53\n      jump\t// in\n    tag_84:\n        /* \"#utility.yul\":1736:1799   */\n      swap2\n      pop\n        /* \"#utility.yul\":1691:1809   */\n      pop\n        /* \"#utility.yul\":1197:1816   */\n      swap3\n      pop\n      swap3\n      pop\n      swap3\n      jump\t// out\n        /* \"#utility.yul\":1822:2151   */\n    tag_14:\n        /* \"#utility.yul\":1881:1887   */\n      0x00\n        /* \"#utility.yul\":1930:1932   */\n      0x20\n        /* \"#utility.yul\":1918:1927   */\n      dup3\n        /* \"#utility.yul\":1909:1916   */\n      dup5\n        /* \"#utility.yul\":1905:1928   */\n      sub\n        /* \"#utility.yul\":1901:1933   */\n      slt\n        /* \"#utility.yul\":1898:2017   */\n      iszero\n      tag_86\n      jumpi\n        /* \"#utility.yul\":1936:2015   */\n      tag_87\n      tag_45\n      jump\t// in\n    tag_87:\n        /* \"#utility.yul\":1898:2017   */\n    tag_86:\n        /* \"#utility.yul\":2056:2057   */\n      0x00\n        /* \"#utility.yul\":2081:2134   */\n      tag_88\n        /* \"#utility.yul\":2126:2133   */\n      dup5\n        /* \"#utility.yul\":2117:2123   */\n      dup3\n        /* \"#utility.yul\":2106:2115   */\n      dup6\n        /* \"#utility.yul\":2102:2124   */\n      add\n        /* \"#utility.yul\":2081:2134   */\n      tag_50\n      jump\t// in\n    tag_88:\n        /* \"#utility.yul\":2071:2134   */\n      swap2\n      pop\n        /* \"#utility.yul\":2027:2144   */\n      pop\n        /* \"#utility.yul\":1822:2151   */\n      swap3\n      swap2\n      pop\n      pop\n      jump\t// out\n        /* \"#utility.yul\":2157:2275   */\n    tag_54:\n        /* \"#utility.yul\":2244:2268   */\n      tag_90\n        /* \"#utility.yul\":2262:2267   */\n      dup2\n        /* \"#utility.yul\":2244:2268   */\n      tag_51\n      jump\t// in\n    tag_90:\n        /* \"#utility.yul\":2239:2242   */\n      dup3\n        /* \"#utility.yul\":2232:2269   */\n      mstore\n        /* \"#utility.yul\":2157:2275   */\n      pop\n      pop\n      jump\t// out\n        /* \"#utility.yul\":2281:2503   */\n    tag_17:\n        /* \"#utility.yul\":2374:2378   */\n      0x00\n        /* \"#utility.yul\":2412:2414   */\n      0x20\n        /* \"#utility.yul\":2401:2410   */\n      dup3\n        /* \"#utility.yul\":2397:2415   */\n      add\n        /* \"#utility.yul\":2389:2415   */\n      swap1\n      pop\n        /* \"#utility.yul\":2425:2496   */\n      tag_92\n        /* \"#utility.yul\":2493:2494   */\n      0x00\n        /* \"#utility.yul\":2482:2491   */\n      dup4\n        /* \"#utility.yul\":2478:2495   */\n      add\n        /* \"#utility.yul\":2469:2475   */\n      dup5\n        /* \"#utility.yul\":2425:2496   */\n      tag_54\n      jump\t// in\n    tag_92:\n        /* \"#utility.yul\":2281:2503   */\n      swap3\n      swap2\n      pop\n      pop\n      jump\t// out\n        /* \"#utility.yul\":2509:2678   */\n    tag_55:\n        /* \"#utility.yul\":2593:2604   */\n      0x00\n        /* \"#utility.yul\":2627:2633   */\n      dup3\n        /* \"#utility.yul\":2622:2625   */\n      dup3\n        /* \"#utility.yul\":2615:2634   */\n      mstore\n        /* \"#utility.yul\":2667:2671   */\n      0x20\n        /* \"#utility.yul\":2662:2665   */\n      dup3\n        /* \"#utility.yul\":2658:2672   */\n      add\n        /* \"#utility.yul\":2643:2672   */\n      swap1\n      pop\n        /* \"#utility.yul\":2509:2678   */\n      swap3\n      swap2\n      pop\n      pop\n      jump\t// out\n        /* \"#utility.yul\":2684:2866   */\n    tag_56:\n        /* \"#utility.yul\":2824:2858   */\n      0x416d6f756e74206d7573742062652067726561746572207468616e207a65726f\n        /* \"#utility.yul\":2820:2821   */\n      0x00\n        /* \"#utility.yul\":2812:2818   */\n      dup3\n        /* \"#utility.yul\":2808:2822   */\n      add\n        /* \"#utility.yul\":2801:2859   */\n      mstore\n        /* \"#utility.yul\":2684:2866   */\n      pop\n      jump\t// out\n        /* \"#utility.yul\":2872:3238   */\n    tag_57:\n        /* \"#utility.yul\":3014:3017   */\n      0x00\n        /* \"#utility.yul\":3035:3102   */\n      tag_96\n        /* \"#utility.yul\":3099:3101   */\n      0x20\n        /* \"#utility.yul\":3094:3097   */\n      dup4\n        /* \"#utility.yul\":3035:3102   */\n      tag_55\n      jump\t// in\n    tag_96:\n        /* \"#utility.yul\":3028:3102   */\n      swap2\n      pop\n        /* \"#utility.yul\":3111:3204   */\n      tag_97\n        /* \"#utility.yul\":3200:3203   */\n      dup3\n        /* \"#utility.yul\":3111:3204   */\n      tag_56\n      jump\t// in\n    tag_97:\n        /* \"#utility.yul\":3229:3231   */\n      0x20\n        /* \"#utility.yul\":3224:3227   */\n      dup3\n        /* \"#utility.yul\":3220:3232   */\n      add\n        /* \"#utility.yul\":3213:3232   */\n      swap1\n      pop\n        /* \"#utility.yul\":2872:3238   */\n      swap2\n      swap1\n      pop\n      jump\t// out\n        /* \"#utility.yul\":3244:3663   */\n    tag_33:\n        /* \"#utility.yul\":3410:3414   */\n      0x00\n        /* \"#utility.yul\":3448:3450   */\n      0x20\n        /* \"#utility.yul\":3437:3446   */\n      dup3\n        /* \"#utility.yul\":3433:3451   */\n      add\n        /* \"#utility.yul\":3425:3451   */\n      swap1\n      pop\n        /* \"#utility.yul\":3497:3506   */\n      dup2\n        /* \"#utility.yul\":3491:3495   */\n      dup2\n        /* \"#utility.yul\":3487:3507   */\n      sub\n        /* \"#utility.yul\":3483:3484   */\n      0x00\n        /* \"#utility.yul\":3472:3481   */\n      dup4\n        /* \"#utility.yul\":3468:3485   */\n      add\n        /* \"#utility.yul\":3461:3508   */\n      mstore\n        /* \"#utility.yul\":3525:3656   */\n      tag_99\n        /* \"#utility.yul\":3651:3655   */\n      dup2\n        /* \"#utility.yul\":3525:3656   */\n      tag_57\n      jump\t// in\n    tag_99:\n        /* \"#utility.yul\":3517:3656   */\n      swap1\n      pop\n        /* \"#utility.yul\":3244:3663   */\n      swap2\n      swap1\n      pop\n      jump\t// out\n        /* \"#utility.yul\":3669:3839   */\n    tag_58:\n        /* \"#utility.yul\":3809:3831   */\n      0x496e73756666696369656e742062616c616e6365000000000000000000000000\n        /* \"#utility.yul\":3805:3806   */\n      0x00\n        /* \"#utility.yul\":3797:3803   */\n      dup3\n        /* \"#utility.yul\":3793:3807   */\n      add\n        /* \"#utility.yul\":3786:3832   */\n      mstore\n        /* \"#utility.yul\":3669:3839   */\n      pop\n      jump\t// out\n        /* \"#utility.yul\":3845:4211   */\n    tag_59:\n        /* \"#utility.yul\":3987:3990   */\n      0x00\n        /* \"#utility.yul\":4008:4075   */\n      tag_102\n        /* \"#utility.yul\":4072:4074   */\n      0x14\n        /* \"#utility.yul\":4067:4070   */\n      dup4\n        /* \"#utility.yul\":4008:4075   */\n      tag_55\n      jump\t// in\n    tag_102:\n        /* \"#utility.yul\":4001:4075   */\n      swap2\n      pop\n        /* \"#utility.yul\":4084:4177   */\n      tag_103\n        /* \"#utility.yul\":4173:4176   */\n      dup3\n        /* \"#utility.yul\":4084:4177   */\n      tag_58\n      jump\t// in\n    tag_103:\n        /* \"#utility.yul\":4202:4204   */\n      0x20\n        /* \"#utility.yul\":4197:4200   */\n      dup3\n        /* \"#utility.yul\":4193:4205   */\n      add\n        /* \"#utility.yul\":4186:4205   */\n      swap1\n      pop\n        /* \"#utility.yul\":3845:4211   */\n      swap2\n      swap1\n      pop\n      jump\t// out\n        /* \"#utility.yul\":4217:4636   */\n    tag_36:\n        /* \"#utility.yul\":4383:4387   */\n      0x00\n        /* \"#utility.yul\":4421:4423   */\n      0x20\n        /* \"#utility.yul\":4410:4419   */\n      dup3\n        /* \"#utility.yul\":4406:4424   */\n      add\n        /* \"#utility.yul\":4398:4424   */\n      swap1\n      pop\n        /* \"#utility.yul\":4470:4479   */\n      dup2\n        /* \"#utility.yul\":4464:4468   */\n      dup2\n        /* \"#utility.yul\":4460:4480   */\n      sub\n        /* \"#utility.yul\":4456:4457   */\n      0x00\n        /* \"#utility.yul\":4445:4454   */\n      dup4\n        /* \"#utility.yul\":4441:4458   */\n      add\n        /* \"#utility.yul\":4434:4481   */\n      mstore\n        /* \"#utility.yul\":4498:4629   */\n      tag_105\n        /* \"#utility.yul\":4624:4628   */\n      dup2\n        /* \"#utility.yul\":4498:4629   */\n      tag_59\n      jump\t// in\n    tag_105:\n        /* \"#utility.yul\":4490:4629   */\n      swap1\n      pop\n        /* \"#utility.yul\":4217:4636   */\n      swap2\n      swap1\n      pop\n      jump\t// out\n        /* \"#utility.yul\":4642:4822   */\n    tag_60:\n        /* \"#utility.yul\":4690:4767   */\n      0x4e487b7100000000000000000000000000000000000000000000000000000000\n        /* \"#utility.yul\":4687:4688   */\n      0x00\n        /* \"#utility.yul\":4680:4768   */\n      mstore\n        /* \"#utility.yul\":4787:4791   */\n      0x11\n        /* \"#utility.yul\":4784:4785   */\n      0x04\n        /* \"#utility.yul\":4777:4792   */\n      mstore\n        /* \"#utility.yul\":4811:4815   */\n      0x24\n        /* \"#utility.yul\":4808:4809   */\n      0x00\n        /* \"#utility.yul\":4801:4816   */\n      revert\n        /* \"#utility.yul\":4828:5022   */\n    tag_38:\n        /* \"#utility.yul\":4868:4872   */\n      0x00\n        /* \"#utility.yul\":4888:4908   */\n      tag_108\n        /* \"#utility.yul\":4906:4907   */\n      dup3\n        /* \"#utility.yul\":4888:4908   */\n      tag_51\n      jump\t// in\n    tag_108:\n        /* \"#utility.yul\":4883:4908   */\n      swap2\n      pop\n        /* \"#utility.yul\":4922:4942   */\n      tag_109\n        /* \"#utility.yul\":4940:4941   */\n      dup4\n        /* \"#utility.yul\":4922:4942   */\n      tag_51\n      jump\t// in\n    tag_109:\n        /* \"#utility.yul\":4917:4942   */\n      swap3\n      pop\n        /* \"#utility.yul\":4966:4967   */\n      dup3\n        /* \"#utility.yul\":4963:4964   */\n      dup3\n        /* \"#utility.yul\":4959:4968   */\n      sub\n        /* \"#utility.yul\":4951:4968   */\n      swap1\n      pop\n        /* \"#utility.yul\":4990:4991   */\n      dup2\n        /* \"#utility.yul\":4984:4988   */\n      dup2\n        /* \"#utility.yul\":4981:4992   */\n      gt\n        /* \"#utility.yul\":4978:5015   */\n      iszero\n      tag_110\n      jumpi\n        /* \"#utility.yul\":4995:5013   */\n      tag_111\n      tag_60\n      jump\t// in\n    tag_111:\n        /* \"#utility.yul\":4978:5015   */\n    tag_110:\n        /* \"#utility.yul\":4828:5022   */\n      swap3\n      swap2\n      pop\n      pop\n      jump\t// out\n        /* \"#utility.yul\":5028:5219   */\n    tag_40:\n        /* \"#utility.yul\":5068:5071   */\n      0x00\n        /* \"#utility.yul\":5087:5107   */\n      tag_113\n        /* \"#utility.yul\":5105:5106   */\n      dup3\n        /* \"#utility.yul\":5087:5107   */\n      tag_51\n      jump\t// in\n    tag_113:\n        /* \"#utility.yul\":5082:5107   */\n      swap2\n      pop\n        /* \"#utility.yul\":5121:5141   */\n      tag_114\n        /* \"#utility.yul\":5139:5140   */\n      dup4\n        /* \"#utility.yul\":5121:5141   */\n      tag_51\n      jump\t// in\n    tag_114:\n        /* \"#utility.yul\":5116:5141   */\n      swap3\n      pop\n        /* \"#utility.yul\":5164:5165   */\n      dup3\n        /* \"#utility.yul\":5161:5162   */\n      dup3\n        /* \"#utility.yul\":5157:5166   */\n      add\n        /* \"#utility.yul\":5150:5166   */\n      swap1\n      pop\n        /* \"#utility.yul\":5185:5188   */\n      dup1\n        /* \"#utility.yul\":5182:5183   */\n      dup3\n        /* \"#utility.yul\":5179:5189   */\n      gt\n        /* \"#utility.yul\":5176:5212   */\n      iszero\n      tag_115\n      jumpi\n        /* \"#utility.yul\":5192:5210   */\n      tag_116\n      tag_60\n      jump\t// in\n    tag_116:\n        /* \"#utility.yul\":5176:5212   */\n    tag_115:\n        /* \"#utility.yul\":5028:5219   */\n      swap3\n      swap2\n      pop\n      pop\n      jump\t// out\n\n    auxdata: 0xa26469706673582212202c62f0e010263fd04251b68558f9c76b7972b29c43c32a82715a8eb01703661364736f6c63430008120033\n}\n",
				"bytecode": {
					"linkReferences": {},
					"object": "608060405234801561001057600080fd5b506000600467ffffffffffffffff81111561002e5761002d6102dd565b5b60405190808252806020026020018201604052801561005c5781602001602082028036833780820191505090505b50905073c814fd5b49f9564dc2ffb42018c67fc8cfd70686816000815181106100885761008761030c565b5b602002602001019073ffffffffffffffffffffffffffffffffffffffff16908173ffffffffffffffffffffffffffffffffffffffff168152505073233f1320c329312ba98534b62e7b79a26d52a7ef816001815181106100eb576100ea61030c565b5b602002602001019073ffffffffffffffffffffffffffffffffffffffff16908173ffffffffffffffffffffffffffffffffffffffff168152505073445e9be1c0a1050d1143a149498d60ff91bbbbdd8160028151811061014e5761014d61030c565b5b602002602001019073ffffffffffffffffffffffffffffffffffffffff16908173ffffffffffffffffffffffffffffffffffffffff16815250507391ac40503fadb96f6bf3661f440ce2b0c1b059a1816003815181106101b1576101b061030c565b5b602002602001019073ffffffffffffffffffffffffffffffffffffffff16908173ffffffffffffffffffffffffffffffffffffffff16815250506000683635c9adc5dea0000090506000805b83518110156102d4578260008086848151811061021d5761021c61030c565b5b602002602001015173ffffffffffffffffffffffffffffffffffffffff1673ffffffffffffffffffffffffffffffffffffffff16815260200190815260200160002081905550816001600086848151811061027b5761027a61030c565b5b602002602001015173ffffffffffffffffffffffffffffffffffffffff1673ffffffffffffffffffffffffffffffffffffffff1681526020019081526020016000208190555080806102cc90610374565b9150506101fd565b505050506103bc565b7f4e487b7100000000000000000000000000000000000000000000000000000000600052604160045260246000fd5b7f4e487b7100000000000000000000000000000000000000000000000000000000600052603260045260246000fd5b7f4e487b7100000000000000000000000000000000000000000000000000000000600052601160045260246000fd5b6000819050919050565b600061037f8261036a565b91507fffffffffffffffffffffffffffffffffffffffffffffffffffffffffffffffff82036103b1576103b061033b565b5b600182019050919050565b6106cb806103cb6000396000f3fe608060405234801561001057600080fd5b50600436106100575760003560e01c8063395801e71461005c578063666255cb14610078578063b0c63947146100a8578063c2993eee146100d8578063c53735a314610108575b600080fd5b6100766004803603810190610071919061046b565b610138565b005b610092600480360381019061008d91906104be565b610311565b60405161009f91906104fa565b60405180910390f35b6100c260048036038101906100bd91906104be565b61035a565b6040516100cf91906104fa565b60405180910390f35b6100f260048036038101906100ed91906104be565b6103a2565b6040516100ff91906104fa565b60405180910390f35b610122600480360381019061011d91906104be565b6103ba565b60405161012f91906104fa565b60405180910390f35b6000811161017b576040517f08c379a000000000000000000000000000000000000000000000000000000000815260040161017290610572565b60405180910390fd5b806000808573ffffffffffffffffffffffffffffffffffffffff1673ffffffffffffffffffffffffffffffffffffffff1681526020019081526020016000205410156101fc576040517f08c379a00000000000000000000000000000000000000000000000000000000081526004016101f3906105de565b60405180910390fd5b806000808573ffffffffffffffffffffffffffffffffffffffff1673ffffffffffffffffffffffffffffffffffffffff168152602001908152602001600020600082825461024a919061062d565b9250508190555080600160008473ffffffffffffffffffffffffffffffffffffffff1673ffffffffffffffffffffffffffffffffffffffff16815260200190815260200160002060008282546102a09190610661565b925050819055508173ffffffffffffffffffffffffffffffffffffffff168373ffffffffffffffffffffffffffffffffffffffff167fd52bd61f7c422d441e024604f4517878fd3305d6acf0fe37baef23ed21af6bc98360405161030491906104fa565b60405180910390a3505050565b6000600160008373ffffffffffffffffffffffffffffffffffffffff1673ffffffffffffffffffffffffffffffffffffffff168152602001908152602001600020549050919050565b60008060008373ffffffffffffffffffffffffffffffffffffffff1673ffffffffffffffffffffffffffffffffffffffff168152602001908152602001600020549050919050565b60006020528060005260406000206000915090505481565b60016020528060005260406000206000915090505481565b600080fd5b600073ffffffffffffffffffffffffffffffffffffffff82169050919050565b6000610402826103d7565b9050919050565b610412816103f7565b811461041d57600080fd5b50565b60008135905061042f81610409565b92915050565b6000819050919050565b61044881610435565b811461045357600080fd5b50565b6000813590506104658161043f565b92915050565b600080600060608486031215610484576104836103d2565b5b600061049286828701610420565b93505060206104a386828701610420565b92505060406104b486828701610456565b9150509250925092565b6000602082840312156104d4576104d36103d2565b5b60006104e284828501610420565b91505092915050565b6104f481610435565b82525050565b600060208201905061050f60008301846104eb565b92915050565b600082825260208201905092915050565b7f416d6f756e74206d7573742062652067726561746572207468616e207a65726f600082015250565b600061055c602083610515565b915061056782610526565b602082019050919050565b6000602082019050818103600083015261058b8161054f565b9050919050565b7f496e73756666696369656e742062616c616e6365000000000000000000000000600082015250565b60006105c8601483610515565b91506105d382610592565b602082019050919050565b600060208201905081810360008301526105f7816105bb565b9050919050565b7f4e487b7100000000000000000000000000000000000000000000000000000000600052601160045260246000fd5b600061063882610435565b915061064383610435565b925082820390508181111561065b5761065a6105fe565b5b92915050565b600061066c82610435565b915061067783610435565b925082820190508082111561068f5761068e6105fe565b5b9291505056fea26469706673582212202c62f0e010263fd04251b68558f9c76b7972b29c43c32a82715a8eb01703661364736f6c63430008120033",
					"opcodes": "PUSH1 0x80 PUSH1 0x40 MSTORE CALLVALUE DUP1 ISZERO PUSH2 0x10 JUMPI PUSH1 0x0 DUP1 REVERT JUMPDEST POP PUSH1 0x0 PUSH1 0x4 PUSH8 0xFFFFFFFFFFFFFFFF DUP2 GT ISZERO PUSH2 0x2E JUMPI PUSH2 0x2D PUSH2 0x2DD JUMP JUMPDEST JUMPDEST PUSH1 0x40 MLOAD SWAP1 DUP1 DUP3 MSTORE DUP1 PUSH1 0x20 MUL PUSH1 0x20 ADD DUP3 ADD PUSH1 0x40 MSTORE DUP1 ISZERO PUSH2 0x5C JUMPI DUP2 PUSH1 0x20 ADD PUSH1 0x20 DUP3 MUL DUP1 CALLDATASIZE DUP4 CALLDATACOPY DUP1 DUP3 ADD SWAP2 POP POP SWAP1 POP JUMPDEST POP SWAP1 POP PUSH20 0xC814FD5B49F9564DC2FFB42018C67FC8CFD70686 DUP2 PUSH1 0x0 DUP2 MLOAD DUP2 LT PUSH2 0x88 JUMPI PUSH2 0x87 PUSH2 0x30C JUMP JUMPDEST JUMPDEST PUSH1 0x20 MUL PUSH1 0x20 ADD ADD SWAP1 PUSH20 0xFFFFFFFFFFFFFFFFFFFFFFFFFFFFFFFFFFFFFFFF AND SWAP1 DUP2 PUSH20 0xFFFFFFFFFFFFFFFFFFFFFFFFFFFFFFFFFFFFFFFF AND DUP2 MSTORE POP POP PUSH20 0x233F1320C329312BA98534B62E7B79A26D52A7EF DUP2 PUSH1 0x1 DUP2 MLOAD DUP2 LT PUSH2 0xEB JUMPI PUSH2 0xEA PUSH2 0x30C JUMP JUMPDEST JUMPDEST PUSH1 0x20 MUL PUSH1 0x20 ADD ADD SWAP1 PUSH20 0xFFFFFFFFFFFFFFFFFFFFFFFFFFFFFFFFFFFFFFFF AND SWAP1 DUP2 PUSH20 0xFFFFFFFFFFFFFFFFFFFFFFFFFFFFFFFFFFFFFFFF AND DUP2 MSTORE POP POP PUSH20 0x445E9BE1C0A1050D1143A149498D60FF91BBBBDD DUP2 PUSH1 0x2 DUP2 MLOAD DUP2 LT PUSH2 0x14E JUMPI PUSH2 0x14D PUSH2 0x30C JUMP JUMPDEST JUMPDEST PUSH1 0x20 MUL PUSH1 0x20 ADD ADD SWAP1 PUSH20 0xFFFFFFFFFFFFFFFFFFFFFFFFFFFFFFFFFFFFFFFF AND SWAP1 DUP2 PUSH20 0xFFFFFFFFFFFFFFFFFFFFFFFFFFFFFFFFFFFFFFFF AND DUP2 MSTORE POP POP PUSH20 0x91AC40503FADB96F6BF3661F440CE2B0C1B059A1 DUP2 PUSH1 0x3 DUP2 MLOAD DUP2 LT PUSH2 0x1B1 JUMPI PUSH2 0x1B0 PUSH2 0x30C JUMP JUMPDEST JUMPDEST PUSH1 0x20 MUL PUSH1 0x20 ADD ADD SWAP1 PUSH20 0xFFFFFFFFFFFFFFFFFFFFFFFFFFFFFFFFFFFFFFFF AND SWAP1 DUP2 PUSH20 0xFFFFFFFFFFFFFFFFFFFFFFFFFFFFFFFFFFFFFFFF AND DUP2 MSTORE POP POP PUSH1 0x0 PUSH9 0x3635C9ADC5DEA00000 SWAP1 POP PUSH1 0x0 DUP1 JUMPDEST DUP4 MLOAD DUP2 LT ISZERO PUSH2 0x2D4 JUMPI DUP3 PUSH1 0x0 DUP1 DUP7 DUP5 DUP2 MLOAD DUP2 LT PUSH2 0x21D JUMPI PUSH2 0x21C PUSH2 0x30C JUMP JUMPDEST JUMPDEST PUSH1 0x20 MUL PUSH1 0x20 ADD ADD MLOAD PUSH20 0xFFFFFFFFFFFFFFFFFFFFFFFFFFFFFFFFFFFFFFFF AND PUSH20 0xFFFFFFFFFFFFFFFFFFFFFFFFFFFFFFFFFFFFFFFF AND DUP2 MSTORE PUSH1 0x20 ADD SWAP1 DUP2 MSTORE PUSH1 0x20 ADD PUSH1 0x0 KECCAK256 DUP2 SWAP1 SSTORE POP DUP2 PUSH1 0x1 PUSH1 0x0 DUP7 DUP5 DUP2 MLOAD DUP2 LT PUSH2 0x27B JUMPI PUSH2 0x27A PUSH2 0x30C JUMP JUMPDEST JUMPDEST PUSH1 0x20 MUL PUSH1 0x20 ADD ADD MLOAD PUSH20 0xFFFFFFFFFFFFFFFFFFFFFFFFFFFFFFFFFFFFFFFF AND PUSH20 0xFFFFFFFFFFFFFFFFFFFFFFFFFFFFFFFFFFFFFFFF AND DUP2 MSTORE PUSH1 0x20 ADD SWAP1 DUP2 MSTORE PUSH1 0x20 ADD PUSH1 0x0 KECCAK256 DUP2 SWAP1 SSTORE POP DUP1 DUP1 PUSH2 0x2CC SWAP1 PUSH2 0x374 JUMP JUMPDEST SWAP2 POP POP PUSH2 0x1FD JUMP JUMPDEST POP POP POP POP PUSH2 0x3BC JUMP JUMPDEST PUSH32 0x4E487B7100000000000000000000000000000000000000000000000000000000 PUSH1 0x0 MSTORE PUSH1 0x41 PUSH1 0x4 MSTORE PUSH1 0x24 PUSH1 0x0 REVERT JUMPDEST PUSH32 0x4E487B7100000000000000000000000000000000000000000000000000000000 PUSH1 0x0 MSTORE PUSH1 0x32 PUSH1 0x4 MSTORE PUSH1 0x24 PUSH1 0x0 REVERT JUMPDEST PUSH32 0x4E487B7100000000000000000000000000000000000000000000000000000000 PUSH1 0x0 MSTORE PUSH1 0x11 PUSH1 0x4 MSTORE PUSH1 0x24 PUSH1 0x0 REVERT JUMPDEST PUSH1 0x0 DUP2 SWAP1 POP SWAP2 SWAP1 POP JUMP JUMPDEST PUSH1 0x0 PUSH2 0x37F DUP3 PUSH2 0x36A JUMP JUMPDEST SWAP2 POP PUSH32 0xFFFFFFFFFFFFFFFFFFFFFFFFFFFFFFFFFFFFFFFFFFFFFFFFFFFFFFFFFFFFFFFF DUP3 SUB PUSH2 0x3B1 JUMPI PUSH2 0x3B0 PUSH2 0x33B JUMP JUMPDEST JUMPDEST PUSH1 0x1 DUP3 ADD SWAP1 POP SWAP2 SWAP1 POP JUMP JUMPDEST PUSH2 0x6CB DUP1 PUSH2 0x3CB PUSH1 0x0 CODECOPY PUSH1 0x0 RETURN INVALID PUSH1 0x80 PUSH1 0x40 MSTORE CALLVALUE DUP1 ISZERO PUSH2 0x10 JUMPI PUSH1 0x0 DUP1 REVERT JUMPDEST POP PUSH1 0x4 CALLDATASIZE LT PUSH2 0x57 JUMPI PUSH1 0x0 CALLDATALOAD PUSH1 0xE0 SHR DUP1 PUSH4 0x395801E7 EQ PUSH2 0x5C JUMPI DUP1 PUSH4 0x666255CB EQ PUSH2 0x78 JUMPI DUP1 PUSH4 0xB0C63947 EQ PUSH2 0xA8 JUMPI DUP1 PUSH4 0xC2993EEE EQ PUSH2 0xD8 JUMPI DUP1 PUSH4 0xC53735A3 EQ PUSH2 0x108 JUMPI JUMPDEST PUSH1 0x0 DUP1 REVERT JUMPDEST PUSH2 0x76 PUSH1 0x4 DUP1 CALLDATASIZE SUB DUP2 ADD SWAP1 PUSH2 0x71 SWAP2 SWAP1 PUSH2 0x46B JUMP JUMPDEST PUSH2 0x138 JUMP JUMPDEST STOP JUMPDEST PUSH2 0x92 PUSH1 0x4 DUP1 CALLDATASIZE SUB DUP2 ADD SWAP1 PUSH2 0x8D SWAP2 SWAP1 PUSH2 0x4BE JUMP JUMPDEST PUSH2 0x311 JUMP JUMPDEST PUSH1 0x40 MLOAD PUSH2 0x9F SWAP2 SWAP1 PUSH2 0x4FA JUMP JUMPDEST PUSH1 0x40 MLOAD DUP1 SWAP2 SUB SWAP1 RETURN JUMPDEST PUSH2 0xC2 PUSH1 0x4 DUP1 CALLDATASIZE SUB DUP2 ADD SWAP1 PUSH2 0xBD SWAP2 SWAP1 PUSH2 0x4BE JUMP JUMPDEST PUSH2 0x35A JUMP JUMPDEST PUSH1 0x40 MLOAD PUSH2 0xCF SWAP2 SWAP1 PUSH2 0x4FA JUMP JUMPDEST PUSH1 0x40 MLOAD DUP1 SWAP2 SUB SWAP1 RETURN JUMPDEST PUSH2 0xF2 PUSH1 0x4 DUP1 CALLDATASIZE SUB DUP2 ADD SWAP1 PUSH2 0xED SWAP2 SWAP1 PUSH2 0x4BE JUMP JUMPDEST PUSH2 0x3A2 JUMP JUMPDEST PUSH1 0x40 MLOAD PUSH2 0xFF SWAP2 SWAP1 PUSH2 0x4FA JUMP JUMPDEST PUSH1 0x40 MLOAD DUP1 SWAP2 SUB SWAP1 RETURN JUMPDEST PUSH2 0x122 PUSH1 0x4 DUP1 CALLDATASIZE SUB DUP2 ADD SWAP1 PUSH2 0x11D SWAP2 SWAP1 PUSH2 0x4BE JUMP JUMPDEST PUSH2 0x3BA JUMP JUMPDEST PUSH1 0x40 MLOAD PUSH2 0x12F SWAP2 SWAP1 PUSH2 0x4FA JUMP JUMPDEST PUSH1 0x40 MLOAD DUP1 SWAP2 SUB SWAP1 RETURN JUMPDEST PUSH1 0x0 DUP2 GT PUSH2 0x17B JUMPI PUSH1 0x40 MLOAD PUSH32 0x8C379A000000000000000000000000000000000000000000000000000000000 DUP2 MSTORE PUSH1 0x4 ADD PUSH2 0x172 SWAP1 PUSH2 0x572 JUMP JUMPDEST PUSH1 0x40 MLOAD DUP1 SWAP2 SUB SWAP1 REVERT JUMPDEST DUP1 PUSH1 0x0 DUP1 DUP6 PUSH20 0xFFFFFFFFFFFFFFFFFFFFFFFFFFFFFFFFFFFFFFFF AND PUSH20 0xFFFFFFFFFFFFFFFFFFFFFFFFFFFFFFFFFFFFFFFF AND DUP2 MSTORE PUSH1 0x20 ADD SWAP1 DUP2 MSTORE PUSH1 0x20 ADD PUSH1 0x0 KECCAK256 SLOAD LT ISZERO PUSH2 0x1FC JUMPI PUSH1 0x40 MLOAD PUSH32 0x8C379A000000000000000000000000000000000000000000000000000000000 DUP2 MSTORE PUSH1 0x4 ADD PUSH2 0x1F3 SWAP1 PUSH2 0x5DE JUMP JUMPDEST PUSH1 0x40 MLOAD DUP1 SWAP2 SUB SWAP1 REVERT JUMPDEST DUP1 PUSH1 0x0 DUP1 DUP6 PUSH20 0xFFFFFFFFFFFFFFFFFFFFFFFFFFFFFFFFFFFFFFFF AND PUSH20 0xFFFFFFFFFFFFFFFFFFFFFFFFFFFFFFFFFFFFFFFF AND DUP2 MSTORE PUSH1 0x20 ADD SWAP1 DUP2 MSTORE PUSH1 0x20 ADD PUSH1 0x0 KECCAK256 PUSH1 0x0 DUP3 DUP3 SLOAD PUSH2 0x24A SWAP2 SWAP1 PUSH2 0x62D JUMP JUMPDEST SWAP3 POP POP DUP2 SWAP1 SSTORE POP DUP1 PUSH1 0x1 PUSH1 0x0 DUP5 PUSH20 0xFFFFFFFFFFFFFFFFFFFFFFFFFFFFFFFFFFFFFFFF AND PUSH20 0xFFFFFFFFFFFFFFFFFFFFFFFFFFFFFFFFFFFFFFFF AND DUP2 MSTORE PUSH1 0x20 ADD SWAP1 DUP2 MSTORE PUSH1 0x20 ADD PUSH1 0x0 KECCAK256 PUSH1 0x0 DUP3 DUP3 SLOAD PUSH2 0x2A0 SWAP2 SWAP1 PUSH2 0x661 JUMP JUMPDEST SWAP3 POP POP DUP2 SWAP1 SSTORE POP DUP2 PUSH20 0xFFFFFFFFFFFFFFFFFFFFFFFFFFFFFFFFFFFFFFFF AND DUP4 PUSH20 0xFFFFFFFFFFFFFFFFFFFFFFFFFFFFFFFFFFFFFFFF AND PUSH32 0xD52BD61F7C422D441E024604F4517878FD3305D6ACF0FE37BAEF23ED21AF6BC9 DUP4 PUSH1 0x40 MLOAD PUSH2 0x304 SWAP2 SWAP1 PUSH2 0x4FA JUMP JUMPDEST PUSH1 0x40 MLOAD DUP1 SWAP2 SUB SWAP1 LOG3 POP POP POP JUMP JUMPDEST PUSH1 0x0 PUSH1 0x1 PUSH1 0x0 DUP4 PUSH20 0xFFFFFFFFFFFFFFFFFFFFFFFFFFFFFFFFFFFFFFFF AND PUSH20 0xFFFFFFFFFFFFFFFFFFFFFFFFFFFFFFFFFFFFFFFF AND DUP2 MSTORE PUSH1 0x20 ADD SWAP1 DUP2 MSTORE PUSH1 0x20 ADD PUSH1 0x0 KECCAK256 SLOAD SWAP1 POP SWAP2 SWAP1 POP JUMP JUMPDEST PUSH1 0x0 DUP1 PUSH1 0x0 DUP4 PUSH20 0xFFFFFFFFFFFFFFFFFFFFFFFFFFFFFFFFFFFFFFFF AND PUSH20 0xFFFFFFFFFFFFFFFFFFFFFFFFFFFFFFFFFFFFFFFF AND DUP2 MSTORE PUSH1 0x20 ADD SWAP1 DUP2 MSTORE PUSH1 0x20 ADD PUSH1 0x0 KECCAK256 SLOAD SWAP1 POP SWAP2 SWAP1 POP JUMP JUMPDEST PUSH1 0x0 PUSH1 0x20 MSTORE DUP1 PUSH1 0x0 MSTORE PUSH1 0x40 PUSH1 0x0 KECCAK256 PUSH1 0x0 SWAP2 POP SWAP1 POP SLOAD DUP2 JUMP JUMPDEST PUSH1 0x1 PUSH1 0x20 MSTORE DUP1 PUSH1 0x0 MSTORE PUSH1 0x40 PUSH1 0x0 KECCAK256 PUSH1 0x0 SWAP2 POP SWAP1 POP SLOAD DUP2 JUMP JUMPDEST PUSH1 0x0 DUP1 REVERT JUMPDEST PUSH1 0x0 PUSH20 0xFFFFFFFFFFFFFFFFFFFFFFFFFFFFFFFFFFFFFFFF DUP3 AND SWAP1 POP SWAP2 SWAP1 POP JUMP JUMPDEST PUSH1 0x0 PUSH2 0x402 DUP3 PUSH2 0x3D7 JUMP JUMPDEST SWAP1 POP SWAP2 SWAP1 POP JUMP JUMPDEST PUSH2 0x412 DUP2 PUSH2 0x3F7 JUMP JUMPDEST DUP2 EQ PUSH2 0x41D JUMPI PUSH1 0x0 DUP1 REVERT JUMPDEST POP JUMP JUMPDEST PUSH1 0x0 DUP2 CALLDATALOAD SWAP1 POP PUSH2 0x42F DUP2 PUSH2 0x409 JUMP JUMPDEST SWAP3 SWAP2 POP POP JUMP JUMPDEST PUSH1 0x0 DUP2 SWAP1 POP SWAP2 SWAP1 POP JUMP JUMPDEST PUSH2 0x448 DUP2 PUSH2 0x435 JUMP JUMPDEST DUP2 EQ PUSH2 0x453 JUMPI PUSH1 0x0 DUP1 REVERT JUMPDEST POP JUMP JUMPDEST PUSH1 0x0 DUP2 CALLDATALOAD SWAP1 POP PUSH2 0x465 DUP2 PUSH2 0x43F JUMP JUMPDEST SWAP3 SWAP2 POP POP JUMP JUMPDEST PUSH1 0x0 DUP1 PUSH1 0x0 PUSH1 0x60 DUP5 DUP7 SUB SLT ISZERO PUSH2 0x484 JUMPI PUSH2 0x483 PUSH2 0x3D2 JUMP JUMPDEST JUMPDEST PUSH1 0x0 PUSH2 0x492 DUP7 DUP3 DUP8 ADD PUSH2 0x420 JUMP JUMPDEST SWAP4 POP POP PUSH1 0x20 PUSH2 0x4A3 DUP7 DUP3 DUP8 ADD PUSH2 0x420 JUMP JUMPDEST SWAP3 POP POP PUSH1 0x40 PUSH2 0x4B4 DUP7 DUP3 DUP8 ADD PUSH2 0x456 JUMP JUMPDEST SWAP2 POP POP SWAP3 POP SWAP3 POP SWAP3 JUMP JUMPDEST PUSH1 0x0 PUSH1 0x20 DUP3 DUP5 SUB SLT ISZERO PUSH2 0x4D4 JUMPI PUSH2 0x4D3 PUSH2 0x3D2 JUMP JUMPDEST JUMPDEST PUSH1 0x0 PUSH2 0x4E2 DUP5 DUP3 DUP6 ADD PUSH2 0x420 JUMP JUMPDEST SWAP2 POP POP SWAP3 SWAP2 POP POP JUMP JUMPDEST PUSH2 0x4F4 DUP2 PUSH2 0x435 JUMP JUMPDEST DUP3 MSTORE POP POP JUMP JUMPDEST PUSH1 0x0 PUSH1 0x20 DUP3 ADD SWAP1 POP PUSH2 0x50F PUSH1 0x0 DUP4 ADD DUP5 PUSH2 0x4EB JUMP JUMPDEST SWAP3 SWAP2 POP POP JUMP JUMPDEST PUSH1 0x0 DUP3 DUP3 MSTORE PUSH1 0x20 DUP3 ADD SWAP1 POP SWAP3 SWAP2 POP POP JUMP JUMPDEST PUSH32 0x416D6F756E74206D7573742062652067726561746572207468616E207A65726F PUSH1 0x0 DUP3 ADD MSTORE POP JUMP JUMPDEST PUSH1 0x0 PUSH2 0x55C PUSH1 0x20 DUP4 PUSH2 0x515 JUMP JUMPDEST SWAP2 POP PUSH2 0x567 DUP3 PUSH2 0x526 JUMP JUMPDEST PUSH1 0x20 DUP3 ADD SWAP1 POP SWAP2 SWAP1 POP JUMP JUMPDEST PUSH1 0x0 PUSH1 0x20 DUP3 ADD SWAP1 POP DUP2 DUP2 SUB PUSH1 0x0 DUP4 ADD MSTORE PUSH2 0x58B DUP2 PUSH2 0x54F JUMP JUMPDEST SWAP1 POP SWAP2 SWAP1 POP JUMP JUMPDEST PUSH32 0x496E73756666696369656E742062616C616E6365000000000000000000000000 PUSH1 0x0 DUP3 ADD MSTORE POP JUMP JUMPDEST PUSH1 0x0 PUSH2 0x5C8 PUSH1 0x14 DUP4 PUSH2 0x515 JUMP JUMPDEST SWAP2 POP PUSH2 0x5D3 DUP3 PUSH2 0x592 JUMP JUMPDEST PUSH1 0x20 DUP3 ADD SWAP1 POP SWAP2 SWAP1 POP JUMP JUMPDEST PUSH1 0x0 PUSH1 0x20 DUP3 ADD SWAP1 POP DUP2 DUP2 SUB PUSH1 0x0 DUP4 ADD MSTORE PUSH2 0x5F7 DUP2 PUSH2 0x5BB JUMP JUMPDEST SWAP1 POP SWAP2 SWAP1 POP JUMP JUMPDEST PUSH32 0x4E487B7100000000000000000000000000000000000000000000000000000000 PUSH1 0x0 MSTORE PUSH1 0x11 PUSH1 0x4 MSTORE PUSH1 0x24 PUSH1 0x0 REVERT JUMPDEST PUSH1 0x0 PUSH2 0x638 DUP3 PUSH2 0x435 JUMP JUMPDEST SWAP2 POP PUSH2 0x643 DUP4 PUSH2 0x435 JUMP JUMPDEST SWAP3 POP DUP3 DUP3 SUB SWAP1 POP DUP2 DUP2 GT ISZERO PUSH2 0x65B JUMPI PUSH2 0x65A PUSH2 0x5FE JUMP JUMPDEST JUMPDEST SWAP3 SWAP2 POP POP JUMP JUMPDEST PUSH1 0x0 PUSH2 0x66C DUP3 PUSH2 0x435 JUMP JUMPDEST SWAP2 POP PUSH2 0x677 DUP4 PUSH2 0x435 JUMP JUMPDEST SWAP3 POP DUP3 DUP3 ADD SWAP1 POP DUP1 DUP3 GT ISZERO PUSH2 0x68F JUMPI PUSH2 0x68E PUSH2 0x5FE JUMP JUMPDEST JUMPDEST SWAP3 SWAP2 POP POP JUMP INVALID LOG2 PUSH5 0x6970667358 0x22 SLT KECCAK256 0x2C PUSH3 0xF0E010 0x26 EXTCODEHASH 0xD0 TIMESTAMP MLOAD 0xB6 DUP6 PC 0xF9 0xC7 PUSH12 0x7972B29C43C32A82715A8EB0 OR SUB PUSH7 0x1364736F6C6343 STOP ADDMOD SLT STOP CALLER "
				},
				"gasEstimates": {
					"creation": {
						"codeDepositCost": "347800",
						"executionCost": "infinite",
						"totalCost": "infinite"
					},
					"external": {
						"driverBalances(address)": "2880",
						"getDriverBalance(address)": "2841",
						"getRiderBalance(address)": "2863",
						"riderBalances(address)": "2858",
						"sendPayment(address,address,uint256)": "infinite"
					}
				},
				"methodIdentifiers": {
					"driverBalances(address)": "c53735a3",
					"getDriverBalance(address)": "666255cb",
					"getRiderBalance(address)": "b0c63947",
					"riderBalances(address)": "c2993eee",
					"sendPayment(address,address,uint256)": "395801e7"
				}
			},
			"storageLayout": {
				"storage": [
					{
						"astId": 5,
						"contract": "testo.sol:PaymentSystem",
						"label": "riderBalances",
						"offset": 0,
						"slot": "0",
						"type": "t_mapping(t_address,t_uint256)"
					},
					{
						"astId": 9,
						"contract": "testo.sol:PaymentSystem",
						"label": "driverBalances",
						"offset": 0,
						"slot": "1",
						"type": "t_mapping(t_address,t_uint256)"
					}
				],
				"types": {
					"t_address": {
						"encoding": "inplace",
						"label": "address",
						"numberOfBytes": "20"
					},
					"t_mapping(t_address,t_uint256)": {
						"encoding": "mapping",
						"key": "t_address",
						"label": "mapping(address => uint256)",
						"numberOfBytes": "32",
						"value": "t_uint256"
					},
					"t_uint256": {
						"encoding": "inplace",
						"label": "uint256",
						"numberOfBytes": "32"
					}
				}
			},
			"userdoc": {
				"kind": "user",
				"methods": {},
				"version": 1
			}
		}
	}
}