{
	"loyal.sol": {
		"PapiGo": {
			"abi": [
				{
					"inputs": [],
					"stateMutability": "nonpayable",
					"type": "constructor"
				},
				{
					"anonymous": false,
					"inputs": [
						{
							"indexed": true,
							"internalType": "address",
							"name": "sender",
							"type": "address"
						},
						{
							"indexed": true,
							"internalType": "address",
							"name": "recipient",
							"type": "address"
						},
						{
							"indexed": false,
							"internalType": "uint256",
							"name": "amount",
							"type": "uint256"
						},
						{
							"indexed": false,
							"internalType": "string",
							"name": "currency",
							"type": "string"
						}
					],
					"name": "Transaction",
					"type": "event"
				},
				{
					"inputs": [
						{
							"internalType": "address",
							"name": "",
							"type": "address"
						}
					],
					"name": "balancesUSDT",
					"outputs": [
						{
							"internalType": "uint256",
							"name": "",
							"type": "uint256"
						}
					],
					"stateMutability": "view",
					"type": "function"
				},
				{
					"inputs": [
						{
							"internalType": "address",
							"name": "",
							"type": "address"
						}
					],
					"name": "loyaltyLevels",
					"outputs": [
						{
							"internalType": "uint256",
							"name": "",
							"type": "uint256"
						}
					],
					"stateMutability": "view",
					"type": "function"
				},
				{
					"inputs": [
						{
							"internalType": "address",
							"name": "sender",
							"type": "address"
						},
						{
							"internalType": "address",
							"name": "recipient",
							"type": "address"
						},
						{
							"internalType": "uint256",
							"name": "amountUSDT",
							"type": "uint256"
						}
					],
					"name": "payTrip",
					"outputs": [],
					"stateMutability": "nonpayable",
					"type": "function"
				},
				{
					"inputs": [
						{
							"internalType": "address",
							"name": "account",
							"type": "address"
						},
						{
							"internalType": "uint256",
							"name": "amountUSDT",
							"type": "uint256"
						}
					],
					"name": "setInitialBalance",
					"outputs": [],
					"stateMutability": "nonpayable",
					"type": "function"
				},
				{
					"inputs": [
						{
							"internalType": "address",
							"name": "account",
							"type": "address"
						},
						{
							"internalType": "uint256",
							"name": "level",
							"type": "uint256"
						}
					],
					"name": "setLoyaltyLevel",
					"outputs": [],
					"stateMutability": "nonpayable",
					"type": "function"
				}
			],
			"devdoc": {
				"kind": "dev",
				"methods": {},
				"version": 1
			},
			"evm": {
				"assembly": "    /* \"loyal.sol\":123:1590  contract PapiGo {... */\n  mstore(0x40, 0x80)\n    /* \"loyal.sol\":484:592  constructor() {... */\n  callvalue\n  dup1\n  iszero\n  tag_1\n  jumpi\n  0x00\n  dup1\n  revert\ntag_1:\n  pop\n    /* \"loyal.sol\":524:566  0xdAC17F958D2ee523a2206206994597C13D831ec7 */\n  0xdac17f958d2ee523a2206206994597c13d831ec7\n    /* \"loyal.sol\":508:514  tether */\n  0x00\n  dup1\n    /* \"loyal.sol\":508:567  tether = IERC20(0xdAC17F958D2ee523a2206206994597C13D831ec7) */\n  0x0100\n  exp\n  dup2\n  sload\n  dup2\n  0xffffffffffffffffffffffffffffffffffffffff\n  mul\n  not\n  and\n  swap1\n  dup4\n  0xffffffffffffffffffffffffffffffffffffffff\n  and\n  mul\n  or\n  swap1\n  sstore\n  pop\n    /* \"loyal.sol\":123:1590  contract PapiGo {... */\n  dataSize(sub_0)\n  dup1\n  dataOffset(sub_0)\n  0x00\n  codecopy\n  0x00\n  return\nstop\n\nsub_0: assembly {\n        /* \"loyal.sol\":123:1590  contract PapiGo {... */\n      mstore(0x40, 0x80)\n      callvalue\n      dup1\n      iszero\n      tag_1\n      jumpi\n      0x00\n      dup1\n      revert\n    tag_1:\n      pop\n      jumpi(tag_2, lt(calldatasize, 0x04))\n      shr(0xe0, calldataload(0x00))\n      dup1\n      0x0b34b555\n      eq\n      tag_3\n      jumpi\n      dup1\n      0x56b89be4\n      eq\n      tag_4\n      jumpi\n      dup1\n      0x854572b4\n      eq\n      tag_5\n      jumpi\n      dup1\n      0xd1ef621d\n      eq\n      tag_6\n      jumpi\n      dup1\n      0xebbc9b32\n      eq\n      tag_7\n      jumpi\n    tag_2:\n      0x00\n      dup1\n      revert\n        /* \"loyal.sol\":1230:1403  function setInitialBalance(address account, uint amountUSDT) external {... */\n    tag_3:\n      tag_8\n      0x04\n      dup1\n      calldatasize\n      sub\n      dup2\n      add\n      swap1\n      tag_9\n      swap2\n      swap1\n      tag_10\n      jump\t// in\n    tag_9:\n      tag_11\n      jump\t// in\n    tag_8:\n      stop\n        /* \"loyal.sol\":172:216  mapping(address => uint) public balancesUSDT */\n    tag_4:\n      tag_12\n      0x04\n      dup1\n      calldatasize\n      sub\n      dup2\n      add\n      swap1\n      tag_13\n      swap2\n      swap1\n      tag_14\n      jump\t// in\n    tag_13:\n      tag_15\n      jump\t// in\n    tag_12:\n      mload(0x40)\n      tag_16\n      swap2\n      swap1\n      tag_17\n      jump\t// in\n    tag_16:\n      mload(0x40)\n      dup1\n      swap2\n      sub\n      swap1\n      return\n        /* \"loyal.sol\":291:336  mapping(address => uint) public loyaltyLevels */\n    tag_5:\n      tag_18\n      0x04\n      dup1\n      calldatasize\n      sub\n      dup2\n      add\n      swap1\n      tag_19\n      swap2\n      swap1\n      tag_14\n      jump\t// in\n    tag_19:\n      tag_20\n      jump\t// in\n    tag_18:\n      mload(0x40)\n      tag_21\n      swap2\n      swap1\n      tag_17\n      jump\t// in\n    tag_21:\n      mload(0x40)\n      dup1\n      swap2\n      sub\n      swap1\n      return\n        /* \"loyal.sol\":1409:1588  function setLoyaltyLevel(address account, uint level) external {... */\n    tag_6:\n      tag_22\n      0x04\n      dup1\n      calldatasize\n      sub\n      dup2\n      add\n      swap1\n      tag_23\n      swap2\n      swap1\n      tag_10\n      jump\t// in\n    tag_23:\n      tag_24\n      jump\t// in\n    tag_22:\n      stop\n        /* \"loyal.sol\":598:1224  function payTrip(address sender, address recipient, uint amountUSDT) external {... */\n    tag_7:\n      tag_25\n      0x04\n      dup1\n      calldatasize\n      sub\n      dup2\n      add\n      swap1\n      tag_26\n      swap2\n      swap1\n      tag_27\n      jump\t// in\n    tag_26:\n      tag_28\n      jump\t// in\n    tag_25:\n      stop\n        /* \"loyal.sol\":1230:1403  function setInitialBalance(address account, uint amountUSDT) external {... */\n    tag_11:\n        /* \"loyal.sol\":1332:1333  0 */\n      0x00\n        /* \"loyal.sol\":1318:1328  amountUSDT */\n      dup2\n        /* \"loyal.sol\":1318:1333  amountUSDT >= 0 */\n      lt\n      iszero\n        /* \"loyal.sol\":1310:1352  require(amountUSDT >= 0, \"Invalid amount\") */\n      tag_30\n      jumpi\n      mload(0x40)\n      0x08c379a000000000000000000000000000000000000000000000000000000000\n      dup2\n      mstore\n      0x04\n      add\n      tag_31\n      swap1\n      tag_32\n      jump\t// in\n    tag_31:\n      mload(0x40)\n      dup1\n      swap2\n      sub\n      swap1\n      revert\n    tag_30:\n        /* \"loyal.sol\":1386:1396  amountUSDT */\n      dup1\n        /* \"loyal.sol\":1362:1374  balancesUSDT */\n      0x01\n        /* \"loyal.sol\":1362:1383  balancesUSDT[account] */\n      0x00\n        /* \"loyal.sol\":1375:1382  account */\n      dup5\n        /* \"loyal.sol\":1362:1383  balancesUSDT[account] */\n      0xffffffffffffffffffffffffffffffffffffffff\n      and\n      0xffffffffffffffffffffffffffffffffffffffff\n      and\n      dup2\n      mstore\n      0x20\n      add\n      swap1\n      dup2\n      mstore\n      0x20\n      add\n      0x00\n      keccak256\n        /* \"loyal.sol\":1362:1396  balancesUSDT[account] = amountUSDT */\n      dup2\n      swap1\n      sstore\n      pop\n        /* \"loyal.sol\":1230:1403  function setInitialBalance(address account, uint amountUSDT) external {... */\n      pop\n      pop\n      jump\t// out\n        /* \"loyal.sol\":172:216  mapping(address => uint) public balancesUSDT */\n    tag_15:\n      mstore(0x20, 0x01)\n      dup1\n      0x00\n      mstore\n      keccak256(0x00, 0x40)\n      0x00\n      swap2\n      pop\n      swap1\n      pop\n      sload\n      dup2\n      jump\t// out\n        /* \"loyal.sol\":291:336  mapping(address => uint) public loyaltyLevels */\n    tag_20:\n      mstore(0x20, 0x02)\n      dup1\n      0x00\n      mstore\n      keccak256(0x00, 0x40)\n      0x00\n      swap2\n      pop\n      swap1\n      pop\n      sload\n      dup2\n      jump\t// out\n        /* \"loyal.sol\":1409:1588  function setLoyaltyLevel(address account, uint level) external {... */\n    tag_24:\n        /* \"loyal.sol\":1499:1500  1 */\n      0x01\n        /* \"loyal.sol\":1490:1495  level */\n      dup2\n        /* \"loyal.sol\":1490:1500  level >= 1 */\n      lt\n      iszero\n        /* \"loyal.sol\":1490:1515  level >= 1 && level <= 10 */\n      dup1\n      iszero\n      tag_34\n      jumpi\n      pop\n        /* \"loyal.sol\":1513:1515  10 */\n      0x0a\n        /* \"loyal.sol\":1504:1509  level */\n      dup2\n        /* \"loyal.sol\":1504:1515  level <= 10 */\n      gt\n      iszero\n        /* \"loyal.sol\":1490:1515  level >= 1 && level <= 10 */\n    tag_34:\n        /* \"loyal.sol\":1482:1541  require(level >= 1 && level <= 10, \"Invalid loyalty level\") */\n      tag_35\n      jumpi\n      mload(0x40)\n      0x08c379a000000000000000000000000000000000000000000000000000000000\n      dup2\n      mstore\n      0x04\n      add\n      tag_36\n      swap1\n      tag_37\n      jump\t// in\n    tag_36:\n      mload(0x40)\n      dup1\n      swap2\n      sub\n      swap1\n      revert\n    tag_35:\n        /* \"loyal.sol\":1576:1581  level */\n      dup1\n        /* \"loyal.sol\":1551:1564  loyaltyLevels */\n      0x02\n        /* \"loyal.sol\":1551:1573  loyaltyLevels[account] */\n      0x00\n        /* \"loyal.sol\":1565:1572  account */\n      dup5\n        /* \"loyal.sol\":1551:1573  loyaltyLevels[account] */\n      0xffffffffffffffffffffffffffffffffffffffff\n      and\n      0xffffffffffffffffffffffffffffffffffffffff\n      and\n      dup2\n      mstore\n      0x20\n      add\n      swap1\n      dup2\n      mstore\n      0x20\n      add\n      0x00\n      keccak256\n        /* \"loyal.sol\":1551:1581  loyaltyLevels[account] = level */\n      dup2\n      swap1\n      sstore\n      pop\n        /* \"loyal.sol\":1409:1588  function setLoyaltyLevel(address account, uint level) external {... */\n      pop\n      pop\n      jump\t// out\n        /* \"loyal.sol\":598:1224  function payTrip(address sender, address recipient, uint amountUSDT) external {... */\n    tag_28:\n        /* \"loyal.sol\":707:708  0 */\n      0x00\n        /* \"loyal.sol\":694:704  amountUSDT */\n      dup2\n        /* \"loyal.sol\":694:708  amountUSDT > 0 */\n      gt\n        /* \"loyal.sol\":686:727  require(amountUSDT > 0, \"Invalid amount\") */\n      tag_39\n      jumpi\n      mload(0x40)\n      0x08c379a000000000000000000000000000000000000000000000000000000000\n      dup2\n      mstore\n      0x04\n      add\n      tag_40\n      swap1\n      tag_32\n      jump\t// in\n    tag_40:\n      mload(0x40)\n      dup1\n      swap2\n      sub\n      swap1\n      revert\n    tag_39:\n        /* \"loyal.sol\":738:758  uint discountPercent */\n      0x00\n        /* \"loyal.sol\":761:774  loyaltyLevels */\n      0x02\n        /* \"loyal.sol\":761:782  loyaltyLevels[sender] */\n      0x00\n        /* \"loyal.sol\":775:781  sender */\n      dup6\n        /* \"loyal.sol\":761:782  loyaltyLevels[sender] */\n      0xffffffffffffffffffffffffffffffffffffffff\n      and\n      0xffffffffffffffffffffffffffffffffffffffff\n      and\n      dup2\n      mstore\n      0x20\n      add\n      swap1\n      dup2\n      mstore\n      0x20\n      add\n      0x00\n      keccak256\n      sload\n        /* \"loyal.sol\":738:782  uint discountPercent = loyaltyLevels[sender] */\n      swap1\n      pop\n        /* \"loyal.sol\":792:813  uint discountedAmount */\n      0x00\n        /* \"loyal.sol\":857:860  100 */\n      0x64\n        /* \"loyal.sol\":837:852  discountPercent */\n      dup3\n        /* \"loyal.sol\":831:834  100 */\n      0x64\n        /* \"loyal.sol\":831:852  100 - discountPercent */\n      tag_41\n      swap2\n      swap1\n      tag_42\n      jump\t// in\n    tag_41:\n        /* \"loyal.sol\":817:827  amountUSDT */\n      dup5\n        /* \"loyal.sol\":817:853  amountUSDT * (100 - discountPercent) */\n      tag_43\n      swap2\n      swap1\n      tag_44\n      jump\t// in\n    tag_43:\n        /* \"loyal.sol\":816:860  (amountUSDT * (100 - discountPercent)) / 100 */\n      tag_45\n      swap2\n      swap1\n      tag_46\n      jump\t// in\n    tag_45:\n        /* \"loyal.sol\":792:860  uint discountedAmount = (amountUSDT * (100 - discountPercent)) / 100 */\n      swap1\n      pop\n        /* \"loyal.sol\":903:913  amountUSDT */\n      dup3\n        /* \"loyal.sol\":879:891  balancesUSDT */\n      0x01\n        /* \"loyal.sol\":879:899  balancesUSDT[sender] */\n      0x00\n        /* \"loyal.sol\":892:898  sender */\n      dup8\n        /* \"loyal.sol\":879:899  balancesUSDT[sender] */\n      0xffffffffffffffffffffffffffffffffffffffff\n      and\n      0xffffffffffffffffffffffffffffffffffffffff\n      and\n      dup2\n      mstore\n      0x20\n      add\n      swap1\n      dup2\n      mstore\n      0x20\n      add\n      0x00\n      keccak256\n      sload\n        /* \"loyal.sol\":879:913  balancesUSDT[sender] >= amountUSDT */\n      lt\n      iszero\n        /* \"loyal.sol\":871:938  require(balancesUSDT[sender] >= amountUSDT, \"Insufficient balance\") */\n      tag_47\n      jumpi\n      mload(0x40)\n      0x08c379a000000000000000000000000000000000000000000000000000000000\n      dup2\n      mstore\n      0x04\n      add\n      tag_48\n      swap1\n      tag_49\n      jump\t// in\n    tag_48:\n      mload(0x40)\n      dup1\n      swap2\n      sub\n      swap1\n      revert\n    tag_47:\n        /* \"loyal.sol\":973:983  amountUSDT */\n      dup3\n        /* \"loyal.sol\":949:961  balancesUSDT */\n      0x01\n        /* \"loyal.sol\":949:969  balancesUSDT[sender] */\n      0x00\n        /* \"loyal.sol\":962:968  sender */\n      dup8\n        /* \"loyal.sol\":949:969  balancesUSDT[sender] */\n      0xffffffffffffffffffffffffffffffffffffffff\n      and\n      0xffffffffffffffffffffffffffffffffffffffff\n      and\n      dup2\n      mstore\n      0x20\n      add\n      swap1\n      dup2\n      mstore\n      0x20\n      add\n      0x00\n      keccak256\n      0x00\n        /* \"loyal.sol\":949:983  balancesUSDT[sender] -= amountUSDT */\n      dup3\n      dup3\n      sload\n      tag_50\n      swap2\n      swap1\n      tag_42\n      jump\t// in\n    tag_50:\n      swap3\n      pop\n      pop\n      dup2\n      swap1\n      sstore\n      pop\n        /* \"loyal.sol\":1073:1089  discountedAmount */\n      dup1\n        /* \"loyal.sol\":1046:1058  balancesUSDT */\n      0x01\n        /* \"loyal.sol\":1046:1069  balancesUSDT[recipient] */\n      0x00\n        /* \"loyal.sol\":1059:1068  recipient */\n      dup7\n        /* \"loyal.sol\":1046:1069  balancesUSDT[recipient] */\n      0xffffffffffffffffffffffffffffffffffffffff\n      and\n      0xffffffffffffffffffffffffffffffffffffffff\n      and\n      dup2\n      mstore\n      0x20\n      add\n      swap1\n      dup2\n      mstore\n      0x20\n      add\n      0x00\n      keccak256\n      0x00\n        /* \"loyal.sol\":1046:1089  balancesUSDT[recipient] += discountedAmount */\n      dup3\n      dup3\n      sload\n      tag_51\n      swap2\n      swap1\n      tag_52\n      jump\t// in\n    tag_51:\n      swap3\n      pop\n      pop\n      dup2\n      swap1\n      sstore\n      pop\n        /* \"loyal.sol\":1181:1190  recipient */\n      dup4\n        /* \"loyal.sol\":1161:1217  Transaction(sender, recipient, discountedAmount, \"USDT\") */\n      0xffffffffffffffffffffffffffffffffffffffff\n      and\n        /* \"loyal.sol\":1173:1179  sender */\n      dup6\n        /* \"loyal.sol\":1161:1217  Transaction(sender, recipient, discountedAmount, \"USDT\") */\n      0xffffffffffffffffffffffffffffffffffffffff\n      and\n      0x7438b3ab3d18b29df7bf7fe592cc95dc9b3d321d1f880ad411f65b98df9bbd50\n        /* \"loyal.sol\":1192:1208  discountedAmount */\n      dup4\n        /* \"loyal.sol\":1161:1217  Transaction(sender, recipient, discountedAmount, \"USDT\") */\n      mload(0x40)\n      tag_53\n      swap2\n      swap1\n      tag_54\n      jump\t// in\n    tag_53:\n      mload(0x40)\n      dup1\n      swap2\n      sub\n      swap1\n      log3\n        /* \"loyal.sol\":676:1224  {... */\n      pop\n      pop\n        /* \"loyal.sol\":598:1224  function payTrip(address sender, address recipient, uint amountUSDT) external {... */\n      pop\n      pop\n      pop\n      jump\t// out\n        /* \"#utility.yul\":88:205   */\n    tag_56:\n        /* \"#utility.yul\":197:198   */\n      0x00\n        /* \"#utility.yul\":194:195   */\n      dup1\n        /* \"#utility.yul\":187:199   */\n      revert\n        /* \"#utility.yul\":334:460   */\n    tag_58:\n        /* \"#utility.yul\":371:378   */\n      0x00\n        /* \"#utility.yul\":411:453   */\n      0xffffffffffffffffffffffffffffffffffffffff\n        /* \"#utility.yul\":404:409   */\n      dup3\n        /* \"#utility.yul\":400:454   */\n      and\n        /* \"#utility.yul\":389:454   */\n      swap1\n      pop\n        /* \"#utility.yul\":334:460   */\n      swap2\n      swap1\n      pop\n      jump\t// out\n        /* \"#utility.yul\":466:562   */\n    tag_59:\n        /* \"#utility.yul\":503:510   */\n      0x00\n        /* \"#utility.yul\":532:556   */\n      tag_83\n        /* \"#utility.yul\":550:555   */\n      dup3\n        /* \"#utility.yul\":532:556   */\n      tag_58\n      jump\t// in\n    tag_83:\n        /* \"#utility.yul\":521:556   */\n      swap1\n      pop\n        /* \"#utility.yul\":466:562   */\n      swap2\n      swap1\n      pop\n      jump\t// out\n        /* \"#utility.yul\":568:690   */\n    tag_60:\n        /* \"#utility.yul\":641:665   */\n      tag_85\n        /* \"#utility.yul\":659:664   */\n      dup2\n        /* \"#utility.yul\":641:665   */\n      tag_59\n      jump\t// in\n    tag_85:\n        /* \"#utility.yul\":634:639   */\n      dup2\n        /* \"#utility.yul\":631:666   */\n      eq\n        /* \"#utility.yul\":621:684   */\n      tag_86\n      jumpi\n        /* \"#utility.yul\":680:681   */\n      0x00\n        /* \"#utility.yul\":677:678   */\n      dup1\n        /* \"#utility.yul\":670:682   */\n      revert\n        /* \"#utility.yul\":621:684   */\n    tag_86:\n        /* \"#utility.yul\":568:690   */\n      pop\n      jump\t// out\n        /* \"#utility.yul\":696:835   */\n    tag_61:\n        /* \"#utility.yul\":742:747   */\n      0x00\n        /* \"#utility.yul\":780:786   */\n      dup2\n        /* \"#utility.yul\":767:787   */\n      calldataload\n        /* \"#utility.yul\":758:787   */\n      swap1\n      pop\n        /* \"#utility.yul\":796:829   */\n      tag_88\n        /* \"#utility.yul\":823:828   */\n      dup2\n        /* \"#utility.yul\":796:829   */\n      tag_60\n      jump\t// in\n    tag_88:\n        /* \"#utility.yul\":696:835   */\n      swap3\n      swap2\n      pop\n      pop\n      jump\t// out\n        /* \"#utility.yul\":841:918   */\n    tag_62:\n        /* \"#utility.yul\":878:885   */\n      0x00\n        /* \"#utility.yul\":907:912   */\n      dup2\n        /* \"#utility.yul\":896:912   */\n      swap1\n      pop\n        /* \"#utility.yul\":841:918   */\n      swap2\n      swap1\n      pop\n      jump\t// out\n        /* \"#utility.yul\":924:1046   */\n    tag_63:\n        /* \"#utility.yul\":997:1021   */\n      tag_91\n        /* \"#utility.yul\":1015:1020   */\n      dup2\n        /* \"#utility.yul\":997:1021   */\n      tag_62\n      jump\t// in\n    tag_91:\n        /* \"#utility.yul\":990:995   */\n      dup2\n        /* \"#utility.yul\":987:1022   */\n      eq\n        /* \"#utility.yul\":977:1040   */\n      tag_92\n      jumpi\n        /* \"#utility.yul\":1036:1037   */\n      0x00\n        /* \"#utility.yul\":1033:1034   */\n      dup1\n        /* \"#utility.yul\":1026:1038   */\n      revert\n        /* \"#utility.yul\":977:1040   */\n    tag_92:\n        /* \"#utility.yul\":924:1046   */\n      pop\n      jump\t// out\n        /* \"#utility.yul\":1052:1191   */\n    tag_64:\n        /* \"#utility.yul\":1098:1103   */\n      0x00\n        /* \"#utility.yul\":1136:1142   */\n      dup2\n        /* \"#utility.yul\":1123:1143   */\n      calldataload\n        /* \"#utility.yul\":1114:1143   */\n      swap1\n      pop\n        /* \"#utility.yul\":1152:1185   */\n      tag_94\n        /* \"#utility.yul\":1179:1184   */\n      dup2\n        /* \"#utility.yul\":1152:1185   */\n      tag_63\n      jump\t// in\n    tag_94:\n        /* \"#utility.yul\":1052:1191   */\n      swap3\n      swap2\n      pop\n      pop\n      jump\t// out\n        /* \"#utility.yul\":1197:1671   */\n    tag_10:\n        /* \"#utility.yul\":1265:1271   */\n      0x00\n        /* \"#utility.yul\":1273:1279   */\n      dup1\n        /* \"#utility.yul\":1322:1324   */\n      0x40\n        /* \"#utility.yul\":1310:1319   */\n      dup4\n        /* \"#utility.yul\":1301:1308   */\n      dup6\n        /* \"#utility.yul\":1297:1320   */\n      sub\n        /* \"#utility.yul\":1293:1325   */\n      slt\n        /* \"#utility.yul\":1290:1409   */\n      iszero\n      tag_96\n      jumpi\n        /* \"#utility.yul\":1328:1407   */\n      tag_97\n      tag_56\n      jump\t// in\n    tag_97:\n        /* \"#utility.yul\":1290:1409   */\n    tag_96:\n        /* \"#utility.yul\":1448:1449   */\n      0x00\n        /* \"#utility.yul\":1473:1526   */\n      tag_98\n        /* \"#utility.yul\":1518:1525   */\n      dup6\n        /* \"#utility.yul\":1509:1515   */\n      dup3\n        /* \"#utility.yul\":1498:1507   */\n      dup7\n        /* \"#utility.yul\":1494:1516   */\n      add\n        /* \"#utility.yul\":1473:1526   */\n      tag_61\n      jump\t// in\n    tag_98:\n        /* \"#utility.yul\":1463:1526   */\n      swap3\n      pop\n        /* \"#utility.yul\":1419:1536   */\n      pop\n        /* \"#utility.yul\":1575:1577   */\n      0x20\n        /* \"#utility.yul\":1601:1654   */\n      tag_99\n        /* \"#utility.yul\":1646:1653   */\n      dup6\n        /* \"#utility.yul\":1637:1643   */\n      dup3\n        /* \"#utility.yul\":1626:1635   */\n      dup7\n        /* \"#utility.yul\":1622:1644   */\n      add\n        /* \"#utility.yul\":1601:1654   */\n      tag_64\n      jump\t// in\n    tag_99:\n        /* \"#utility.yul\":1591:1654   */\n      swap2\n      pop\n        /* \"#utility.yul\":1546:1664   */\n      pop\n        /* \"#utility.yul\":1197:1671   */\n      swap3\n      pop\n      swap3\n      swap1\n      pop\n      jump\t// out\n        /* \"#utility.yul\":1677:2006   */\n    tag_14:\n        /* \"#utility.yul\":1736:1742   */\n      0x00\n        /* \"#utility.yul\":1785:1787   */\n      0x20\n        /* \"#utility.yul\":1773:1782   */\n      dup3\n        /* \"#utility.yul\":1764:1771   */\n      dup5\n        /* \"#utility.yul\":1760:1783   */\n      sub\n        /* \"#utility.yul\":1756:1788   */\n      slt\n        /* \"#utility.yul\":1753:1872   */\n      iszero\n      tag_101\n      jumpi\n        /* \"#utility.yul\":1791:1870   */\n      tag_102\n      tag_56\n      jump\t// in\n    tag_102:\n        /* \"#utility.yul\":1753:1872   */\n    tag_101:\n        /* \"#utility.yul\":1911:1912   */\n      0x00\n        /* \"#utility.yul\":1936:1989   */\n      tag_103\n        /* \"#utility.yul\":1981:1988   */\n      dup5\n        /* \"#utility.yul\":1972:1978   */\n      dup3\n        /* \"#utility.yul\":1961:1970   */\n      dup6\n        /* \"#utility.yul\":1957:1979   */\n      add\n        /* \"#utility.yul\":1936:1989   */\n      tag_61\n      jump\t// in\n    tag_103:\n        /* \"#utility.yul\":1926:1989   */\n      swap2\n      pop\n        /* \"#utility.yul\":1882:1999   */\n      pop\n        /* \"#utility.yul\":1677:2006   */\n      swap3\n      swap2\n      pop\n      pop\n      jump\t// out\n        /* \"#utility.yul\":2012:2130   */\n    tag_65:\n        /* \"#utility.yul\":2099:2123   */\n      tag_105\n        /* \"#utility.yul\":2117:2122   */\n      dup2\n        /* \"#utility.yul\":2099:2123   */\n      tag_62\n      jump\t// in\n    tag_105:\n        /* \"#utility.yul\":2094:2097   */\n      dup3\n        /* \"#utility.yul\":2087:2124   */\n      mstore\n        /* \"#utility.yul\":2012:2130   */\n      pop\n      pop\n      jump\t// out\n        /* \"#utility.yul\":2136:2358   */\n    tag_17:\n        /* \"#utility.yul\":2229:2233   */\n      0x00\n        /* \"#utility.yul\":2267:2269   */\n      0x20\n        /* \"#utility.yul\":2256:2265   */\n      dup3\n        /* \"#utility.yul\":2252:2270   */\n      add\n        /* \"#utility.yul\":2244:2270   */\n      swap1\n      pop\n        /* \"#utility.yul\":2280:2351   */\n      tag_107\n        /* \"#utility.yul\":2348:2349   */\n      0x00\n        /* \"#utility.yul\":2337:2346   */\n      dup4\n        /* \"#utility.yul\":2333:2350   */\n      add\n        /* \"#utility.yul\":2324:2330   */\n      dup5\n        /* \"#utility.yul\":2280:2351   */\n      tag_65\n      jump\t// in\n    tag_107:\n        /* \"#utility.yul\":2136:2358   */\n      swap3\n      swap2\n      pop\n      pop\n      jump\t// out\n        /* \"#utility.yul\":2364:2983   */\n    tag_27:\n        /* \"#utility.yul\":2441:2447   */\n      0x00\n        /* \"#utility.yul\":2449:2455   */\n      dup1\n        /* \"#utility.yul\":2457:2463   */\n      0x00\n        /* \"#utility.yul\":2506:2508   */\n      0x60\n        /* \"#utility.yul\":2494:2503   */\n      dup5\n        /* \"#utility.yul\":2485:2492   */\n      dup7\n        /* \"#utility.yul\":2481:2504   */\n      sub\n        /* \"#utility.yul\":2477:2509   */\n      slt\n        /* \"#utility.yul\":2474:2593   */\n      iszero\n      tag_109\n      jumpi\n        /* \"#utility.yul\":2512:2591   */\n      tag_110\n      tag_56\n      jump\t// in\n    tag_110:\n        /* \"#utility.yul\":2474:2593   */\n    tag_109:\n        /* \"#utility.yul\":2632:2633   */\n      0x00\n        /* \"#utility.yul\":2657:2710   */\n      tag_111\n        /* \"#utility.yul\":2702:2709   */\n      dup7\n        /* \"#utility.yul\":2693:2699   */\n      dup3\n        /* \"#utility.yul\":2682:2691   */\n      dup8\n        /* \"#utility.yul\":2678:2700   */\n      add\n        /* \"#utility.yul\":2657:2710   */\n      tag_61\n      jump\t// in\n    tag_111:\n        /* \"#utility.yul\":2647:2710   */\n      swap4\n      pop\n        /* \"#utility.yul\":2603:2720   */\n      pop\n        /* \"#utility.yul\":2759:2761   */\n      0x20\n        /* \"#utility.yul\":2785:2838   */\n      tag_112\n        /* \"#utility.yul\":2830:2837   */\n      dup7\n        /* \"#utility.yul\":2821:2827   */\n      dup3\n        /* \"#utility.yul\":2810:2819   */\n      dup8\n        /* \"#utility.yul\":2806:2828   */\n      add\n        /* \"#utility.yul\":2785:2838   */\n      tag_61\n      jump\t// in\n    tag_112:\n        /* \"#utility.yul\":2775:2838   */\n      swap3\n      pop\n        /* \"#utility.yul\":2730:2848   */\n      pop\n        /* \"#utility.yul\":2887:2889   */\n      0x40\n        /* \"#utility.yul\":2913:2966   */\n      tag_113\n        /* \"#utility.yul\":2958:2965   */\n      dup7\n        /* \"#utility.yul\":2949:2955   */\n      dup3\n        /* \"#utility.yul\":2938:2947   */\n      dup8\n        /* \"#utility.yul\":2934:2956   */\n      add\n        /* \"#utility.yul\":2913:2966   */\n      tag_64\n      jump\t// in\n    tag_113:\n        /* \"#utility.yul\":2903:2966   */\n      swap2\n      pop\n        /* \"#utility.yul\":2858:2976   */\n      pop\n        /* \"#utility.yul\":2364:2983   */\n      swap3\n      pop\n      swap3\n      pop\n      swap3\n      jump\t// out\n        /* \"#utility.yul\":2989:3158   */\n    tag_66:\n        /* \"#utility.yul\":3073:3084   */\n      0x00\n        /* \"#utility.yul\":3107:3113   */\n      dup3\n        /* \"#utility.yul\":3102:3105   */\n      dup3\n        /* \"#utility.yul\":3095:3114   */\n      mstore\n        /* \"#utility.yul\":3147:3151   */\n      0x20\n        /* \"#utility.yul\":3142:3145   */\n      dup3\n        /* \"#utility.yul\":3138:3152   */\n      add\n        /* \"#utility.yul\":3123:3152   */\n      swap1\n      pop\n        /* \"#utility.yul\":2989:3158   */\n      swap3\n      swap2\n      pop\n      pop\n      jump\t// out\n        /* \"#utility.yul\":3164:3328   */\n    tag_67:\n        /* \"#utility.yul\":3304:3320   */\n      0x496e76616c696420616d6f756e74000000000000000000000000000000000000\n        /* \"#utility.yul\":3300:3301   */\n      0x00\n        /* \"#utility.yul\":3292:3298   */\n      dup3\n        /* \"#utility.yul\":3288:3302   */\n      add\n        /* \"#utility.yul\":3281:3321   */\n      mstore\n        /* \"#utility.yul\":3164:3328   */\n      pop\n      jump\t// out\n        /* \"#utility.yul\":3334:3700   */\n    tag_68:\n        /* \"#utility.yul\":3476:3479   */\n      0x00\n        /* \"#utility.yul\":3497:3564   */\n      tag_117\n        /* \"#utility.yul\":3561:3563   */\n      0x0e\n        /* \"#utility.yul\":3556:3559   */\n      dup4\n        /* \"#utility.yul\":3497:3564   */\n      tag_66\n      jump\t// in\n    tag_117:\n        /* \"#utility.yul\":3490:3564   */\n      swap2\n      pop\n        /* \"#utility.yul\":3573:3666   */\n      tag_118\n        /* \"#utility.yul\":3662:3665   */\n      dup3\n        /* \"#utility.yul\":3573:3666   */\n      tag_67\n      jump\t// in\n    tag_118:\n        /* \"#utility.yul\":3691:3693   */\n      0x20\n        /* \"#utility.yul\":3686:3689   */\n      dup3\n        /* \"#utility.yul\":3682:3694   */\n      add\n        /* \"#utility.yul\":3675:3694   */\n      swap1\n      pop\n        /* \"#utility.yul\":3334:3700   */\n      swap2\n      swap1\n      pop\n      jump\t// out\n        /* \"#utility.yul\":3706:4125   */\n    tag_32:\n        /* \"#utility.yul\":3872:3876   */\n      0x00\n        /* \"#utility.yul\":3910:3912   */\n      0x20\n        /* \"#utility.yul\":3899:3908   */\n      dup3\n        /* \"#utility.yul\":3895:3913   */\n      add\n        /* \"#utility.yul\":3887:3913   */\n      swap1\n      pop\n        /* \"#utility.yul\":3959:3968   */\n      dup2\n        /* \"#utility.yul\":3953:3957   */\n      dup2\n        /* \"#utility.yul\":3949:3969   */\n      sub\n        /* \"#utility.yul\":3945:3946   */\n      0x00\n        /* \"#utility.yul\":3934:3943   */\n      dup4\n        /* \"#utility.yul\":3930:3947   */\n      add\n        /* \"#utility.yul\":3923:3970   */\n      mstore\n        /* \"#utility.yul\":3987:4118   */\n      tag_120\n        /* \"#utility.yul\":4113:4117   */\n      dup2\n        /* \"#utility.yul\":3987:4118   */\n      tag_68\n      jump\t// in\n    tag_120:\n        /* \"#utility.yul\":3979:4118   */\n      swap1\n      pop\n        /* \"#utility.yul\":3706:4125   */\n      swap2\n      swap1\n      pop\n      jump\t// out\n        /* \"#utility.yul\":4131:4302   */\n    tag_69:\n        /* \"#utility.yul\":4271:4294   */\n      0x496e76616c6964206c6f79616c7479206c6576656c0000000000000000000000\n        /* \"#utility.yul\":4267:4268   */\n      0x00\n        /* \"#utility.yul\":4259:4265   */\n      dup3\n        /* \"#utility.yul\":4255:4269   */\n      add\n        /* \"#utility.yul\":4248:4295   */\n      mstore\n        /* \"#utility.yul\":4131:4302   */\n      pop\n      jump\t// out\n        /* \"#utility.yul\":4308:4674   */\n    tag_70:\n        /* \"#utility.yul\":4450:4453   */\n      0x00\n        /* \"#utility.yul\":4471:4538   */\n      tag_123\n        /* \"#utility.yul\":4535:4537   */\n      0x15\n        /* \"#utility.yul\":4530:4533   */\n      dup4\n        /* \"#utility.yul\":4471:4538   */\n      tag_66\n      jump\t// in\n    tag_123:\n        /* \"#utility.yul\":4464:4538   */\n      swap2\n      pop\n        /* \"#utility.yul\":4547:4640   */\n      tag_124\n        /* \"#utility.yul\":4636:4639   */\n      dup3\n        /* \"#utility.yul\":4547:4640   */\n      tag_69\n      jump\t// in\n    tag_124:\n        /* \"#utility.yul\":4665:4667   */\n      0x20\n        /* \"#utility.yul\":4660:4663   */\n      dup3\n        /* \"#utility.yul\":4656:4668   */\n      add\n        /* \"#utility.yul\":4649:4668   */\n      swap1\n      pop\n        /* \"#utility.yul\":4308:4674   */\n      swap2\n      swap1\n      pop\n      jump\t// out\n        /* \"#utility.yul\":4680:5099   */\n    tag_37:\n        /* \"#utility.yul\":4846:4850   */\n      0x00\n        /* \"#utility.yul\":4884:4886   */\n      0x20\n        /* \"#utility.yul\":4873:4882   */\n      dup3\n        /* \"#utility.yul\":4869:4887   */\n      add\n        /* \"#utility.yul\":4861:4887   */\n      swap1\n      pop\n        /* \"#utility.yul\":4933:4942   */\n      dup2\n        /* \"#utility.yul\":4927:4931   */\n      dup2\n        /* \"#utility.yul\":4923:4943   */\n      sub\n        /* \"#utility.yul\":4919:4920   */\n      0x00\n        /* \"#utility.yul\":4908:4917   */\n      dup4\n        /* \"#utility.yul\":4904:4921   */\n      add\n        /* \"#utility.yul\":4897:4944   */\n      mstore\n        /* \"#utility.yul\":4961:5092   */\n      tag_126\n        /* \"#utility.yul\":5087:5091   */\n      dup2\n        /* \"#utility.yul\":4961:5092   */\n      tag_70\n      jump\t// in\n    tag_126:\n        /* \"#utility.yul\":4953:5092   */\n      swap1\n      pop\n        /* \"#utility.yul\":4680:5099   */\n      swap2\n      swap1\n      pop\n      jump\t// out\n        /* \"#utility.yul\":5105:5285   */\n    tag_71:\n        /* \"#utility.yul\":5153:5230   */\n      0x4e487b7100000000000000000000000000000000000000000000000000000000\n        /* \"#utility.yul\":5150:5151   */\n      0x00\n        /* \"#utility.yul\":5143:5231   */\n      mstore\n        /* \"#utility.yul\":5250:5254   */\n      0x11\n        /* \"#utility.yul\":5247:5248   */\n      0x04\n        /* \"#utility.yul\":5240:5255   */\n      mstore\n        /* \"#utility.yul\":5274:5278   */\n      0x24\n        /* \"#utility.yul\":5271:5272   */\n      0x00\n        /* \"#utility.yul\":5264:5279   */\n      revert\n        /* \"#utility.yul\":5291:5485   */\n    tag_42:\n        /* \"#utility.yul\":5331:5335   */\n      0x00\n        /* \"#utility.yul\":5351:5371   */\n      tag_129\n        /* \"#utility.yul\":5369:5370   */\n      dup3\n        /* \"#utility.yul\":5351:5371   */\n      tag_62\n      jump\t// in\n    tag_129:\n        /* \"#utility.yul\":5346:5371   */\n      swap2\n      pop\n        /* \"#utility.yul\":5385:5405   */\n      tag_130\n        /* \"#utility.yul\":5403:5404   */\n      dup4\n        /* \"#utility.yul\":5385:5405   */\n      tag_62\n      jump\t// in\n    tag_130:\n        /* \"#utility.yul\":5380:5405   */\n      swap3\n      pop\n        /* \"#utility.yul\":5429:5430   */\n      dup3\n        /* \"#utility.yul\":5426:5427   */\n      dup3\n        /* \"#utility.yul\":5422:5431   */\n      sub\n        /* \"#utility.yul\":5414:5431   */\n      swap1\n      pop\n        /* \"#utility.yul\":5453:5454   */\n      dup2\n        /* \"#utility.yul\":5447:5451   */\n      dup2\n        /* \"#utility.yul\":5444:5455   */\n      gt\n        /* \"#utility.yul\":5441:5478   */\n      iszero\n      tag_131\n      jumpi\n        /* \"#utility.yul\":5458:5476   */\n      tag_132\n      tag_71\n      jump\t// in\n    tag_132:\n        /* \"#utility.yul\":5441:5478   */\n    tag_131:\n        /* \"#utility.yul\":5291:5485   */\n      swap3\n      swap2\n      pop\n      pop\n      jump\t// out\n        /* \"#utility.yul\":5491:5901   */\n    tag_44:\n        /* \"#utility.yul\":5531:5538   */\n      0x00\n        /* \"#utility.yul\":5554:5574   */\n      tag_134\n        /* \"#utility.yul\":5572:5573   */\n      dup3\n        /* \"#utility.yul\":5554:5574   */\n      tag_62\n      jump\t// in\n    tag_134:\n        /* \"#utility.yul\":5549:5574   */\n      swap2\n      pop\n        /* \"#utility.yul\":5588:5608   */\n      tag_135\n        /* \"#utility.yul\":5606:5607   */\n      dup4\n        /* \"#utility.yul\":5588:5608   */\n      tag_62\n      jump\t// in\n    tag_135:\n        /* \"#utility.yul\":5583:5608   */\n      swap3\n      pop\n        /* \"#utility.yul\":5643:5644   */\n      dup3\n        /* \"#utility.yul\":5640:5641   */\n      dup3\n        /* \"#utility.yul\":5636:5645   */\n      mul\n        /* \"#utility.yul\":5665:5695   */\n      tag_136\n        /* \"#utility.yul\":5683:5694   */\n      dup2\n        /* \"#utility.yul\":5665:5695   */\n      tag_62\n      jump\t// in\n    tag_136:\n        /* \"#utility.yul\":5654:5695   */\n      swap2\n      pop\n        /* \"#utility.yul\":5844:5845   */\n      dup3\n        /* \"#utility.yul\":5835:5842   */\n      dup3\n        /* \"#utility.yul\":5831:5846   */\n      div\n        /* \"#utility.yul\":5828:5829   */\n      dup5\n        /* \"#utility.yul\":5825:5847   */\n      eq\n        /* \"#utility.yul\":5805:5806   */\n      dup4\n        /* \"#utility.yul\":5798:5807   */\n      iszero\n        /* \"#utility.yul\":5778:5861   */\n      or\n        /* \"#utility.yul\":5755:5894   */\n      tag_137\n      jumpi\n        /* \"#utility.yul\":5874:5892   */\n      tag_138\n      tag_71\n      jump\t// in\n    tag_138:\n        /* \"#utility.yul\":5755:5894   */\n    tag_137:\n        /* \"#utility.yul\":5539:5901   */\n      pop\n        /* \"#utility.yul\":5491:5901   */\n      swap3\n      swap2\n      pop\n      pop\n      jump\t// out\n        /* \"#utility.yul\":5907:6087   */\n    tag_72:\n        /* \"#utility.yul\":5955:6032   */\n      0x4e487b7100000000000000000000000000000000000000000000000000000000\n        /* \"#utility.yul\":5952:5953   */\n      0x00\n        /* \"#utility.yul\":5945:6033   */\n      mstore\n        /* \"#utility.yul\":6052:6056   */\n      0x12\n        /* \"#utility.yul\":6049:6050   */\n      0x04\n        /* \"#utility.yul\":6042:6057   */\n      mstore\n        /* \"#utility.yul\":6076:6080   */\n      0x24\n        /* \"#utility.yul\":6073:6074   */\n      0x00\n        /* \"#utility.yul\":6066:6081   */\n      revert\n        /* \"#utility.yul\":6093:6278   */\n    tag_46:\n        /* \"#utility.yul\":6133:6134   */\n      0x00\n        /* \"#utility.yul\":6150:6170   */\n      tag_141\n        /* \"#utility.yul\":6168:6169   */\n      dup3\n        /* \"#utility.yul\":6150:6170   */\n      tag_62\n      jump\t// in\n    tag_141:\n        /* \"#utility.yul\":6145:6170   */\n      swap2\n      pop\n        /* \"#utility.yul\":6184:6204   */\n      tag_142\n        /* \"#utility.yul\":6202:6203   */\n      dup4\n        /* \"#utility.yul\":6184:6204   */\n      tag_62\n      jump\t// in\n    tag_142:\n        /* \"#utility.yul\":6179:6204   */\n      swap3\n      pop\n        /* \"#utility.yul\":6223:6224   */\n      dup3\n        /* \"#utility.yul\":6213:6248   */\n      tag_143\n      jumpi\n        /* \"#utility.yul\":6228:6246   */\n      tag_144\n      tag_72\n      jump\t// in\n    tag_144:\n        /* \"#utility.yul\":6213:6248   */\n    tag_143:\n        /* \"#utility.yul\":6270:6271   */\n      dup3\n        /* \"#utility.yul\":6267:6268   */\n      dup3\n        /* \"#utility.yul\":6263:6272   */\n      div\n        /* \"#utility.yul\":6258:6272   */\n      swap1\n      pop\n        /* \"#utility.yul\":6093:6278   */\n      swap3\n      swap2\n      pop\n      pop\n      jump\t// out\n        /* \"#utility.yul\":6284:6454   */\n    tag_73:\n        /* \"#utility.yul\":6424:6446   */\n      0x496e73756666696369656e742062616c616e6365000000000000000000000000\n        /* \"#utility.yul\":6420:6421   */\n      0x00\n        /* \"#utility.yul\":6412:6418   */\n      dup3\n        /* \"#utility.yul\":6408:6422   */\n      add\n        /* \"#utility.yul\":6401:6447   */\n      mstore\n        /* \"#utility.yul\":6284:6454   */\n      pop\n      jump\t// out\n        /* \"#utility.yul\":6460:6826   */\n    tag_74:\n        /* \"#utility.yul\":6602:6605   */\n      0x00\n        /* \"#utility.yul\":6623:6690   */\n      tag_147\n        /* \"#utility.yul\":6687:6689   */\n      0x14\n        /* \"#utility.yul\":6682:6685   */\n      dup4\n        /* \"#utility.yul\":6623:6690   */\n      tag_66\n      jump\t// in\n    tag_147:\n        /* \"#utility.yul\":6616:6690   */\n      swap2\n      pop\n        /* \"#utility.yul\":6699:6792   */\n      tag_148\n        /* \"#utility.yul\":6788:6791   */\n      dup3\n        /* \"#utility.yul\":6699:6792   */\n      tag_73\n      jump\t// in\n    tag_148:\n        /* \"#utility.yul\":6817:6819   */\n      0x20\n        /* \"#utility.yul\":6812:6815   */\n      dup3\n        /* \"#utility.yul\":6808:6820   */\n      add\n        /* \"#utility.yul\":6801:6820   */\n      swap1\n      pop\n        /* \"#utility.yul\":6460:6826   */\n      swap2\n      swap1\n      pop\n      jump\t// out\n        /* \"#utility.yul\":6832:7251   */\n    tag_49:\n        /* \"#utility.yul\":6998:7002   */\n      0x00\n        /* \"#utility.yul\":7036:7038   */\n      0x20\n        /* \"#utility.yul\":7025:7034   */\n      dup3\n        /* \"#utility.yul\":7021:7039   */\n      add\n        /* \"#utility.yul\":7013:7039   */\n      swap1\n      pop\n        /* \"#utility.yul\":7085:7094   */\n      dup2\n        /* \"#utility.yul\":7079:7083   */\n      dup2\n        /* \"#utility.yul\":7075:7095   */\n      sub\n        /* \"#utility.yul\":7071:7072   */\n      0x00\n        /* \"#utility.yul\":7060:7069   */\n      dup4\n        /* \"#utility.yul\":7056:7073   */\n      add\n        /* \"#utility.yul\":7049:7096   */\n      mstore\n        /* \"#utility.yul\":7113:7244   */\n      tag_150\n        /* \"#utility.yul\":7239:7243   */\n      dup2\n        /* \"#utility.yul\":7113:7244   */\n      tag_74\n      jump\t// in\n    tag_150:\n        /* \"#utility.yul\":7105:7244   */\n      swap1\n      pop\n        /* \"#utility.yul\":6832:7251   */\n      swap2\n      swap1\n      pop\n      jump\t// out\n        /* \"#utility.yul\":7257:7448   */\n    tag_52:\n        /* \"#utility.yul\":7297:7300   */\n      0x00\n        /* \"#utility.yul\":7316:7336   */\n      tag_152\n        /* \"#utility.yul\":7334:7335   */\n      dup3\n        /* \"#utility.yul\":7316:7336   */\n      tag_62\n      jump\t// in\n    tag_152:\n        /* \"#utility.yul\":7311:7336   */\n      swap2\n      pop\n        /* \"#utility.yul\":7350:7370   */\n      tag_153\n        /* \"#utility.yul\":7368:7369   */\n      dup4\n        /* \"#utility.yul\":7350:7370   */\n      tag_62\n      jump\t// in\n    tag_153:\n        /* \"#utility.yul\":7345:7370   */\n      swap3\n      pop\n        /* \"#utility.yul\":7393:7394   */\n      dup3\n        /* \"#utility.yul\":7390:7391   */\n      dup3\n        /* \"#utility.yul\":7386:7395   */\n      add\n        /* \"#utility.yul\":7379:7395   */\n      swap1\n      pop\n        /* \"#utility.yul\":7414:7417   */\n      dup1\n        /* \"#utility.yul\":7411:7412   */\n      dup3\n        /* \"#utility.yul\":7408:7418   */\n      gt\n        /* \"#utility.yul\":7405:7441   */\n      iszero\n      tag_154\n      jumpi\n        /* \"#utility.yul\":7421:7439   */\n      tag_155\n      tag_71\n      jump\t// in\n    tag_155:\n        /* \"#utility.yul\":7405:7441   */\n    tag_154:\n        /* \"#utility.yul\":7257:7448   */\n      swap3\n      swap2\n      pop\n      pop\n      jump\t// out\n        /* \"#utility.yul\":7454:7608   */\n    tag_75:\n        /* \"#utility.yul\":7594:7600   */\n      0x5553445400000000000000000000000000000000000000000000000000000000\n        /* \"#utility.yul\":7590:7591   */\n      0x00\n        /* \"#utility.yul\":7582:7588   */\n      dup3\n        /* \"#utility.yul\":7578:7592   */\n      add\n        /* \"#utility.yul\":7571:7601   */\n      mstore\n        /* \"#utility.yul\":7454:7608   */\n      pop\n      jump\t// out\n        /* \"#utility.yul\":7614:7979   */\n    tag_76:\n        /* \"#utility.yul\":7756:7759   */\n      0x00\n        /* \"#utility.yul\":7777:7843   */\n      tag_158\n        /* \"#utility.yul\":7841:7842   */\n      0x04\n        /* \"#utility.yul\":7836:7839   */\n      dup4\n        /* \"#utility.yul\":7777:7843   */\n      tag_66\n      jump\t// in\n    tag_158:\n        /* \"#utility.yul\":7770:7843   */\n      swap2\n      pop\n        /* \"#utility.yul\":7852:7945   */\n      tag_159\n        /* \"#utility.yul\":7941:7944   */\n      dup3\n        /* \"#utility.yul\":7852:7945   */\n      tag_75\n      jump\t// in\n    tag_159:\n        /* \"#utility.yul\":7970:7972   */\n      0x20\n        /* \"#utility.yul\":7965:7968   */\n      dup3\n        /* \"#utility.yul\":7961:7973   */\n      add\n        /* \"#utility.yul\":7954:7973   */\n      swap1\n      pop\n        /* \"#utility.yul\":7614:7979   */\n      swap2\n      swap1\n      pop\n      jump\t// out\n        /* \"#utility.yul\":7985:8514   */\n    tag_54:\n        /* \"#utility.yul\":8179:8183   */\n      0x00\n        /* \"#utility.yul\":8217:8219   */\n      0x40\n        /* \"#utility.yul\":8206:8215   */\n      dup3\n        /* \"#utility.yul\":8202:8220   */\n      add\n        /* \"#utility.yul\":8194:8220   */\n      swap1\n      pop\n        /* \"#utility.yul\":8230:8301   */\n      tag_161\n        /* \"#utility.yul\":8298:8299   */\n      0x00\n        /* \"#utility.yul\":8287:8296   */\n      dup4\n        /* \"#utility.yul\":8283:8300   */\n      add\n        /* \"#utility.yul\":8274:8280   */\n      dup5\n        /* \"#utility.yul\":8230:8301   */\n      tag_65\n      jump\t// in\n    tag_161:\n        /* \"#utility.yul\":8348:8357   */\n      dup2\n        /* \"#utility.yul\":8342:8346   */\n      dup2\n        /* \"#utility.yul\":8338:8358   */\n      sub\n        /* \"#utility.yul\":8333:8335   */\n      0x20\n        /* \"#utility.yul\":8322:8331   */\n      dup4\n        /* \"#utility.yul\":8318:8336   */\n      add\n        /* \"#utility.yul\":8311:8359   */\n      mstore\n        /* \"#utility.yul\":8376:8507   */\n      tag_162\n        /* \"#utility.yul\":8502:8506   */\n      dup2\n        /* \"#utility.yul\":8376:8507   */\n      tag_76\n      jump\t// in\n    tag_162:\n        /* \"#utility.yul\":8368:8507   */\n      swap1\n      pop\n        /* \"#utility.yul\":7985:8514   */\n      swap3\n      swap2\n      pop\n      pop\n      jump\t// out\n\n    auxdata: 0xa2646970667358221220d1cdac2686ba97e0d80bb4115e90b3e7c50e47e03039bd2efae6d34be809273464736f6c63430008120033\n}\n",
				"bytecode": {
					"linkReferences": {},
					"object": "608060405234801561001057600080fd5b5073dac17f958d2ee523a2206206994597c13d831ec76000806101000a81548173ffffffffffffffffffffffffffffffffffffffff021916908373ffffffffffffffffffffffffffffffffffffffff16021790555061096f806100746000396000f3fe608060405234801561001057600080fd5b50600436106100575760003560e01c80630b34b5551461005c57806356b89be414610078578063854572b4146100a8578063d1ef621d146100d8578063ebbc9b32146100f4575b600080fd5b61007660048036038101906100719190610547565b610110565b005b610092600480360381019061008d9190610587565b61019c565b60405161009f91906105c3565b60405180910390f35b6100c260048036038101906100bd9190610587565b6101b4565b6040516100cf91906105c3565b60405180910390f35b6100f260048036038101906100ed9190610547565b6101cc565b005b61010e600480360381019061010991906105de565b610265565b005b6000811015610154576040517f08c379a000000000000000000000000000000000000000000000000000000000815260040161014b9061068e565b60405180910390fd5b80600160008473ffffffffffffffffffffffffffffffffffffffff1673ffffffffffffffffffffffffffffffffffffffff168152602001908152602001600020819055505050565b60016020528060005260406000206000915090505481565b60026020528060005260406000206000915090505481565b600181101580156101de5750600a8111155b61021d576040517f08c379a0000000000000000000000000000000000000000000000000000000008152600401610214906106fa565b60405180910390fd5b80600260008473ffffffffffffffffffffffffffffffffffffffff1673ffffffffffffffffffffffffffffffffffffffff168152602001908152602001600020819055505050565b600081116102a8576040517f08c379a000000000000000000000000000000000000000000000000000000000815260040161029f9061068e565b60405180910390fd5b6000600260008573ffffffffffffffffffffffffffffffffffffffff1673ffffffffffffffffffffffffffffffffffffffff168152602001908152602001600020549050600060648260646102fd9190610749565b84610308919061077d565b61031291906107ee565b905082600160008773ffffffffffffffffffffffffffffffffffffffff1673ffffffffffffffffffffffffffffffffffffffff168152602001908152602001600020541015610396576040517f08c379a000000000000000000000000000000000000000000000000000000000815260040161038d9061086b565b60405180910390fd5b82600160008773ffffffffffffffffffffffffffffffffffffffff1673ffffffffffffffffffffffffffffffffffffffff16815260200190815260200160002060008282546103e59190610749565b9250508190555080600160008673ffffffffffffffffffffffffffffffffffffffff1673ffffffffffffffffffffffffffffffffffffffff168152602001908152602001600020600082825461043b919061088b565b925050819055508373ffffffffffffffffffffffffffffffffffffffff168573ffffffffffffffffffffffffffffffffffffffff167f7438b3ab3d18b29df7bf7fe592cc95dc9b3d321d1f880ad411f65b98df9bbd508360405161049f919061090b565b60405180910390a35050505050565b600080fd5b600073ffffffffffffffffffffffffffffffffffffffff82169050919050565b60006104de826104b3565b9050919050565b6104ee816104d3565b81146104f957600080fd5b50565b60008135905061050b816104e5565b92915050565b6000819050919050565b61052481610511565b811461052f57600080fd5b50565b6000813590506105418161051b565b92915050565b6000806040838503121561055e5761055d6104ae565b5b600061056c858286016104fc565b925050602061057d85828601610532565b9150509250929050565b60006020828403121561059d5761059c6104ae565b5b60006105ab848285016104fc565b91505092915050565b6105bd81610511565b82525050565b60006020820190506105d860008301846105b4565b92915050565b6000806000606084860312156105f7576105f66104ae565b5b6000610605868287016104fc565b9350506020610616868287016104fc565b925050604061062786828701610532565b9150509250925092565b600082825260208201905092915050565b7f496e76616c696420616d6f756e74000000000000000000000000000000000000600082015250565b6000610678600e83610631565b915061068382610642565b602082019050919050565b600060208201905081810360008301526106a78161066b565b9050919050565b7f496e76616c6964206c6f79616c7479206c6576656c0000000000000000000000600082015250565b60006106e4601583610631565b91506106ef826106ae565b602082019050919050565b60006020820190508181036000830152610713816106d7565b9050919050565b7f4e487b7100000000000000000000000000000000000000000000000000000000600052601160045260246000fd5b600061075482610511565b915061075f83610511565b92508282039050818111156107775761077661071a565b5b92915050565b600061078882610511565b915061079383610511565b92508282026107a181610511565b915082820484148315176107b8576107b761071a565b5b5092915050565b7f4e487b7100000000000000000000000000000000000000000000000000000000600052601260045260246000fd5b60006107f982610511565b915061080483610511565b925082610814576108136107bf565b5b828204905092915050565b7f496e73756666696369656e742062616c616e6365000000000000000000000000600082015250565b6000610855601483610631565b91506108608261081f565b602082019050919050565b6000602082019050818103600083015261088481610848565b9050919050565b600061089682610511565b91506108a183610511565b92508282019050808211156108b9576108b861071a565b5b92915050565b7f5553445400000000000000000000000000000000000000000000000000000000600082015250565b60006108f5600483610631565b9150610900826108bf565b602082019050919050565b600060408201905061092060008301846105b4565b8181036020830152610931816108e8565b90509291505056fea2646970667358221220d1cdac2686ba97e0d80bb4115e90b3e7c50e47e03039bd2efae6d34be809273464736f6c63430008120033",
					"opcodes": "PUSH1 0x80 PUSH1 0x40 MSTORE CALLVALUE DUP1 ISZERO PUSH2 0x10 JUMPI PUSH1 0x0 DUP1 REVERT JUMPDEST POP PUSH20 0xDAC17F958D2EE523A2206206994597C13D831EC7 PUSH1 0x0 DUP1 PUSH2 0x100 EXP DUP2 SLOAD DUP2 PUSH20 0xFFFFFFFFFFFFFFFFFFFFFFFFFFFFFFFFFFFFFFFF MUL NOT AND SWAP1 DUP4 PUSH20 0xFFFFFFFFFFFFFFFFFFFFFFFFFFFFFFFFFFFFFFFF AND MUL OR SWAP1 SSTORE POP PUSH2 0x96F DUP1 PUSH2 0x74 PUSH1 0x0 CODECOPY PUSH1 0x0 RETURN INVALID PUSH1 0x80 PUSH1 0x40 MSTORE CALLVALUE DUP1 ISZERO PUSH2 0x10 JUMPI PUSH1 0x0 DUP1 REVERT JUMPDEST POP PUSH1 0x4 CALLDATASIZE LT PUSH2 0x57 JUMPI PUSH1 0x0 CALLDATALOAD PUSH1 0xE0 SHR DUP1 PUSH4 0xB34B555 EQ PUSH2 0x5C JUMPI DUP1 PUSH4 0x56B89BE4 EQ PUSH2 0x78 JUMPI DUP1 PUSH4 0x854572B4 EQ PUSH2 0xA8 JUMPI DUP1 PUSH4 0xD1EF621D EQ PUSH2 0xD8 JUMPI DUP1 PUSH4 0xEBBC9B32 EQ PUSH2 0xF4 JUMPI JUMPDEST PUSH1 0x0 DUP1 REVERT JUMPDEST PUSH2 0x76 PUSH1 0x4 DUP1 CALLDATASIZE SUB DUP2 ADD SWAP1 PUSH2 0x71 SWAP2 SWAP1 PUSH2 0x547 JUMP JUMPDEST PUSH2 0x110 JUMP JUMPDEST STOP JUMPDEST PUSH2 0x92 PUSH1 0x4 DUP1 CALLDATASIZE SUB DUP2 ADD SWAP1 PUSH2 0x8D SWAP2 SWAP1 PUSH2 0x587 JUMP JUMPDEST PUSH2 0x19C JUMP JUMPDEST PUSH1 0x40 MLOAD PUSH2 0x9F SWAP2 SWAP1 PUSH2 0x5C3 JUMP JUMPDEST PUSH1 0x40 MLOAD DUP1 SWAP2 SUB SWAP1 RETURN JUMPDEST PUSH2 0xC2 PUSH1 0x4 DUP1 CALLDATASIZE SUB DUP2 ADD SWAP1 PUSH2 0xBD SWAP2 SWAP1 PUSH2 0x587 JUMP JUMPDEST PUSH2 0x1B4 JUMP JUMPDEST PUSH1 0x40 MLOAD PUSH2 0xCF SWAP2 SWAP1 PUSH2 0x5C3 JUMP JUMPDEST PUSH1 0x40 MLOAD DUP1 SWAP2 SUB SWAP1 RETURN JUMPDEST PUSH2 0xF2 PUSH1 0x4 DUP1 CALLDATASIZE SUB DUP2 ADD SWAP1 PUSH2 0xED SWAP2 SWAP1 PUSH2 0x547 JUMP JUMPDEST PUSH2 0x1CC JUMP JUMPDEST STOP JUMPDEST PUSH2 0x10E PUSH1 0x4 DUP1 CALLDATASIZE SUB DUP2 ADD SWAP1 PUSH2 0x109 SWAP2 SWAP1 PUSH2 0x5DE JUMP JUMPDEST PUSH2 0x265 JUMP JUMPDEST STOP JUMPDEST PUSH1 0x0 DUP2 LT ISZERO PUSH2 0x154 JUMPI PUSH1 0x40 MLOAD PUSH32 0x8C379A000000000000000000000000000000000000000000000000000000000 DUP2 MSTORE PUSH1 0x4 ADD PUSH2 0x14B SWAP1 PUSH2 0x68E JUMP JUMPDEST PUSH1 0x40 MLOAD DUP1 SWAP2 SUB SWAP1 REVERT JUMPDEST DUP1 PUSH1 0x1 PUSH1 0x0 DUP5 PUSH20 0xFFFFFFFFFFFFFFFFFFFFFFFFFFFFFFFFFFFFFFFF AND PUSH20 0xFFFFFFFFFFFFFFFFFFFFFFFFFFFFFFFFFFFFFFFF AND DUP2 MSTORE PUSH1 0x20 ADD SWAP1 DUP2 MSTORE PUSH1 0x20 ADD PUSH1 0x0 KECCAK256 DUP2 SWAP1 SSTORE POP POP POP JUMP JUMPDEST PUSH1 0x1 PUSH1 0x20 MSTORE DUP1 PUSH1 0x0 MSTORE PUSH1 0x40 PUSH1 0x0 KECCAK256 PUSH1 0x0 SWAP2 POP SWAP1 POP SLOAD DUP2 JUMP JUMPDEST PUSH1 0x2 PUSH1 0x20 MSTORE DUP1 PUSH1 0x0 MSTORE PUSH1 0x40 PUSH1 0x0 KECCAK256 PUSH1 0x0 SWAP2 POP SWAP1 POP SLOAD DUP2 JUMP JUMPDEST PUSH1 0x1 DUP2 LT ISZERO DUP1 ISZERO PUSH2 0x1DE JUMPI POP PUSH1 0xA DUP2 GT ISZERO JUMPDEST PUSH2 0x21D JUMPI PUSH1 0x40 MLOAD PUSH32 0x8C379A000000000000000000000000000000000000000000000000000000000 DUP2 MSTORE PUSH1 0x4 ADD PUSH2 0x214 SWAP1 PUSH2 0x6FA JUMP JUMPDEST PUSH1 0x40 MLOAD DUP1 SWAP2 SUB SWAP1 REVERT JUMPDEST DUP1 PUSH1 0x2 PUSH1 0x0 DUP5 PUSH20 0xFFFFFFFFFFFFFFFFFFFFFFFFFFFFFFFFFFFFFFFF AND PUSH20 0xFFFFFFFFFFFFFFFFFFFFFFFFFFFFFFFFFFFFFFFF AND DUP2 MSTORE PUSH1 0x20 ADD SWAP1 DUP2 MSTORE PUSH1 0x20 ADD PUSH1 0x0 KECCAK256 DUP2 SWAP1 SSTORE POP POP POP JUMP JUMPDEST PUSH1 0x0 DUP2 GT PUSH2 0x2A8 JUMPI PUSH1 0x40 MLOAD PUSH32 0x8C379A000000000000000000000000000000000000000000000000000000000 DUP2 MSTORE PUSH1 0x4 ADD PUSH2 0x29F SWAP1 PUSH2 0x68E JUMP JUMPDEST PUSH1 0x40 MLOAD DUP1 SWAP2 SUB SWAP1 REVERT JUMPDEST PUSH1 0x0 PUSH1 0x2 PUSH1 0x0 DUP6 PUSH20 0xFFFFFFFFFFFFFFFFFFFFFFFFFFFFFFFFFFFFFFFF AND PUSH20 0xFFFFFFFFFFFFFFFFFFFFFFFFFFFFFFFFFFFFFFFF AND DUP2 MSTORE PUSH1 0x20 ADD SWAP1 DUP2 MSTORE PUSH1 0x20 ADD PUSH1 0x0 KECCAK256 SLOAD SWAP1 POP PUSH1 0x0 PUSH1 0x64 DUP3 PUSH1 0x64 PUSH2 0x2FD SWAP2 SWAP1 PUSH2 0x749 JUMP JUMPDEST DUP5 PUSH2 0x308 SWAP2 SWAP1 PUSH2 0x77D JUMP JUMPDEST PUSH2 0x312 SWAP2 SWAP1 PUSH2 0x7EE JUMP JUMPDEST SWAP1 POP DUP3 PUSH1 0x1 PUSH1 0x0 DUP8 PUSH20 0xFFFFFFFFFFFFFFFFFFFFFFFFFFFFFFFFFFFFFFFF AND PUSH20 0xFFFFFFFFFFFFFFFFFFFFFFFFFFFFFFFFFFFFFFFF AND DUP2 MSTORE PUSH1 0x20 ADD SWAP1 DUP2 MSTORE PUSH1 0x20 ADD PUSH1 0x0 KECCAK256 SLOAD LT ISZERO PUSH2 0x396 JUMPI PUSH1 0x40 MLOAD PUSH32 0x8C379A000000000000000000000000000000000000000000000000000000000 DUP2 MSTORE PUSH1 0x4 ADD PUSH2 0x38D SWAP1 PUSH2 0x86B JUMP JUMPDEST PUSH1 0x40 MLOAD DUP1 SWAP2 SUB SWAP1 REVERT JUMPDEST DUP3 PUSH1 0x1 PUSH1 0x0 DUP8 PUSH20 0xFFFFFFFFFFFFFFFFFFFFFFFFFFFFFFFFFFFFFFFF AND PUSH20 0xFFFFFFFFFFFFFFFFFFFFFFFFFFFFFFFFFFFFFFFF AND DUP2 MSTORE PUSH1 0x20 ADD SWAP1 DUP2 MSTORE PUSH1 0x20 ADD PUSH1 0x0 KECCAK256 PUSH1 0x0 DUP3 DUP3 SLOAD PUSH2 0x3E5 SWAP2 SWAP1 PUSH2 0x749 JUMP JUMPDEST SWAP3 POP POP DUP2 SWAP1 SSTORE POP DUP1 PUSH1 0x1 PUSH1 0x0 DUP7 PUSH20 0xFFFFFFFFFFFFFFFFFFFFFFFFFFFFFFFFFFFFFFFF AND PUSH20 0xFFFFFFFFFFFFFFFFFFFFFFFFFFFFFFFFFFFFFFFF AND DUP2 MSTORE PUSH1 0x20 ADD SWAP1 DUP2 MSTORE PUSH1 0x20 ADD PUSH1 0x0 KECCAK256 PUSH1 0x0 DUP3 DUP3 SLOAD PUSH2 0x43B SWAP2 SWAP1 PUSH2 0x88B JUMP JUMPDEST SWAP3 POP POP DUP2 SWAP1 SSTORE POP DUP4 PUSH20 0xFFFFFFFFFFFFFFFFFFFFFFFFFFFFFFFFFFFFFFFF AND DUP6 PUSH20 0xFFFFFFFFFFFFFFFFFFFFFFFFFFFFFFFFFFFFFFFF AND PUSH32 0x7438B3AB3D18B29DF7BF7FE592CC95DC9B3D321D1F880AD411F65B98DF9BBD50 DUP4 PUSH1 0x40 MLOAD PUSH2 0x49F SWAP2 SWAP1 PUSH2 0x90B JUMP JUMPDEST PUSH1 0x40 MLOAD DUP1 SWAP2 SUB SWAP1 LOG3 POP POP POP POP POP JUMP JUMPDEST PUSH1 0x0 DUP1 REVERT JUMPDEST PUSH1 0x0 PUSH20 0xFFFFFFFFFFFFFFFFFFFFFFFFFFFFFFFFFFFFFFFF DUP3 AND SWAP1 POP SWAP2 SWAP1 POP JUMP JUMPDEST PUSH1 0x0 PUSH2 0x4DE DUP3 PUSH2 0x4B3 JUMP JUMPDEST SWAP1 POP SWAP2 SWAP1 POP JUMP JUMPDEST PUSH2 0x4EE DUP2 PUSH2 0x4D3 JUMP JUMPDEST DUP2 EQ PUSH2 0x4F9 JUMPI PUSH1 0x0 DUP1 REVERT JUMPDEST POP JUMP JUMPDEST PUSH1 0x0 DUP2 CALLDATALOAD SWAP1 POP PUSH2 0x50B DUP2 PUSH2 0x4E5 JUMP JUMPDEST SWAP3 SWAP2 POP POP JUMP JUMPDEST PUSH1 0x0 DUP2 SWAP1 POP SWAP2 SWAP1 POP JUMP JUMPDEST PUSH2 0x524 DUP2 PUSH2 0x511 JUMP JUMPDEST DUP2 EQ PUSH2 0x52F JUMPI PUSH1 0x0 DUP1 REVERT JUMPDEST POP JUMP JUMPDEST PUSH1 0x0 DUP2 CALLDATALOAD SWAP1 POP PUSH2 0x541 DUP2 PUSH2 0x51B JUMP JUMPDEST SWAP3 SWAP2 POP POP JUMP JUMPDEST PUSH1 0x0 DUP1 PUSH1 0x40 DUP4 DUP6 SUB SLT ISZERO PUSH2 0x55E JUMPI PUSH2 0x55D PUSH2 0x4AE JUMP JUMPDEST JUMPDEST PUSH1 0x0 PUSH2 0x56C DUP6 DUP3 DUP7 ADD PUSH2 0x4FC JUMP JUMPDEST SWAP3 POP POP PUSH1 0x20 PUSH2 0x57D DUP6 DUP3 DUP7 ADD PUSH2 0x532 JUMP JUMPDEST SWAP2 POP POP SWAP3 POP SWAP3 SWAP1 POP JUMP JUMPDEST PUSH1 0x0 PUSH1 0x20 DUP3 DUP5 SUB SLT ISZERO PUSH2 0x59D JUMPI PUSH2 0x59C PUSH2 0x4AE JUMP JUMPDEST JUMPDEST PUSH1 0x0 PUSH2 0x5AB DUP5 DUP3 DUP6 ADD PUSH2 0x4FC JUMP JUMPDEST SWAP2 POP POP SWAP3 SWAP2 POP POP JUMP JUMPDEST PUSH2 0x5BD DUP2 PUSH2 0x511 JUMP JUMPDEST DUP3 MSTORE POP POP JUMP JUMPDEST PUSH1 0x0 PUSH1 0x20 DUP3 ADD SWAP1 POP PUSH2 0x5D8 PUSH1 0x0 DUP4 ADD DUP5 PUSH2 0x5B4 JUMP JUMPDEST SWAP3 SWAP2 POP POP JUMP JUMPDEST PUSH1 0x0 DUP1 PUSH1 0x0 PUSH1 0x60 DUP5 DUP7 SUB SLT ISZERO PUSH2 0x5F7 JUMPI PUSH2 0x5F6 PUSH2 0x4AE JUMP JUMPDEST JUMPDEST PUSH1 0x0 PUSH2 0x605 DUP7 DUP3 DUP8 ADD PUSH2 0x4FC JUMP JUMPDEST SWAP4 POP POP PUSH1 0x20 PUSH2 0x616 DUP7 DUP3 DUP8 ADD PUSH2 0x4FC JUMP JUMPDEST SWAP3 POP POP PUSH1 0x40 PUSH2 0x627 DUP7 DUP3 DUP8 ADD PUSH2 0x532 JUMP JUMPDEST SWAP2 POP POP SWAP3 POP SWAP3 POP SWAP3 JUMP JUMPDEST PUSH1 0x0 DUP3 DUP3 MSTORE PUSH1 0x20 DUP3 ADD SWAP1 POP SWAP3 SWAP2 POP POP JUMP JUMPDEST PUSH32 0x496E76616C696420616D6F756E74000000000000000000000000000000000000 PUSH1 0x0 DUP3 ADD MSTORE POP JUMP JUMPDEST PUSH1 0x0 PUSH2 0x678 PUSH1 0xE DUP4 PUSH2 0x631 JUMP JUMPDEST SWAP2 POP PUSH2 0x683 DUP3 PUSH2 0x642 JUMP JUMPDEST PUSH1 0x20 DUP3 ADD SWAP1 POP SWAP2 SWAP1 POP JUMP JUMPDEST PUSH1 0x0 PUSH1 0x20 DUP3 ADD SWAP1 POP DUP2 DUP2 SUB PUSH1 0x0 DUP4 ADD MSTORE PUSH2 0x6A7 DUP2 PUSH2 0x66B JUMP JUMPDEST SWAP1 POP SWAP2 SWAP1 POP JUMP JUMPDEST PUSH32 0x496E76616C6964206C6F79616C7479206C6576656C0000000000000000000000 PUSH1 0x0 DUP3 ADD MSTORE POP JUMP JUMPDEST PUSH1 0x0 PUSH2 0x6E4 PUSH1 0x15 DUP4 PUSH2 0x631 JUMP JUMPDEST SWAP2 POP PUSH2 0x6EF DUP3 PUSH2 0x6AE JUMP JUMPDEST PUSH1 0x20 DUP3 ADD SWAP1 POP SWAP2 SWAP1 POP JUMP JUMPDEST PUSH1 0x0 PUSH1 0x20 DUP3 ADD SWAP1 POP DUP2 DUP2 SUB PUSH1 0x0 DUP4 ADD MSTORE PUSH2 0x713 DUP2 PUSH2 0x6D7 JUMP JUMPDEST SWAP1 POP SWAP2 SWAP1 POP JUMP JUMPDEST PUSH32 0x4E487B7100000000000000000000000000000000000000000000000000000000 PUSH1 0x0 MSTORE PUSH1 0x11 PUSH1 0x4 MSTORE PUSH1 0x24 PUSH1 0x0 REVERT JUMPDEST PUSH1 0x0 PUSH2 0x754 DUP3 PUSH2 0x511 JUMP JUMPDEST SWAP2 POP PUSH2 0x75F DUP4 PUSH2 0x511 JUMP JUMPDEST SWAP3 POP DUP3 DUP3 SUB SWAP1 POP DUP2 DUP2 GT ISZERO PUSH2 0x777 JUMPI PUSH2 0x776 PUSH2 0x71A JUMP JUMPDEST JUMPDEST SWAP3 SWAP2 POP POP JUMP JUMPDEST PUSH1 0x0 PUSH2 0x788 DUP3 PUSH2 0x511 JUMP JUMPDEST SWAP2 POP PUSH2 0x793 DUP4 PUSH2 0x511 JUMP JUMPDEST SWAP3 POP DUP3 DUP3 MUL PUSH2 0x7A1 DUP2 PUSH2 0x511 JUMP JUMPDEST SWAP2 POP DUP3 DUP3 DIV DUP5 EQ DUP4 ISZERO OR PUSH2 0x7B8 JUMPI PUSH2 0x7B7 PUSH2 0x71A JUMP JUMPDEST JUMPDEST POP SWAP3 SWAP2 POP POP JUMP JUMPDEST PUSH32 0x4E487B7100000000000000000000000000000000000000000000000000000000 PUSH1 0x0 MSTORE PUSH1 0x12 PUSH1 0x4 MSTORE PUSH1 0x24 PUSH1 0x0 REVERT JUMPDEST PUSH1 0x0 PUSH2 0x7F9 DUP3 PUSH2 0x511 JUMP JUMPDEST SWAP2 POP PUSH2 0x804 DUP4 PUSH2 0x511 JUMP JUMPDEST SWAP3 POP DUP3 PUSH2 0x814 JUMPI PUSH2 0x813 PUSH2 0x7BF JUMP JUMPDEST JUMPDEST DUP3 DUP3 DIV SWAP1 POP SWAP3 SWAP2 POP POP JUMP JUMPDEST PUSH32 0x496E73756666696369656E742062616C616E6365000000000000000000000000 PUSH1 0x0 DUP3 ADD MSTORE POP JUMP JUMPDEST PUSH1 0x0 PUSH2 0x855 PUSH1 0x14 DUP4 PUSH2 0x631 JUMP JUMPDEST SWAP2 POP PUSH2 0x860 DUP3 PUSH2 0x81F JUMP JUMPDEST PUSH1 0x20 DUP3 ADD SWAP1 POP SWAP2 SWAP1 POP JUMP JUMPDEST PUSH1 0x0 PUSH1 0x20 DUP3 ADD SWAP1 POP DUP2 DUP2 SUB PUSH1 0x0 DUP4 ADD MSTORE PUSH2 0x884 DUP2 PUSH2 0x848 JUMP JUMPDEST SWAP1 POP SWAP2 SWAP1 POP JUMP JUMPDEST PUSH1 0x0 PUSH2 0x896 DUP3 PUSH2 0x511 JUMP JUMPDEST SWAP2 POP PUSH2 0x8A1 DUP4 PUSH2 0x511 JUMP JUMPDEST SWAP3 POP DUP3 DUP3 ADD SWAP1 POP DUP1 DUP3 GT ISZERO PUSH2 0x8B9 JUMPI PUSH2 0x8B8 PUSH2 0x71A JUMP JUMPDEST JUMPDEST SWAP3 SWAP2 POP POP JUMP JUMPDEST PUSH32 0x5553445400000000000000000000000000000000000000000000000000000000 PUSH1 0x0 DUP3 ADD MSTORE POP JUMP JUMPDEST PUSH1 0x0 PUSH2 0x8F5 PUSH1 0x4 DUP4 PUSH2 0x631 JUMP JUMPDEST SWAP2 POP PUSH2 0x900 DUP3 PUSH2 0x8BF JUMP JUMPDEST PUSH1 0x20 DUP3 ADD SWAP1 POP SWAP2 SWAP1 POP JUMP JUMPDEST PUSH1 0x0 PUSH1 0x40 DUP3 ADD SWAP1 POP PUSH2 0x920 PUSH1 0x0 DUP4 ADD DUP5 PUSH2 0x5B4 JUMP JUMPDEST DUP2 DUP2 SUB PUSH1 0x20 DUP4 ADD MSTORE PUSH2 0x931 DUP2 PUSH2 0x8E8 JUMP JUMPDEST SWAP1 POP SWAP3 SWAP2 POP POP JUMP INVALID LOG2 PUSH5 0x6970667358 0x22 SLT KECCAK256 0xD1 0xCD 0xAC 0x26 DUP7 0xBA SWAP8 0xE0 0xD8 SIGNEXTEND 0xB4 GT 0x5E SWAP1 0xB3 0xE7 0xC5 0xE SELFBALANCE 0xE0 ADDRESS CODECOPY 0xBD 0x2E STATICCALL 0xE6 0xD3 0x4B 0xE8 MULMOD 0x27 CALLVALUE PUSH5 0x736F6C6343 STOP ADDMOD SLT STOP CALLER "
				},
				"gasEstimates": {
					"creation": {
						"codeDepositCost": "483000",
						"executionCost": "24785",
						"totalCost": "507785"
					},
					"external": {
						"balancesUSDT(address)": "2814",
						"loyaltyLevels(address)": "2836",
						"payTrip(address,address,uint256)": "infinite",
						"setInitialBalance(address,uint256)": "22836",
						"setLoyaltyLevel(address,uint256)": "22936"
					}
				},
				"methodIdentifiers": {
					"balancesUSDT(address)": "56b89be4",
					"loyaltyLevels(address)": "854572b4",
					"payTrip(address,address,uint256)": "ebbc9b32",
					"setInitialBalance(address,uint256)": "0b34b555",
					"setLoyaltyLevel(address,uint256)": "d1ef621d"
				}
			},
			"storageLayout": {
				"storage": [
					{
						"astId": 83,
						"contract": "loyal.sol:PapiGo",
						"label": "tether",
						"offset": 0,
						"slot": "0",
						"type": "t_contract(IERC20)77"
					},
					{
						"astId": 87,
						"contract": "loyal.sol:PapiGo",
						"label": "balancesUSDT",
						"offset": 0,
						"slot": "1",
						"type": "t_mapping(t_address,t_uint256)"
					},
					{
						"astId": 91,
						"contract": "loyal.sol:PapiGo",
						"label": "loyaltyLevels",
						"offset": 0,
						"slot": "2",
						"type": "t_mapping(t_address,t_uint256)"
					}
				],
				"types": {
					"t_address": {
						"encoding": "inplace",
						"label": "address",
						"numberOfBytes": "20"
					},
					"t_contract(IERC20)77": {
						"encoding": "inplace",
						"label": "contract IERC20",
						"numberOfBytes": "20"
					},
					"t_mapping(t_address,t_uint256)": {
						"encoding": "mapping",
						"key": "t_address",
						"label": "mapping(address => uint256)",
						"numberOfBytes": "32",
						"value": "t_uint256"
					},
					"t_uint256": {
						"encoding": "inplace",
						"label": "uint256",
						"numberOfBytes": "32"
					}
				}
			},
			"userdoc": {
				"kind": "user",
				"methods": {},
				"version": 1
			}
		}
	}
}