{
	"fees.sol": {
		"PapiGo": {
			"abi": [
				{
					"inputs": [],
					"stateMutability": "nonpayable",
					"type": "constructor"
				},
				{
					"anonymous": false,
					"inputs": [
						{
							"indexed": true,
							"internalType": "address",
							"name": "sender",
							"type": "address"
						},
						{
							"indexed": true,
							"internalType": "address",
							"name": "recipient",
							"type": "address"
						},
						{
							"indexed": false,
							"internalType": "uint256",
							"name": "amount",
							"type": "uint256"
						},
						{
							"indexed": false,
							"internalType": "string",
							"name": "currency",
							"type": "string"
						}
					],
					"name": "Transaction",
					"type": "event"
				},
				{
					"inputs": [
						{
							"internalType": "address",
							"name": "",
							"type": "address"
						}
					],
					"name": "balancesUSDT",
					"outputs": [
						{
							"internalType": "uint256",
							"name": "",
							"type": "uint256"
						}
					],
					"stateMutability": "view",
					"type": "function"
				},
				{
					"inputs": [],
					"name": "intermediary",
					"outputs": [
						{
							"internalType": "address",
							"name": "",
							"type": "address"
						}
					],
					"stateMutability": "view",
					"type": "function"
				},
				{
					"inputs": [
						{
							"internalType": "address",
							"name": "",
							"type": "address"
						}
					],
					"name": "loyaltyLevels",
					"outputs": [
						{
							"internalType": "uint256",
							"name": "",
							"type": "uint256"
						}
					],
					"stateMutability": "view",
					"type": "function"
				},
				{
					"inputs": [
						{
							"internalType": "address",
							"name": "sender",
							"type": "address"
						},
						{
							"internalType": "address",
							"name": "recipient",
							"type": "address"
						},
						{
							"internalType": "uint256",
							"name": "amountUSDT",
							"type": "uint256"
						}
					],
					"name": "payTrip",
					"outputs": [],
					"stateMutability": "nonpayable",
					"type": "function"
				},
				{
					"inputs": [
						{
							"internalType": "address",
							"name": "account",
							"type": "address"
						},
						{
							"internalType": "uint256",
							"name": "amountUSDT",
							"type": "uint256"
						}
					],
					"name": "setInitialBalance",
					"outputs": [],
					"stateMutability": "nonpayable",
					"type": "function"
				},
				{
					"inputs": [
						{
							"internalType": "address",
							"name": "_intermediary",
							"type": "address"
						}
					],
					"name": "setIntermediary",
					"outputs": [],
					"stateMutability": "nonpayable",
					"type": "function"
				},
				{
					"inputs": [
						{
							"internalType": "address",
							"name": "account",
							"type": "address"
						},
						{
							"internalType": "uint256",
							"name": "level",
							"type": "uint256"
						}
					],
					"name": "setLoyaltyLevel",
					"outputs": [],
					"stateMutability": "nonpayable",
					"type": "function"
				}
			],
			"devdoc": {
				"kind": "dev",
				"methods": {},
				"version": 1
			},
			"evm": {
				"assembly": "    /* \"fees.sol\":123:2529  contract PapiGo {... */\n  mstore(0x40, 0x80)\n    /* \"fees.sol\":538:646  constructor() {... */\n  callvalue\n  dup1\n  iszero\n  tag_1\n  jumpi\n  0x00\n  dup1\n  revert\ntag_1:\n  pop\n    /* \"fees.sol\":578:620  0xdAC17F958D2ee523a2206206994597C13D831ec7 */\n  0xdac17f958d2ee523a2206206994597c13d831ec7\n    /* \"fees.sol\":562:568  tether */\n  0x00\n  dup1\n    /* \"fees.sol\":562:621  tether = IERC20(0xdAC17F958D2ee523a2206206994597C13D831ec7) */\n  0x0100\n  exp\n  dup2\n  sload\n  dup2\n  0xffffffffffffffffffffffffffffffffffffffff\n  mul\n  not\n  and\n  swap1\n  dup4\n  0xffffffffffffffffffffffffffffffffffffffff\n  and\n  mul\n  or\n  swap1\n  sstore\n  pop\n    /* \"fees.sol\":123:2529  contract PapiGo {... */\n  dataSize(sub_0)\n  dup1\n  dataOffset(sub_0)\n  0x00\n  codecopy\n  0x00\n  return\nstop\n\nsub_0: assembly {\n        /* \"fees.sol\":123:2529  contract PapiGo {... */\n      mstore(0x40, 0x80)\n      callvalue\n      dup1\n      iszero\n      tag_1\n      jumpi\n      0x00\n      dup1\n      revert\n    tag_1:\n      pop\n      jumpi(tag_2, lt(calldatasize, 0x04))\n      shr(0xe0, calldataload(0x00))\n      dup1\n      0x854572b4\n      gt\n      tag_10\n      jumpi\n      dup1\n      0x854572b4\n      eq\n      tag_6\n      jumpi\n      dup1\n      0xa61bab2f\n      eq\n      tag_7\n      jumpi\n      dup1\n      0xd1ef621d\n      eq\n      tag_8\n      jumpi\n      dup1\n      0xebbc9b32\n      eq\n      tag_9\n      jumpi\n      jump(tag_2)\n    tag_10:\n      dup1\n      0x0b34b555\n      eq\n      tag_3\n      jumpi\n      dup1\n      0x56b89be4\n      eq\n      tag_4\n      jumpi\n      dup1\n      0x79fd022e\n      eq\n      tag_5\n      jumpi\n    tag_2:\n      0x00\n      dup1\n      revert\n        /* \"fees.sol\":2364:2527  function setInitialBalance(address account, uint amountUSDT) external {... */\n    tag_3:\n      tag_11\n      0x04\n      dup1\n      calldatasize\n      sub\n      dup2\n      add\n      swap1\n      tag_12\n      swap2\n      swap1\n      tag_13\n      jump\t// in\n    tag_12:\n      tag_14\n      jump\t// in\n    tag_11:\n      stop\n        /* \"fees.sol\":172:216  mapping(address => uint) public balancesUSDT */\n    tag_4:\n      tag_15\n      0x04\n      dup1\n      calldatasize\n      sub\n      dup2\n      add\n      swap1\n      tag_16\n      swap2\n      swap1\n      tag_17\n      jump\t// in\n    tag_16:\n      tag_18\n      jump\t// in\n    tag_15:\n      mload(0x40)\n      tag_19\n      swap2\n      swap1\n      tag_20\n      jump\t// in\n    tag_19:\n      mload(0x40)\n      dup1\n      swap2\n      sub\n      swap1\n      return\n        /* \"fees.sol\":382:409  address public intermediary */\n    tag_5:\n      tag_21\n      tag_22\n      jump\t// in\n    tag_21:\n      mload(0x40)\n      tag_23\n      swap2\n      swap1\n      tag_24\n      jump\t// in\n    tag_23:\n      mload(0x40)\n      dup1\n      swap2\n      sub\n      swap1\n      return\n        /* \"fees.sol\":283:328  mapping(address => uint) public loyaltyLevels */\n    tag_6:\n      tag_25\n      0x04\n      dup1\n      calldatasize\n      sub\n      dup2\n      add\n      swap1\n      tag_26\n      swap2\n      swap1\n      tag_17\n      jump\t// in\n    tag_26:\n      tag_27\n      jump\t// in\n    tag_25:\n      mload(0x40)\n      tag_28\n      swap2\n      swap1\n      tag_20\n      jump\t// in\n    tag_28:\n      mload(0x40)\n      dup1\n      swap2\n      sub\n      swap1\n      return\n        /* \"fees.sol\":652:865  function setIntermediary(address _intermediary) external {... */\n    tag_7:\n      tag_29\n      0x04\n      dup1\n      calldatasize\n      sub\n      dup2\n      add\n      swap1\n      tag_30\n      swap2\n      swap1\n      tag_17\n      jump\t// in\n    tag_30:\n      tag_31\n      jump\t// in\n    tag_29:\n      stop\n        /* \"fees.sol\":871:1089  function setLoyaltyLevel(address account, uint level) external {... */\n    tag_8:\n      tag_32\n      0x04\n      dup1\n      calldatasize\n      sub\n      dup2\n      add\n      swap1\n      tag_33\n      swap2\n      swap1\n      tag_13\n      jump\t// in\n    tag_33:\n      tag_34\n      jump\t// in\n    tag_32:\n      stop\n        /* \"fees.sol\":1363:2358  function payTrip(address sender, address recipient, uint amountUSDT) external {... */\n    tag_9:\n      tag_35\n      0x04\n      dup1\n      calldatasize\n      sub\n      dup2\n      add\n      swap1\n      tag_36\n      swap2\n      swap1\n      tag_37\n      jump\t// in\n    tag_36:\n      tag_38\n      jump\t// in\n    tag_35:\n      stop\n        /* \"fees.sol\":2364:2527  function setInitialBalance(address account, uint amountUSDT) external {... */\n    tag_14:\n        /* \"fees.sol\":2510:2520  amountUSDT */\n      dup1\n        /* \"fees.sol\":2486:2498  balancesUSDT */\n      0x01\n        /* \"fees.sol\":2486:2507  balancesUSDT[account] */\n      0x00\n        /* \"fees.sol\":2499:2506  account */\n      dup5\n        /* \"fees.sol\":2486:2507  balancesUSDT[account] */\n      0xffffffffffffffffffffffffffffffffffffffff\n      and\n      0xffffffffffffffffffffffffffffffffffffffff\n      and\n      dup2\n      mstore\n      0x20\n      add\n      swap1\n      dup2\n      mstore\n      0x20\n      add\n      0x00\n      keccak256\n        /* \"fees.sol\":2486:2520  balancesUSDT[account] = amountUSDT */\n      dup2\n      swap1\n      sstore\n      pop\n        /* \"fees.sol\":2364:2527  function setInitialBalance(address account, uint amountUSDT) external {... */\n      pop\n      pop\n      jump\t// out\n        /* \"fees.sol\":172:216  mapping(address => uint) public balancesUSDT */\n    tag_18:\n      mstore(0x20, 0x01)\n      dup1\n      0x00\n      mstore\n      keccak256(0x00, 0x40)\n      0x00\n      swap2\n      pop\n      swap1\n      pop\n      sload\n      dup2\n      jump\t// out\n        /* \"fees.sol\":382:409  address public intermediary */\n    tag_22:\n      0x03\n      0x00\n      swap1\n      sload\n      swap1\n      0x0100\n      exp\n      swap1\n      div\n      0xffffffffffffffffffffffffffffffffffffffff\n      and\n      dup2\n      jump\t// out\n        /* \"fees.sol\":283:328  mapping(address => uint) public loyaltyLevels */\n    tag_27:\n      mstore(0x20, 0x02)\n      dup1\n      0x00\n      mstore\n      keccak256(0x00, 0x40)\n      0x00\n      swap2\n      pop\n      swap1\n      pop\n      sload\n      dup2\n      jump\t// out\n        /* \"fees.sol\":652:865  function setIntermediary(address _intermediary) external {... */\n    tag_31:\n        /* \"fees.sol\":752:753  0 */\n      0x00\n        /* \"fees.sol\":727:754  _intermediary != address(0) */\n      0xffffffffffffffffffffffffffffffffffffffff\n      and\n        /* \"fees.sol\":727:740  _intermediary */\n      dup2\n        /* \"fees.sol\":727:754  _intermediary != address(0) */\n      0xffffffffffffffffffffffffffffffffffffffff\n      and\n      sub\n        /* \"fees.sol\":719:787  require(_intermediary != address(0), \"Invalid intermediary address\") */\n      tag_41\n      jumpi\n      mload(0x40)\n      0x08c379a000000000000000000000000000000000000000000000000000000000\n      dup2\n      mstore\n      0x04\n      add\n      tag_42\n      swap1\n      tag_43\n      jump\t// in\n    tag_42:\n      mload(0x40)\n      dup1\n      swap2\n      sub\n      swap1\n      revert\n    tag_41:\n        /* \"fees.sol\":812:825  _intermediary */\n      dup1\n        /* \"fees.sol\":797:809  intermediary */\n      0x03\n      0x00\n        /* \"fees.sol\":797:825  intermediary = _intermediary */\n      0x0100\n      exp\n      dup2\n      sload\n      dup2\n      0xffffffffffffffffffffffffffffffffffffffff\n      mul\n      not\n      and\n      swap1\n      dup4\n      0xffffffffffffffffffffffffffffffffffffffff\n      and\n      mul\n      or\n      swap1\n      sstore\n      pop\n        /* \"fees.sol\":652:865  function setIntermediary(address _intermediary) external {... */\n      pop\n      jump\t// out\n        /* \"fees.sol\":871:1089  function setLoyaltyLevel(address account, uint level) external {... */\n    tag_34:\n        /* \"fees.sol\":961:962  1 */\n      0x01\n        /* \"fees.sol\":952:957  level */\n      dup2\n        /* \"fees.sol\":952:962  level >= 1 */\n      lt\n      iszero\n        /* \"fees.sol\":952:976  level >= 1 && level <= 5 */\n      dup1\n      iszero\n      tag_45\n      jumpi\n      pop\n        /* \"fees.sol\":975:976  5 */\n      0x05\n        /* \"fees.sol\":966:971  level */\n      dup2\n        /* \"fees.sol\":966:976  level <= 5 */\n      gt\n      iszero\n        /* \"fees.sol\":952:976  level >= 1 && level <= 5 */\n    tag_45:\n        /* \"fees.sol\":944:1002  require(level >= 1 && level <= 5, \"Invalid loyalty level\") */\n      tag_46\n      jumpi\n      mload(0x40)\n      0x08c379a000000000000000000000000000000000000000000000000000000000\n      dup2\n      mstore\n      0x04\n      add\n      tag_47\n      swap1\n      tag_48\n      jump\t// in\n    tag_47:\n      mload(0x40)\n      dup1\n      swap2\n      sub\n      swap1\n      revert\n    tag_46:\n        /* \"fees.sol\":1037:1042  level */\n      dup1\n        /* \"fees.sol\":1012:1025  loyaltyLevels */\n      0x02\n        /* \"fees.sol\":1012:1034  loyaltyLevels[account] */\n      0x00\n        /* \"fees.sol\":1026:1033  account */\n      dup5\n        /* \"fees.sol\":1012:1034  loyaltyLevels[account] */\n      0xffffffffffffffffffffffffffffffffffffffff\n      and\n      0xffffffffffffffffffffffffffffffffffffffff\n      and\n      dup2\n      mstore\n      0x20\n      add\n      swap1\n      dup2\n      mstore\n      0x20\n      add\n      0x00\n      keccak256\n        /* \"fees.sol\":1012:1042  loyaltyLevels[account] = level */\n      dup2\n      swap1\n      sstore\n      pop\n        /* \"fees.sol\":871:1089  function setLoyaltyLevel(address account, uint level) external {... */\n      pop\n      pop\n      jump\t// out\n        /* \"fees.sol\":1363:2358  function payTrip(address sender, address recipient, uint amountUSDT) external {... */\n    tag_38:\n        /* \"fees.sol\":1483:1484  0 */\n      0x00\n        /* \"fees.sol\":1459:1485  intermediary != address(0) */\n      0xffffffffffffffffffffffffffffffffffffffff\n      and\n        /* \"fees.sol\":1459:1471  intermediary */\n      0x03\n      0x00\n      swap1\n      sload\n      swap1\n      0x0100\n      exp\n      swap1\n      div\n      0xffffffffffffffffffffffffffffffffffffffff\n      and\n        /* \"fees.sol\":1459:1485  intermediary != address(0) */\n      0xffffffffffffffffffffffffffffffffffffffff\n      and\n      sub\n        /* \"fees.sol\":1451:1518  require(intermediary != address(0), \"Intermediary address not set\") */\n      tag_50\n      jumpi\n      mload(0x40)\n      0x08c379a000000000000000000000000000000000000000000000000000000000\n      dup2\n      mstore\n      0x04\n      add\n      tag_51\n      swap1\n      tag_52\n      jump\t// in\n    tag_51:\n      mload(0x40)\n      dup1\n      swap2\n      sub\n      swap1\n      revert\n    tag_50:\n        /* \"fees.sol\":1537:1554  uint loyaltyLevel */\n      0x00\n        /* \"fees.sol\":1557:1570  loyaltyLevels */\n      0x02\n        /* \"fees.sol\":1557:1578  loyaltyLevels[sender] */\n      0x00\n        /* \"fees.sol\":1571:1577  sender */\n      dup6\n        /* \"fees.sol\":1557:1578  loyaltyLevels[sender] */\n      0xffffffffffffffffffffffffffffffffffffffff\n      and\n      0xffffffffffffffffffffffffffffffffffffffff\n      and\n      dup2\n      mstore\n      0x20\n      add\n      swap1\n      dup2\n      mstore\n      0x20\n      add\n      0x00\n      keccak256\n      sload\n        /* \"fees.sol\":1537:1578  uint loyaltyLevel = loyaltyLevels[sender] */\n      swap1\n      pop\n        /* \"fees.sol\":1623:1643  uint intermediaryFee */\n      0x00\n        /* \"fees.sol\":1646:1696  calculateIntermediaryFee(amountUSDT, loyaltyLevel) */\n      tag_53\n        /* \"fees.sol\":1671:1681  amountUSDT */\n      dup4\n        /* \"fees.sol\":1683:1695  loyaltyLevel */\n      dup4\n        /* \"fees.sol\":1646:1670  calculateIntermediaryFee */\n      tag_54\n        /* \"fees.sol\":1646:1696  calculateIntermediaryFee(amountUSDT, loyaltyLevel) */\n      jump\t// in\n    tag_53:\n        /* \"fees.sol\":1623:1696  uint intermediaryFee = calculateIntermediaryFee(amountUSDT, loyaltyLevel) */\n      swap1\n      pop\n        /* \"fees.sol\":1749:1768  uint amountAfterFee */\n      0x00\n        /* \"fees.sol\":1784:1799  intermediaryFee */\n      dup2\n        /* \"fees.sol\":1771:1781  amountUSDT */\n      dup5\n        /* \"fees.sol\":1771:1799  amountUSDT - intermediaryFee */\n      tag_55\n      swap2\n      swap1\n      tag_56\n      jump\t// in\n    tag_55:\n        /* \"fees.sol\":1749:1799  uint amountAfterFee = amountUSDT - intermediaryFee */\n      swap1\n      pop\n        /* \"fees.sol\":1881:1891  amountUSDT */\n      dup4\n        /* \"fees.sol\":1857:1869  balancesUSDT */\n      0x01\n        /* \"fees.sol\":1857:1877  balancesUSDT[sender] */\n      0x00\n        /* \"fees.sol\":1870:1876  sender */\n      dup9\n        /* \"fees.sol\":1857:1877  balancesUSDT[sender] */\n      0xffffffffffffffffffffffffffffffffffffffff\n      and\n      0xffffffffffffffffffffffffffffffffffffffff\n      and\n      dup2\n      mstore\n      0x20\n      add\n      swap1\n      dup2\n      mstore\n      0x20\n      add\n      0x00\n      keccak256\n      0x00\n        /* \"fees.sol\":1857:1891  balancesUSDT[sender] -= amountUSDT */\n      dup3\n      dup3\n      sload\n      tag_57\n      swap2\n      swap1\n      tag_56\n      jump\t// in\n    tag_57:\n      swap3\n      pop\n      pop\n      dup2\n      swap1\n      sstore\n      pop\n        /* \"fees.sol\":1974:1989  intermediaryFee */\n      dup2\n        /* \"fees.sol\":1944:1956  balancesUSDT */\n      0x01\n        /* \"fees.sol\":1944:1970  balancesUSDT[intermediary] */\n      0x00\n        /* \"fees.sol\":1957:1969  intermediary */\n      0x03\n      0x00\n      swap1\n      sload\n      swap1\n      0x0100\n      exp\n      swap1\n      div\n      0xffffffffffffffffffffffffffffffffffffffff\n      and\n        /* \"fees.sol\":1944:1970  balancesUSDT[intermediary] */\n      0xffffffffffffffffffffffffffffffffffffffff\n      and\n      0xffffffffffffffffffffffffffffffffffffffff\n      and\n      dup2\n      mstore\n      0x20\n      add\n      swap1\n      dup2\n      mstore\n      0x20\n      add\n      0x00\n      keccak256\n      0x00\n        /* \"fees.sol\":1944:1989  balancesUSDT[intermediary] += intermediaryFee */\n      dup3\n      dup3\n      sload\n      tag_58\n      swap2\n      swap1\n      tag_59\n      jump\t// in\n    tag_58:\n      swap3\n      pop\n      pop\n      dup2\n      swap1\n      sstore\n      pop\n        /* \"fees.sol\":2074:2088  amountAfterFee */\n      dup1\n        /* \"fees.sol\":2047:2059  balancesUSDT */\n      0x01\n        /* \"fees.sol\":2047:2070  balancesUSDT[recipient] */\n      0x00\n        /* \"fees.sol\":2060:2069  recipient */\n      dup8\n        /* \"fees.sol\":2047:2070  balancesUSDT[recipient] */\n      0xffffffffffffffffffffffffffffffffffffffff\n      and\n      0xffffffffffffffffffffffffffffffffffffffff\n      and\n      dup2\n      mstore\n      0x20\n      add\n      swap1\n      dup2\n      mstore\n      0x20\n      add\n      0x00\n      keccak256\n      0x00\n        /* \"fees.sol\":2047:2088  balancesUSDT[recipient] += amountAfterFee */\n      dup3\n      dup3\n      sload\n      tag_60\n      swap2\n      swap1\n      tag_59\n      jump\t// in\n    tag_60:\n      swap3\n      pop\n      pop\n      dup2\n      swap1\n      sstore\n      pop\n        /* \"fees.sol\":2179:2188  recipient */\n      dup5\n        /* \"fees.sol\":2159:2209  Transaction(sender, recipient, amountUSDT, \"USDT\") */\n      0xffffffffffffffffffffffffffffffffffffffff\n      and\n        /* \"fees.sol\":2171:2177  sender */\n      dup7\n        /* \"fees.sol\":2159:2209  Transaction(sender, recipient, amountUSDT, \"USDT\") */\n      0xffffffffffffffffffffffffffffffffffffffff\n      and\n      0x7438b3ab3d18b29df7bf7fe592cc95dc9b3d321d1f880ad411f65b98df9bbd50\n        /* \"fees.sol\":2190:2200  amountUSDT */\n      dup7\n        /* \"fees.sol\":2159:2209  Transaction(sender, recipient, amountUSDT, \"USDT\") */\n      mload(0x40)\n      tag_61\n      swap2\n      swap1\n      tag_62\n      jump\t// in\n    tag_61:\n      mload(0x40)\n      dup1\n      swap2\n      sub\n      swap1\n      log3\n        /* \"fees.sol\":2244:2256  intermediary */\n      0x03\n      0x00\n      swap1\n      sload\n      swap1\n      0x0100\n      exp\n      swap1\n      div\n      0xffffffffffffffffffffffffffffffffffffffff\n      and\n        /* \"fees.sol\":2224:2282  Transaction(sender, intermediary, intermediaryFee, \"USDT\") */\n      0xffffffffffffffffffffffffffffffffffffffff\n      and\n        /* \"fees.sol\":2236:2242  sender */\n      dup7\n        /* \"fees.sol\":2224:2282  Transaction(sender, intermediary, intermediaryFee, \"USDT\") */\n      0xffffffffffffffffffffffffffffffffffffffff\n      and\n      0x7438b3ab3d18b29df7bf7fe592cc95dc9b3d321d1f880ad411f65b98df9bbd50\n        /* \"fees.sol\":2258:2273  intermediaryFee */\n      dup5\n        /* \"fees.sol\":2224:2282  Transaction(sender, intermediary, intermediaryFee, \"USDT\") */\n      mload(0x40)\n      tag_63\n      swap2\n      swap1\n      tag_62\n      jump\t// in\n    tag_63:\n      mload(0x40)\n      dup1\n      swap2\n      sub\n      swap1\n      log3\n        /* \"fees.sol\":1441:2358  {... */\n      pop\n      pop\n      pop\n        /* \"fees.sol\":1363:2358  function payTrip(address sender, address recipient, uint amountUSDT) external {... */\n      pop\n      pop\n      pop\n      jump\t// out\n        /* \"fees.sol\":1095:1357  function calculateIntermediaryFee(uint amountUSDT, uint loyaltyLevel) internal pure returns (uint) {... */\n    tag_54:\n        /* \"fees.sol\":1188:1192  uint */\n      0x00\n        /* \"fees.sol\":1204:1216  uint baseFee */\n      dup1\n        /* \"fees.sol\":1224:1236  loyaltyLevel */\n      dup3\n        /* \"fees.sol\":1219:1221  10 */\n      0x0a\n        /* \"fees.sol\":1219:1236  10 - loyaltyLevel */\n      tag_65\n      swap2\n      swap1\n      tag_56\n      jump\t// in\n    tag_65:\n        /* \"fees.sol\":1204:1236  uint baseFee = 10 - loyaltyLevel */\n      swap1\n      pop\n        /* \"fees.sol\":1313:1316  100 */\n      0x64\n        /* \"fees.sol\":1302:1309  baseFee */\n      dup2\n        /* \"fees.sol\":1289:1299  amountUSDT */\n      dup6\n        /* \"fees.sol\":1289:1309  amountUSDT * baseFee */\n      tag_66\n      swap2\n      swap1\n      tag_67\n      jump\t// in\n    tag_66:\n        /* \"fees.sol\":1288:1316  (amountUSDT * baseFee) / 100 */\n      tag_68\n      swap2\n      swap1\n      tag_69\n      jump\t// in\n    tag_68:\n        /* \"fees.sol\":1281:1316  return (amountUSDT * baseFee) / 100 */\n      swap2\n      pop\n      pop\n        /* \"fees.sol\":1095:1357  function calculateIntermediaryFee(uint amountUSDT, uint loyaltyLevel) internal pure returns (uint) {... */\n      swap3\n      swap2\n      pop\n      pop\n      jump\t// out\n        /* \"#utility.yul\":88:205   */\n    tag_71:\n        /* \"#utility.yul\":197:198   */\n      0x00\n        /* \"#utility.yul\":194:195   */\n      dup1\n        /* \"#utility.yul\":187:199   */\n      revert\n        /* \"#utility.yul\":334:460   */\n    tag_73:\n        /* \"#utility.yul\":371:378   */\n      0x00\n        /* \"#utility.yul\":411:453   */\n      0xffffffffffffffffffffffffffffffffffffffff\n        /* \"#utility.yul\":404:409   */\n      dup3\n        /* \"#utility.yul\":400:454   */\n      and\n        /* \"#utility.yul\":389:454   */\n      swap1\n      pop\n        /* \"#utility.yul\":334:460   */\n      swap2\n      swap1\n      pop\n      jump\t// out\n        /* \"#utility.yul\":466:562   */\n    tag_74:\n        /* \"#utility.yul\":503:510   */\n      0x00\n        /* \"#utility.yul\":532:556   */\n      tag_99\n        /* \"#utility.yul\":550:555   */\n      dup3\n        /* \"#utility.yul\":532:556   */\n      tag_73\n      jump\t// in\n    tag_99:\n        /* \"#utility.yul\":521:556   */\n      swap1\n      pop\n        /* \"#utility.yul\":466:562   */\n      swap2\n      swap1\n      pop\n      jump\t// out\n        /* \"#utility.yul\":568:690   */\n    tag_75:\n        /* \"#utility.yul\":641:665   */\n      tag_101\n        /* \"#utility.yul\":659:664   */\n      dup2\n        /* \"#utility.yul\":641:665   */\n      tag_74\n      jump\t// in\n    tag_101:\n        /* \"#utility.yul\":634:639   */\n      dup2\n        /* \"#utility.yul\":631:666   */\n      eq\n        /* \"#utility.yul\":621:684   */\n      tag_102\n      jumpi\n        /* \"#utility.yul\":680:681   */\n      0x00\n        /* \"#utility.yul\":677:678   */\n      dup1\n        /* \"#utility.yul\":670:682   */\n      revert\n        /* \"#utility.yul\":621:684   */\n    tag_102:\n        /* \"#utility.yul\":568:690   */\n      pop\n      jump\t// out\n        /* \"#utility.yul\":696:835   */\n    tag_76:\n        /* \"#utility.yul\":742:747   */\n      0x00\n        /* \"#utility.yul\":780:786   */\n      dup2\n        /* \"#utility.yul\":767:787   */\n      calldataload\n        /* \"#utility.yul\":758:787   */\n      swap1\n      pop\n        /* \"#utility.yul\":796:829   */\n      tag_104\n        /* \"#utility.yul\":823:828   */\n      dup2\n        /* \"#utility.yul\":796:829   */\n      tag_75\n      jump\t// in\n    tag_104:\n        /* \"#utility.yul\":696:835   */\n      swap3\n      swap2\n      pop\n      pop\n      jump\t// out\n        /* \"#utility.yul\":841:918   */\n    tag_77:\n        /* \"#utility.yul\":878:885   */\n      0x00\n        /* \"#utility.yul\":907:912   */\n      dup2\n        /* \"#utility.yul\":896:912   */\n      swap1\n      pop\n        /* \"#utility.yul\":841:918   */\n      swap2\n      swap1\n      pop\n      jump\t// out\n        /* \"#utility.yul\":924:1046   */\n    tag_78:\n        /* \"#utility.yul\":997:1021   */\n      tag_107\n        /* \"#utility.yul\":1015:1020   */\n      dup2\n        /* \"#utility.yul\":997:1021   */\n      tag_77\n      jump\t// in\n    tag_107:\n        /* \"#utility.yul\":990:995   */\n      dup2\n        /* \"#utility.yul\":987:1022   */\n      eq\n        /* \"#utility.yul\":977:1040   */\n      tag_108\n      jumpi\n        /* \"#utility.yul\":1036:1037   */\n      0x00\n        /* \"#utility.yul\":1033:1034   */\n      dup1\n        /* \"#utility.yul\":1026:1038   */\n      revert\n        /* \"#utility.yul\":977:1040   */\n    tag_108:\n        /* \"#utility.yul\":924:1046   */\n      pop\n      jump\t// out\n        /* \"#utility.yul\":1052:1191   */\n    tag_79:\n        /* \"#utility.yul\":1098:1103   */\n      0x00\n        /* \"#utility.yul\":1136:1142   */\n      dup2\n        /* \"#utility.yul\":1123:1143   */\n      calldataload\n        /* \"#utility.yul\":1114:1143   */\n      swap1\n      pop\n        /* \"#utility.yul\":1152:1185   */\n      tag_110\n        /* \"#utility.yul\":1179:1184   */\n      dup2\n        /* \"#utility.yul\":1152:1185   */\n      tag_78\n      jump\t// in\n    tag_110:\n        /* \"#utility.yul\":1052:1191   */\n      swap3\n      swap2\n      pop\n      pop\n      jump\t// out\n        /* \"#utility.yul\":1197:1671   */\n    tag_13:\n        /* \"#utility.yul\":1265:1271   */\n      0x00\n        /* \"#utility.yul\":1273:1279   */\n      dup1\n        /* \"#utility.yul\":1322:1324   */\n      0x40\n        /* \"#utility.yul\":1310:1319   */\n      dup4\n        /* \"#utility.yul\":1301:1308   */\n      dup6\n        /* \"#utility.yul\":1297:1320   */\n      sub\n        /* \"#utility.yul\":1293:1325   */\n      slt\n        /* \"#utility.yul\":1290:1409   */\n      iszero\n      tag_112\n      jumpi\n        /* \"#utility.yul\":1328:1407   */\n      tag_113\n      tag_71\n      jump\t// in\n    tag_113:\n        /* \"#utility.yul\":1290:1409   */\n    tag_112:\n        /* \"#utility.yul\":1448:1449   */\n      0x00\n        /* \"#utility.yul\":1473:1526   */\n      tag_114\n        /* \"#utility.yul\":1518:1525   */\n      dup6\n        /* \"#utility.yul\":1509:1515   */\n      dup3\n        /* \"#utility.yul\":1498:1507   */\n      dup7\n        /* \"#utility.yul\":1494:1516   */\n      add\n        /* \"#utility.yul\":1473:1526   */\n      tag_76\n      jump\t// in\n    tag_114:\n        /* \"#utility.yul\":1463:1526   */\n      swap3\n      pop\n        /* \"#utility.yul\":1419:1536   */\n      pop\n        /* \"#utility.yul\":1575:1577   */\n      0x20\n        /* \"#utility.yul\":1601:1654   */\n      tag_115\n        /* \"#utility.yul\":1646:1653   */\n      dup6\n        /* \"#utility.yul\":1637:1643   */\n      dup3\n        /* \"#utility.yul\":1626:1635   */\n      dup7\n        /* \"#utility.yul\":1622:1644   */\n      add\n        /* \"#utility.yul\":1601:1654   */\n      tag_79\n      jump\t// in\n    tag_115:\n        /* \"#utility.yul\":1591:1654   */\n      swap2\n      pop\n        /* \"#utility.yul\":1546:1664   */\n      pop\n        /* \"#utility.yul\":1197:1671   */\n      swap3\n      pop\n      swap3\n      swap1\n      pop\n      jump\t// out\n        /* \"#utility.yul\":1677:2006   */\n    tag_17:\n        /* \"#utility.yul\":1736:1742   */\n      0x00\n        /* \"#utility.yul\":1785:1787   */\n      0x20\n        /* \"#utility.yul\":1773:1782   */\n      dup3\n        /* \"#utility.yul\":1764:1771   */\n      dup5\n        /* \"#utility.yul\":1760:1783   */\n      sub\n        /* \"#utility.yul\":1756:1788   */\n      slt\n        /* \"#utility.yul\":1753:1872   */\n      iszero\n      tag_117\n      jumpi\n        /* \"#utility.yul\":1791:1870   */\n      tag_118\n      tag_71\n      jump\t// in\n    tag_118:\n        /* \"#utility.yul\":1753:1872   */\n    tag_117:\n        /* \"#utility.yul\":1911:1912   */\n      0x00\n        /* \"#utility.yul\":1936:1989   */\n      tag_119\n        /* \"#utility.yul\":1981:1988   */\n      dup5\n        /* \"#utility.yul\":1972:1978   */\n      dup3\n        /* \"#utility.yul\":1961:1970   */\n      dup6\n        /* \"#utility.yul\":1957:1979   */\n      add\n        /* \"#utility.yul\":1936:1989   */\n      tag_76\n      jump\t// in\n    tag_119:\n        /* \"#utility.yul\":1926:1989   */\n      swap2\n      pop\n        /* \"#utility.yul\":1882:1999   */\n      pop\n        /* \"#utility.yul\":1677:2006   */\n      swap3\n      swap2\n      pop\n      pop\n      jump\t// out\n        /* \"#utility.yul\":2012:2130   */\n    tag_80:\n        /* \"#utility.yul\":2099:2123   */\n      tag_121\n        /* \"#utility.yul\":2117:2122   */\n      dup2\n        /* \"#utility.yul\":2099:2123   */\n      tag_77\n      jump\t// in\n    tag_121:\n        /* \"#utility.yul\":2094:2097   */\n      dup3\n        /* \"#utility.yul\":2087:2124   */\n      mstore\n        /* \"#utility.yul\":2012:2130   */\n      pop\n      pop\n      jump\t// out\n        /* \"#utility.yul\":2136:2358   */\n    tag_20:\n        /* \"#utility.yul\":2229:2233   */\n      0x00\n        /* \"#utility.yul\":2267:2269   */\n      0x20\n        /* \"#utility.yul\":2256:2265   */\n      dup3\n        /* \"#utility.yul\":2252:2270   */\n      add\n        /* \"#utility.yul\":2244:2270   */\n      swap1\n      pop\n        /* \"#utility.yul\":2280:2351   */\n      tag_123\n        /* \"#utility.yul\":2348:2349   */\n      0x00\n        /* \"#utility.yul\":2337:2346   */\n      dup4\n        /* \"#utility.yul\":2333:2350   */\n      add\n        /* \"#utility.yul\":2324:2330   */\n      dup5\n        /* \"#utility.yul\":2280:2351   */\n      tag_80\n      jump\t// in\n    tag_123:\n        /* \"#utility.yul\":2136:2358   */\n      swap3\n      swap2\n      pop\n      pop\n      jump\t// out\n        /* \"#utility.yul\":2364:2482   */\n    tag_81:\n        /* \"#utility.yul\":2451:2475   */\n      tag_125\n        /* \"#utility.yul\":2469:2474   */\n      dup2\n        /* \"#utility.yul\":2451:2475   */\n      tag_74\n      jump\t// in\n    tag_125:\n        /* \"#utility.yul\":2446:2449   */\n      dup3\n        /* \"#utility.yul\":2439:2476   */\n      mstore\n        /* \"#utility.yul\":2364:2482   */\n      pop\n      pop\n      jump\t// out\n        /* \"#utility.yul\":2488:2710   */\n    tag_24:\n        /* \"#utility.yul\":2581:2585   */\n      0x00\n        /* \"#utility.yul\":2619:2621   */\n      0x20\n        /* \"#utility.yul\":2608:2617   */\n      dup3\n        /* \"#utility.yul\":2604:2622   */\n      add\n        /* \"#utility.yul\":2596:2622   */\n      swap1\n      pop\n        /* \"#utility.yul\":2632:2703   */\n      tag_127\n        /* \"#utility.yul\":2700:2701   */\n      0x00\n        /* \"#utility.yul\":2689:2698   */\n      dup4\n        /* \"#utility.yul\":2685:2702   */\n      add\n        /* \"#utility.yul\":2676:2682   */\n      dup5\n        /* \"#utility.yul\":2632:2703   */\n      tag_81\n      jump\t// in\n    tag_127:\n        /* \"#utility.yul\":2488:2710   */\n      swap3\n      swap2\n      pop\n      pop\n      jump\t// out\n        /* \"#utility.yul\":2716:3335   */\n    tag_37:\n        /* \"#utility.yul\":2793:2799   */\n      0x00\n        /* \"#utility.yul\":2801:2807   */\n      dup1\n        /* \"#utility.yul\":2809:2815   */\n      0x00\n        /* \"#utility.yul\":2858:2860   */\n      0x60\n        /* \"#utility.yul\":2846:2855   */\n      dup5\n        /* \"#utility.yul\":2837:2844   */\n      dup7\n        /* \"#utility.yul\":2833:2856   */\n      sub\n        /* \"#utility.yul\":2829:2861   */\n      slt\n        /* \"#utility.yul\":2826:2945   */\n      iszero\n      tag_129\n      jumpi\n        /* \"#utility.yul\":2864:2943   */\n      tag_130\n      tag_71\n      jump\t// in\n    tag_130:\n        /* \"#utility.yul\":2826:2945   */\n    tag_129:\n        /* \"#utility.yul\":2984:2985   */\n      0x00\n        /* \"#utility.yul\":3009:3062   */\n      tag_131\n        /* \"#utility.yul\":3054:3061   */\n      dup7\n        /* \"#utility.yul\":3045:3051   */\n      dup3\n        /* \"#utility.yul\":3034:3043   */\n      dup8\n        /* \"#utility.yul\":3030:3052   */\n      add\n        /* \"#utility.yul\":3009:3062   */\n      tag_76\n      jump\t// in\n    tag_131:\n        /* \"#utility.yul\":2999:3062   */\n      swap4\n      pop\n        /* \"#utility.yul\":2955:3072   */\n      pop\n        /* \"#utility.yul\":3111:3113   */\n      0x20\n        /* \"#utility.yul\":3137:3190   */\n      tag_132\n        /* \"#utility.yul\":3182:3189   */\n      dup7\n        /* \"#utility.yul\":3173:3179   */\n      dup3\n        /* \"#utility.yul\":3162:3171   */\n      dup8\n        /* \"#utility.yul\":3158:3180   */\n      add\n        /* \"#utility.yul\":3137:3190   */\n      tag_76\n      jump\t// in\n    tag_132:\n        /* \"#utility.yul\":3127:3190   */\n      swap3\n      pop\n        /* \"#utility.yul\":3082:3200   */\n      pop\n        /* \"#utility.yul\":3239:3241   */\n      0x40\n        /* \"#utility.yul\":3265:3318   */\n      tag_133\n        /* \"#utility.yul\":3310:3317   */\n      dup7\n        /* \"#utility.yul\":3301:3307   */\n      dup3\n        /* \"#utility.yul\":3290:3299   */\n      dup8\n        /* \"#utility.yul\":3286:3308   */\n      add\n        /* \"#utility.yul\":3265:3318   */\n      tag_79\n      jump\t// in\n    tag_133:\n        /* \"#utility.yul\":3255:3318   */\n      swap2\n      pop\n        /* \"#utility.yul\":3210:3328   */\n      pop\n        /* \"#utility.yul\":2716:3335   */\n      swap3\n      pop\n      swap3\n      pop\n      swap3\n      jump\t// out\n        /* \"#utility.yul\":3341:3510   */\n    tag_82:\n        /* \"#utility.yul\":3425:3436   */\n      0x00\n        /* \"#utility.yul\":3459:3465   */\n      dup3\n        /* \"#utility.yul\":3454:3457   */\n      dup3\n        /* \"#utility.yul\":3447:3466   */\n      mstore\n        /* \"#utility.yul\":3499:3503   */\n      0x20\n        /* \"#utility.yul\":3494:3497   */\n      dup3\n        /* \"#utility.yul\":3490:3504   */\n      add\n        /* \"#utility.yul\":3475:3504   */\n      swap1\n      pop\n        /* \"#utility.yul\":3341:3510   */\n      swap3\n      swap2\n      pop\n      pop\n      jump\t// out\n        /* \"#utility.yul\":3516:3694   */\n    tag_83:\n        /* \"#utility.yul\":3656:3686   */\n      0x496e76616c696420696e7465726d656469617279206164647265737300000000\n        /* \"#utility.yul\":3652:3653   */\n      0x00\n        /* \"#utility.yul\":3644:3650   */\n      dup3\n        /* \"#utility.yul\":3640:3654   */\n      add\n        /* \"#utility.yul\":3633:3687   */\n      mstore\n        /* \"#utility.yul\":3516:3694   */\n      pop\n      jump\t// out\n        /* \"#utility.yul\":3700:4066   */\n    tag_84:\n        /* \"#utility.yul\":3842:3845   */\n      0x00\n        /* \"#utility.yul\":3863:3930   */\n      tag_137\n        /* \"#utility.yul\":3927:3929   */\n      0x1c\n        /* \"#utility.yul\":3922:3925   */\n      dup4\n        /* \"#utility.yul\":3863:3930   */\n      tag_82\n      jump\t// in\n    tag_137:\n        /* \"#utility.yul\":3856:3930   */\n      swap2\n      pop\n        /* \"#utility.yul\":3939:4032   */\n      tag_138\n        /* \"#utility.yul\":4028:4031   */\n      dup3\n        /* \"#utility.yul\":3939:4032   */\n      tag_83\n      jump\t// in\n    tag_138:\n        /* \"#utility.yul\":4057:4059   */\n      0x20\n        /* \"#utility.yul\":4052:4055   */\n      dup3\n        /* \"#utility.yul\":4048:4060   */\n      add\n        /* \"#utility.yul\":4041:4060   */\n      swap1\n      pop\n        /* \"#utility.yul\":3700:4066   */\n      swap2\n      swap1\n      pop\n      jump\t// out\n        /* \"#utility.yul\":4072:4491   */\n    tag_43:\n        /* \"#utility.yul\":4238:4242   */\n      0x00\n        /* \"#utility.yul\":4276:4278   */\n      0x20\n        /* \"#utility.yul\":4265:4274   */\n      dup3\n        /* \"#utility.yul\":4261:4279   */\n      add\n        /* \"#utility.yul\":4253:4279   */\n      swap1\n      pop\n        /* \"#utility.yul\":4325:4334   */\n      dup2\n        /* \"#utility.yul\":4319:4323   */\n      dup2\n        /* \"#utility.yul\":4315:4335   */\n      sub\n        /* \"#utility.yul\":4311:4312   */\n      0x00\n        /* \"#utility.yul\":4300:4309   */\n      dup4\n        /* \"#utility.yul\":4296:4313   */\n      add\n        /* \"#utility.yul\":4289:4336   */\n      mstore\n        /* \"#utility.yul\":4353:4484   */\n      tag_140\n        /* \"#utility.yul\":4479:4483   */\n      dup2\n        /* \"#utility.yul\":4353:4484   */\n      tag_84\n      jump\t// in\n    tag_140:\n        /* \"#utility.yul\":4345:4484   */\n      swap1\n      pop\n        /* \"#utility.yul\":4072:4491   */\n      swap2\n      swap1\n      pop\n      jump\t// out\n        /* \"#utility.yul\":4497:4668   */\n    tag_85:\n        /* \"#utility.yul\":4637:4660   */\n      0x496e76616c6964206c6f79616c7479206c6576656c0000000000000000000000\n        /* \"#utility.yul\":4633:4634   */\n      0x00\n        /* \"#utility.yul\":4625:4631   */\n      dup3\n        /* \"#utility.yul\":4621:4635   */\n      add\n        /* \"#utility.yul\":4614:4661   */\n      mstore\n        /* \"#utility.yul\":4497:4668   */\n      pop\n      jump\t// out\n        /* \"#utility.yul\":4674:5040   */\n    tag_86:\n        /* \"#utility.yul\":4816:4819   */\n      0x00\n        /* \"#utility.yul\":4837:4904   */\n      tag_143\n        /* \"#utility.yul\":4901:4903   */\n      0x15\n        /* \"#utility.yul\":4896:4899   */\n      dup4\n        /* \"#utility.yul\":4837:4904   */\n      tag_82\n      jump\t// in\n    tag_143:\n        /* \"#utility.yul\":4830:4904   */\n      swap2\n      pop\n        /* \"#utility.yul\":4913:5006   */\n      tag_144\n        /* \"#utility.yul\":5002:5005   */\n      dup3\n        /* \"#utility.yul\":4913:5006   */\n      tag_85\n      jump\t// in\n    tag_144:\n        /* \"#utility.yul\":5031:5033   */\n      0x20\n        /* \"#utility.yul\":5026:5029   */\n      dup3\n        /* \"#utility.yul\":5022:5034   */\n      add\n        /* \"#utility.yul\":5015:5034   */\n      swap1\n      pop\n        /* \"#utility.yul\":4674:5040   */\n      swap2\n      swap1\n      pop\n      jump\t// out\n        /* \"#utility.yul\":5046:5465   */\n    tag_48:\n        /* \"#utility.yul\":5212:5216   */\n      0x00\n        /* \"#utility.yul\":5250:5252   */\n      0x20\n        /* \"#utility.yul\":5239:5248   */\n      dup3\n        /* \"#utility.yul\":5235:5253   */\n      add\n        /* \"#utility.yul\":5227:5253   */\n      swap1\n      pop\n        /* \"#utility.yul\":5299:5308   */\n      dup2\n        /* \"#utility.yul\":5293:5297   */\n      dup2\n        /* \"#utility.yul\":5289:5309   */\n      sub\n        /* \"#utility.yul\":5285:5286   */\n      0x00\n        /* \"#utility.yul\":5274:5283   */\n      dup4\n        /* \"#utility.yul\":5270:5287   */\n      add\n        /* \"#utility.yul\":5263:5310   */\n      mstore\n        /* \"#utility.yul\":5327:5458   */\n      tag_146\n        /* \"#utility.yul\":5453:5457   */\n      dup2\n        /* \"#utility.yul\":5327:5458   */\n      tag_86\n      jump\t// in\n    tag_146:\n        /* \"#utility.yul\":5319:5458   */\n      swap1\n      pop\n        /* \"#utility.yul\":5046:5465   */\n      swap2\n      swap1\n      pop\n      jump\t// out\n        /* \"#utility.yul\":5471:5649   */\n    tag_87:\n        /* \"#utility.yul\":5611:5641   */\n      0x496e7465726d6564696172792061646472657373206e6f742073657400000000\n        /* \"#utility.yul\":5607:5608   */\n      0x00\n        /* \"#utility.yul\":5599:5605   */\n      dup3\n        /* \"#utility.yul\":5595:5609   */\n      add\n        /* \"#utility.yul\":5588:5642   */\n      mstore\n        /* \"#utility.yul\":5471:5649   */\n      pop\n      jump\t// out\n        /* \"#utility.yul\":5655:6021   */\n    tag_88:\n        /* \"#utility.yul\":5797:5800   */\n      0x00\n        /* \"#utility.yul\":5818:5885   */\n      tag_149\n        /* \"#utility.yul\":5882:5884   */\n      0x1c\n        /* \"#utility.yul\":5877:5880   */\n      dup4\n        /* \"#utility.yul\":5818:5885   */\n      tag_82\n      jump\t// in\n    tag_149:\n        /* \"#utility.yul\":5811:5885   */\n      swap2\n      pop\n        /* \"#utility.yul\":5894:5987   */\n      tag_150\n        /* \"#utility.yul\":5983:5986   */\n      dup3\n        /* \"#utility.yul\":5894:5987   */\n      tag_87\n      jump\t// in\n    tag_150:\n        /* \"#utility.yul\":6012:6014   */\n      0x20\n        /* \"#utility.yul\":6007:6010   */\n      dup3\n        /* \"#utility.yul\":6003:6015   */\n      add\n        /* \"#utility.yul\":5996:6015   */\n      swap1\n      pop\n        /* \"#utility.yul\":5655:6021   */\n      swap2\n      swap1\n      pop\n      jump\t// out\n        /* \"#utility.yul\":6027:6446   */\n    tag_52:\n        /* \"#utility.yul\":6193:6197   */\n      0x00\n        /* \"#utility.yul\":6231:6233   */\n      0x20\n        /* \"#utility.yul\":6220:6229   */\n      dup3\n        /* \"#utility.yul\":6216:6234   */\n      add\n        /* \"#utility.yul\":6208:6234   */\n      swap1\n      pop\n        /* \"#utility.yul\":6280:6289   */\n      dup2\n        /* \"#utility.yul\":6274:6278   */\n      dup2\n        /* \"#utility.yul\":6270:6290   */\n      sub\n        /* \"#utility.yul\":6266:6267   */\n      0x00\n        /* \"#utility.yul\":6255:6264   */\n      dup4\n        /* \"#utility.yul\":6251:6268   */\n      add\n        /* \"#utility.yul\":6244:6291   */\n      mstore\n        /* \"#utility.yul\":6308:6439   */\n      tag_152\n        /* \"#utility.yul\":6434:6438   */\n      dup2\n        /* \"#utility.yul\":6308:6439   */\n      tag_88\n      jump\t// in\n    tag_152:\n        /* \"#utility.yul\":6300:6439   */\n      swap1\n      pop\n        /* \"#utility.yul\":6027:6446   */\n      swap2\n      swap1\n      pop\n      jump\t// out\n        /* \"#utility.yul\":6452:6632   */\n    tag_89:\n        /* \"#utility.yul\":6500:6577   */\n      0x4e487b7100000000000000000000000000000000000000000000000000000000\n        /* \"#utility.yul\":6497:6498   */\n      0x00\n        /* \"#utility.yul\":6490:6578   */\n      mstore\n        /* \"#utility.yul\":6597:6601   */\n      0x11\n        /* \"#utility.yul\":6594:6595   */\n      0x04\n        /* \"#utility.yul\":6587:6602   */\n      mstore\n        /* \"#utility.yul\":6621:6625   */\n      0x24\n        /* \"#utility.yul\":6618:6619   */\n      0x00\n        /* \"#utility.yul\":6611:6626   */\n      revert\n        /* \"#utility.yul\":6638:6832   */\n    tag_56:\n        /* \"#utility.yul\":6678:6682   */\n      0x00\n        /* \"#utility.yul\":6698:6718   */\n      tag_155\n        /* \"#utility.yul\":6716:6717   */\n      dup3\n        /* \"#utility.yul\":6698:6718   */\n      tag_77\n      jump\t// in\n    tag_155:\n        /* \"#utility.yul\":6693:6718   */\n      swap2\n      pop\n        /* \"#utility.yul\":6732:6752   */\n      tag_156\n        /* \"#utility.yul\":6750:6751   */\n      dup4\n        /* \"#utility.yul\":6732:6752   */\n      tag_77\n      jump\t// in\n    tag_156:\n        /* \"#utility.yul\":6727:6752   */\n      swap3\n      pop\n        /* \"#utility.yul\":6776:6777   */\n      dup3\n        /* \"#utility.yul\":6773:6774   */\n      dup3\n        /* \"#utility.yul\":6769:6778   */\n      sub\n        /* \"#utility.yul\":6761:6778   */\n      swap1\n      pop\n        /* \"#utility.yul\":6800:6801   */\n      dup2\n        /* \"#utility.yul\":6794:6798   */\n      dup2\n        /* \"#utility.yul\":6791:6802   */\n      gt\n        /* \"#utility.yul\":6788:6825   */\n      iszero\n      tag_157\n      jumpi\n        /* \"#utility.yul\":6805:6823   */\n      tag_158\n      tag_89\n      jump\t// in\n    tag_158:\n        /* \"#utility.yul\":6788:6825   */\n    tag_157:\n        /* \"#utility.yul\":6638:6832   */\n      swap3\n      swap2\n      pop\n      pop\n      jump\t// out\n        /* \"#utility.yul\":6838:7029   */\n    tag_59:\n        /* \"#utility.yul\":6878:6881   */\n      0x00\n        /* \"#utility.yul\":6897:6917   */\n      tag_160\n        /* \"#utility.yul\":6915:6916   */\n      dup3\n        /* \"#utility.yul\":6897:6917   */\n      tag_77\n      jump\t// in\n    tag_160:\n        /* \"#utility.yul\":6892:6917   */\n      swap2\n      pop\n        /* \"#utility.yul\":6931:6951   */\n      tag_161\n        /* \"#utility.yul\":6949:6950   */\n      dup4\n        /* \"#utility.yul\":6931:6951   */\n      tag_77\n      jump\t// in\n    tag_161:\n        /* \"#utility.yul\":6926:6951   */\n      swap3\n      pop\n        /* \"#utility.yul\":6974:6975   */\n      dup3\n        /* \"#utility.yul\":6971:6972   */\n      dup3\n        /* \"#utility.yul\":6967:6976   */\n      add\n        /* \"#utility.yul\":6960:6976   */\n      swap1\n      pop\n        /* \"#utility.yul\":6995:6998   */\n      dup1\n        /* \"#utility.yul\":6992:6993   */\n      dup3\n        /* \"#utility.yul\":6989:6999   */\n      gt\n        /* \"#utility.yul\":6986:7022   */\n      iszero\n      tag_162\n      jumpi\n        /* \"#utility.yul\":7002:7020   */\n      tag_163\n      tag_89\n      jump\t// in\n    tag_163:\n        /* \"#utility.yul\":6986:7022   */\n    tag_162:\n        /* \"#utility.yul\":6838:7029   */\n      swap3\n      swap2\n      pop\n      pop\n      jump\t// out\n        /* \"#utility.yul\":7035:7189   */\n    tag_90:\n        /* \"#utility.yul\":7175:7181   */\n      0x5553445400000000000000000000000000000000000000000000000000000000\n        /* \"#utility.yul\":7171:7172   */\n      0x00\n        /* \"#utility.yul\":7163:7169   */\n      dup3\n        /* \"#utility.yul\":7159:7173   */\n      add\n        /* \"#utility.yul\":7152:7182   */\n      mstore\n        /* \"#utility.yul\":7035:7189   */\n      pop\n      jump\t// out\n        /* \"#utility.yul\":7195:7560   */\n    tag_91:\n        /* \"#utility.yul\":7337:7340   */\n      0x00\n        /* \"#utility.yul\":7358:7424   */\n      tag_166\n        /* \"#utility.yul\":7422:7423   */\n      0x04\n        /* \"#utility.yul\":7417:7420   */\n      dup4\n        /* \"#utility.yul\":7358:7424   */\n      tag_82\n      jump\t// in\n    tag_166:\n        /* \"#utility.yul\":7351:7424   */\n      swap2\n      pop\n        /* \"#utility.yul\":7433:7526   */\n      tag_167\n        /* \"#utility.yul\":7522:7525   */\n      dup3\n        /* \"#utility.yul\":7433:7526   */\n      tag_90\n      jump\t// in\n    tag_167:\n        /* \"#utility.yul\":7551:7553   */\n      0x20\n        /* \"#utility.yul\":7546:7549   */\n      dup3\n        /* \"#utility.yul\":7542:7554   */\n      add\n        /* \"#utility.yul\":7535:7554   */\n      swap1\n      pop\n        /* \"#utility.yul\":7195:7560   */\n      swap2\n      swap1\n      pop\n      jump\t// out\n        /* \"#utility.yul\":7566:8095   */\n    tag_62:\n        /* \"#utility.yul\":7760:7764   */\n      0x00\n        /* \"#utility.yul\":7798:7800   */\n      0x40\n        /* \"#utility.yul\":7787:7796   */\n      dup3\n        /* \"#utility.yul\":7783:7801   */\n      add\n        /* \"#utility.yul\":7775:7801   */\n      swap1\n      pop\n        /* \"#utility.yul\":7811:7882   */\n      tag_169\n        /* \"#utility.yul\":7879:7880   */\n      0x00\n        /* \"#utility.yul\":7868:7877   */\n      dup4\n        /* \"#utility.yul\":7864:7881   */\n      add\n        /* \"#utility.yul\":7855:7861   */\n      dup5\n        /* \"#utility.yul\":7811:7882   */\n      tag_80\n      jump\t// in\n    tag_169:\n        /* \"#utility.yul\":7929:7938   */\n      dup2\n        /* \"#utility.yul\":7923:7927   */\n      dup2\n        /* \"#utility.yul\":7919:7939   */\n      sub\n        /* \"#utility.yul\":7914:7916   */\n      0x20\n        /* \"#utility.yul\":7903:7912   */\n      dup4\n        /* \"#utility.yul\":7899:7917   */\n      add\n        /* \"#utility.yul\":7892:7940   */\n      mstore\n        /* \"#utility.yul\":7957:8088   */\n      tag_170\n        /* \"#utility.yul\":8083:8087   */\n      dup2\n        /* \"#utility.yul\":7957:8088   */\n      tag_91\n      jump\t// in\n    tag_170:\n        /* \"#utility.yul\":7949:8088   */\n      swap1\n      pop\n        /* \"#utility.yul\":7566:8095   */\n      swap3\n      swap2\n      pop\n      pop\n      jump\t// out\n        /* \"#utility.yul\":8101:8511   */\n    tag_67:\n        /* \"#utility.yul\":8141:8148   */\n      0x00\n        /* \"#utility.yul\":8164:8184   */\n      tag_172\n        /* \"#utility.yul\":8182:8183   */\n      dup3\n        /* \"#utility.yul\":8164:8184   */\n      tag_77\n      jump\t// in\n    tag_172:\n        /* \"#utility.yul\":8159:8184   */\n      swap2\n      pop\n        /* \"#utility.yul\":8198:8218   */\n      tag_173\n        /* \"#utility.yul\":8216:8217   */\n      dup4\n        /* \"#utility.yul\":8198:8218   */\n      tag_77\n      jump\t// in\n    tag_173:\n        /* \"#utility.yul\":8193:8218   */\n      swap3\n      pop\n        /* \"#utility.yul\":8253:8254   */\n      dup3\n        /* \"#utility.yul\":8250:8251   */\n      dup3\n        /* \"#utility.yul\":8246:8255   */\n      mul\n        /* \"#utility.yul\":8275:8305   */\n      tag_174\n        /* \"#utility.yul\":8293:8304   */\n      dup2\n        /* \"#utility.yul\":8275:8305   */\n      tag_77\n      jump\t// in\n    tag_174:\n        /* \"#utility.yul\":8264:8305   */\n      swap2\n      pop\n        /* \"#utility.yul\":8454:8455   */\n      dup3\n        /* \"#utility.yul\":8445:8452   */\n      dup3\n        /* \"#utility.yul\":8441:8456   */\n      div\n        /* \"#utility.yul\":8438:8439   */\n      dup5\n        /* \"#utility.yul\":8435:8457   */\n      eq\n        /* \"#utility.yul\":8415:8416   */\n      dup4\n        /* \"#utility.yul\":8408:8417   */\n      iszero\n        /* \"#utility.yul\":8388:8471   */\n      or\n        /* \"#utility.yul\":8365:8504   */\n      tag_175\n      jumpi\n        /* \"#utility.yul\":8484:8502   */\n      tag_176\n      tag_89\n      jump\t// in\n    tag_176:\n        /* \"#utility.yul\":8365:8504   */\n    tag_175:\n        /* \"#utility.yul\":8149:8511   */\n      pop\n        /* \"#utility.yul\":8101:8511   */\n      swap3\n      swap2\n      pop\n      pop\n      jump\t// out\n        /* \"#utility.yul\":8517:8697   */\n    tag_92:\n        /* \"#utility.yul\":8565:8642   */\n      0x4e487b7100000000000000000000000000000000000000000000000000000000\n        /* \"#utility.yul\":8562:8563   */\n      0x00\n        /* \"#utility.yul\":8555:8643   */\n      mstore\n        /* \"#utility.yul\":8662:8666   */\n      0x12\n        /* \"#utility.yul\":8659:8660   */\n      0x04\n        /* \"#utility.yul\":8652:8667   */\n      mstore\n        /* \"#utility.yul\":8686:8690   */\n      0x24\n        /* \"#utility.yul\":8683:8684   */\n      0x00\n        /* \"#utility.yul\":8676:8691   */\n      revert\n        /* \"#utility.yul\":8703:8888   */\n    tag_69:\n        /* \"#utility.yul\":8743:8744   */\n      0x00\n        /* \"#utility.yul\":8760:8780   */\n      tag_179\n        /* \"#utility.yul\":8778:8779   */\n      dup3\n        /* \"#utility.yul\":8760:8780   */\n      tag_77\n      jump\t// in\n    tag_179:\n        /* \"#utility.yul\":8755:8780   */\n      swap2\n      pop\n        /* \"#utility.yul\":8794:8814   */\n      tag_180\n        /* \"#utility.yul\":8812:8813   */\n      dup4\n        /* \"#utility.yul\":8794:8814   */\n      tag_77\n      jump\t// in\n    tag_180:\n        /* \"#utility.yul\":8789:8814   */\n      swap3\n      pop\n        /* \"#utility.yul\":8833:8834   */\n      dup3\n        /* \"#utility.yul\":8823:8858   */\n      tag_181\n      jumpi\n        /* \"#utility.yul\":8838:8856   */\n      tag_182\n      tag_92\n      jump\t// in\n    tag_182:\n        /* \"#utility.yul\":8823:8858   */\n    tag_181:\n        /* \"#utility.yul\":8880:8881   */\n      dup3\n        /* \"#utility.yul\":8877:8878   */\n      dup3\n        /* \"#utility.yul\":8873:8882   */\n      div\n        /* \"#utility.yul\":8868:8882   */\n      swap1\n      pop\n        /* \"#utility.yul\":8703:8888   */\n      swap3\n      swap2\n      pop\n      pop\n      jump\t// out\n\n    auxdata: 0xa264697066735822122027a6ef09755dea50e084e8bfabe7b34a564095f1b8d00315b85e96801d2292dc64736f6c63430008120033\n}\n",
				"bytecode": {
					"linkReferences": {},
					"object": "608060405234801561001057600080fd5b5073dac17f958d2ee523a2206206994597c13d831ec76000806101000a81548173ffffffffffffffffffffffffffffffffffffffff021916908373ffffffffffffffffffffffffffffffffffffffff160217905550610b83806100746000396000f3fe608060405234801561001057600080fd5b506004361061007d5760003560e01c8063854572b41161005b578063854572b4146100ec578063a61bab2f1461011c578063d1ef621d14610138578063ebbc9b32146101545761007d565b80630b34b5551461008257806356b89be41461009e57806379fd022e146100ce575b600080fd5b61009c60048036038101906100979190610731565b610170565b005b6100b860048036038101906100b39190610771565b6101b8565b6040516100c591906107ad565b60405180910390f35b6100d66101d0565b6040516100e391906107d7565b60405180910390f35b61010660048036038101906101019190610771565b6101f6565b60405161011391906107ad565b60405180910390f35b61013660048036038101906101319190610771565b61020e565b005b610152600480360381019061014d9190610731565b6102c1565b005b61016e600480360381019061016991906107f2565b61035a565b005b80600160008473ffffffffffffffffffffffffffffffffffffffff1673ffffffffffffffffffffffffffffffffffffffff168152602001908152602001600020819055505050565b60016020528060005260406000206000915090505481565b600360009054906101000a900473ffffffffffffffffffffffffffffffffffffffff1681565b60026020528060005260406000206000915090505481565b600073ffffffffffffffffffffffffffffffffffffffff168173ffffffffffffffffffffffffffffffffffffffff160361027d576040517f08c379a0000000000000000000000000000000000000000000000000000000008152600401610274906108a2565b60405180910390fd5b80600360006101000a81548173ffffffffffffffffffffffffffffffffffffffff021916908373ffffffffffffffffffffffffffffffffffffffff16021790555050565b600181101580156102d3575060058111155b610312576040517f08c379a00000000000000000000000000000000000000000000000000000000081526004016103099061090e565b60405180910390fd5b80600260008473ffffffffffffffffffffffffffffffffffffffff1673ffffffffffffffffffffffffffffffffffffffff168152602001908152602001600020819055505050565b600073ffffffffffffffffffffffffffffffffffffffff16600360009054906101000a900473ffffffffffffffffffffffffffffffffffffffff1673ffffffffffffffffffffffffffffffffffffffff16036103eb576040517f08c379a00000000000000000000000000000000000000000000000000000000081526004016103e29061097a565b60405180910390fd5b6000600260008573ffffffffffffffffffffffffffffffffffffffff1673ffffffffffffffffffffffffffffffffffffffff168152602001908152602001600020549050600061043b8383610665565b90506000818461044b91906109c9565b905083600160008873ffffffffffffffffffffffffffffffffffffffff1673ffffffffffffffffffffffffffffffffffffffff168152602001908152602001600020600082825461049c91906109c9565b925050819055508160016000600360009054906101000a900473ffffffffffffffffffffffffffffffffffffffff1673ffffffffffffffffffffffffffffffffffffffff1673ffffffffffffffffffffffffffffffffffffffff168152602001908152602001600020600082825461051491906109fd565b9250508190555080600160008773ffffffffffffffffffffffffffffffffffffffff1673ffffffffffffffffffffffffffffffffffffffff168152602001908152602001600020600082825461056a91906109fd565b925050819055508473ffffffffffffffffffffffffffffffffffffffff168673ffffffffffffffffffffffffffffffffffffffff167f7438b3ab3d18b29df7bf7fe592cc95dc9b3d321d1f880ad411f65b98df9bbd50866040516105ce9190610a7d565b60405180910390a3600360009054906101000a900473ffffffffffffffffffffffffffffffffffffffff1673ffffffffffffffffffffffffffffffffffffffff168673ffffffffffffffffffffffffffffffffffffffff167f7438b3ab3d18b29df7bf7fe592cc95dc9b3d321d1f880ad411f65b98df9bbd50846040516106559190610a7d565b60405180910390a3505050505050565b60008082600a61067591906109c9565b9050606481856106859190610aab565b61068f9190610b1c565b91505092915050565b600080fd5b600073ffffffffffffffffffffffffffffffffffffffff82169050919050565b60006106c88261069d565b9050919050565b6106d8816106bd565b81146106e357600080fd5b50565b6000813590506106f5816106cf565b92915050565b6000819050919050565b61070e816106fb565b811461071957600080fd5b50565b60008135905061072b81610705565b92915050565b6000806040838503121561074857610747610698565b5b6000610756858286016106e6565b92505060206107678582860161071c565b9150509250929050565b60006020828403121561078757610786610698565b5b6000610795848285016106e6565b91505092915050565b6107a7816106fb565b82525050565b60006020820190506107c2600083018461079e565b92915050565b6107d1816106bd565b82525050565b60006020820190506107ec60008301846107c8565b92915050565b60008060006060848603121561080b5761080a610698565b5b6000610819868287016106e6565b935050602061082a868287016106e6565b925050604061083b8682870161071c565b9150509250925092565b600082825260208201905092915050565b7f496e76616c696420696e7465726d656469617279206164647265737300000000600082015250565b600061088c601c83610845565b915061089782610856565b602082019050919050565b600060208201905081810360008301526108bb8161087f565b9050919050565b7f496e76616c6964206c6f79616c7479206c6576656c0000000000000000000000600082015250565b60006108f8601583610845565b9150610903826108c2565b602082019050919050565b60006020820190508181036000830152610927816108eb565b9050919050565b7f496e7465726d6564696172792061646472657373206e6f742073657400000000600082015250565b6000610964601c83610845565b915061096f8261092e565b602082019050919050565b6000602082019050818103600083015261099381610957565b9050919050565b7f4e487b7100000000000000000000000000000000000000000000000000000000600052601160045260246000fd5b60006109d4826106fb565b91506109df836106fb565b92508282039050818111156109f7576109f661099a565b5b92915050565b6000610a08826106fb565b9150610a13836106fb565b9250828201905080821115610a2b57610a2a61099a565b5b92915050565b7f5553445400000000000000000000000000000000000000000000000000000000600082015250565b6000610a67600483610845565b9150610a7282610a31565b602082019050919050565b6000604082019050610a92600083018461079e565b8181036020830152610aa381610a5a565b905092915050565b6000610ab6826106fb565b9150610ac1836106fb565b9250828202610acf816106fb565b91508282048414831517610ae657610ae561099a565b5b5092915050565b7f4e487b7100000000000000000000000000000000000000000000000000000000600052601260045260246000fd5b6000610b27826106fb565b9150610b32836106fb565b925082610b4257610b41610aed565b5b82820490509291505056fea264697066735822122027a6ef09755dea50e084e8bfabe7b34a564095f1b8d00315b85e96801d2292dc64736f6c63430008120033",
					"opcodes": "PUSH1 0x80 PUSH1 0x40 MSTORE CALLVALUE DUP1 ISZERO PUSH2 0x10 JUMPI PUSH1 0x0 DUP1 REVERT JUMPDEST POP PUSH20 0xDAC17F958D2EE523A2206206994597C13D831EC7 PUSH1 0x0 DUP1 PUSH2 0x100 EXP DUP2 SLOAD DUP2 PUSH20 0xFFFFFFFFFFFFFFFFFFFFFFFFFFFFFFFFFFFFFFFF MUL NOT AND SWAP1 DUP4 PUSH20 0xFFFFFFFFFFFFFFFFFFFFFFFFFFFFFFFFFFFFFFFF AND MUL OR SWAP1 SSTORE POP PUSH2 0xB83 DUP1 PUSH2 0x74 PUSH1 0x0 CODECOPY PUSH1 0x0 RETURN INVALID PUSH1 0x80 PUSH1 0x40 MSTORE CALLVALUE DUP1 ISZERO PUSH2 0x10 JUMPI PUSH1 0x0 DUP1 REVERT JUMPDEST POP PUSH1 0x4 CALLDATASIZE LT PUSH2 0x7D JUMPI PUSH1 0x0 CALLDATALOAD PUSH1 0xE0 SHR DUP1 PUSH4 0x854572B4 GT PUSH2 0x5B JUMPI DUP1 PUSH4 0x854572B4 EQ PUSH2 0xEC JUMPI DUP1 PUSH4 0xA61BAB2F EQ PUSH2 0x11C JUMPI DUP1 PUSH4 0xD1EF621D EQ PUSH2 0x138 JUMPI DUP1 PUSH4 0xEBBC9B32 EQ PUSH2 0x154 JUMPI PUSH2 0x7D JUMP JUMPDEST DUP1 PUSH4 0xB34B555 EQ PUSH2 0x82 JUMPI DUP1 PUSH4 0x56B89BE4 EQ PUSH2 0x9E JUMPI DUP1 PUSH4 0x79FD022E EQ PUSH2 0xCE JUMPI JUMPDEST PUSH1 0x0 DUP1 REVERT JUMPDEST PUSH2 0x9C PUSH1 0x4 DUP1 CALLDATASIZE SUB DUP2 ADD SWAP1 PUSH2 0x97 SWAP2 SWAP1 PUSH2 0x731 JUMP JUMPDEST PUSH2 0x170 JUMP JUMPDEST STOP JUMPDEST PUSH2 0xB8 PUSH1 0x4 DUP1 CALLDATASIZE SUB DUP2 ADD SWAP1 PUSH2 0xB3 SWAP2 SWAP1 PUSH2 0x771 JUMP JUMPDEST PUSH2 0x1B8 JUMP JUMPDEST PUSH1 0x40 MLOAD PUSH2 0xC5 SWAP2 SWAP1 PUSH2 0x7AD JUMP JUMPDEST PUSH1 0x40 MLOAD DUP1 SWAP2 SUB SWAP1 RETURN JUMPDEST PUSH2 0xD6 PUSH2 0x1D0 JUMP JUMPDEST PUSH1 0x40 MLOAD PUSH2 0xE3 SWAP2 SWAP1 PUSH2 0x7D7 JUMP JUMPDEST PUSH1 0x40 MLOAD DUP1 SWAP2 SUB SWAP1 RETURN JUMPDEST PUSH2 0x106 PUSH1 0x4 DUP1 CALLDATASIZE SUB DUP2 ADD SWAP1 PUSH2 0x101 SWAP2 SWAP1 PUSH2 0x771 JUMP JUMPDEST PUSH2 0x1F6 JUMP JUMPDEST PUSH1 0x40 MLOAD PUSH2 0x113 SWAP2 SWAP1 PUSH2 0x7AD JUMP JUMPDEST PUSH1 0x40 MLOAD DUP1 SWAP2 SUB SWAP1 RETURN JUMPDEST PUSH2 0x136 PUSH1 0x4 DUP1 CALLDATASIZE SUB DUP2 ADD SWAP1 PUSH2 0x131 SWAP2 SWAP1 PUSH2 0x771 JUMP JUMPDEST PUSH2 0x20E JUMP JUMPDEST STOP JUMPDEST PUSH2 0x152 PUSH1 0x4 DUP1 CALLDATASIZE SUB DUP2 ADD SWAP1 PUSH2 0x14D SWAP2 SWAP1 PUSH2 0x731 JUMP JUMPDEST PUSH2 0x2C1 JUMP JUMPDEST STOP JUMPDEST PUSH2 0x16E PUSH1 0x4 DUP1 CALLDATASIZE SUB DUP2 ADD SWAP1 PUSH2 0x169 SWAP2 SWAP1 PUSH2 0x7F2 JUMP JUMPDEST PUSH2 0x35A JUMP JUMPDEST STOP JUMPDEST DUP1 PUSH1 0x1 PUSH1 0x0 DUP5 PUSH20 0xFFFFFFFFFFFFFFFFFFFFFFFFFFFFFFFFFFFFFFFF AND PUSH20 0xFFFFFFFFFFFFFFFFFFFFFFFFFFFFFFFFFFFFFFFF AND DUP2 MSTORE PUSH1 0x20 ADD SWAP1 DUP2 MSTORE PUSH1 0x20 ADD PUSH1 0x0 KECCAK256 DUP2 SWAP1 SSTORE POP POP POP JUMP JUMPDEST PUSH1 0x1 PUSH1 0x20 MSTORE DUP1 PUSH1 0x0 MSTORE PUSH1 0x40 PUSH1 0x0 KECCAK256 PUSH1 0x0 SWAP2 POP SWAP1 POP SLOAD DUP2 JUMP JUMPDEST PUSH1 0x3 PUSH1 0x0 SWAP1 SLOAD SWAP1 PUSH2 0x100 EXP SWAP1 DIV PUSH20 0xFFFFFFFFFFFFFFFFFFFFFFFFFFFFFFFFFFFFFFFF AND DUP2 JUMP JUMPDEST PUSH1 0x2 PUSH1 0x20 MSTORE DUP1 PUSH1 0x0 MSTORE PUSH1 0x40 PUSH1 0x0 KECCAK256 PUSH1 0x0 SWAP2 POP SWAP1 POP SLOAD DUP2 JUMP JUMPDEST PUSH1 0x0 PUSH20 0xFFFFFFFFFFFFFFFFFFFFFFFFFFFFFFFFFFFFFFFF AND DUP2 PUSH20 0xFFFFFFFFFFFFFFFFFFFFFFFFFFFFFFFFFFFFFFFF AND SUB PUSH2 0x27D JUMPI PUSH1 0x40 MLOAD PUSH32 0x8C379A000000000000000000000000000000000000000000000000000000000 DUP2 MSTORE PUSH1 0x4 ADD PUSH2 0x274 SWAP1 PUSH2 0x8A2 JUMP JUMPDEST PUSH1 0x40 MLOAD DUP1 SWAP2 SUB SWAP1 REVERT JUMPDEST DUP1 PUSH1 0x3 PUSH1 0x0 PUSH2 0x100 EXP DUP2 SLOAD DUP2 PUSH20 0xFFFFFFFFFFFFFFFFFFFFFFFFFFFFFFFFFFFFFFFF MUL NOT AND SWAP1 DUP4 PUSH20 0xFFFFFFFFFFFFFFFFFFFFFFFFFFFFFFFFFFFFFFFF AND MUL OR SWAP1 SSTORE POP POP JUMP JUMPDEST PUSH1 0x1 DUP2 LT ISZERO DUP1 ISZERO PUSH2 0x2D3 JUMPI POP PUSH1 0x5 DUP2 GT ISZERO JUMPDEST PUSH2 0x312 JUMPI PUSH1 0x40 MLOAD PUSH32 0x8C379A000000000000000000000000000000000000000000000000000000000 DUP2 MSTORE PUSH1 0x4 ADD PUSH2 0x309 SWAP1 PUSH2 0x90E JUMP JUMPDEST PUSH1 0x40 MLOAD DUP1 SWAP2 SUB SWAP1 REVERT JUMPDEST DUP1 PUSH1 0x2 PUSH1 0x0 DUP5 PUSH20 0xFFFFFFFFFFFFFFFFFFFFFFFFFFFFFFFFFFFFFFFF AND PUSH20 0xFFFFFFFFFFFFFFFFFFFFFFFFFFFFFFFFFFFFFFFF AND DUP2 MSTORE PUSH1 0x20 ADD SWAP1 DUP2 MSTORE PUSH1 0x20 ADD PUSH1 0x0 KECCAK256 DUP2 SWAP1 SSTORE POP POP POP JUMP JUMPDEST PUSH1 0x0 PUSH20 0xFFFFFFFFFFFFFFFFFFFFFFFFFFFFFFFFFFFFFFFF AND PUSH1 0x3 PUSH1 0x0 SWAP1 SLOAD SWAP1 PUSH2 0x100 EXP SWAP1 DIV PUSH20 0xFFFFFFFFFFFFFFFFFFFFFFFFFFFFFFFFFFFFFFFF AND PUSH20 0xFFFFFFFFFFFFFFFFFFFFFFFFFFFFFFFFFFFFFFFF AND SUB PUSH2 0x3EB JUMPI PUSH1 0x40 MLOAD PUSH32 0x8C379A000000000000000000000000000000000000000000000000000000000 DUP2 MSTORE PUSH1 0x4 ADD PUSH2 0x3E2 SWAP1 PUSH2 0x97A JUMP JUMPDEST PUSH1 0x40 MLOAD DUP1 SWAP2 SUB SWAP1 REVERT JUMPDEST PUSH1 0x0 PUSH1 0x2 PUSH1 0x0 DUP6 PUSH20 0xFFFFFFFFFFFFFFFFFFFFFFFFFFFFFFFFFFFFFFFF AND PUSH20 0xFFFFFFFFFFFFFFFFFFFFFFFFFFFFFFFFFFFFFFFF AND DUP2 MSTORE PUSH1 0x20 ADD SWAP1 DUP2 MSTORE PUSH1 0x20 ADD PUSH1 0x0 KECCAK256 SLOAD SWAP1 POP PUSH1 0x0 PUSH2 0x43B DUP4 DUP4 PUSH2 0x665 JUMP JUMPDEST SWAP1 POP PUSH1 0x0 DUP2 DUP5 PUSH2 0x44B SWAP2 SWAP1 PUSH2 0x9C9 JUMP JUMPDEST SWAP1 POP DUP4 PUSH1 0x1 PUSH1 0x0 DUP9 PUSH20 0xFFFFFFFFFFFFFFFFFFFFFFFFFFFFFFFFFFFFFFFF AND PUSH20 0xFFFFFFFFFFFFFFFFFFFFFFFFFFFFFFFFFFFFFFFF AND DUP2 MSTORE PUSH1 0x20 ADD SWAP1 DUP2 MSTORE PUSH1 0x20 ADD PUSH1 0x0 KECCAK256 PUSH1 0x0 DUP3 DUP3 SLOAD PUSH2 0x49C SWAP2 SWAP1 PUSH2 0x9C9 JUMP JUMPDEST SWAP3 POP POP DUP2 SWAP1 SSTORE POP DUP2 PUSH1 0x1 PUSH1 0x0 PUSH1 0x3 PUSH1 0x0 SWAP1 SLOAD SWAP1 PUSH2 0x100 EXP SWAP1 DIV PUSH20 0xFFFFFFFFFFFFFFFFFFFFFFFFFFFFFFFFFFFFFFFF AND PUSH20 0xFFFFFFFFFFFFFFFFFFFFFFFFFFFFFFFFFFFFFFFF AND PUSH20 0xFFFFFFFFFFFFFFFFFFFFFFFFFFFFFFFFFFFFFFFF AND DUP2 MSTORE PUSH1 0x20 ADD SWAP1 DUP2 MSTORE PUSH1 0x20 ADD PUSH1 0x0 KECCAK256 PUSH1 0x0 DUP3 DUP3 SLOAD PUSH2 0x514 SWAP2 SWAP1 PUSH2 0x9FD JUMP JUMPDEST SWAP3 POP POP DUP2 SWAP1 SSTORE POP DUP1 PUSH1 0x1 PUSH1 0x0 DUP8 PUSH20 0xFFFFFFFFFFFFFFFFFFFFFFFFFFFFFFFFFFFFFFFF AND PUSH20 0xFFFFFFFFFFFFFFFFFFFFFFFFFFFFFFFFFFFFFFFF AND DUP2 MSTORE PUSH1 0x20 ADD SWAP1 DUP2 MSTORE PUSH1 0x20 ADD PUSH1 0x0 KECCAK256 PUSH1 0x0 DUP3 DUP3 SLOAD PUSH2 0x56A SWAP2 SWAP1 PUSH2 0x9FD JUMP JUMPDEST SWAP3 POP POP DUP2 SWAP1 SSTORE POP DUP5 PUSH20 0xFFFFFFFFFFFFFFFFFFFFFFFFFFFFFFFFFFFFFFFF AND DUP7 PUSH20 0xFFFFFFFFFFFFFFFFFFFFFFFFFFFFFFFFFFFFFFFF AND PUSH32 0x7438B3AB3D18B29DF7BF7FE592CC95DC9B3D321D1F880AD411F65B98DF9BBD50 DUP7 PUSH1 0x40 MLOAD PUSH2 0x5CE SWAP2 SWAP1 PUSH2 0xA7D JUMP JUMPDEST PUSH1 0x40 MLOAD DUP1 SWAP2 SUB SWAP1 LOG3 PUSH1 0x3 PUSH1 0x0 SWAP1 SLOAD SWAP1 PUSH2 0x100 EXP SWAP1 DIV PUSH20 0xFFFFFFFFFFFFFFFFFFFFFFFFFFFFFFFFFFFFFFFF AND PUSH20 0xFFFFFFFFFFFFFFFFFFFFFFFFFFFFFFFFFFFFFFFF AND DUP7 PUSH20 0xFFFFFFFFFFFFFFFFFFFFFFFFFFFFFFFFFFFFFFFF AND PUSH32 0x7438B3AB3D18B29DF7BF7FE592CC95DC9B3D321D1F880AD411F65B98DF9BBD50 DUP5 PUSH1 0x40 MLOAD PUSH2 0x655 SWAP2 SWAP1 PUSH2 0xA7D JUMP JUMPDEST PUSH1 0x40 MLOAD DUP1 SWAP2 SUB SWAP1 LOG3 POP POP POP POP POP POP JUMP JUMPDEST PUSH1 0x0 DUP1 DUP3 PUSH1 0xA PUSH2 0x675 SWAP2 SWAP1 PUSH2 0x9C9 JUMP JUMPDEST SWAP1 POP PUSH1 0x64 DUP2 DUP6 PUSH2 0x685 SWAP2 SWAP1 PUSH2 0xAAB JUMP JUMPDEST PUSH2 0x68F SWAP2 SWAP1 PUSH2 0xB1C JUMP JUMPDEST SWAP2 POP POP SWAP3 SWAP2 POP POP JUMP JUMPDEST PUSH1 0x0 DUP1 REVERT JUMPDEST PUSH1 0x0 PUSH20 0xFFFFFFFFFFFFFFFFFFFFFFFFFFFFFFFFFFFFFFFF DUP3 AND SWAP1 POP SWAP2 SWAP1 POP JUMP JUMPDEST PUSH1 0x0 PUSH2 0x6C8 DUP3 PUSH2 0x69D JUMP JUMPDEST SWAP1 POP SWAP2 SWAP1 POP JUMP JUMPDEST PUSH2 0x6D8 DUP2 PUSH2 0x6BD JUMP JUMPDEST DUP2 EQ PUSH2 0x6E3 JUMPI PUSH1 0x0 DUP1 REVERT JUMPDEST POP JUMP JUMPDEST PUSH1 0x0 DUP2 CALLDATALOAD SWAP1 POP PUSH2 0x6F5 DUP2 PUSH2 0x6CF JUMP JUMPDEST SWAP3 SWAP2 POP POP JUMP JUMPDEST PUSH1 0x0 DUP2 SWAP1 POP SWAP2 SWAP1 POP JUMP JUMPDEST PUSH2 0x70E DUP2 PUSH2 0x6FB JUMP JUMPDEST DUP2 EQ PUSH2 0x719 JUMPI PUSH1 0x0 DUP1 REVERT JUMPDEST POP JUMP JUMPDEST PUSH1 0x0 DUP2 CALLDATALOAD SWAP1 POP PUSH2 0x72B DUP2 PUSH2 0x705 JUMP JUMPDEST SWAP3 SWAP2 POP POP JUMP JUMPDEST PUSH1 0x0 DUP1 PUSH1 0x40 DUP4 DUP6 SUB SLT ISZERO PUSH2 0x748 JUMPI PUSH2 0x747 PUSH2 0x698 JUMP JUMPDEST JUMPDEST PUSH1 0x0 PUSH2 0x756 DUP6 DUP3 DUP7 ADD PUSH2 0x6E6 JUMP JUMPDEST SWAP3 POP POP PUSH1 0x20 PUSH2 0x767 DUP6 DUP3 DUP7 ADD PUSH2 0x71C JUMP JUMPDEST SWAP2 POP POP SWAP3 POP SWAP3 SWAP1 POP JUMP JUMPDEST PUSH1 0x0 PUSH1 0x20 DUP3 DUP5 SUB SLT ISZERO PUSH2 0x787 JUMPI PUSH2 0x786 PUSH2 0x698 JUMP JUMPDEST JUMPDEST PUSH1 0x0 PUSH2 0x795 DUP5 DUP3 DUP6 ADD PUSH2 0x6E6 JUMP JUMPDEST SWAP2 POP POP SWAP3 SWAP2 POP POP JUMP JUMPDEST PUSH2 0x7A7 DUP2 PUSH2 0x6FB JUMP JUMPDEST DUP3 MSTORE POP POP JUMP JUMPDEST PUSH1 0x0 PUSH1 0x20 DUP3 ADD SWAP1 POP PUSH2 0x7C2 PUSH1 0x0 DUP4 ADD DUP5 PUSH2 0x79E JUMP JUMPDEST SWAP3 SWAP2 POP POP JUMP JUMPDEST PUSH2 0x7D1 DUP2 PUSH2 0x6BD JUMP JUMPDEST DUP3 MSTORE POP POP JUMP JUMPDEST PUSH1 0x0 PUSH1 0x20 DUP3 ADD SWAP1 POP PUSH2 0x7EC PUSH1 0x0 DUP4 ADD DUP5 PUSH2 0x7C8 JUMP JUMPDEST SWAP3 SWAP2 POP POP JUMP JUMPDEST PUSH1 0x0 DUP1 PUSH1 0x0 PUSH1 0x60 DUP5 DUP7 SUB SLT ISZERO PUSH2 0x80B JUMPI PUSH2 0x80A PUSH2 0x698 JUMP JUMPDEST JUMPDEST PUSH1 0x0 PUSH2 0x819 DUP7 DUP3 DUP8 ADD PUSH2 0x6E6 JUMP JUMPDEST SWAP4 POP POP PUSH1 0x20 PUSH2 0x82A DUP7 DUP3 DUP8 ADD PUSH2 0x6E6 JUMP JUMPDEST SWAP3 POP POP PUSH1 0x40 PUSH2 0x83B DUP7 DUP3 DUP8 ADD PUSH2 0x71C JUMP JUMPDEST SWAP2 POP POP SWAP3 POP SWAP3 POP SWAP3 JUMP JUMPDEST PUSH1 0x0 DUP3 DUP3 MSTORE PUSH1 0x20 DUP3 ADD SWAP1 POP SWAP3 SWAP2 POP POP JUMP JUMPDEST PUSH32 0x496E76616C696420696E7465726D656469617279206164647265737300000000 PUSH1 0x0 DUP3 ADD MSTORE POP JUMP JUMPDEST PUSH1 0x0 PUSH2 0x88C PUSH1 0x1C DUP4 PUSH2 0x845 JUMP JUMPDEST SWAP2 POP PUSH2 0x897 DUP3 PUSH2 0x856 JUMP JUMPDEST PUSH1 0x20 DUP3 ADD SWAP1 POP SWAP2 SWAP1 POP JUMP JUMPDEST PUSH1 0x0 PUSH1 0x20 DUP3 ADD SWAP1 POP DUP2 DUP2 SUB PUSH1 0x0 DUP4 ADD MSTORE PUSH2 0x8BB DUP2 PUSH2 0x87F JUMP JUMPDEST SWAP1 POP SWAP2 SWAP1 POP JUMP JUMPDEST PUSH32 0x496E76616C6964206C6F79616C7479206C6576656C0000000000000000000000 PUSH1 0x0 DUP3 ADD MSTORE POP JUMP JUMPDEST PUSH1 0x0 PUSH2 0x8F8 PUSH1 0x15 DUP4 PUSH2 0x845 JUMP JUMPDEST SWAP2 POP PUSH2 0x903 DUP3 PUSH2 0x8C2 JUMP JUMPDEST PUSH1 0x20 DUP3 ADD SWAP1 POP SWAP2 SWAP1 POP JUMP JUMPDEST PUSH1 0x0 PUSH1 0x20 DUP3 ADD SWAP1 POP DUP2 DUP2 SUB PUSH1 0x0 DUP4 ADD MSTORE PUSH2 0x927 DUP2 PUSH2 0x8EB JUMP JUMPDEST SWAP1 POP SWAP2 SWAP1 POP JUMP JUMPDEST PUSH32 0x496E7465726D6564696172792061646472657373206E6F742073657400000000 PUSH1 0x0 DUP3 ADD MSTORE POP JUMP JUMPDEST PUSH1 0x0 PUSH2 0x964 PUSH1 0x1C DUP4 PUSH2 0x845 JUMP JUMPDEST SWAP2 POP PUSH2 0x96F DUP3 PUSH2 0x92E JUMP JUMPDEST PUSH1 0x20 DUP3 ADD SWAP1 POP SWAP2 SWAP1 POP JUMP JUMPDEST PUSH1 0x0 PUSH1 0x20 DUP3 ADD SWAP1 POP DUP2 DUP2 SUB PUSH1 0x0 DUP4 ADD MSTORE PUSH2 0x993 DUP2 PUSH2 0x957 JUMP JUMPDEST SWAP1 POP SWAP2 SWAP1 POP JUMP JUMPDEST PUSH32 0x4E487B7100000000000000000000000000000000000000000000000000000000 PUSH1 0x0 MSTORE PUSH1 0x11 PUSH1 0x4 MSTORE PUSH1 0x24 PUSH1 0x0 REVERT JUMPDEST PUSH1 0x0 PUSH2 0x9D4 DUP3 PUSH2 0x6FB JUMP JUMPDEST SWAP2 POP PUSH2 0x9DF DUP4 PUSH2 0x6FB JUMP JUMPDEST SWAP3 POP DUP3 DUP3 SUB SWAP1 POP DUP2 DUP2 GT ISZERO PUSH2 0x9F7 JUMPI PUSH2 0x9F6 PUSH2 0x99A JUMP JUMPDEST JUMPDEST SWAP3 SWAP2 POP POP JUMP JUMPDEST PUSH1 0x0 PUSH2 0xA08 DUP3 PUSH2 0x6FB JUMP JUMPDEST SWAP2 POP PUSH2 0xA13 DUP4 PUSH2 0x6FB JUMP JUMPDEST SWAP3 POP DUP3 DUP3 ADD SWAP1 POP DUP1 DUP3 GT ISZERO PUSH2 0xA2B JUMPI PUSH2 0xA2A PUSH2 0x99A JUMP JUMPDEST JUMPDEST SWAP3 SWAP2 POP POP JUMP JUMPDEST PUSH32 0x5553445400000000000000000000000000000000000000000000000000000000 PUSH1 0x0 DUP3 ADD MSTORE POP JUMP JUMPDEST PUSH1 0x0 PUSH2 0xA67 PUSH1 0x4 DUP4 PUSH2 0x845 JUMP JUMPDEST SWAP2 POP PUSH2 0xA72 DUP3 PUSH2 0xA31 JUMP JUMPDEST PUSH1 0x20 DUP3 ADD SWAP1 POP SWAP2 SWAP1 POP JUMP JUMPDEST PUSH1 0x0 PUSH1 0x40 DUP3 ADD SWAP1 POP PUSH2 0xA92 PUSH1 0x0 DUP4 ADD DUP5 PUSH2 0x79E JUMP JUMPDEST DUP2 DUP2 SUB PUSH1 0x20 DUP4 ADD MSTORE PUSH2 0xAA3 DUP2 PUSH2 0xA5A JUMP JUMPDEST SWAP1 POP SWAP3 SWAP2 POP POP JUMP JUMPDEST PUSH1 0x0 PUSH2 0xAB6 DUP3 PUSH2 0x6FB JUMP JUMPDEST SWAP2 POP PUSH2 0xAC1 DUP4 PUSH2 0x6FB JUMP JUMPDEST SWAP3 POP DUP3 DUP3 MUL PUSH2 0xACF DUP2 PUSH2 0x6FB JUMP JUMPDEST SWAP2 POP DUP3 DUP3 DIV DUP5 EQ DUP4 ISZERO OR PUSH2 0xAE6 JUMPI PUSH2 0xAE5 PUSH2 0x99A JUMP JUMPDEST JUMPDEST POP SWAP3 SWAP2 POP POP JUMP JUMPDEST PUSH32 0x4E487B7100000000000000000000000000000000000000000000000000000000 PUSH1 0x0 MSTORE PUSH1 0x12 PUSH1 0x4 MSTORE PUSH1 0x24 PUSH1 0x0 REVERT JUMPDEST PUSH1 0x0 PUSH2 0xB27 DUP3 PUSH2 0x6FB JUMP JUMPDEST SWAP2 POP PUSH2 0xB32 DUP4 PUSH2 0x6FB JUMP JUMPDEST SWAP3 POP DUP3 PUSH2 0xB42 JUMPI PUSH2 0xB41 PUSH2 0xAED JUMP JUMPDEST JUMPDEST DUP3 DUP3 DIV SWAP1 POP SWAP3 SWAP2 POP POP JUMP INVALID LOG2 PUSH5 0x6970667358 0x22 SLT KECCAK256 0x27 0xA6 0xEF MULMOD PUSH22 0x5DEA50E084E8BFABE7B34A564095F1B8D00315B85E96 DUP1 SAR 0x22 SWAP3 0xDC PUSH5 0x736F6C6343 STOP ADDMOD SLT STOP CALLER "
				},
				"gasEstimates": {
					"creation": {
						"codeDepositCost": "589400",
						"executionCost": "24892",
						"totalCost": "614292"
					},
					"external": {
						"balancesUSDT(address)": "2837",
						"intermediary()": "2559",
						"loyaltyLevels(address)": "2814",
						"payTrip(address,address,uint256)": "infinite",
						"setInitialBalance(address,uint256)": "22833",
						"setIntermediary(address)": "24779",
						"setLoyaltyLevel(address,uint256)": "22936"
					},
					"internal": {
						"calculateIntermediaryFee(uint256,uint256)": "infinite"
					}
				},
				"methodIdentifiers": {
					"balancesUSDT(address)": "56b89be4",
					"intermediary()": "79fd022e",
					"loyaltyLevels(address)": "854572b4",
					"payTrip(address,address,uint256)": "ebbc9b32",
					"setInitialBalance(address,uint256)": "0b34b555",
					"setIntermediary(address)": "a61bab2f",
					"setLoyaltyLevel(address,uint256)": "d1ef621d"
				}
			},
			"storageLayout": {
				"storage": [
					{
						"astId": 83,
						"contract": "fees.sol:PapiGo",
						"label": "tether",
						"offset": 0,
						"slot": "0",
						"type": "t_contract(IERC20)77"
					},
					{
						"astId": 87,
						"contract": "fees.sol:PapiGo",
						"label": "balancesUSDT",
						"offset": 0,
						"slot": "1",
						"type": "t_mapping(t_address,t_uint256)"
					},
					{
						"astId": 91,
						"contract": "fees.sol:PapiGo",
						"label": "loyaltyLevels",
						"offset": 0,
						"slot": "2",
						"type": "t_mapping(t_address,t_uint256)"
					},
					{
						"astId": 93,
						"contract": "fees.sol:PapiGo",
						"label": "intermediary",
						"offset": 0,
						"slot": "3",
						"type": "t_address"
					}
				],
				"types": {
					"t_address": {
						"encoding": "inplace",
						"label": "address",
						"numberOfBytes": "20"
					},
					"t_contract(IERC20)77": {
						"encoding": "inplace",
						"label": "contract IERC20",
						"numberOfBytes": "20"
					},
					"t_mapping(t_address,t_uint256)": {
						"encoding": "mapping",
						"key": "t_address",
						"label": "mapping(address => uint256)",
						"numberOfBytes": "32",
						"value": "t_uint256"
					},
					"t_uint256": {
						"encoding": "inplace",
						"label": "uint256",
						"numberOfBytes": "32"
					}
				}
			},
			"userdoc": {
				"kind": "user",
				"methods": {},
				"version": 1
			}
		}
	}
}