{
	"zefazef.sol": {
		"PaymentSystem": {
			"abi": [
				{
					"inputs": [],
					"stateMutability": "nonpayable",
					"type": "constructor"
				},
				{
					"anonymous": false,
					"inputs": [
						{
							"indexed": true,
							"internalType": "address",
							"name": "sender",
							"type": "address"
						},
						{
							"indexed": true,
							"internalType": "address",
							"name": "recipient",
							"type": "address"
						},
						{
							"indexed": false,
							"internalType": "uint256",
							"name": "amount",
							"type": "uint256"
						}
					],
					"name": "PaymentSent",
					"type": "event"
				},
				{
					"inputs": [
						{
							"internalType": "address",
							"name": "",
							"type": "address"
						}
					],
					"name": "driverBalances",
					"outputs": [
						{
							"internalType": "uint256",
							"name": "",
							"type": "uint256"
						}
					],
					"stateMutability": "view",
					"type": "function"
				},
				{
					"inputs": [
						{
							"internalType": "address",
							"name": "",
							"type": "address"
						}
					],
					"name": "riderBalances",
					"outputs": [
						{
							"internalType": "uint256",
							"name": "",
							"type": "uint256"
						}
					],
					"stateMutability": "view",
					"type": "function"
				},
				{
					"inputs": [
						{
							"internalType": "address",
							"name": "rider",
							"type": "address"
						},
						{
							"internalType": "address",
							"name": "driver",
							"type": "address"
						},
						{
							"internalType": "uint256",
							"name": "amount",
							"type": "uint256"
						}
					],
					"name": "sendPayment",
					"outputs": [],
					"stateMutability": "nonpayable",
					"type": "function"
				},
				{
					"inputs": [],
					"name": "tetherToken",
					"outputs": [
						{
							"internalType": "contract TetherToken",
							"name": "",
							"type": "address"
						}
					],
					"stateMutability": "view",
					"type": "function"
				}
			],
			"devdoc": {
				"kind": "dev",
				"methods": {},
				"version": 1
			},
			"evm": {
				"assembly": "    /* \"zefazef.sol\":239:1774  contract PaymentSystem {... */\n  mstore(0x40, 0x80)\n    /* \"zefazef.sol\":506:1231  constructor() {... */\n  callvalue\n  dup1\n  iszero\n  tag_1\n  jumpi\n  0x00\n  dup1\n  revert\ntag_1:\n  pop\n    /* \"zefazef.sol\":530:553  address[] memory riders */\n  0x00\n    /* \"zefazef.sol\":570:571  4 */\n  0x04\n    /* \"zefazef.sol\":556:572  new address[](4) */\n  0xffffffffffffffff\n  dup2\n  gt\n  iszero\n  tag_4\n  jumpi\n  tag_5\n  tag_6\n  jump\t// in\ntag_5:\ntag_4:\n  mload(0x40)\n  swap1\n  dup1\n  dup3\n  mstore\n  dup1\n  0x20\n  mul\n  0x20\n  add\n  dup3\n  add\n  0x40\n  mstore\n  dup1\n  iszero\n  tag_7\n  jumpi\n  dup2\n  0x20\n  add\n  0x20\n  dup3\n  mul\n  dup1\n  calldatasize\n  dup4\n  calldatacopy\n  dup1\n  dup3\n  add\n  swap2\n  pop\n  pop\n  swap1\n  pop\ntag_7:\n  pop\n    /* \"zefazef.sol\":530:572  address[] memory riders = new address[](4) */\n  swap1\n  pop\n    /* \"zefazef.sol\":602:644  0x04441E21Ae9818952623b2813464D8b632e6533E */\n  0x04441e21ae9818952623b2813464d8b632e6533e\n    /* \"zefazef.sol\":582:588  riders */\n  dup2\n    /* \"zefazef.sol\":589:590  0 */\n  0x00\n    /* \"zefazef.sol\":582:591  riders[0] */\n  dup2\n  mload\n  dup2\n  lt\n  tag_8\n  jumpi\n  tag_9\n  tag_10\n  jump\t// in\ntag_9:\ntag_8:\n  0x20\n  mul\n  0x20\n  add\n  add\n    /* \"zefazef.sol\":582:645  riders[0] = address(0x04441E21Ae9818952623b2813464D8b632e6533E) */\n  swap1\n  0xffffffffffffffffffffffffffffffffffffffff\n  and\n  swap1\n  dup2\n  0xffffffffffffffffffffffffffffffffffffffff\n  and\n  dup2\n  mstore\n  pop\n  pop\n    /* \"zefazef.sol\":675:717  0x39fA14737EB85B28E1C1156fB7208120A68Ea396 */\n  0x39fa14737eb85b28e1c1156fb7208120a68ea396\n    /* \"zefazef.sol\":655:661  riders */\n  dup2\n    /* \"zefazef.sol\":662:663  1 */\n  0x01\n    /* \"zefazef.sol\":655:664  riders[1] */\n  dup2\n  mload\n  dup2\n  lt\n  tag_11\n  jumpi\n  tag_12\n  tag_10\n  jump\t// in\ntag_12:\ntag_11:\n  0x20\n  mul\n  0x20\n  add\n  add\n    /* \"zefazef.sol\":655:718  riders[1] = address(0x39fA14737EB85B28E1C1156fB7208120A68Ea396) */\n  swap1\n  0xffffffffffffffffffffffffffffffffffffffff\n  and\n  swap1\n  dup2\n  0xffffffffffffffffffffffffffffffffffffffff\n  and\n  dup2\n  mstore\n  pop\n  pop\n    /* \"zefazef.sol\":748:790  0xdF4E7922D56Bfb8640bfA191f5AbEAF9897176E5 */\n  0xdf4e7922d56bfb8640bfa191f5abeaf9897176e5\n    /* \"zefazef.sol\":728:734  riders */\n  dup2\n    /* \"zefazef.sol\":735:736  2 */\n  0x02\n    /* \"zefazef.sol\":728:737  riders[2] */\n  dup2\n  mload\n  dup2\n  lt\n  tag_13\n  jumpi\n  tag_14\n  tag_10\n  jump\t// in\ntag_14:\ntag_13:\n  0x20\n  mul\n  0x20\n  add\n  add\n    /* \"zefazef.sol\":728:791  riders[2] = address(0xdF4E7922D56Bfb8640bfA191f5AbEAF9897176E5) */\n  swap1\n  0xffffffffffffffffffffffffffffffffffffffff\n  and\n  swap1\n  dup2\n  0xffffffffffffffffffffffffffffffffffffffff\n  and\n  dup2\n  mstore\n  pop\n  pop\n    /* \"zefazef.sol\":821:863  0x346c2FaFF7Fe62122Ff23dAB18e761cd315f5Ee9 */\n  0x346c2faff7fe62122ff23dab18e761cd315f5ee9\n    /* \"zefazef.sol\":801:807  riders */\n  dup2\n    /* \"zefazef.sol\":808:809  3 */\n  0x03\n    /* \"zefazef.sol\":801:810  riders[3] */\n  dup2\n  mload\n  dup2\n  lt\n  tag_15\n  jumpi\n  tag_16\n  tag_10\n  jump\t// in\ntag_16:\ntag_15:\n  0x20\n  mul\n  0x20\n  add\n  add\n    /* \"zefazef.sol\":801:864  riders[3] = address(0x346c2FaFF7Fe62122Ff23dAB18e761cd315f5Ee9) */\n  swap1\n  0xffffffffffffffffffffffffffffffffffffffff\n  and\n  swap1\n  dup2\n  0xffffffffffffffffffffffffffffffffffffffff\n  and\n  dup2\n  mstore\n  pop\n  pop\n    /* \"zefazef.sol\":875:902  uint256 initialRiderBalance */\n  0x00\n    /* \"zefazef.sol\":905:915  1000 ether */\n  0x3635c9adc5dea00000\n    /* \"zefazef.sol\":875:915  uint256 initialRiderBalance = 1000 ether */\n  swap1\n  pop\n    /* \"zefazef.sol\":925:953  uint256 initialDriverBalance */\n  0x00\n    /* \"zefazef.sol\":973:982  uint256 i */\n  dup1\n    /* \"zefazef.sol\":968:1145  for (uint256 i = 0; i < riders.length; i++) {... */\ntag_17:\n    /* \"zefazef.sol\":992:998  riders */\n  dup4\n    /* \"zefazef.sol\":992:1005  riders.length */\n  mload\n    /* \"zefazef.sol\":988:989  i */\n  dup2\n    /* \"zefazef.sol\":988:1005  i < riders.length */\n  lt\n    /* \"zefazef.sol\":968:1145  for (uint256 i = 0; i < riders.length; i++) {... */\n  iszero\n  tag_18\n  jumpi\n    /* \"zefazef.sol\":1053:1072  initialRiderBalance */\n  dup3\n    /* \"zefazef.sol\":1026:1039  riderBalances */\n  0x00\n    /* \"zefazef.sol\":1026:1050  riderBalances[riders[i]] */\n  dup1\n    /* \"zefazef.sol\":1040:1046  riders */\n  dup7\n    /* \"zefazef.sol\":1047:1048  i */\n  dup5\n    /* \"zefazef.sol\":1040:1049  riders[i] */\n  dup2\n  mload\n  dup2\n  lt\n  tag_20\n  jumpi\n  tag_21\n  tag_10\n  jump\t// in\ntag_21:\ntag_20:\n  0x20\n  mul\n  0x20\n  add\n  add\n  mload\n    /* \"zefazef.sol\":1026:1050  riderBalances[riders[i]] */\n  0xffffffffffffffffffffffffffffffffffffffff\n  and\n  0xffffffffffffffffffffffffffffffffffffffff\n  and\n  dup2\n  mstore\n  0x20\n  add\n  swap1\n  dup2\n  mstore\n  0x20\n  add\n  0x00\n  keccak256\n    /* \"zefazef.sol\":1026:1072  riderBalances[riders[i]] = initialRiderBalance */\n  dup2\n  swap1\n  sstore\n  pop\n    /* \"zefazef.sol\":1114:1134  initialDriverBalance */\n  dup2\n    /* \"zefazef.sol\":1086:1100  driverBalances */\n  0x01\n    /* \"zefazef.sol\":1086:1111  driverBalances[riders[i]] */\n  0x00\n    /* \"zefazef.sol\":1101:1107  riders */\n  dup7\n    /* \"zefazef.sol\":1108:1109  i */\n  dup5\n    /* \"zefazef.sol\":1101:1110  riders[i] */\n  dup2\n  mload\n  dup2\n  lt\n  tag_22\n  jumpi\n  tag_23\n  tag_10\n  jump\t// in\ntag_23:\ntag_22:\n  0x20\n  mul\n  0x20\n  add\n  add\n  mload\n    /* \"zefazef.sol\":1086:1111  driverBalances[riders[i]] */\n  0xffffffffffffffffffffffffffffffffffffffff\n  and\n  0xffffffffffffffffffffffffffffffffffffffff\n  and\n  dup2\n  mstore\n  0x20\n  add\n  swap1\n  dup2\n  mstore\n  0x20\n  add\n  0x00\n  keccak256\n    /* \"zefazef.sol\":1086:1134  driverBalances[riders[i]] = initialDriverBalance */\n  dup2\n  swap1\n  sstore\n  pop\n    /* \"zefazef.sol\":1007:1010  i++ */\n  dup1\n  dup1\n  tag_24\n  swap1\n  tag_25\n  jump\t// in\ntag_24:\n  swap2\n  pop\n  pop\n    /* \"zefazef.sol\":968:1145  for (uint256 i = 0; i < riders.length; i++) {... */\n  jump(tag_17)\ntag_18:\n  pop\n    /* \"zefazef.sol\":1181:1223  0xdAC17F958D2ee523a2206206994597C13D831ec7 */\n  0xdac17f958d2ee523a2206206994597c13d831ec7\n    /* \"zefazef.sol\":1155:1166  tetherToken */\n  0x02\n  0x00\n    /* \"zefazef.sol\":1155:1224  tetherToken = TetherToken(0xdAC17F958D2ee523a2206206994597C13D831ec7) */\n  0x0100\n  exp\n  dup2\n  sload\n  dup2\n  0xffffffffffffffffffffffffffffffffffffffff\n  mul\n  not\n  and\n  swap1\n  dup4\n  0xffffffffffffffffffffffffffffffffffffffff\n  and\n  mul\n  or\n  swap1\n  sstore\n  pop\n    /* \"zefazef.sol\":520:1231  {... */\n  pop\n  pop\n  pop\n    /* \"zefazef.sol\":239:1774  contract PaymentSystem {... */\n  jump(tag_26)\n    /* \"#utility.yul\":7:187   */\ntag_6:\n    /* \"#utility.yul\":55:132   */\n  0x4e487b7100000000000000000000000000000000000000000000000000000000\n    /* \"#utility.yul\":52:53   */\n  0x00\n    /* \"#utility.yul\":45:133   */\n  mstore\n    /* \"#utility.yul\":152:156   */\n  0x41\n    /* \"#utility.yul\":149:150   */\n  0x04\n    /* \"#utility.yul\":142:157   */\n  mstore\n    /* \"#utility.yul\":176:180   */\n  0x24\n    /* \"#utility.yul\":173:174   */\n  0x00\n    /* \"#utility.yul\":166:181   */\n  revert\n    /* \"#utility.yul\":193:373   */\ntag_10:\n    /* \"#utility.yul\":241:318   */\n  0x4e487b7100000000000000000000000000000000000000000000000000000000\n    /* \"#utility.yul\":238:239   */\n  0x00\n    /* \"#utility.yul\":231:319   */\n  mstore\n    /* \"#utility.yul\":338:342   */\n  0x32\n    /* \"#utility.yul\":335:336   */\n  0x04\n    /* \"#utility.yul\":328:343   */\n  mstore\n    /* \"#utility.yul\":362:366   */\n  0x24\n    /* \"#utility.yul\":359:360   */\n  0x00\n    /* \"#utility.yul\":352:367   */\n  revert\n    /* \"#utility.yul\":379:559   */\ntag_27:\n    /* \"#utility.yul\":427:504   */\n  0x4e487b7100000000000000000000000000000000000000000000000000000000\n    /* \"#utility.yul\":424:425   */\n  0x00\n    /* \"#utility.yul\":417:505   */\n  mstore\n    /* \"#utility.yul\":524:528   */\n  0x11\n    /* \"#utility.yul\":521:522   */\n  0x04\n    /* \"#utility.yul\":514:529   */\n  mstore\n    /* \"#utility.yul\":548:552   */\n  0x24\n    /* \"#utility.yul\":545:546   */\n  0x00\n    /* \"#utility.yul\":538:553   */\n  revert\n    /* \"#utility.yul\":565:642   */\ntag_28:\n    /* \"#utility.yul\":602:609   */\n  0x00\n    /* \"#utility.yul\":631:636   */\n  dup2\n    /* \"#utility.yul\":620:636   */\n  swap1\n  pop\n    /* \"#utility.yul\":565:642   */\n  swap2\n  swap1\n  pop\n  jump\t// out\n    /* \"#utility.yul\":648:881   */\ntag_25:\n    /* \"#utility.yul\":687:690   */\n  0x00\n    /* \"#utility.yul\":710:734   */\n  tag_35\n    /* \"#utility.yul\":728:733   */\n  dup3\n    /* \"#utility.yul\":710:734   */\n  tag_28\n  jump\t// in\ntag_35:\n    /* \"#utility.yul\":701:734   */\n  swap2\n  pop\n    /* \"#utility.yul\":756:822   */\n  0xffffffffffffffffffffffffffffffffffffffffffffffffffffffffffffffff\n    /* \"#utility.yul\":749:754   */\n  dup3\n    /* \"#utility.yul\":746:823   */\n  sub\n    /* \"#utility.yul\":743:846   */\n  tag_36\n  jumpi\n    /* \"#utility.yul\":826:844   */\n  tag_37\n  tag_27\n  jump\t// in\ntag_37:\n    /* \"#utility.yul\":743:846   */\ntag_36:\n    /* \"#utility.yul\":873:874   */\n  0x01\n    /* \"#utility.yul\":866:871   */\n  dup3\n    /* \"#utility.yul\":862:875   */\n  add\n    /* \"#utility.yul\":855:875   */\n  swap1\n  pop\n    /* \"#utility.yul\":648:881   */\n  swap2\n  swap1\n  pop\n  jump\t// out\n    /* \"zefazef.sol\":239:1774  contract PaymentSystem {... */\ntag_26:\n  dataSize(sub_0)\n  dup1\n  dataOffset(sub_0)\n  0x00\n  codecopy\n  0x00\n  return\nstop\n\nsub_0: assembly {\n        /* \"zefazef.sol\":239:1774  contract PaymentSystem {... */\n      mstore(0x40, 0x80)\n      callvalue\n      dup1\n      iszero\n      tag_1\n      jumpi\n      0x00\n      dup1\n      revert\n    tag_1:\n      pop\n      jumpi(tag_2, lt(calldatasize, 0x04))\n      shr(0xe0, calldataload(0x00))\n      dup1\n      0x395801e7\n      eq\n      tag_3\n      jumpi\n      dup1\n      0xbd076e6b\n      eq\n      tag_4\n      jumpi\n      dup1\n      0xc2993eee\n      eq\n      tag_5\n      jumpi\n      dup1\n      0xc53735a3\n      eq\n      tag_6\n      jumpi\n    tag_2:\n      0x00\n      dup1\n      revert\n        /* \"zefazef.sol\":1237:1772  function sendPayment(address rider, address driver, uint256 amount) external {... */\n    tag_3:\n      tag_7\n      0x04\n      dup1\n      calldatasize\n      sub\n      dup2\n      add\n      swap1\n      tag_8\n      swap2\n      swap1\n      tag_9\n      jump\t// in\n    tag_8:\n      tag_10\n      jump\t// in\n    tag_7:\n      stop\n        /* \"zefazef.sol\":469:499  TetherToken public tetherToken */\n    tag_4:\n      tag_11\n      tag_12\n      jump\t// in\n    tag_11:\n      mload(0x40)\n      tag_13\n      swap2\n      swap1\n      tag_14\n      jump\t// in\n    tag_13:\n      mload(0x40)\n      dup1\n      swap2\n      sub\n      swap1\n      return\n        /* \"zefazef.sol\":268:316  mapping(address => uint256) public riderBalances */\n    tag_5:\n      tag_15\n      0x04\n      dup1\n      calldatasize\n      sub\n      dup2\n      add\n      swap1\n      tag_16\n      swap2\n      swap1\n      tag_17\n      jump\t// in\n    tag_16:\n      tag_18\n      jump\t// in\n    tag_15:\n      mload(0x40)\n      tag_19\n      swap2\n      swap1\n      tag_20\n      jump\t// in\n    tag_19:\n      mload(0x40)\n      dup1\n      swap2\n      sub\n      swap1\n      return\n        /* \"zefazef.sol\":322:371  mapping(address => uint256) public driverBalances */\n    tag_6:\n      tag_21\n      0x04\n      dup1\n      calldatasize\n      sub\n      dup2\n      add\n      swap1\n      tag_22\n      swap2\n      swap1\n      tag_17\n      jump\t// in\n    tag_22:\n      tag_23\n      jump\t// in\n    tag_21:\n      mload(0x40)\n      tag_24\n      swap2\n      swap1\n      tag_20\n      jump\t// in\n    tag_24:\n      mload(0x40)\n      dup1\n      swap2\n      sub\n      swap1\n      return\n        /* \"zefazef.sol\":1237:1772  function sendPayment(address rider, address driver, uint256 amount) external {... */\n    tag_10:\n        /* \"zefazef.sol\":1341:1342  0 */\n      0x00\n        /* \"zefazef.sol\":1332:1338  amount */\n      dup2\n        /* \"zefazef.sol\":1332:1342  amount > 0 */\n      gt\n        /* \"zefazef.sol\":1324:1379  require(amount > 0, \"Amount must be greater than zero\") */\n      tag_26\n      jumpi\n      mload(0x40)\n      0x08c379a000000000000000000000000000000000000000000000000000000000\n      dup2\n      mstore\n      0x04\n      add\n      tag_27\n      swap1\n      tag_28\n      jump\t// in\n    tag_27:\n      mload(0x40)\n      dup1\n      swap2\n      sub\n      swap1\n      revert\n    tag_26:\n        /* \"zefazef.sol\":1421:1427  amount */\n      dup1\n        /* \"zefazef.sol\":1397:1410  riderBalances */\n      0x00\n        /* \"zefazef.sol\":1397:1417  riderBalances[rider] */\n      dup1\n        /* \"zefazef.sol\":1411:1416  rider */\n      dup6\n        /* \"zefazef.sol\":1397:1417  riderBalances[rider] */\n      0xffffffffffffffffffffffffffffffffffffffff\n      and\n      0xffffffffffffffffffffffffffffffffffffffff\n      and\n      dup2\n      mstore\n      0x20\n      add\n      swap1\n      dup2\n      mstore\n      0x20\n      add\n      0x00\n      keccak256\n      sload\n        /* \"zefazef.sol\":1397:1427  riderBalances[rider] >= amount */\n      lt\n      iszero\n        /* \"zefazef.sol\":1389:1452  require(riderBalances[rider] >= amount, \"Insufficient balance\") */\n      tag_29\n      jumpi\n      mload(0x40)\n      0x08c379a000000000000000000000000000000000000000000000000000000000\n      dup2\n      mstore\n      0x04\n      add\n      tag_30\n      swap1\n      tag_31\n      jump\t// in\n    tag_30:\n      mload(0x40)\n      dup1\n      swap2\n      sub\n      swap1\n      revert\n    tag_29:\n        /* \"zefazef.sol\":1530:1542  bool success */\n      0x00\n        /* \"zefazef.sol\":1545:1556  tetherToken */\n      0x02\n      0x00\n      swap1\n      sload\n      swap1\n      0x0100\n      exp\n      swap1\n      div\n      0xffffffffffffffffffffffffffffffffffffffff\n      and\n        /* \"zefazef.sol\":1545:1565  tetherToken.transfer */\n      0xffffffffffffffffffffffffffffffffffffffff\n      and\n      0xa9059cbb\n        /* \"zefazef.sol\":1566:1572  driver */\n      dup5\n        /* \"zefazef.sol\":1574:1580  amount */\n      dup5\n        /* \"zefazef.sol\":1545:1581  tetherToken.transfer(driver, amount) */\n      mload(0x40)\n      dup4\n      0xffffffff\n      and\n      0xe0\n      shl\n      dup2\n      mstore\n      0x04\n      add\n      tag_32\n      swap3\n      swap2\n      swap1\n      tag_33\n      jump\t// in\n    tag_32:\n      0x20\n      mload(0x40)\n      dup1\n      dup4\n      sub\n      dup2\n      0x00\n      dup8\n      gas\n      call\n      iszero\n      dup1\n      iszero\n      tag_35\n      jumpi\n      returndatasize\n      0x00\n      dup1\n      returndatacopy\n      revert(0x00, returndatasize)\n    tag_35:\n      pop\n      pop\n      pop\n      pop\n      mload(0x40)\n      returndatasize\n      not(0x1f)\n      0x1f\n      dup3\n      add\n      and\n      dup3\n      add\n      dup1\n      0x40\n      mstore\n      pop\n      dup2\n      add\n      swap1\n      tag_36\n      swap2\n      swap1\n      tag_37\n      jump\t// in\n    tag_36:\n        /* \"zefazef.sol\":1530:1581  bool success = tetherToken.transfer(driver, amount) */\n      swap1\n      pop\n        /* \"zefazef.sol\":1599:1606  success */\n      dup1\n        /* \"zefazef.sol\":1591:1632  require(success, \"Token transfer failed\") */\n      tag_38\n      jumpi\n      mload(0x40)\n      0x08c379a000000000000000000000000000000000000000000000000000000000\n      dup2\n      mstore\n      0x04\n      add\n      tag_39\n      swap1\n      tag_40\n      jump\t// in\n    tag_39:\n      mload(0x40)\n      dup1\n      swap2\n      sub\n      swap1\n      revert\n    tag_38:\n        /* \"zefazef.sol\":1667:1673  amount */\n      dup2\n        /* \"zefazef.sol\":1643:1656  riderBalances */\n      0x00\n        /* \"zefazef.sol\":1643:1663  riderBalances[rider] */\n      dup1\n        /* \"zefazef.sol\":1657:1662  rider */\n      dup7\n        /* \"zefazef.sol\":1643:1663  riderBalances[rider] */\n      0xffffffffffffffffffffffffffffffffffffffff\n      and\n      0xffffffffffffffffffffffffffffffffffffffff\n      and\n      dup2\n      mstore\n      0x20\n      add\n      swap1\n      dup2\n      mstore\n      0x20\n      add\n      0x00\n      keccak256\n      0x00\n        /* \"zefazef.sol\":1643:1673  riderBalances[rider] -= amount */\n      dup3\n      dup3\n      sload\n      tag_41\n      swap2\n      swap1\n      tag_42\n      jump\t// in\n    tag_41:\n      swap3\n      pop\n      pop\n      dup2\n      swap1\n      sstore\n      pop\n        /* \"zefazef.sol\":1709:1715  amount */\n      dup2\n        /* \"zefazef.sol\":1683:1697  driverBalances */\n      0x01\n        /* \"zefazef.sol\":1683:1705  driverBalances[driver] */\n      0x00\n        /* \"zefazef.sol\":1698:1704  driver */\n      dup6\n        /* \"zefazef.sol\":1683:1705  driverBalances[driver] */\n      0xffffffffffffffffffffffffffffffffffffffff\n      and\n      0xffffffffffffffffffffffffffffffffffffffff\n      and\n      dup2\n      mstore\n      0x20\n      add\n      swap1\n      dup2\n      mstore\n      0x20\n      add\n      0x00\n      keccak256\n      0x00\n        /* \"zefazef.sol\":1683:1715  driverBalances[driver] += amount */\n      dup3\n      dup3\n      sload\n      tag_43\n      swap2\n      swap1\n      tag_44\n      jump\t// in\n    tag_43:\n      swap3\n      pop\n      pop\n      dup2\n      swap1\n      sstore\n      pop\n        /* \"zefazef.sol\":1750:1756  driver */\n      dup3\n        /* \"zefazef.sol\":1731:1765  PaymentSent(rider, driver, amount) */\n      0xffffffffffffffffffffffffffffffffffffffff\n      and\n        /* \"zefazef.sol\":1743:1748  rider */\n      dup5\n        /* \"zefazef.sol\":1731:1765  PaymentSent(rider, driver, amount) */\n      0xffffffffffffffffffffffffffffffffffffffff\n      and\n      0xd52bd61f7c422d441e024604f4517878fd3305d6acf0fe37baef23ed21af6bc9\n        /* \"zefazef.sol\":1758:1764  amount */\n      dup5\n        /* \"zefazef.sol\":1731:1765  PaymentSent(rider, driver, amount) */\n      mload(0x40)\n      tag_45\n      swap2\n      swap1\n      tag_20\n      jump\t// in\n    tag_45:\n      mload(0x40)\n      dup1\n      swap2\n      sub\n      swap1\n      log3\n        /* \"zefazef.sol\":1314:1772  {... */\n      pop\n        /* \"zefazef.sol\":1237:1772  function sendPayment(address rider, address driver, uint256 amount) external {... */\n      pop\n      pop\n      pop\n      jump\t// out\n        /* \"zefazef.sol\":469:499  TetherToken public tetherToken */\n    tag_12:\n      0x02\n      0x00\n      swap1\n      sload\n      swap1\n      0x0100\n      exp\n      swap1\n      div\n      0xffffffffffffffffffffffffffffffffffffffff\n      and\n      dup2\n      jump\t// out\n        /* \"zefazef.sol\":268:316  mapping(address => uint256) public riderBalances */\n    tag_18:\n      mstore(0x20, 0x00)\n      dup1\n      0x00\n      mstore\n      keccak256(0x00, 0x40)\n      0x00\n      swap2\n      pop\n      swap1\n      pop\n      sload\n      dup2\n      jump\t// out\n        /* \"zefazef.sol\":322:371  mapping(address => uint256) public driverBalances */\n    tag_23:\n      mstore(0x20, 0x01)\n      dup1\n      0x00\n      mstore\n      keccak256(0x00, 0x40)\n      0x00\n      swap2\n      pop\n      swap1\n      pop\n      sload\n      dup2\n      jump\t// out\n        /* \"#utility.yul\":88:205   */\n    tag_47:\n        /* \"#utility.yul\":197:198   */\n      0x00\n        /* \"#utility.yul\":194:195   */\n      dup1\n        /* \"#utility.yul\":187:199   */\n      revert\n        /* \"#utility.yul\":334:460   */\n    tag_49:\n        /* \"#utility.yul\":371:378   */\n      0x00\n        /* \"#utility.yul\":411:453   */\n      0xffffffffffffffffffffffffffffffffffffffff\n        /* \"#utility.yul\":404:409   */\n      dup3\n        /* \"#utility.yul\":400:454   */\n      and\n        /* \"#utility.yul\":389:454   */\n      swap1\n      pop\n        /* \"#utility.yul\":334:460   */\n      swap2\n      swap1\n      pop\n      jump\t// out\n        /* \"#utility.yul\":466:562   */\n    tag_50:\n        /* \"#utility.yul\":503:510   */\n      0x00\n        /* \"#utility.yul\":532:556   */\n      tag_80\n        /* \"#utility.yul\":550:555   */\n      dup3\n        /* \"#utility.yul\":532:556   */\n      tag_49\n      jump\t// in\n    tag_80:\n        /* \"#utility.yul\":521:556   */\n      swap1\n      pop\n        /* \"#utility.yul\":466:562   */\n      swap2\n      swap1\n      pop\n      jump\t// out\n        /* \"#utility.yul\":568:690   */\n    tag_51:\n        /* \"#utility.yul\":641:665   */\n      tag_82\n        /* \"#utility.yul\":659:664   */\n      dup2\n        /* \"#utility.yul\":641:665   */\n      tag_50\n      jump\t// in\n    tag_82:\n        /* \"#utility.yul\":634:639   */\n      dup2\n        /* \"#utility.yul\":631:666   */\n      eq\n        /* \"#utility.yul\":621:684   */\n      tag_83\n      jumpi\n        /* \"#utility.yul\":680:681   */\n      0x00\n        /* \"#utility.yul\":677:678   */\n      dup1\n        /* \"#utility.yul\":670:682   */\n      revert\n        /* \"#utility.yul\":621:684   */\n    tag_83:\n        /* \"#utility.yul\":568:690   */\n      pop\n      jump\t// out\n        /* \"#utility.yul\":696:835   */\n    tag_52:\n        /* \"#utility.yul\":742:747   */\n      0x00\n        /* \"#utility.yul\":780:786   */\n      dup2\n        /* \"#utility.yul\":767:787   */\n      calldataload\n        /* \"#utility.yul\":758:787   */\n      swap1\n      pop\n        /* \"#utility.yul\":796:829   */\n      tag_85\n        /* \"#utility.yul\":823:828   */\n      dup2\n        /* \"#utility.yul\":796:829   */\n      tag_51\n      jump\t// in\n    tag_85:\n        /* \"#utility.yul\":696:835   */\n      swap3\n      swap2\n      pop\n      pop\n      jump\t// out\n        /* \"#utility.yul\":841:918   */\n    tag_53:\n        /* \"#utility.yul\":878:885   */\n      0x00\n        /* \"#utility.yul\":907:912   */\n      dup2\n        /* \"#utility.yul\":896:912   */\n      swap1\n      pop\n        /* \"#utility.yul\":841:918   */\n      swap2\n      swap1\n      pop\n      jump\t// out\n        /* \"#utility.yul\":924:1046   */\n    tag_54:\n        /* \"#utility.yul\":997:1021   */\n      tag_88\n        /* \"#utility.yul\":1015:1020   */\n      dup2\n        /* \"#utility.yul\":997:1021   */\n      tag_53\n      jump\t// in\n    tag_88:\n        /* \"#utility.yul\":990:995   */\n      dup2\n        /* \"#utility.yul\":987:1022   */\n      eq\n        /* \"#utility.yul\":977:1040   */\n      tag_89\n      jumpi\n        /* \"#utility.yul\":1036:1037   */\n      0x00\n        /* \"#utility.yul\":1033:1034   */\n      dup1\n        /* \"#utility.yul\":1026:1038   */\n      revert\n        /* \"#utility.yul\":977:1040   */\n    tag_89:\n        /* \"#utility.yul\":924:1046   */\n      pop\n      jump\t// out\n        /* \"#utility.yul\":1052:1191   */\n    tag_55:\n        /* \"#utility.yul\":1098:1103   */\n      0x00\n        /* \"#utility.yul\":1136:1142   */\n      dup2\n        /* \"#utility.yul\":1123:1143   */\n      calldataload\n        /* \"#utility.yul\":1114:1143   */\n      swap1\n      pop\n        /* \"#utility.yul\":1152:1185   */\n      tag_91\n        /* \"#utility.yul\":1179:1184   */\n      dup2\n        /* \"#utility.yul\":1152:1185   */\n      tag_54\n      jump\t// in\n    tag_91:\n        /* \"#utility.yul\":1052:1191   */\n      swap3\n      swap2\n      pop\n      pop\n      jump\t// out\n        /* \"#utility.yul\":1197:1816   */\n    tag_9:\n        /* \"#utility.yul\":1274:1280   */\n      0x00\n        /* \"#utility.yul\":1282:1288   */\n      dup1\n        /* \"#utility.yul\":1290:1296   */\n      0x00\n        /* \"#utility.yul\":1339:1341   */\n      0x60\n        /* \"#utility.yul\":1327:1336   */\n      dup5\n        /* \"#utility.yul\":1318:1325   */\n      dup7\n        /* \"#utility.yul\":1314:1337   */\n      sub\n        /* \"#utility.yul\":1310:1342   */\n      slt\n        /* \"#utility.yul\":1307:1426   */\n      iszero\n      tag_93\n      jumpi\n        /* \"#utility.yul\":1345:1424   */\n      tag_94\n      tag_47\n      jump\t// in\n    tag_94:\n        /* \"#utility.yul\":1307:1426   */\n    tag_93:\n        /* \"#utility.yul\":1465:1466   */\n      0x00\n        /* \"#utility.yul\":1490:1543   */\n      tag_95\n        /* \"#utility.yul\":1535:1542   */\n      dup7\n        /* \"#utility.yul\":1526:1532   */\n      dup3\n        /* \"#utility.yul\":1515:1524   */\n      dup8\n        /* \"#utility.yul\":1511:1533   */\n      add\n        /* \"#utility.yul\":1490:1543   */\n      tag_52\n      jump\t// in\n    tag_95:\n        /* \"#utility.yul\":1480:1543   */\n      swap4\n      pop\n        /* \"#utility.yul\":1436:1553   */\n      pop\n        /* \"#utility.yul\":1592:1594   */\n      0x20\n        /* \"#utility.yul\":1618:1671   */\n      tag_96\n        /* \"#utility.yul\":1663:1670   */\n      dup7\n        /* \"#utility.yul\":1654:1660   */\n      dup3\n        /* \"#utility.yul\":1643:1652   */\n      dup8\n        /* \"#utility.yul\":1639:1661   */\n      add\n        /* \"#utility.yul\":1618:1671   */\n      tag_52\n      jump\t// in\n    tag_96:\n        /* \"#utility.yul\":1608:1671   */\n      swap3\n      pop\n        /* \"#utility.yul\":1563:1681   */\n      pop\n        /* \"#utility.yul\":1720:1722   */\n      0x40\n        /* \"#utility.yul\":1746:1799   */\n      tag_97\n        /* \"#utility.yul\":1791:1798   */\n      dup7\n        /* \"#utility.yul\":1782:1788   */\n      dup3\n        /* \"#utility.yul\":1771:1780   */\n      dup8\n        /* \"#utility.yul\":1767:1789   */\n      add\n        /* \"#utility.yul\":1746:1799   */\n      tag_55\n      jump\t// in\n    tag_97:\n        /* \"#utility.yul\":1736:1799   */\n      swap2\n      pop\n        /* \"#utility.yul\":1691:1809   */\n      pop\n        /* \"#utility.yul\":1197:1816   */\n      swap3\n      pop\n      swap3\n      pop\n      swap3\n      jump\t// out\n        /* \"#utility.yul\":1822:1882   */\n    tag_56:\n        /* \"#utility.yul\":1850:1853   */\n      0x00\n        /* \"#utility.yul\":1871:1876   */\n      dup2\n        /* \"#utility.yul\":1864:1876   */\n      swap1\n      pop\n        /* \"#utility.yul\":1822:1882   */\n      swap2\n      swap1\n      pop\n      jump\t// out\n        /* \"#utility.yul\":1888:2030   */\n    tag_57:\n        /* \"#utility.yul\":1938:1947   */\n      0x00\n        /* \"#utility.yul\":1971:2024   */\n      tag_100\n        /* \"#utility.yul\":1989:2023   */\n      tag_101\n        /* \"#utility.yul\":1998:2022   */\n      tag_102\n        /* \"#utility.yul\":2016:2021   */\n      dup5\n        /* \"#utility.yul\":1998:2022   */\n      tag_49\n      jump\t// in\n    tag_102:\n        /* \"#utility.yul\":1989:2023   */\n      tag_56\n      jump\t// in\n    tag_101:\n        /* \"#utility.yul\":1971:2024   */\n      tag_49\n      jump\t// in\n    tag_100:\n        /* \"#utility.yul\":1958:2024   */\n      swap1\n      pop\n        /* \"#utility.yul\":1888:2030   */\n      swap2\n      swap1\n      pop\n      jump\t// out\n        /* \"#utility.yul\":2036:2162   */\n    tag_58:\n        /* \"#utility.yul\":2086:2095   */\n      0x00\n        /* \"#utility.yul\":2119:2156   */\n      tag_104\n        /* \"#utility.yul\":2150:2155   */\n      dup3\n        /* \"#utility.yul\":2119:2156   */\n      tag_57\n      jump\t// in\n    tag_104:\n        /* \"#utility.yul\":2106:2156   */\n      swap1\n      pop\n        /* \"#utility.yul\":2036:2162   */\n      swap2\n      swap1\n      pop\n      jump\t// out\n        /* \"#utility.yul\":2168:2312   */\n    tag_59:\n        /* \"#utility.yul\":2236:2245   */\n      0x00\n        /* \"#utility.yul\":2269:2306   */\n      tag_106\n        /* \"#utility.yul\":2300:2305   */\n      dup3\n        /* \"#utility.yul\":2269:2306   */\n      tag_58\n      jump\t// in\n    tag_106:\n        /* \"#utility.yul\":2256:2306   */\n      swap1\n      pop\n        /* \"#utility.yul\":2168:2312   */\n      swap2\n      swap1\n      pop\n      jump\t// out\n        /* \"#utility.yul\":2318:2485   */\n    tag_60:\n        /* \"#utility.yul\":2423:2478   */\n      tag_108\n        /* \"#utility.yul\":2472:2477   */\n      dup2\n        /* \"#utility.yul\":2423:2478   */\n      tag_59\n      jump\t// in\n    tag_108:\n        /* \"#utility.yul\":2418:2421   */\n      dup3\n        /* \"#utility.yul\":2411:2479   */\n      mstore\n        /* \"#utility.yul\":2318:2485   */\n      pop\n      pop\n      jump\t// out\n        /* \"#utility.yul\":2491:2749   */\n    tag_14:\n        /* \"#utility.yul\":2602:2606   */\n      0x00\n        /* \"#utility.yul\":2640:2642   */\n      0x20\n        /* \"#utility.yul\":2629:2638   */\n      dup3\n        /* \"#utility.yul\":2625:2643   */\n      add\n        /* \"#utility.yul\":2617:2643   */\n      swap1\n      pop\n        /* \"#utility.yul\":2653:2742   */\n      tag_110\n        /* \"#utility.yul\":2739:2740   */\n      0x00\n        /* \"#utility.yul\":2728:2737   */\n      dup4\n        /* \"#utility.yul\":2724:2741   */\n      add\n        /* \"#utility.yul\":2715:2721   */\n      dup5\n        /* \"#utility.yul\":2653:2742   */\n      tag_60\n      jump\t// in\n    tag_110:\n        /* \"#utility.yul\":2491:2749   */\n      swap3\n      swap2\n      pop\n      pop\n      jump\t// out\n        /* \"#utility.yul\":2755:3084   */\n    tag_17:\n        /* \"#utility.yul\":2814:2820   */\n      0x00\n        /* \"#utility.yul\":2863:2865   */\n      0x20\n        /* \"#utility.yul\":2851:2860   */\n      dup3\n        /* \"#utility.yul\":2842:2849   */\n      dup5\n        /* \"#utility.yul\":2838:2861   */\n      sub\n        /* \"#utility.yul\":2834:2866   */\n      slt\n        /* \"#utility.yul\":2831:2950   */\n      iszero\n      tag_112\n      jumpi\n        /* \"#utility.yul\":2869:2948   */\n      tag_113\n      tag_47\n      jump\t// in\n    tag_113:\n        /* \"#utility.yul\":2831:2950   */\n    tag_112:\n        /* \"#utility.yul\":2989:2990   */\n      0x00\n        /* \"#utility.yul\":3014:3067   */\n      tag_114\n        /* \"#utility.yul\":3059:3066   */\n      dup5\n        /* \"#utility.yul\":3050:3056   */\n      dup3\n        /* \"#utility.yul\":3039:3048   */\n      dup6\n        /* \"#utility.yul\":3035:3057   */\n      add\n        /* \"#utility.yul\":3014:3067   */\n      tag_52\n      jump\t// in\n    tag_114:\n        /* \"#utility.yul\":3004:3067   */\n      swap2\n      pop\n        /* \"#utility.yul\":2960:3077   */\n      pop\n        /* \"#utility.yul\":2755:3084   */\n      swap3\n      swap2\n      pop\n      pop\n      jump\t// out\n        /* \"#utility.yul\":3090:3208   */\n    tag_61:\n        /* \"#utility.yul\":3177:3201   */\n      tag_116\n        /* \"#utility.yul\":3195:3200   */\n      dup2\n        /* \"#utility.yul\":3177:3201   */\n      tag_53\n      jump\t// in\n    tag_116:\n        /* \"#utility.yul\":3172:3175   */\n      dup3\n        /* \"#utility.yul\":3165:3202   */\n      mstore\n        /* \"#utility.yul\":3090:3208   */\n      pop\n      pop\n      jump\t// out\n        /* \"#utility.yul\":3214:3436   */\n    tag_20:\n        /* \"#utility.yul\":3307:3311   */\n      0x00\n        /* \"#utility.yul\":3345:3347   */\n      0x20\n        /* \"#utility.yul\":3334:3343   */\n      dup3\n        /* \"#utility.yul\":3330:3348   */\n      add\n        /* \"#utility.yul\":3322:3348   */\n      swap1\n      pop\n        /* \"#utility.yul\":3358:3429   */\n      tag_118\n        /* \"#utility.yul\":3426:3427   */\n      0x00\n        /* \"#utility.yul\":3415:3424   */\n      dup4\n        /* \"#utility.yul\":3411:3428   */\n      add\n        /* \"#utility.yul\":3402:3408   */\n      dup5\n        /* \"#utility.yul\":3358:3429   */\n      tag_61\n      jump\t// in\n    tag_118:\n        /* \"#utility.yul\":3214:3436   */\n      swap3\n      swap2\n      pop\n      pop\n      jump\t// out\n        /* \"#utility.yul\":3442:3611   */\n    tag_62:\n        /* \"#utility.yul\":3526:3537   */\n      0x00\n        /* \"#utility.yul\":3560:3566   */\n      dup3\n        /* \"#utility.yul\":3555:3558   */\n      dup3\n        /* \"#utility.yul\":3548:3567   */\n      mstore\n        /* \"#utility.yul\":3600:3604   */\n      0x20\n        /* \"#utility.yul\":3595:3598   */\n      dup3\n        /* \"#utility.yul\":3591:3605   */\n      add\n        /* \"#utility.yul\":3576:3605   */\n      swap1\n      pop\n        /* \"#utility.yul\":3442:3611   */\n      swap3\n      swap2\n      pop\n      pop\n      jump\t// out\n        /* \"#utility.yul\":3617:3799   */\n    tag_63:\n        /* \"#utility.yul\":3757:3791   */\n      0x416d6f756e74206d7573742062652067726561746572207468616e207a65726f\n        /* \"#utility.yul\":3753:3754   */\n      0x00\n        /* \"#utility.yul\":3745:3751   */\n      dup3\n        /* \"#utility.yul\":3741:3755   */\n      add\n        /* \"#utility.yul\":3734:3792   */\n      mstore\n        /* \"#utility.yul\":3617:3799   */\n      pop\n      jump\t// out\n        /* \"#utility.yul\":3805:4171   */\n    tag_64:\n        /* \"#utility.yul\":3947:3950   */\n      0x00\n        /* \"#utility.yul\":3968:4035   */\n      tag_122\n        /* \"#utility.yul\":4032:4034   */\n      0x20\n        /* \"#utility.yul\":4027:4030   */\n      dup4\n        /* \"#utility.yul\":3968:4035   */\n      tag_62\n      jump\t// in\n    tag_122:\n        /* \"#utility.yul\":3961:4035   */\n      swap2\n      pop\n        /* \"#utility.yul\":4044:4137   */\n      tag_123\n        /* \"#utility.yul\":4133:4136   */\n      dup3\n        /* \"#utility.yul\":4044:4137   */\n      tag_63\n      jump\t// in\n    tag_123:\n        /* \"#utility.yul\":4162:4164   */\n      0x20\n        /* \"#utility.yul\":4157:4160   */\n      dup3\n        /* \"#utility.yul\":4153:4165   */\n      add\n        /* \"#utility.yul\":4146:4165   */\n      swap1\n      pop\n        /* \"#utility.yul\":3805:4171   */\n      swap2\n      swap1\n      pop\n      jump\t// out\n        /* \"#utility.yul\":4177:4596   */\n    tag_28:\n        /* \"#utility.yul\":4343:4347   */\n      0x00\n        /* \"#utility.yul\":4381:4383   */\n      0x20\n        /* \"#utility.yul\":4370:4379   */\n      dup3\n        /* \"#utility.yul\":4366:4384   */\n      add\n        /* \"#utility.yul\":4358:4384   */\n      swap1\n      pop\n        /* \"#utility.yul\":4430:4439   */\n      dup2\n        /* \"#utility.yul\":4424:4428   */\n      dup2\n        /* \"#utility.yul\":4420:4440   */\n      sub\n        /* \"#utility.yul\":4416:4417   */\n      0x00\n        /* \"#utility.yul\":4405:4414   */\n      dup4\n        /* \"#utility.yul\":4401:4418   */\n      add\n        /* \"#utility.yul\":4394:4441   */\n      mstore\n        /* \"#utility.yul\":4458:4589   */\n      tag_125\n        /* \"#utility.yul\":4584:4588   */\n      dup2\n        /* \"#utility.yul\":4458:4589   */\n      tag_64\n      jump\t// in\n    tag_125:\n        /* \"#utility.yul\":4450:4589   */\n      swap1\n      pop\n        /* \"#utility.yul\":4177:4596   */\n      swap2\n      swap1\n      pop\n      jump\t// out\n        /* \"#utility.yul\":4602:4772   */\n    tag_65:\n        /* \"#utility.yul\":4742:4764   */\n      0x496e73756666696369656e742062616c616e6365000000000000000000000000\n        /* \"#utility.yul\":4738:4739   */\n      0x00\n        /* \"#utility.yul\":4730:4736   */\n      dup3\n        /* \"#utility.yul\":4726:4740   */\n      add\n        /* \"#utility.yul\":4719:4765   */\n      mstore\n        /* \"#utility.yul\":4602:4772   */\n      pop\n      jump\t// out\n        /* \"#utility.yul\":4778:5144   */\n    tag_66:\n        /* \"#utility.yul\":4920:4923   */\n      0x00\n        /* \"#utility.yul\":4941:5008   */\n      tag_128\n        /* \"#utility.yul\":5005:5007   */\n      0x14\n        /* \"#utility.yul\":5000:5003   */\n      dup4\n        /* \"#utility.yul\":4941:5008   */\n      tag_62\n      jump\t// in\n    tag_128:\n        /* \"#utility.yul\":4934:5008   */\n      swap2\n      pop\n        /* \"#utility.yul\":5017:5110   */\n      tag_129\n        /* \"#utility.yul\":5106:5109   */\n      dup3\n        /* \"#utility.yul\":5017:5110   */\n      tag_65\n      jump\t// in\n    tag_129:\n        /* \"#utility.yul\":5135:5137   */\n      0x20\n        /* \"#utility.yul\":5130:5133   */\n      dup3\n        /* \"#utility.yul\":5126:5138   */\n      add\n        /* \"#utility.yul\":5119:5138   */\n      swap1\n      pop\n        /* \"#utility.yul\":4778:5144   */\n      swap2\n      swap1\n      pop\n      jump\t// out\n        /* \"#utility.yul\":5150:5569   */\n    tag_31:\n        /* \"#utility.yul\":5316:5320   */\n      0x00\n        /* \"#utility.yul\":5354:5356   */\n      0x20\n        /* \"#utility.yul\":5343:5352   */\n      dup3\n        /* \"#utility.yul\":5339:5357   */\n      add\n        /* \"#utility.yul\":5331:5357   */\n      swap1\n      pop\n        /* \"#utility.yul\":5403:5412   */\n      dup2\n        /* \"#utility.yul\":5397:5401   */\n      dup2\n        /* \"#utility.yul\":5393:5413   */\n      sub\n        /* \"#utility.yul\":5389:5390   */\n      0x00\n        /* \"#utility.yul\":5378:5387   */\n      dup4\n        /* \"#utility.yul\":5374:5391   */\n      add\n        /* \"#utility.yul\":5367:5414   */\n      mstore\n        /* \"#utility.yul\":5431:5562   */\n      tag_131\n        /* \"#utility.yul\":5557:5561   */\n      dup2\n        /* \"#utility.yul\":5431:5562   */\n      tag_66\n      jump\t// in\n    tag_131:\n        /* \"#utility.yul\":5423:5562   */\n      swap1\n      pop\n        /* \"#utility.yul\":5150:5569   */\n      swap2\n      swap1\n      pop\n      jump\t// out\n        /* \"#utility.yul\":5575:5693   */\n    tag_67:\n        /* \"#utility.yul\":5662:5686   */\n      tag_133\n        /* \"#utility.yul\":5680:5685   */\n      dup2\n        /* \"#utility.yul\":5662:5686   */\n      tag_50\n      jump\t// in\n    tag_133:\n        /* \"#utility.yul\":5657:5660   */\n      dup3\n        /* \"#utility.yul\":5650:5687   */\n      mstore\n        /* \"#utility.yul\":5575:5693   */\n      pop\n      pop\n      jump\t// out\n        /* \"#utility.yul\":5699:6031   */\n    tag_33:\n        /* \"#utility.yul\":5820:5824   */\n      0x00\n        /* \"#utility.yul\":5858:5860   */\n      0x40\n        /* \"#utility.yul\":5847:5856   */\n      dup3\n        /* \"#utility.yul\":5843:5861   */\n      add\n        /* \"#utility.yul\":5835:5861   */\n      swap1\n      pop\n        /* \"#utility.yul\":5871:5942   */\n      tag_135\n        /* \"#utility.yul\":5939:5940   */\n      0x00\n        /* \"#utility.yul\":5928:5937   */\n      dup4\n        /* \"#utility.yul\":5924:5941   */\n      add\n        /* \"#utility.yul\":5915:5921   */\n      dup6\n        /* \"#utility.yul\":5871:5942   */\n      tag_67\n      jump\t// in\n    tag_135:\n        /* \"#utility.yul\":5952:6024   */\n      tag_136\n        /* \"#utility.yul\":6020:6022   */\n      0x20\n        /* \"#utility.yul\":6009:6018   */\n      dup4\n        /* \"#utility.yul\":6005:6023   */\n      add\n        /* \"#utility.yul\":5996:6002   */\n      dup5\n        /* \"#utility.yul\":5952:6024   */\n      tag_61\n      jump\t// in\n    tag_136:\n        /* \"#utility.yul\":5699:6031   */\n      swap4\n      swap3\n      pop\n      pop\n      pop\n      jump\t// out\n        /* \"#utility.yul\":6037:6127   */\n    tag_68:\n        /* \"#utility.yul\":6071:6078   */\n      0x00\n        /* \"#utility.yul\":6114:6119   */\n      dup2\n        /* \"#utility.yul\":6107:6120   */\n      iszero\n        /* \"#utility.yul\":6100:6121   */\n      iszero\n        /* \"#utility.yul\":6089:6121   */\n      swap1\n      pop\n        /* \"#utility.yul\":6037:6127   */\n      swap2\n      swap1\n      pop\n      jump\t// out\n        /* \"#utility.yul\":6133:6249   */\n    tag_69:\n        /* \"#utility.yul\":6203:6224   */\n      tag_139\n        /* \"#utility.yul\":6218:6223   */\n      dup2\n        /* \"#utility.yul\":6203:6224   */\n      tag_68\n      jump\t// in\n    tag_139:\n        /* \"#utility.yul\":6196:6201   */\n      dup2\n        /* \"#utility.yul\":6193:6225   */\n      eq\n        /* \"#utility.yul\":6183:6243   */\n      tag_140\n      jumpi\n        /* \"#utility.yul\":6239:6240   */\n      0x00\n        /* \"#utility.yul\":6236:6237   */\n      dup1\n        /* \"#utility.yul\":6229:6241   */\n      revert\n        /* \"#utility.yul\":6183:6243   */\n    tag_140:\n        /* \"#utility.yul\":6133:6249   */\n      pop\n      jump\t// out\n        /* \"#utility.yul\":6255:6392   */\n    tag_70:\n        /* \"#utility.yul\":6309:6314   */\n      0x00\n        /* \"#utility.yul\":6340:6346   */\n      dup2\n        /* \"#utility.yul\":6334:6347   */\n      mload\n        /* \"#utility.yul\":6325:6347   */\n      swap1\n      pop\n        /* \"#utility.yul\":6356:6386   */\n      tag_142\n        /* \"#utility.yul\":6380:6385   */\n      dup2\n        /* \"#utility.yul\":6356:6386   */\n      tag_69\n      jump\t// in\n    tag_142:\n        /* \"#utility.yul\":6255:6392   */\n      swap3\n      swap2\n      pop\n      pop\n      jump\t// out\n        /* \"#utility.yul\":6398:6743   */\n    tag_37:\n        /* \"#utility.yul\":6465:6471   */\n      0x00\n        /* \"#utility.yul\":6514:6516   */\n      0x20\n        /* \"#utility.yul\":6502:6511   */\n      dup3\n        /* \"#utility.yul\":6493:6500   */\n      dup5\n        /* \"#utility.yul\":6489:6512   */\n      sub\n        /* \"#utility.yul\":6485:6517   */\n      slt\n        /* \"#utility.yul\":6482:6601   */\n      iszero\n      tag_144\n      jumpi\n        /* \"#utility.yul\":6520:6599   */\n      tag_145\n      tag_47\n      jump\t// in\n    tag_145:\n        /* \"#utility.yul\":6482:6601   */\n    tag_144:\n        /* \"#utility.yul\":6640:6641   */\n      0x00\n        /* \"#utility.yul\":6665:6726   */\n      tag_146\n        /* \"#utility.yul\":6718:6725   */\n      dup5\n        /* \"#utility.yul\":6709:6715   */\n      dup3\n        /* \"#utility.yul\":6698:6707   */\n      dup6\n        /* \"#utility.yul\":6694:6716   */\n      add\n        /* \"#utility.yul\":6665:6726   */\n      tag_70\n      jump\t// in\n    tag_146:\n        /* \"#utility.yul\":6655:6726   */\n      swap2\n      pop\n        /* \"#utility.yul\":6611:6736   */\n      pop\n        /* \"#utility.yul\":6398:6743   */\n      swap3\n      swap2\n      pop\n      pop\n      jump\t// out\n        /* \"#utility.yul\":6749:6920   */\n    tag_71:\n        /* \"#utility.yul\":6889:6912   */\n      0x546f6b656e207472616e73666572206661696c65640000000000000000000000\n        /* \"#utility.yul\":6885:6886   */\n      0x00\n        /* \"#utility.yul\":6877:6883   */\n      dup3\n        /* \"#utility.yul\":6873:6887   */\n      add\n        /* \"#utility.yul\":6866:6913   */\n      mstore\n        /* \"#utility.yul\":6749:6920   */\n      pop\n      jump\t// out\n        /* \"#utility.yul\":6926:7292   */\n    tag_72:\n        /* \"#utility.yul\":7068:7071   */\n      0x00\n        /* \"#utility.yul\":7089:7156   */\n      tag_149\n        /* \"#utility.yul\":7153:7155   */\n      0x15\n        /* \"#utility.yul\":7148:7151   */\n      dup4\n        /* \"#utility.yul\":7089:7156   */\n      tag_62\n      jump\t// in\n    tag_149:\n        /* \"#utility.yul\":7082:7156   */\n      swap2\n      pop\n        /* \"#utility.yul\":7165:7258   */\n      tag_150\n        /* \"#utility.yul\":7254:7257   */\n      dup3\n        /* \"#utility.yul\":7165:7258   */\n      tag_71\n      jump\t// in\n    tag_150:\n        /* \"#utility.yul\":7283:7285   */\n      0x20\n        /* \"#utility.yul\":7278:7281   */\n      dup3\n        /* \"#utility.yul\":7274:7286   */\n      add\n        /* \"#utility.yul\":7267:7286   */\n      swap1\n      pop\n        /* \"#utility.yul\":6926:7292   */\n      swap2\n      swap1\n      pop\n      jump\t// out\n        /* \"#utility.yul\":7298:7717   */\n    tag_40:\n        /* \"#utility.yul\":7464:7468   */\n      0x00\n        /* \"#utility.yul\":7502:7504   */\n      0x20\n        /* \"#utility.yul\":7491:7500   */\n      dup3\n        /* \"#utility.yul\":7487:7505   */\n      add\n        /* \"#utility.yul\":7479:7505   */\n      swap1\n      pop\n        /* \"#utility.yul\":7551:7560   */\n      dup2\n        /* \"#utility.yul\":7545:7549   */\n      dup2\n        /* \"#utility.yul\":7541:7561   */\n      sub\n        /* \"#utility.yul\":7537:7538   */\n      0x00\n        /* \"#utility.yul\":7526:7535   */\n      dup4\n        /* \"#utility.yul\":7522:7539   */\n      add\n        /* \"#utility.yul\":7515:7562   */\n      mstore\n        /* \"#utility.yul\":7579:7710   */\n      tag_152\n        /* \"#utility.yul\":7705:7709   */\n      dup2\n        /* \"#utility.yul\":7579:7710   */\n      tag_72\n      jump\t// in\n    tag_152:\n        /* \"#utility.yul\":7571:7710   */\n      swap1\n      pop\n        /* \"#utility.yul\":7298:7717   */\n      swap2\n      swap1\n      pop\n      jump\t// out\n        /* \"#utility.yul\":7723:7903   */\n    tag_73:\n        /* \"#utility.yul\":7771:7848   */\n      0x4e487b7100000000000000000000000000000000000000000000000000000000\n        /* \"#utility.yul\":7768:7769   */\n      0x00\n        /* \"#utility.yul\":7761:7849   */\n      mstore\n        /* \"#utility.yul\":7868:7872   */\n      0x11\n        /* \"#utility.yul\":7865:7866   */\n      0x04\n        /* \"#utility.yul\":7858:7873   */\n      mstore\n        /* \"#utility.yul\":7892:7896   */\n      0x24\n        /* \"#utility.yul\":7889:7890   */\n      0x00\n        /* \"#utility.yul\":7882:7897   */\n      revert\n        /* \"#utility.yul\":7909:8103   */\n    tag_42:\n        /* \"#utility.yul\":7949:7953   */\n      0x00\n        /* \"#utility.yul\":7969:7989   */\n      tag_155\n        /* \"#utility.yul\":7987:7988   */\n      dup3\n        /* \"#utility.yul\":7969:7989   */\n      tag_53\n      jump\t// in\n    tag_155:\n        /* \"#utility.yul\":7964:7989   */\n      swap2\n      pop\n        /* \"#utility.yul\":8003:8023   */\n      tag_156\n        /* \"#utility.yul\":8021:8022   */\n      dup4\n        /* \"#utility.yul\":8003:8023   */\n      tag_53\n      jump\t// in\n    tag_156:\n        /* \"#utility.yul\":7998:8023   */\n      swap3\n      pop\n        /* \"#utility.yul\":8047:8048   */\n      dup3\n        /* \"#utility.yul\":8044:8045   */\n      dup3\n        /* \"#utility.yul\":8040:8049   */\n      sub\n        /* \"#utility.yul\":8032:8049   */\n      swap1\n      pop\n        /* \"#utility.yul\":8071:8072   */\n      dup2\n        /* \"#utility.yul\":8065:8069   */\n      dup2\n        /* \"#utility.yul\":8062:8073   */\n      gt\n        /* \"#utility.yul\":8059:8096   */\n      iszero\n      tag_157\n      jumpi\n        /* \"#utility.yul\":8076:8094   */\n      tag_158\n      tag_73\n      jump\t// in\n    tag_158:\n        /* \"#utility.yul\":8059:8096   */\n    tag_157:\n        /* \"#utility.yul\":7909:8103   */\n      swap3\n      swap2\n      pop\n      pop\n      jump\t// out\n        /* \"#utility.yul\":8109:8300   */\n    tag_44:\n        /* \"#utility.yul\":8149:8152   */\n      0x00\n        /* \"#utility.yul\":8168:8188   */\n      tag_160\n        /* \"#utility.yul\":8186:8187   */\n      dup3\n        /* \"#utility.yul\":8168:8188   */\n      tag_53\n      jump\t// in\n    tag_160:\n        /* \"#utility.yul\":8163:8188   */\n      swap2\n      pop\n        /* \"#utility.yul\":8202:8222   */\n      tag_161\n        /* \"#utility.yul\":8220:8221   */\n      dup4\n        /* \"#utility.yul\":8202:8222   */\n      tag_53\n      jump\t// in\n    tag_161:\n        /* \"#utility.yul\":8197:8222   */\n      swap3\n      pop\n        /* \"#utility.yul\":8245:8246   */\n      dup3\n        /* \"#utility.yul\":8242:8243   */\n      dup3\n        /* \"#utility.yul\":8238:8247   */\n      add\n        /* \"#utility.yul\":8231:8247   */\n      swap1\n      pop\n        /* \"#utility.yul\":8266:8269   */\n      dup1\n        /* \"#utility.yul\":8263:8264   */\n      dup3\n        /* \"#utility.yul\":8260:8270   */\n      gt\n        /* \"#utility.yul\":8257:8293   */\n      iszero\n      tag_162\n      jumpi\n        /* \"#utility.yul\":8273:8291   */\n      tag_163\n      tag_73\n      jump\t// in\n    tag_163:\n        /* \"#utility.yul\":8257:8293   */\n    tag_162:\n        /* \"#utility.yul\":8109:8300   */\n      swap3\n      swap2\n      pop\n      pop\n      jump\t// out\n\n    auxdata: 0xa2646970667358221220cb31ca77d8bafb14af7be3f167f800ef60a08ef6fd1745f5df9cc81188788c8d64736f6c63430008120033\n}\n",
				"bytecode": {
					"linkReferences": {},
					"object": "60806040523480156200001157600080fd5b506000600467ffffffffffffffff8111156200003257620000316200034e565b5b604051908082528060200260200182016040528015620000615781602001602082028036833780820191505090505b5090507304441e21ae9818952623b2813464d8b632e6533e8160008151811062000090576200008f6200037d565b5b602002602001019073ffffffffffffffffffffffffffffffffffffffff16908173ffffffffffffffffffffffffffffffffffffffff16815250507339fa14737eb85b28e1c1156fb7208120a68ea39681600181518110620000f657620000f56200037d565b5b602002602001019073ffffffffffffffffffffffffffffffffffffffff16908173ffffffffffffffffffffffffffffffffffffffff168152505073df4e7922d56bfb8640bfa191f5abeaf9897176e5816002815181106200015c576200015b6200037d565b5b602002602001019073ffffffffffffffffffffffffffffffffffffffff16908173ffffffffffffffffffffffffffffffffffffffff168152505073346c2faff7fe62122ff23dab18e761cd315f5ee981600381518110620001c257620001c16200037d565b5b602002602001019073ffffffffffffffffffffffffffffffffffffffff16908173ffffffffffffffffffffffffffffffffffffffff16815250506000683635c9adc5dea0000090506000805b8351811015620002ef57826000808684815181106200023257620002316200037d565b5b602002602001015173ffffffffffffffffffffffffffffffffffffffff1673ffffffffffffffffffffffffffffffffffffffff1681526020019081526020016000208190555081600160008684815181106200029357620002926200037d565b5b602002602001015173ffffffffffffffffffffffffffffffffffffffff1673ffffffffffffffffffffffffffffffffffffffff168152602001908152602001600020819055508080620002e690620003e5565b9150506200020e565b5073dac17f958d2ee523a2206206994597c13d831ec7600260006101000a81548173ffffffffffffffffffffffffffffffffffffffff021916908373ffffffffffffffffffffffffffffffffffffffff16021790555050505062000432565b7f4e487b7100000000000000000000000000000000000000000000000000000000600052604160045260246000fd5b7f4e487b7100000000000000000000000000000000000000000000000000000000600052603260045260246000fd5b7f4e487b7100000000000000000000000000000000000000000000000000000000600052601160045260246000fd5b6000819050919050565b6000620003f282620003db565b91507fffffffffffffffffffffffffffffffffffffffffffffffffffffffffffffffff8203620004275762000426620003ac565b5b600182019050919050565b61087b80620004426000396000f3fe608060405234801561001057600080fd5b506004361061004c5760003560e01c8063395801e714610051578063bd076e6b1461006d578063c2993eee1461008b578063c53735a3146100bb575b600080fd5b61006b60048036038101906100669190610498565b6100eb565b005b6100756103a9565b604051610082919061054a565b60405180910390f35b6100a560048036038101906100a09190610565565b6103cf565b6040516100b291906105a1565b60405180910390f35b6100d560048036038101906100d09190610565565b6103e7565b6040516100e291906105a1565b60405180910390f35b6000811161012e576040517f08c379a000000000000000000000000000000000000000000000000000000000815260040161012590610619565b60405180910390fd5b806000808573ffffffffffffffffffffffffffffffffffffffff1673ffffffffffffffffffffffffffffffffffffffff1681526020019081526020016000205410156101af576040517f08c379a00000000000000000000000000000000000000000000000000000000081526004016101a690610685565b60405180910390fd5b6000600260009054906101000a900473ffffffffffffffffffffffffffffffffffffffff1673ffffffffffffffffffffffffffffffffffffffff1663a9059cbb84846040518363ffffffff1660e01b815260040161020e9291906106b4565b6020604051808303816000875af115801561022d573d6000803e3d6000fd5b505050506040513d601f19601f820116820180604052508101906102519190610715565b905080610293576040517f08c379a000000000000000000000000000000000000000000000000000000000815260040161028a9061078e565b60405180910390fd5b816000808673ffffffffffffffffffffffffffffffffffffffff1673ffffffffffffffffffffffffffffffffffffffff16815260200190815260200160002060008282546102e191906107dd565b9250508190555081600160008573ffffffffffffffffffffffffffffffffffffffff1673ffffffffffffffffffffffffffffffffffffffff16815260200190815260200160002060008282546103379190610811565b925050819055508273ffffffffffffffffffffffffffffffffffffffff168473ffffffffffffffffffffffffffffffffffffffff167fd52bd61f7c422d441e024604f4517878fd3305d6acf0fe37baef23ed21af6bc98460405161039b91906105a1565b60405180910390a350505050565b600260009054906101000a900473ffffffffffffffffffffffffffffffffffffffff1681565b60006020528060005260406000206000915090505481565b60016020528060005260406000206000915090505481565b600080fd5b600073ffffffffffffffffffffffffffffffffffffffff82169050919050565b600061042f82610404565b9050919050565b61043f81610424565b811461044a57600080fd5b50565b60008135905061045c81610436565b92915050565b6000819050919050565b61047581610462565b811461048057600080fd5b50565b6000813590506104928161046c565b92915050565b6000806000606084860312156104b1576104b06103ff565b5b60006104bf8682870161044d565b93505060206104d08682870161044d565b92505060406104e186828701610483565b9150509250925092565b6000819050919050565b600061051061050b61050684610404565b6104eb565b610404565b9050919050565b6000610522826104f5565b9050919050565b600061053482610517565b9050919050565b61054481610529565b82525050565b600060208201905061055f600083018461053b565b92915050565b60006020828403121561057b5761057a6103ff565b5b60006105898482850161044d565b91505092915050565b61059b81610462565b82525050565b60006020820190506105b66000830184610592565b92915050565b600082825260208201905092915050565b7f416d6f756e74206d7573742062652067726561746572207468616e207a65726f600082015250565b60006106036020836105bc565b915061060e826105cd565b602082019050919050565b60006020820190508181036000830152610632816105f6565b9050919050565b7f496e73756666696369656e742062616c616e6365000000000000000000000000600082015250565b600061066f6014836105bc565b915061067a82610639565b602082019050919050565b6000602082019050818103600083015261069e81610662565b9050919050565b6106ae81610424565b82525050565b60006040820190506106c960008301856106a5565b6106d66020830184610592565b9392505050565b60008115159050919050565b6106f2816106dd565b81146106fd57600080fd5b50565b60008151905061070f816106e9565b92915050565b60006020828403121561072b5761072a6103ff565b5b600061073984828501610700565b91505092915050565b7f546f6b656e207472616e73666572206661696c65640000000000000000000000600082015250565b60006107786015836105bc565b915061078382610742565b602082019050919050565b600060208201905081810360008301526107a78161076b565b9050919050565b7f4e487b7100000000000000000000000000000000000000000000000000000000600052601160045260246000fd5b60006107e882610462565b91506107f383610462565b925082820390508181111561080b5761080a6107ae565b5b92915050565b600061081c82610462565b915061082783610462565b925082820190508082111561083f5761083e6107ae565b5b9291505056fea2646970667358221220cb31ca77d8bafb14af7be3f167f800ef60a08ef6fd1745f5df9cc81188788c8d64736f6c63430008120033",
					"opcodes": "PUSH1 0x80 PUSH1 0x40 MSTORE CALLVALUE DUP1 ISZERO PUSH3 0x11 JUMPI PUSH1 0x0 DUP1 REVERT JUMPDEST POP PUSH1 0x0 PUSH1 0x4 PUSH8 0xFFFFFFFFFFFFFFFF DUP2 GT ISZERO PUSH3 0x32 JUMPI PUSH3 0x31 PUSH3 0x34E JUMP JUMPDEST JUMPDEST PUSH1 0x40 MLOAD SWAP1 DUP1 DUP3 MSTORE DUP1 PUSH1 0x20 MUL PUSH1 0x20 ADD DUP3 ADD PUSH1 0x40 MSTORE DUP1 ISZERO PUSH3 0x61 JUMPI DUP2 PUSH1 0x20 ADD PUSH1 0x20 DUP3 MUL DUP1 CALLDATASIZE DUP4 CALLDATACOPY DUP1 DUP3 ADD SWAP2 POP POP SWAP1 POP JUMPDEST POP SWAP1 POP PUSH20 0x4441E21AE9818952623B2813464D8B632E6533E DUP2 PUSH1 0x0 DUP2 MLOAD DUP2 LT PUSH3 0x90 JUMPI PUSH3 0x8F PUSH3 0x37D JUMP JUMPDEST JUMPDEST PUSH1 0x20 MUL PUSH1 0x20 ADD ADD SWAP1 PUSH20 0xFFFFFFFFFFFFFFFFFFFFFFFFFFFFFFFFFFFFFFFF AND SWAP1 DUP2 PUSH20 0xFFFFFFFFFFFFFFFFFFFFFFFFFFFFFFFFFFFFFFFF AND DUP2 MSTORE POP POP PUSH20 0x39FA14737EB85B28E1C1156FB7208120A68EA396 DUP2 PUSH1 0x1 DUP2 MLOAD DUP2 LT PUSH3 0xF6 JUMPI PUSH3 0xF5 PUSH3 0x37D JUMP JUMPDEST JUMPDEST PUSH1 0x20 MUL PUSH1 0x20 ADD ADD SWAP1 PUSH20 0xFFFFFFFFFFFFFFFFFFFFFFFFFFFFFFFFFFFFFFFF AND SWAP1 DUP2 PUSH20 0xFFFFFFFFFFFFFFFFFFFFFFFFFFFFFFFFFFFFFFFF AND DUP2 MSTORE POP POP PUSH20 0xDF4E7922D56BFB8640BFA191F5ABEAF9897176E5 DUP2 PUSH1 0x2 DUP2 MLOAD DUP2 LT PUSH3 0x15C JUMPI PUSH3 0x15B PUSH3 0x37D JUMP JUMPDEST JUMPDEST PUSH1 0x20 MUL PUSH1 0x20 ADD ADD SWAP1 PUSH20 0xFFFFFFFFFFFFFFFFFFFFFFFFFFFFFFFFFFFFFFFF AND SWAP1 DUP2 PUSH20 0xFFFFFFFFFFFFFFFFFFFFFFFFFFFFFFFFFFFFFFFF AND DUP2 MSTORE POP POP PUSH20 0x346C2FAFF7FE62122FF23DAB18E761CD315F5EE9 DUP2 PUSH1 0x3 DUP2 MLOAD DUP2 LT PUSH3 0x1C2 JUMPI PUSH3 0x1C1 PUSH3 0x37D JUMP JUMPDEST JUMPDEST PUSH1 0x20 MUL PUSH1 0x20 ADD ADD SWAP1 PUSH20 0xFFFFFFFFFFFFFFFFFFFFFFFFFFFFFFFFFFFFFFFF AND SWAP1 DUP2 PUSH20 0xFFFFFFFFFFFFFFFFFFFFFFFFFFFFFFFFFFFFFFFF AND DUP2 MSTORE POP POP PUSH1 0x0 PUSH9 0x3635C9ADC5DEA00000 SWAP1 POP PUSH1 0x0 DUP1 JUMPDEST DUP4 MLOAD DUP2 LT ISZERO PUSH3 0x2EF JUMPI DUP3 PUSH1 0x0 DUP1 DUP7 DUP5 DUP2 MLOAD DUP2 LT PUSH3 0x232 JUMPI PUSH3 0x231 PUSH3 0x37D JUMP JUMPDEST JUMPDEST PUSH1 0x20 MUL PUSH1 0x20 ADD ADD MLOAD PUSH20 0xFFFFFFFFFFFFFFFFFFFFFFFFFFFFFFFFFFFFFFFF AND PUSH20 0xFFFFFFFFFFFFFFFFFFFFFFFFFFFFFFFFFFFFFFFF AND DUP2 MSTORE PUSH1 0x20 ADD SWAP1 DUP2 MSTORE PUSH1 0x20 ADD PUSH1 0x0 KECCAK256 DUP2 SWAP1 SSTORE POP DUP2 PUSH1 0x1 PUSH1 0x0 DUP7 DUP5 DUP2 MLOAD DUP2 LT PUSH3 0x293 JUMPI PUSH3 0x292 PUSH3 0x37D JUMP JUMPDEST JUMPDEST PUSH1 0x20 MUL PUSH1 0x20 ADD ADD MLOAD PUSH20 0xFFFFFFFFFFFFFFFFFFFFFFFFFFFFFFFFFFFFFFFF AND PUSH20 0xFFFFFFFFFFFFFFFFFFFFFFFFFFFFFFFFFFFFFFFF AND DUP2 MSTORE PUSH1 0x20 ADD SWAP1 DUP2 MSTORE PUSH1 0x20 ADD PUSH1 0x0 KECCAK256 DUP2 SWAP1 SSTORE POP DUP1 DUP1 PUSH3 0x2E6 SWAP1 PUSH3 0x3E5 JUMP JUMPDEST SWAP2 POP POP PUSH3 0x20E JUMP JUMPDEST POP PUSH20 0xDAC17F958D2EE523A2206206994597C13D831EC7 PUSH1 0x2 PUSH1 0x0 PUSH2 0x100 EXP DUP2 SLOAD DUP2 PUSH20 0xFFFFFFFFFFFFFFFFFFFFFFFFFFFFFFFFFFFFFFFF MUL NOT AND SWAP1 DUP4 PUSH20 0xFFFFFFFFFFFFFFFFFFFFFFFFFFFFFFFFFFFFFFFF AND MUL OR SWAP1 SSTORE POP POP POP POP PUSH3 0x432 JUMP JUMPDEST PUSH32 0x4E487B7100000000000000000000000000000000000000000000000000000000 PUSH1 0x0 MSTORE PUSH1 0x41 PUSH1 0x4 MSTORE PUSH1 0x24 PUSH1 0x0 REVERT JUMPDEST PUSH32 0x4E487B7100000000000000000000000000000000000000000000000000000000 PUSH1 0x0 MSTORE PUSH1 0x32 PUSH1 0x4 MSTORE PUSH1 0x24 PUSH1 0x0 REVERT JUMPDEST PUSH32 0x4E487B7100000000000000000000000000000000000000000000000000000000 PUSH1 0x0 MSTORE PUSH1 0x11 PUSH1 0x4 MSTORE PUSH1 0x24 PUSH1 0x0 REVERT JUMPDEST PUSH1 0x0 DUP2 SWAP1 POP SWAP2 SWAP1 POP JUMP JUMPDEST PUSH1 0x0 PUSH3 0x3F2 DUP3 PUSH3 0x3DB JUMP JUMPDEST SWAP2 POP PUSH32 0xFFFFFFFFFFFFFFFFFFFFFFFFFFFFFFFFFFFFFFFFFFFFFFFFFFFFFFFFFFFFFFFF DUP3 SUB PUSH3 0x427 JUMPI PUSH3 0x426 PUSH3 0x3AC JUMP JUMPDEST JUMPDEST PUSH1 0x1 DUP3 ADD SWAP1 POP SWAP2 SWAP1 POP JUMP JUMPDEST PUSH2 0x87B DUP1 PUSH3 0x442 PUSH1 0x0 CODECOPY PUSH1 0x0 RETURN INVALID PUSH1 0x80 PUSH1 0x40 MSTORE CALLVALUE DUP1 ISZERO PUSH2 0x10 JUMPI PUSH1 0x0 DUP1 REVERT JUMPDEST POP PUSH1 0x4 CALLDATASIZE LT PUSH2 0x4C JUMPI PUSH1 0x0 CALLDATALOAD PUSH1 0xE0 SHR DUP1 PUSH4 0x395801E7 EQ PUSH2 0x51 JUMPI DUP1 PUSH4 0xBD076E6B EQ PUSH2 0x6D JUMPI DUP1 PUSH4 0xC2993EEE EQ PUSH2 0x8B JUMPI DUP1 PUSH4 0xC53735A3 EQ PUSH2 0xBB JUMPI JUMPDEST PUSH1 0x0 DUP1 REVERT JUMPDEST PUSH2 0x6B PUSH1 0x4 DUP1 CALLDATASIZE SUB DUP2 ADD SWAP1 PUSH2 0x66 SWAP2 SWAP1 PUSH2 0x498 JUMP JUMPDEST PUSH2 0xEB JUMP JUMPDEST STOP JUMPDEST PUSH2 0x75 PUSH2 0x3A9 JUMP JUMPDEST PUSH1 0x40 MLOAD PUSH2 0x82 SWAP2 SWAP1 PUSH2 0x54A JUMP JUMPDEST PUSH1 0x40 MLOAD DUP1 SWAP2 SUB SWAP1 RETURN JUMPDEST PUSH2 0xA5 PUSH1 0x4 DUP1 CALLDATASIZE SUB DUP2 ADD SWAP1 PUSH2 0xA0 SWAP2 SWAP1 PUSH2 0x565 JUMP JUMPDEST PUSH2 0x3CF JUMP JUMPDEST PUSH1 0x40 MLOAD PUSH2 0xB2 SWAP2 SWAP1 PUSH2 0x5A1 JUMP JUMPDEST PUSH1 0x40 MLOAD DUP1 SWAP2 SUB SWAP1 RETURN JUMPDEST PUSH2 0xD5 PUSH1 0x4 DUP1 CALLDATASIZE SUB DUP2 ADD SWAP1 PUSH2 0xD0 SWAP2 SWAP1 PUSH2 0x565 JUMP JUMPDEST PUSH2 0x3E7 JUMP JUMPDEST PUSH1 0x40 MLOAD PUSH2 0xE2 SWAP2 SWAP1 PUSH2 0x5A1 JUMP JUMPDEST PUSH1 0x40 MLOAD DUP1 SWAP2 SUB SWAP1 RETURN JUMPDEST PUSH1 0x0 DUP2 GT PUSH2 0x12E JUMPI PUSH1 0x40 MLOAD PUSH32 0x8C379A000000000000000000000000000000000000000000000000000000000 DUP2 MSTORE PUSH1 0x4 ADD PUSH2 0x125 SWAP1 PUSH2 0x619 JUMP JUMPDEST PUSH1 0x40 MLOAD DUP1 SWAP2 SUB SWAP1 REVERT JUMPDEST DUP1 PUSH1 0x0 DUP1 DUP6 PUSH20 0xFFFFFFFFFFFFFFFFFFFFFFFFFFFFFFFFFFFFFFFF AND PUSH20 0xFFFFFFFFFFFFFFFFFFFFFFFFFFFFFFFFFFFFFFFF AND DUP2 MSTORE PUSH1 0x20 ADD SWAP1 DUP2 MSTORE PUSH1 0x20 ADD PUSH1 0x0 KECCAK256 SLOAD LT ISZERO PUSH2 0x1AF JUMPI PUSH1 0x40 MLOAD PUSH32 0x8C379A000000000000000000000000000000000000000000000000000000000 DUP2 MSTORE PUSH1 0x4 ADD PUSH2 0x1A6 SWAP1 PUSH2 0x685 JUMP JUMPDEST PUSH1 0x40 MLOAD DUP1 SWAP2 SUB SWAP1 REVERT JUMPDEST PUSH1 0x0 PUSH1 0x2 PUSH1 0x0 SWAP1 SLOAD SWAP1 PUSH2 0x100 EXP SWAP1 DIV PUSH20 0xFFFFFFFFFFFFFFFFFFFFFFFFFFFFFFFFFFFFFFFF AND PUSH20 0xFFFFFFFFFFFFFFFFFFFFFFFFFFFFFFFFFFFFFFFF AND PUSH4 0xA9059CBB DUP5 DUP5 PUSH1 0x40 MLOAD DUP4 PUSH4 0xFFFFFFFF AND PUSH1 0xE0 SHL DUP2 MSTORE PUSH1 0x4 ADD PUSH2 0x20E SWAP3 SWAP2 SWAP1 PUSH2 0x6B4 JUMP JUMPDEST PUSH1 0x20 PUSH1 0x40 MLOAD DUP1 DUP4 SUB DUP2 PUSH1 0x0 DUP8 GAS CALL ISZERO DUP1 ISZERO PUSH2 0x22D JUMPI RETURNDATASIZE PUSH1 0x0 DUP1 RETURNDATACOPY RETURNDATASIZE PUSH1 0x0 REVERT JUMPDEST POP POP POP POP PUSH1 0x40 MLOAD RETURNDATASIZE PUSH1 0x1F NOT PUSH1 0x1F DUP3 ADD AND DUP3 ADD DUP1 PUSH1 0x40 MSTORE POP DUP2 ADD SWAP1 PUSH2 0x251 SWAP2 SWAP1 PUSH2 0x715 JUMP JUMPDEST SWAP1 POP DUP1 PUSH2 0x293 JUMPI PUSH1 0x40 MLOAD PUSH32 0x8C379A000000000000000000000000000000000000000000000000000000000 DUP2 MSTORE PUSH1 0x4 ADD PUSH2 0x28A SWAP1 PUSH2 0x78E JUMP JUMPDEST PUSH1 0x40 MLOAD DUP1 SWAP2 SUB SWAP1 REVERT JUMPDEST DUP2 PUSH1 0x0 DUP1 DUP7 PUSH20 0xFFFFFFFFFFFFFFFFFFFFFFFFFFFFFFFFFFFFFFFF AND PUSH20 0xFFFFFFFFFFFFFFFFFFFFFFFFFFFFFFFFFFFFFFFF AND DUP2 MSTORE PUSH1 0x20 ADD SWAP1 DUP2 MSTORE PUSH1 0x20 ADD PUSH1 0x0 KECCAK256 PUSH1 0x0 DUP3 DUP3 SLOAD PUSH2 0x2E1 SWAP2 SWAP1 PUSH2 0x7DD JUMP JUMPDEST SWAP3 POP POP DUP2 SWAP1 SSTORE POP DUP2 PUSH1 0x1 PUSH1 0x0 DUP6 PUSH20 0xFFFFFFFFFFFFFFFFFFFFFFFFFFFFFFFFFFFFFFFF AND PUSH20 0xFFFFFFFFFFFFFFFFFFFFFFFFFFFFFFFFFFFFFFFF AND DUP2 MSTORE PUSH1 0x20 ADD SWAP1 DUP2 MSTORE PUSH1 0x20 ADD PUSH1 0x0 KECCAK256 PUSH1 0x0 DUP3 DUP3 SLOAD PUSH2 0x337 SWAP2 SWAP1 PUSH2 0x811 JUMP JUMPDEST SWAP3 POP POP DUP2 SWAP1 SSTORE POP DUP3 PUSH20 0xFFFFFFFFFFFFFFFFFFFFFFFFFFFFFFFFFFFFFFFF AND DUP5 PUSH20 0xFFFFFFFFFFFFFFFFFFFFFFFFFFFFFFFFFFFFFFFF AND PUSH32 0xD52BD61F7C422D441E024604F4517878FD3305D6ACF0FE37BAEF23ED21AF6BC9 DUP5 PUSH1 0x40 MLOAD PUSH2 0x39B SWAP2 SWAP1 PUSH2 0x5A1 JUMP JUMPDEST PUSH1 0x40 MLOAD DUP1 SWAP2 SUB SWAP1 LOG3 POP POP POP POP JUMP JUMPDEST PUSH1 0x2 PUSH1 0x0 SWAP1 SLOAD SWAP1 PUSH2 0x100 EXP SWAP1 DIV PUSH20 0xFFFFFFFFFFFFFFFFFFFFFFFFFFFFFFFFFFFFFFFF AND DUP2 JUMP JUMPDEST PUSH1 0x0 PUSH1 0x20 MSTORE DUP1 PUSH1 0x0 MSTORE PUSH1 0x40 PUSH1 0x0 KECCAK256 PUSH1 0x0 SWAP2 POP SWAP1 POP SLOAD DUP2 JUMP JUMPDEST PUSH1 0x1 PUSH1 0x20 MSTORE DUP1 PUSH1 0x0 MSTORE PUSH1 0x40 PUSH1 0x0 KECCAK256 PUSH1 0x0 SWAP2 POP SWAP1 POP SLOAD DUP2 JUMP JUMPDEST PUSH1 0x0 DUP1 REVERT JUMPDEST PUSH1 0x0 PUSH20 0xFFFFFFFFFFFFFFFFFFFFFFFFFFFFFFFFFFFFFFFF DUP3 AND SWAP1 POP SWAP2 SWAP1 POP JUMP JUMPDEST PUSH1 0x0 PUSH2 0x42F DUP3 PUSH2 0x404 JUMP JUMPDEST SWAP1 POP SWAP2 SWAP1 POP JUMP JUMPDEST PUSH2 0x43F DUP2 PUSH2 0x424 JUMP JUMPDEST DUP2 EQ PUSH2 0x44A JUMPI PUSH1 0x0 DUP1 REVERT JUMPDEST POP JUMP JUMPDEST PUSH1 0x0 DUP2 CALLDATALOAD SWAP1 POP PUSH2 0x45C DUP2 PUSH2 0x436 JUMP JUMPDEST SWAP3 SWAP2 POP POP JUMP JUMPDEST PUSH1 0x0 DUP2 SWAP1 POP SWAP2 SWAP1 POP JUMP JUMPDEST PUSH2 0x475 DUP2 PUSH2 0x462 JUMP JUMPDEST DUP2 EQ PUSH2 0x480 JUMPI PUSH1 0x0 DUP1 REVERT JUMPDEST POP JUMP JUMPDEST PUSH1 0x0 DUP2 CALLDATALOAD SWAP1 POP PUSH2 0x492 DUP2 PUSH2 0x46C JUMP JUMPDEST SWAP3 SWAP2 POP POP JUMP JUMPDEST PUSH1 0x0 DUP1 PUSH1 0x0 PUSH1 0x60 DUP5 DUP7 SUB SLT ISZERO PUSH2 0x4B1 JUMPI PUSH2 0x4B0 PUSH2 0x3FF JUMP JUMPDEST JUMPDEST PUSH1 0x0 PUSH2 0x4BF DUP7 DUP3 DUP8 ADD PUSH2 0x44D JUMP JUMPDEST SWAP4 POP POP PUSH1 0x20 PUSH2 0x4D0 DUP7 DUP3 DUP8 ADD PUSH2 0x44D JUMP JUMPDEST SWAP3 POP POP PUSH1 0x40 PUSH2 0x4E1 DUP7 DUP3 DUP8 ADD PUSH2 0x483 JUMP JUMPDEST SWAP2 POP POP SWAP3 POP SWAP3 POP SWAP3 JUMP JUMPDEST PUSH1 0x0 DUP2 SWAP1 POP SWAP2 SWAP1 POP JUMP JUMPDEST PUSH1 0x0 PUSH2 0x510 PUSH2 0x50B PUSH2 0x506 DUP5 PUSH2 0x404 JUMP JUMPDEST PUSH2 0x4EB JUMP JUMPDEST PUSH2 0x404 JUMP JUMPDEST SWAP1 POP SWAP2 SWAP1 POP JUMP JUMPDEST PUSH1 0x0 PUSH2 0x522 DUP3 PUSH2 0x4F5 JUMP JUMPDEST SWAP1 POP SWAP2 SWAP1 POP JUMP JUMPDEST PUSH1 0x0 PUSH2 0x534 DUP3 PUSH2 0x517 JUMP JUMPDEST SWAP1 POP SWAP2 SWAP1 POP JUMP JUMPDEST PUSH2 0x544 DUP2 PUSH2 0x529 JUMP JUMPDEST DUP3 MSTORE POP POP JUMP JUMPDEST PUSH1 0x0 PUSH1 0x20 DUP3 ADD SWAP1 POP PUSH2 0x55F PUSH1 0x0 DUP4 ADD DUP5 PUSH2 0x53B JUMP JUMPDEST SWAP3 SWAP2 POP POP JUMP JUMPDEST PUSH1 0x0 PUSH1 0x20 DUP3 DUP5 SUB SLT ISZERO PUSH2 0x57B JUMPI PUSH2 0x57A PUSH2 0x3FF JUMP JUMPDEST JUMPDEST PUSH1 0x0 PUSH2 0x589 DUP5 DUP3 DUP6 ADD PUSH2 0x44D JUMP JUMPDEST SWAP2 POP POP SWAP3 SWAP2 POP POP JUMP JUMPDEST PUSH2 0x59B DUP2 PUSH2 0x462 JUMP JUMPDEST DUP3 MSTORE POP POP JUMP JUMPDEST PUSH1 0x0 PUSH1 0x20 DUP3 ADD SWAP1 POP PUSH2 0x5B6 PUSH1 0x0 DUP4 ADD DUP5 PUSH2 0x592 JUMP JUMPDEST SWAP3 SWAP2 POP POP JUMP JUMPDEST PUSH1 0x0 DUP3 DUP3 MSTORE PUSH1 0x20 DUP3 ADD SWAP1 POP SWAP3 SWAP2 POP POP JUMP JUMPDEST PUSH32 0x416D6F756E74206D7573742062652067726561746572207468616E207A65726F PUSH1 0x0 DUP3 ADD MSTORE POP JUMP JUMPDEST PUSH1 0x0 PUSH2 0x603 PUSH1 0x20 DUP4 PUSH2 0x5BC JUMP JUMPDEST SWAP2 POP PUSH2 0x60E DUP3 PUSH2 0x5CD JUMP JUMPDEST PUSH1 0x20 DUP3 ADD SWAP1 POP SWAP2 SWAP1 POP JUMP JUMPDEST PUSH1 0x0 PUSH1 0x20 DUP3 ADD SWAP1 POP DUP2 DUP2 SUB PUSH1 0x0 DUP4 ADD MSTORE PUSH2 0x632 DUP2 PUSH2 0x5F6 JUMP JUMPDEST SWAP1 POP SWAP2 SWAP1 POP JUMP JUMPDEST PUSH32 0x496E73756666696369656E742062616C616E6365000000000000000000000000 PUSH1 0x0 DUP3 ADD MSTORE POP JUMP JUMPDEST PUSH1 0x0 PUSH2 0x66F PUSH1 0x14 DUP4 PUSH2 0x5BC JUMP JUMPDEST SWAP2 POP PUSH2 0x67A DUP3 PUSH2 0x639 JUMP JUMPDEST PUSH1 0x20 DUP3 ADD SWAP1 POP SWAP2 SWAP1 POP JUMP JUMPDEST PUSH1 0x0 PUSH1 0x20 DUP3 ADD SWAP1 POP DUP2 DUP2 SUB PUSH1 0x0 DUP4 ADD MSTORE PUSH2 0x69E DUP2 PUSH2 0x662 JUMP JUMPDEST SWAP1 POP SWAP2 SWAP1 POP JUMP JUMPDEST PUSH2 0x6AE DUP2 PUSH2 0x424 JUMP JUMPDEST DUP3 MSTORE POP POP JUMP JUMPDEST PUSH1 0x0 PUSH1 0x40 DUP3 ADD SWAP1 POP PUSH2 0x6C9 PUSH1 0x0 DUP4 ADD DUP6 PUSH2 0x6A5 JUMP JUMPDEST PUSH2 0x6D6 PUSH1 0x20 DUP4 ADD DUP5 PUSH2 0x592 JUMP JUMPDEST SWAP4 SWAP3 POP POP POP JUMP JUMPDEST PUSH1 0x0 DUP2 ISZERO ISZERO SWAP1 POP SWAP2 SWAP1 POP JUMP JUMPDEST PUSH2 0x6F2 DUP2 PUSH2 0x6DD JUMP JUMPDEST DUP2 EQ PUSH2 0x6FD JUMPI PUSH1 0x0 DUP1 REVERT JUMPDEST POP JUMP JUMPDEST PUSH1 0x0 DUP2 MLOAD SWAP1 POP PUSH2 0x70F DUP2 PUSH2 0x6E9 JUMP JUMPDEST SWAP3 SWAP2 POP POP JUMP JUMPDEST PUSH1 0x0 PUSH1 0x20 DUP3 DUP5 SUB SLT ISZERO PUSH2 0x72B JUMPI PUSH2 0x72A PUSH2 0x3FF JUMP JUMPDEST JUMPDEST PUSH1 0x0 PUSH2 0x739 DUP5 DUP3 DUP6 ADD PUSH2 0x700 JUMP JUMPDEST SWAP2 POP POP SWAP3 SWAP2 POP POP JUMP JUMPDEST PUSH32 0x546F6B656E207472616E73666572206661696C65640000000000000000000000 PUSH1 0x0 DUP3 ADD MSTORE POP JUMP JUMPDEST PUSH1 0x0 PUSH2 0x778 PUSH1 0x15 DUP4 PUSH2 0x5BC JUMP JUMPDEST SWAP2 POP PUSH2 0x783 DUP3 PUSH2 0x742 JUMP JUMPDEST PUSH1 0x20 DUP3 ADD SWAP1 POP SWAP2 SWAP1 POP JUMP JUMPDEST PUSH1 0x0 PUSH1 0x20 DUP3 ADD SWAP1 POP DUP2 DUP2 SUB PUSH1 0x0 DUP4 ADD MSTORE PUSH2 0x7A7 DUP2 PUSH2 0x76B JUMP JUMPDEST SWAP1 POP SWAP2 SWAP1 POP JUMP JUMPDEST PUSH32 0x4E487B7100000000000000000000000000000000000000000000000000000000 PUSH1 0x0 MSTORE PUSH1 0x11 PUSH1 0x4 MSTORE PUSH1 0x24 PUSH1 0x0 REVERT JUMPDEST PUSH1 0x0 PUSH2 0x7E8 DUP3 PUSH2 0x462 JUMP JUMPDEST SWAP2 POP PUSH2 0x7F3 DUP4 PUSH2 0x462 JUMP JUMPDEST SWAP3 POP DUP3 DUP3 SUB SWAP1 POP DUP2 DUP2 GT ISZERO PUSH2 0x80B JUMPI PUSH2 0x80A PUSH2 0x7AE JUMP JUMPDEST JUMPDEST SWAP3 SWAP2 POP POP JUMP JUMPDEST PUSH1 0x0 PUSH2 0x81C DUP3 PUSH2 0x462 JUMP JUMPDEST SWAP2 POP PUSH2 0x827 DUP4 PUSH2 0x462 JUMP JUMPDEST SWAP3 POP DUP3 DUP3 ADD SWAP1 POP DUP1 DUP3 GT ISZERO PUSH2 0x83F JUMPI PUSH2 0x83E PUSH2 0x7AE JUMP JUMPDEST JUMPDEST SWAP3 SWAP2 POP POP JUMP INVALID LOG2 PUSH5 0x6970667358 0x22 SLT KECCAK256 0xCB BALANCE 0xCA PUSH24 0xD8BAFB14AF7BE3F167F800EF60A08EF6FD1745F5DF9CC811 DUP9 PUSH25 0x8C8D64736F6C63430008120033000000000000000000000000 "
				},
				"gasEstimates": {
					"creation": {
						"codeDepositCost": "434200",
						"executionCost": "infinite",
						"totalCost": "infinite"
					},
					"external": {
						"driverBalances(address)": "2858",
						"riderBalances(address)": "2836",
						"sendPayment(address,address,uint256)": "infinite",
						"tetherToken()": "infinite"
					}
				},
				"methodIdentifiers": {
					"driverBalances(address)": "c53735a3",
					"riderBalances(address)": "c2993eee",
					"sendPayment(address,address,uint256)": "395801e7",
					"tetherToken()": "bd076e6b"
				}
			},
			"storageLayout": {
				"storage": [
					{
						"astId": 22,
						"contract": "zefazef.sol:PaymentSystem",
						"label": "riderBalances",
						"offset": 0,
						"slot": "0",
						"type": "t_mapping(t_address,t_uint256)"
					},
					{
						"astId": 26,
						"contract": "zefazef.sol:PaymentSystem",
						"label": "driverBalances",
						"offset": 0,
						"slot": "1",
						"type": "t_mapping(t_address,t_uint256)"
					},
					{
						"astId": 37,
						"contract": "zefazef.sol:PaymentSystem",
						"label": "tetherToken",
						"offset": 0,
						"slot": "2",
						"type": "t_contract(TetherToken)18"
					}
				],
				"types": {
					"t_address": {
						"encoding": "inplace",
						"label": "address",
						"numberOfBytes": "20"
					},
					"t_contract(TetherToken)18": {
						"encoding": "inplace",
						"label": "contract TetherToken",
						"numberOfBytes": "20"
					},
					"t_mapping(t_address,t_uint256)": {
						"encoding": "mapping",
						"key": "t_address",
						"label": "mapping(address => uint256)",
						"numberOfBytes": "32",
						"value": "t_uint256"
					},
					"t_uint256": {
						"encoding": "inplace",
						"label": "uint256",
						"numberOfBytes": "32"
					}
				}
			},
			"userdoc": {
				"kind": "user",
				"methods": {},
				"version": 1
			}
		}
	}
}