{
	"PapiGo_Contract.sol": {
		"PapiGo": {
			"abi": [
				{
					"inputs": [],
					"stateMutability": "nonpayable",
					"type": "constructor"
				},
				{
					"anonymous": false,
					"inputs": [
						{
							"indexed": true,
							"internalType": "address",
							"name": "sender",
							"type": "address"
						},
						{
							"indexed": true,
							"internalType": "address",
							"name": "recipient",
							"type": "address"
						},
						{
							"indexed": false,
							"internalType": "uint256",
							"name": "amount",
							"type": "uint256"
						},
						{
							"indexed": false,
							"internalType": "string",
							"name": "currency",
							"type": "string"
						}
					],
					"name": "Transaction",
					"type": "event"
				},
				{
					"inputs": [
						{
							"internalType": "address",
							"name": "",
							"type": "address"
						}
					],
					"name": "balancesUSDT",
					"outputs": [
						{
							"internalType": "uint256",
							"name": "",
							"type": "uint256"
						}
					],
					"stateMutability": "view",
					"type": "function"
				},
				{
					"inputs": [],
					"name": "intermediary",
					"outputs": [
						{
							"internalType": "address",
							"name": "",
							"type": "address"
						}
					],
					"stateMutability": "view",
					"type": "function"
				},
				{
					"inputs": [
						{
							"internalType": "address",
							"name": "",
							"type": "address"
						}
					],
					"name": "loyaltyLevels",
					"outputs": [
						{
							"internalType": "uint256",
							"name": "",
							"type": "uint256"
						}
					],
					"stateMutability": "view",
					"type": "function"
				},
				{
					"inputs": [
						{
							"internalType": "address",
							"name": "sender",
							"type": "address"
						},
						{
							"internalType": "address",
							"name": "recipient",
							"type": "address"
						},
						{
							"internalType": "uint256",
							"name": "amountUSDT",
							"type": "uint256"
						}
					],
					"name": "payTrip",
					"outputs": [],
					"stateMutability": "nonpayable",
					"type": "function"
				},
				{
					"inputs": [
						{
							"internalType": "address",
							"name": "account",
							"type": "address"
						},
						{
							"internalType": "uint256",
							"name": "amountUSDT",
							"type": "uint256"
						}
					],
					"name": "setInitialBalance",
					"outputs": [],
					"stateMutability": "nonpayable",
					"type": "function"
				},
				{
					"inputs": [
						{
							"internalType": "address",
							"name": "_intermediary",
							"type": "address"
						}
					],
					"name": "setIntermediary",
					"outputs": [],
					"stateMutability": "nonpayable",
					"type": "function"
				},
				{
					"inputs": [
						{
							"internalType": "address",
							"name": "account",
							"type": "address"
						},
						{
							"internalType": "uint256",
							"name": "level",
							"type": "uint256"
						}
					],
					"name": "setLoyaltyLevel",
					"outputs": [],
					"stateMutability": "nonpayable",
					"type": "function"
				}
			],
			"devdoc": {
				"kind": "dev",
				"methods": {},
				"version": 1
			},
			"evm": {
				"assembly": "    /* \"PapiGo_Contract.sol\":123:2608  contract PapiGo {... */\n  mstore(0x40, 0x80)\n    /* \"PapiGo_Contract.sol\":540:648  constructor() {... */\n  callvalue\n  dup1\n  iszero\n  tag_1\n  jumpi\n  0x00\n  dup1\n  revert\ntag_1:\n  pop\n    /* \"PapiGo_Contract.sol\":580:622  0xdAC17F958D2ee523a2206206994597C13D831ec7 */\n  0xdac17f958d2ee523a2206206994597c13d831ec7\n    /* \"PapiGo_Contract.sol\":564:570  tether */\n  0x00\n  dup1\n    /* \"PapiGo_Contract.sol\":564:623  tether = IERC20(0xdAC17F958D2ee523a2206206994597C13D831ec7) */\n  0x0100\n  exp\n  dup2\n  sload\n  dup2\n  0xffffffffffffffffffffffffffffffffffffffff\n  mul\n  not\n  and\n  swap1\n  dup4\n  0xffffffffffffffffffffffffffffffffffffffff\n  and\n  mul\n  or\n  swap1\n  sstore\n  pop\n    /* \"PapiGo_Contract.sol\":123:2608  contract PapiGo {... */\n  dataSize(sub_0)\n  dup1\n  dataOffset(sub_0)\n  0x00\n  codecopy\n  0x00\n  return\nstop\n\nsub_0: assembly {\n        /* \"PapiGo_Contract.sol\":123:2608  contract PapiGo {... */\n      mstore(0x40, 0x80)\n      callvalue\n      dup1\n      iszero\n      tag_1\n      jumpi\n      0x00\n      dup1\n      revert\n    tag_1:\n      pop\n      jumpi(tag_2, lt(calldatasize, 0x04))\n      shr(0xe0, calldataload(0x00))\n      dup1\n      0x854572b4\n      gt\n      tag_10\n      jumpi\n      dup1\n      0x854572b4\n      eq\n      tag_6\n      jumpi\n      dup1\n      0xa61bab2f\n      eq\n      tag_7\n      jumpi\n      dup1\n      0xd1ef621d\n      eq\n      tag_8\n      jumpi\n      dup1\n      0xebbc9b32\n      eq\n      tag_9\n      jumpi\n      jump(tag_2)\n    tag_10:\n      dup1\n      0x0b34b555\n      eq\n      tag_3\n      jumpi\n      dup1\n      0x56b89be4\n      eq\n      tag_4\n      jumpi\n      dup1\n      0x79fd022e\n      eq\n      tag_5\n      jumpi\n    tag_2:\n      0x00\n      dup1\n      revert\n        /* \"PapiGo_Contract.sol\":2443:2606  function setInitialBalance(address account, uint amountUSDT) external {... */\n    tag_3:\n      tag_11\n      0x04\n      dup1\n      calldatasize\n      sub\n      dup2\n      add\n      swap1\n      tag_12\n      swap2\n      swap1\n      tag_13\n      jump\t// in\n    tag_12:\n      tag_14\n      jump\t// in\n    tag_11:\n      stop\n        /* \"PapiGo_Contract.sol\":172:216  mapping(address => uint) public balancesUSDT */\n    tag_4:\n      tag_15\n      0x04\n      dup1\n      calldatasize\n      sub\n      dup2\n      add\n      swap1\n      tag_16\n      swap2\n      swap1\n      tag_17\n      jump\t// in\n    tag_16:\n      tag_18\n      jump\t// in\n    tag_15:\n      mload(0x40)\n      tag_19\n      swap2\n      swap1\n      tag_20\n      jump\t// in\n    tag_19:\n      mload(0x40)\n      dup1\n      swap2\n      sub\n      swap1\n      return\n        /* \"PapiGo_Contract.sol\":380:407  address public intermediary */\n    tag_5:\n      tag_21\n      tag_22\n      jump\t// in\n    tag_21:\n      mload(0x40)\n      tag_23\n      swap2\n      swap1\n      tag_24\n      jump\t// in\n    tag_23:\n      mload(0x40)\n      dup1\n      swap2\n      sub\n      swap1\n      return\n        /* \"PapiGo_Contract.sol\":283:328  mapping(address => uint) public loyaltyLevels */\n    tag_6:\n      tag_25\n      0x04\n      dup1\n      calldatasize\n      sub\n      dup2\n      add\n      swap1\n      tag_26\n      swap2\n      swap1\n      tag_17\n      jump\t// in\n    tag_26:\n      tag_27\n      jump\t// in\n    tag_25:\n      mload(0x40)\n      tag_28\n      swap2\n      swap1\n      tag_20\n      jump\t// in\n    tag_28:\n      mload(0x40)\n      dup1\n      swap2\n      sub\n      swap1\n      return\n        /* \"PapiGo_Contract.sol\":658:871  function setIntermediary(address _intermediary) external {... */\n    tag_7:\n      tag_29\n      0x04\n      dup1\n      calldatasize\n      sub\n      dup2\n      add\n      swap1\n      tag_30\n      swap2\n      swap1\n      tag_17\n      jump\t// in\n    tag_30:\n      tag_31\n      jump\t// in\n    tag_29:\n      stop\n        /* \"PapiGo_Contract.sol\":881:1098  function setLoyaltyLevel(address account, uint level) external {... */\n    tag_8:\n      tag_32\n      0x04\n      dup1\n      calldatasize\n      sub\n      dup2\n      add\n      swap1\n      tag_33\n      swap2\n      swap1\n      tag_13\n      jump\t// in\n    tag_33:\n      tag_34\n      jump\t// in\n    tag_32:\n      stop\n        /* \"PapiGo_Contract.sol\":1104:2437  function payTrip(address sender, address recipient, uint amountUSDT) external {... */\n    tag_9:\n      tag_35\n      0x04\n      dup1\n      calldatasize\n      sub\n      dup2\n      add\n      swap1\n      tag_36\n      swap2\n      swap1\n      tag_37\n      jump\t// in\n    tag_36:\n      tag_38\n      jump\t// in\n    tag_35:\n      stop\n        /* \"PapiGo_Contract.sol\":2443:2606  function setInitialBalance(address account, uint amountUSDT) external {... */\n    tag_14:\n        /* \"PapiGo_Contract.sol\":2589:2599  amountUSDT */\n      dup1\n        /* \"PapiGo_Contract.sol\":2565:2577  balancesUSDT */\n      0x01\n        /* \"PapiGo_Contract.sol\":2565:2586  balancesUSDT[account] */\n      0x00\n        /* \"PapiGo_Contract.sol\":2578:2585  account */\n      dup5\n        /* \"PapiGo_Contract.sol\":2565:2586  balancesUSDT[account] */\n      0xffffffffffffffffffffffffffffffffffffffff\n      and\n      0xffffffffffffffffffffffffffffffffffffffff\n      and\n      dup2\n      mstore\n      0x20\n      add\n      swap1\n      dup2\n      mstore\n      0x20\n      add\n      0x00\n      keccak256\n        /* \"PapiGo_Contract.sol\":2565:2599  balancesUSDT[account] = amountUSDT */\n      dup2\n      swap1\n      sstore\n      pop\n        /* \"PapiGo_Contract.sol\":2443:2606  function setInitialBalance(address account, uint amountUSDT) external {... */\n      pop\n      pop\n      jump\t// out\n        /* \"PapiGo_Contract.sol\":172:216  mapping(address => uint) public balancesUSDT */\n    tag_18:\n      mstore(0x20, 0x01)\n      dup1\n      0x00\n      mstore\n      keccak256(0x00, 0x40)\n      0x00\n      swap2\n      pop\n      swap1\n      pop\n      sload\n      dup2\n      jump\t// out\n        /* \"PapiGo_Contract.sol\":380:407  address public intermediary */\n    tag_22:\n      0x03\n      0x00\n      swap1\n      sload\n      swap1\n      0x0100\n      exp\n      swap1\n      div\n      0xffffffffffffffffffffffffffffffffffffffff\n      and\n      dup2\n      jump\t// out\n        /* \"PapiGo_Contract.sol\":283:328  mapping(address => uint) public loyaltyLevels */\n    tag_27:\n      mstore(0x20, 0x02)\n      dup1\n      0x00\n      mstore\n      keccak256(0x00, 0x40)\n      0x00\n      swap2\n      pop\n      swap1\n      pop\n      sload\n      dup2\n      jump\t// out\n        /* \"PapiGo_Contract.sol\":658:871  function setIntermediary(address _intermediary) external {... */\n    tag_31:\n        /* \"PapiGo_Contract.sol\":758:759  0 */\n      0x00\n        /* \"PapiGo_Contract.sol\":733:760  _intermediary != address(0) */\n      0xffffffffffffffffffffffffffffffffffffffff\n      and\n        /* \"PapiGo_Contract.sol\":733:746  _intermediary */\n      dup2\n        /* \"PapiGo_Contract.sol\":733:760  _intermediary != address(0) */\n      0xffffffffffffffffffffffffffffffffffffffff\n      and\n      sub\n        /* \"PapiGo_Contract.sol\":725:793  require(_intermediary != address(0), \"Invalid intermediary address\") */\n      tag_41\n      jumpi\n      mload(0x40)\n      0x08c379a000000000000000000000000000000000000000000000000000000000\n      dup2\n      mstore\n      0x04\n      add\n      tag_42\n      swap1\n      tag_43\n      jump\t// in\n    tag_42:\n      mload(0x40)\n      dup1\n      swap2\n      sub\n      swap1\n      revert\n    tag_41:\n        /* \"PapiGo_Contract.sol\":818:831  _intermediary */\n      dup1\n        /* \"PapiGo_Contract.sol\":803:815  intermediary */\n      0x03\n      0x00\n        /* \"PapiGo_Contract.sol\":803:831  intermediary = _intermediary */\n      0x0100\n      exp\n      dup2\n      sload\n      dup2\n      0xffffffffffffffffffffffffffffffffffffffff\n      mul\n      not\n      and\n      swap1\n      dup4\n      0xffffffffffffffffffffffffffffffffffffffff\n      and\n      mul\n      or\n      swap1\n      sstore\n      pop\n        /* \"PapiGo_Contract.sol\":658:871  function setIntermediary(address _intermediary) external {... */\n      pop\n      jump\t// out\n        /* \"PapiGo_Contract.sol\":881:1098  function setLoyaltyLevel(address account, uint level) external {... */\n    tag_34:\n        /* \"PapiGo_Contract.sol\":971:972  1 */\n      0x01\n        /* \"PapiGo_Contract.sol\":962:967  level */\n      dup2\n        /* \"PapiGo_Contract.sol\":962:972  level >= 1 */\n      lt\n      iszero\n        /* \"PapiGo_Contract.sol\":962:986  level >= 1 && level <= 5 */\n      dup1\n      iszero\n      tag_45\n      jumpi\n      pop\n        /* \"PapiGo_Contract.sol\":985:986  5 */\n      0x05\n        /* \"PapiGo_Contract.sol\":976:981  level */\n      dup2\n        /* \"PapiGo_Contract.sol\":976:986  level <= 5 */\n      gt\n      iszero\n        /* \"PapiGo_Contract.sol\":962:986  level >= 1 && level <= 5 */\n    tag_45:\n        /* \"PapiGo_Contract.sol\":954:1012  require(level >= 1 && level <= 5, \"Invalid loyalty level\") */\n      tag_46\n      jumpi\n      mload(0x40)\n      0x08c379a000000000000000000000000000000000000000000000000000000000\n      dup2\n      mstore\n      0x04\n      add\n      tag_47\n      swap1\n      tag_48\n      jump\t// in\n    tag_47:\n      mload(0x40)\n      dup1\n      swap2\n      sub\n      swap1\n      revert\n    tag_46:\n        /* \"PapiGo_Contract.sol\":1047:1052  level */\n      dup1\n        /* \"PapiGo_Contract.sol\":1022:1035  loyaltyLevels */\n      0x02\n        /* \"PapiGo_Contract.sol\":1022:1044  loyaltyLevels[account] */\n      0x00\n        /* \"PapiGo_Contract.sol\":1036:1043  account */\n      dup5\n        /* \"PapiGo_Contract.sol\":1022:1044  loyaltyLevels[account] */\n      0xffffffffffffffffffffffffffffffffffffffff\n      and\n      0xffffffffffffffffffffffffffffffffffffffff\n      and\n      dup2\n      mstore\n      0x20\n      add\n      swap1\n      dup2\n      mstore\n      0x20\n      add\n      0x00\n      keccak256\n        /* \"PapiGo_Contract.sol\":1022:1052  loyaltyLevels[account] = level */\n      dup2\n      swap1\n      sstore\n      pop\n        /* \"PapiGo_Contract.sol\":881:1098  function setLoyaltyLevel(address account, uint level) external {... */\n      pop\n      pop\n      jump\t// out\n        /* \"PapiGo_Contract.sol\":1104:2437  function payTrip(address sender, address recipient, uint amountUSDT) external {... */\n    tag_38:\n        /* \"PapiGo_Contract.sol\":1224:1225  0 */\n      0x00\n        /* \"PapiGo_Contract.sol\":1200:1226  intermediary != address(0) */\n      0xffffffffffffffffffffffffffffffffffffffff\n      and\n        /* \"PapiGo_Contract.sol\":1200:1212  intermediary */\n      0x03\n      0x00\n      swap1\n      sload\n      swap1\n      0x0100\n      exp\n      swap1\n      div\n      0xffffffffffffffffffffffffffffffffffffffff\n      and\n        /* \"PapiGo_Contract.sol\":1200:1226  intermediary != address(0) */\n      0xffffffffffffffffffffffffffffffffffffffff\n      and\n      sub\n        /* \"PapiGo_Contract.sol\":1192:1259  require(intermediary != address(0), \"Intermediary address not set\") */\n      tag_50\n      jumpi\n      mload(0x40)\n      0x08c379a000000000000000000000000000000000000000000000000000000000\n      dup2\n      mstore\n      0x04\n      add\n      tag_51\n      swap1\n      tag_52\n      jump\t// in\n    tag_51:\n      mload(0x40)\n      dup1\n      swap2\n      sub\n      swap1\n      revert\n    tag_50:\n        /* \"PapiGo_Contract.sol\":1279:1296  uint loyaltyLevel */\n      0x00\n        /* \"PapiGo_Contract.sol\":1299:1312  loyaltyLevels */\n      0x02\n        /* \"PapiGo_Contract.sol\":1299:1320  loyaltyLevels[sender] */\n      0x00\n        /* \"PapiGo_Contract.sol\":1313:1319  sender */\n      dup6\n        /* \"PapiGo_Contract.sol\":1299:1320  loyaltyLevels[sender] */\n      0xffffffffffffffffffffffffffffffffffffffff\n      and\n      0xffffffffffffffffffffffffffffffffffffffff\n      and\n      dup2\n      mstore\n      0x20\n      add\n      swap1\n      dup2\n      mstore\n      0x20\n      add\n      0x00\n      keccak256\n      sload\n        /* \"PapiGo_Contract.sol\":1279:1320  uint loyaltyLevel = loyaltyLevels[sender] */\n      swap1\n      pop\n        /* \"PapiGo_Contract.sol\":1330:1348  uint loyaltyReward */\n      0x00\n        /* \"PapiGo_Contract.sol\":1381:1384  100 */\n      0x64\n        /* \"PapiGo_Contract.sol\":1365:1377  loyaltyLevel */\n      dup3\n        /* \"PapiGo_Contract.sol\":1352:1362  amountUSDT */\n      dup5\n        /* \"PapiGo_Contract.sol\":1352:1377  amountUSDT * loyaltyLevel */\n      tag_53\n      swap2\n      swap1\n      tag_54\n      jump\t// in\n    tag_53:\n        /* \"PapiGo_Contract.sol\":1351:1384  (amountUSDT * loyaltyLevel) / 100 */\n      tag_55\n      swap2\n      swap1\n      tag_56\n      jump\t// in\n    tag_55:\n        /* \"PapiGo_Contract.sol\":1330:1384  uint loyaltyReward = (amountUSDT * loyaltyLevel) / 100 */\n      swap1\n      pop\n        /* \"PapiGo_Contract.sol\":1454:1474  uint intermediaryFee */\n      0x00\n        /* \"PapiGo_Contract.sol\":1497:1500  100 */\n      0x64\n        /* \"PapiGo_Contract.sol\":1491:1493  10 */\n      0x0a\n        /* \"PapiGo_Contract.sol\":1478:1488  amountUSDT */\n      dup6\n        /* \"PapiGo_Contract.sol\":1478:1493  amountUSDT * 10 */\n      tag_57\n      swap2\n      swap1\n      tag_54\n      jump\t// in\n    tag_57:\n        /* \"PapiGo_Contract.sol\":1477:1500  (amountUSDT * 10) / 100 */\n      tag_58\n      swap2\n      swap1\n      tag_56\n      jump\t// in\n    tag_58:\n        /* \"PapiGo_Contract.sol\":1454:1500  uint intermediaryFee = (amountUSDT * 10) / 100 */\n      swap1\n      pop\n        /* \"PapiGo_Contract.sol\":1534:1553  uint amountAfterFee */\n      0x00\n        /* \"PapiGo_Contract.sol\":1569:1584  intermediaryFee */\n      dup2\n        /* \"PapiGo_Contract.sol\":1556:1566  amountUSDT */\n      dup6\n        /* \"PapiGo_Contract.sol\":1556:1584  amountUSDT - intermediaryFee */\n      tag_59\n      swap2\n      swap1\n      tag_60\n      jump\t// in\n    tag_59:\n        /* \"PapiGo_Contract.sol\":1534:1584  uint amountAfterFee = amountUSDT - intermediaryFee */\n      swap1\n      pop\n        /* \"PapiGo_Contract.sol\":1670:1680  amountUSDT */\n      dup5\n        /* \"PapiGo_Contract.sol\":1646:1658  balancesUSDT */\n      0x01\n        /* \"PapiGo_Contract.sol\":1646:1666  balancesUSDT[sender] */\n      0x00\n        /* \"PapiGo_Contract.sol\":1659:1665  sender */\n      dup10\n        /* \"PapiGo_Contract.sol\":1646:1666  balancesUSDT[sender] */\n      0xffffffffffffffffffffffffffffffffffffffff\n      and\n      0xffffffffffffffffffffffffffffffffffffffff\n      and\n      dup2\n      mstore\n      0x20\n      add\n      swap1\n      dup2\n      mstore\n      0x20\n      add\n      0x00\n      keccak256\n      0x00\n        /* \"PapiGo_Contract.sol\":1646:1680  balancesUSDT[sender] -= amountUSDT */\n      dup3\n      dup3\n      sload\n      tag_61\n      swap2\n      swap1\n      tag_60\n      jump\t// in\n    tag_61:\n      swap3\n      pop\n      pop\n      dup2\n      swap1\n      sstore\n      pop\n        /* \"PapiGo_Contract.sol\":1783:1796  loyaltyReward */\n      dup3\n        /* \"PapiGo_Contract.sol\":1765:1780  intermediaryFee */\n      dup3\n        /* \"PapiGo_Contract.sol\":1765:1796  intermediaryFee - loyaltyReward */\n      tag_62\n      swap2\n      swap1\n      tag_60\n      jump\t// in\n    tag_62:\n        /* \"PapiGo_Contract.sol\":1735:1747  balancesUSDT */\n      0x01\n        /* \"PapiGo_Contract.sol\":1735:1761  balancesUSDT[intermediary] */\n      0x00\n        /* \"PapiGo_Contract.sol\":1748:1760  intermediary */\n      0x03\n      0x00\n      swap1\n      sload\n      swap1\n      0x0100\n      exp\n      swap1\n      div\n      0xffffffffffffffffffffffffffffffffffffffff\n      and\n        /* \"PapiGo_Contract.sol\":1735:1761  balancesUSDT[intermediary] */\n      0xffffffffffffffffffffffffffffffffffffffff\n      and\n      0xffffffffffffffffffffffffffffffffffffffff\n      and\n      dup2\n      mstore\n      0x20\n      add\n      swap1\n      dup2\n      mstore\n      0x20\n      add\n      0x00\n      keccak256\n      0x00\n        /* \"PapiGo_Contract.sol\":1735:1796  balancesUSDT[intermediary] += intermediaryFee - loyaltyReward */\n      dup3\n      dup3\n      sload\n      tag_63\n      swap2\n      swap1\n      tag_64\n      jump\t// in\n    tag_63:\n      swap3\n      pop\n      pop\n      dup2\n      swap1\n      sstore\n      pop\n        /* \"PapiGo_Contract.sol\":1906:1920  amountAfterFee */\n      dup1\n        /* \"PapiGo_Contract.sol\":1879:1891  balancesUSDT */\n      0x01\n        /* \"PapiGo_Contract.sol\":1879:1902  balancesUSDT[recipient] */\n      0x00\n        /* \"PapiGo_Contract.sol\":1892:1901  recipient */\n      dup9\n        /* \"PapiGo_Contract.sol\":1879:1902  balancesUSDT[recipient] */\n      0xffffffffffffffffffffffffffffffffffffffff\n      and\n      0xffffffffffffffffffffffffffffffffffffffff\n      and\n      dup2\n      mstore\n      0x20\n      add\n      swap1\n      dup2\n      mstore\n      0x20\n      add\n      0x00\n      keccak256\n      0x00\n        /* \"PapiGo_Contract.sol\":1879:1920  balancesUSDT[recipient] += amountAfterFee */\n      dup3\n      dup3\n      sload\n      tag_65\n      swap2\n      swap1\n      tag_64\n      jump\t// in\n    tag_65:\n      swap3\n      pop\n      pop\n      dup2\n      swap1\n      sstore\n      pop\n        /* \"PapiGo_Contract.sol\":2001:2014  loyaltyReward */\n      dup3\n        /* \"PapiGo_Contract.sol\":1977:1989  balancesUSDT */\n      0x01\n        /* \"PapiGo_Contract.sol\":1977:1997  balancesUSDT[sender] */\n      0x00\n        /* \"PapiGo_Contract.sol\":1990:1996  sender */\n      dup10\n        /* \"PapiGo_Contract.sol\":1977:1997  balancesUSDT[sender] */\n      0xffffffffffffffffffffffffffffffffffffffff\n      and\n      0xffffffffffffffffffffffffffffffffffffffff\n      and\n      dup2\n      mstore\n      0x20\n      add\n      swap1\n      dup2\n      mstore\n      0x20\n      add\n      0x00\n      keccak256\n      0x00\n        /* \"PapiGo_Contract.sol\":1977:2014  balancesUSDT[sender] += loyaltyReward */\n      dup3\n      dup3\n      sload\n      tag_66\n      swap2\n      swap1\n      tag_64\n      jump\t// in\n    tag_66:\n      swap3\n      pop\n      pop\n      dup2\n      swap1\n      sstore\n      pop\n        /* \"PapiGo_Contract.sol\":2100:2109  recipient */\n      dup6\n        /* \"PapiGo_Contract.sol\":2080:2130  Transaction(sender, recipient, amountUSDT, \"USDT\") */\n      0xffffffffffffffffffffffffffffffffffffffff\n      and\n        /* \"PapiGo_Contract.sol\":2092:2098  sender */\n      dup8\n        /* \"PapiGo_Contract.sol\":2080:2130  Transaction(sender, recipient, amountUSDT, \"USDT\") */\n      0xffffffffffffffffffffffffffffffffffffffff\n      and\n      0x7438b3ab3d18b29df7bf7fe592cc95dc9b3d321d1f880ad411f65b98df9bbd50\n        /* \"PapiGo_Contract.sol\":2111:2121  amountUSDT */\n      dup8\n        /* \"PapiGo_Contract.sol\":2080:2130  Transaction(sender, recipient, amountUSDT, \"USDT\") */\n      mload(0x40)\n      tag_67\n      swap2\n      swap1\n      tag_68\n      jump\t// in\n    tag_67:\n      mload(0x40)\n      dup1\n      swap2\n      sub\n      swap1\n      log3\n        /* \"PapiGo_Contract.sol\":2165:2177  intermediary */\n      0x03\n      0x00\n      swap1\n      sload\n      swap1\n      0x0100\n      exp\n      swap1\n      div\n      0xffffffffffffffffffffffffffffffffffffffff\n      and\n        /* \"PapiGo_Contract.sol\":2145:2219  Transaction(sender, intermediary, intermediaryFee - loyaltyReward, \"USDT\") */\n      0xffffffffffffffffffffffffffffffffffffffff\n      and\n        /* \"PapiGo_Contract.sol\":2157:2163  sender */\n      dup8\n        /* \"PapiGo_Contract.sol\":2145:2219  Transaction(sender, intermediary, intermediaryFee - loyaltyReward, \"USDT\") */\n      0xffffffffffffffffffffffffffffffffffffffff\n      and\n      0x7438b3ab3d18b29df7bf7fe592cc95dc9b3d321d1f880ad411f65b98df9bbd50\n        /* \"PapiGo_Contract.sol\":2197:2210  loyaltyReward */\n      dup6\n        /* \"PapiGo_Contract.sol\":2179:2194  intermediaryFee */\n      dup6\n        /* \"PapiGo_Contract.sol\":2179:2210  intermediaryFee - loyaltyReward */\n      tag_69\n      swap2\n      swap1\n      tag_60\n      jump\t// in\n    tag_69:\n        /* \"PapiGo_Contract.sol\":2145:2219  Transaction(sender, intermediary, intermediaryFee - loyaltyReward, \"USDT\") */\n      mload(0x40)\n      tag_70\n      swap2\n      swap1\n      tag_68\n      jump\t// in\n    tag_70:\n      mload(0x40)\n      dup1\n      swap2\n      sub\n      swap1\n      log3\n        /* \"PapiGo_Contract.sol\":2350:2356  sender */\n      dup7\n        /* \"PapiGo_Contract.sol\":2326:2380  Transaction(address(0), sender, loyaltyReward, \"USDT\") */\n      0xffffffffffffffffffffffffffffffffffffffff\n      and\n        /* \"PapiGo_Contract.sol\":2346:2347  0 */\n      0x00\n        /* \"PapiGo_Contract.sol\":2326:2380  Transaction(address(0), sender, loyaltyReward, \"USDT\") */\n      0xffffffffffffffffffffffffffffffffffffffff\n      and\n      0x7438b3ab3d18b29df7bf7fe592cc95dc9b3d321d1f880ad411f65b98df9bbd50\n        /* \"PapiGo_Contract.sol\":2358:2371  loyaltyReward */\n      dup6\n        /* \"PapiGo_Contract.sol\":2326:2380  Transaction(address(0), sender, loyaltyReward, \"USDT\") */\n      mload(0x40)\n      tag_71\n      swap2\n      swap1\n      tag_68\n      jump\t// in\n    tag_71:\n      mload(0x40)\n      dup1\n      swap2\n      sub\n      swap1\n      log3\n        /* \"PapiGo_Contract.sol\":1182:2437  {... */\n      pop\n      pop\n      pop\n      pop\n        /* \"PapiGo_Contract.sol\":1104:2437  function payTrip(address sender, address recipient, uint amountUSDT) external {... */\n      pop\n      pop\n      pop\n      jump\t// out\n        /* \"#utility.yul\":88:205   */\n    tag_73:\n        /* \"#utility.yul\":197:198   */\n      0x00\n        /* \"#utility.yul\":194:195   */\n      dup1\n        /* \"#utility.yul\":187:199   */\n      revert\n        /* \"#utility.yul\":334:460   */\n    tag_75:\n        /* \"#utility.yul\":371:378   */\n      0x00\n        /* \"#utility.yul\":411:453   */\n      0xffffffffffffffffffffffffffffffffffffffff\n        /* \"#utility.yul\":404:409   */\n      dup3\n        /* \"#utility.yul\":400:454   */\n      and\n        /* \"#utility.yul\":389:454   */\n      swap1\n      pop\n        /* \"#utility.yul\":334:460   */\n      swap2\n      swap1\n      pop\n      jump\t// out\n        /* \"#utility.yul\":466:562   */\n    tag_76:\n        /* \"#utility.yul\":503:510   */\n      0x00\n        /* \"#utility.yul\":532:556   */\n      tag_101\n        /* \"#utility.yul\":550:555   */\n      dup3\n        /* \"#utility.yul\":532:556   */\n      tag_75\n      jump\t// in\n    tag_101:\n        /* \"#utility.yul\":521:556   */\n      swap1\n      pop\n        /* \"#utility.yul\":466:562   */\n      swap2\n      swap1\n      pop\n      jump\t// out\n        /* \"#utility.yul\":568:690   */\n    tag_77:\n        /* \"#utility.yul\":641:665   */\n      tag_103\n        /* \"#utility.yul\":659:664   */\n      dup2\n        /* \"#utility.yul\":641:665   */\n      tag_76\n      jump\t// in\n    tag_103:\n        /* \"#utility.yul\":634:639   */\n      dup2\n        /* \"#utility.yul\":631:666   */\n      eq\n        /* \"#utility.yul\":621:684   */\n      tag_104\n      jumpi\n        /* \"#utility.yul\":680:681   */\n      0x00\n        /* \"#utility.yul\":677:678   */\n      dup1\n        /* \"#utility.yul\":670:682   */\n      revert\n        /* \"#utility.yul\":621:684   */\n    tag_104:\n        /* \"#utility.yul\":568:690   */\n      pop\n      jump\t// out\n        /* \"#utility.yul\":696:835   */\n    tag_78:\n        /* \"#utility.yul\":742:747   */\n      0x00\n        /* \"#utility.yul\":780:786   */\n      dup2\n        /* \"#utility.yul\":767:787   */\n      calldataload\n        /* \"#utility.yul\":758:787   */\n      swap1\n      pop\n        /* \"#utility.yul\":796:829   */\n      tag_106\n        /* \"#utility.yul\":823:828   */\n      dup2\n        /* \"#utility.yul\":796:829   */\n      tag_77\n      jump\t// in\n    tag_106:\n        /* \"#utility.yul\":696:835   */\n      swap3\n      swap2\n      pop\n      pop\n      jump\t// out\n        /* \"#utility.yul\":841:918   */\n    tag_79:\n        /* \"#utility.yul\":878:885   */\n      0x00\n        /* \"#utility.yul\":907:912   */\n      dup2\n        /* \"#utility.yul\":896:912   */\n      swap1\n      pop\n        /* \"#utility.yul\":841:918   */\n      swap2\n      swap1\n      pop\n      jump\t// out\n        /* \"#utility.yul\":924:1046   */\n    tag_80:\n        /* \"#utility.yul\":997:1021   */\n      tag_109\n        /* \"#utility.yul\":1015:1020   */\n      dup2\n        /* \"#utility.yul\":997:1021   */\n      tag_79\n      jump\t// in\n    tag_109:\n        /* \"#utility.yul\":990:995   */\n      dup2\n        /* \"#utility.yul\":987:1022   */\n      eq\n        /* \"#utility.yul\":977:1040   */\n      tag_110\n      jumpi\n        /* \"#utility.yul\":1036:1037   */\n      0x00\n        /* \"#utility.yul\":1033:1034   */\n      dup1\n        /* \"#utility.yul\":1026:1038   */\n      revert\n        /* \"#utility.yul\":977:1040   */\n    tag_110:\n        /* \"#utility.yul\":924:1046   */\n      pop\n      jump\t// out\n        /* \"#utility.yul\":1052:1191   */\n    tag_81:\n        /* \"#utility.yul\":1098:1103   */\n      0x00\n        /* \"#utility.yul\":1136:1142   */\n      dup2\n        /* \"#utility.yul\":1123:1143   */\n      calldataload\n        /* \"#utility.yul\":1114:1143   */\n      swap1\n      pop\n        /* \"#utility.yul\":1152:1185   */\n      tag_112\n        /* \"#utility.yul\":1179:1184   */\n      dup2\n        /* \"#utility.yul\":1152:1185   */\n      tag_80\n      jump\t// in\n    tag_112:\n        /* \"#utility.yul\":1052:1191   */\n      swap3\n      swap2\n      pop\n      pop\n      jump\t// out\n        /* \"#utility.yul\":1197:1671   */\n    tag_13:\n        /* \"#utility.yul\":1265:1271   */\n      0x00\n        /* \"#utility.yul\":1273:1279   */\n      dup1\n        /* \"#utility.yul\":1322:1324   */\n      0x40\n        /* \"#utility.yul\":1310:1319   */\n      dup4\n        /* \"#utility.yul\":1301:1308   */\n      dup6\n        /* \"#utility.yul\":1297:1320   */\n      sub\n        /* \"#utility.yul\":1293:1325   */\n      slt\n        /* \"#utility.yul\":1290:1409   */\n      iszero\n      tag_114\n      jumpi\n        /* \"#utility.yul\":1328:1407   */\n      tag_115\n      tag_73\n      jump\t// in\n    tag_115:\n        /* \"#utility.yul\":1290:1409   */\n    tag_114:\n        /* \"#utility.yul\":1448:1449   */\n      0x00\n        /* \"#utility.yul\":1473:1526   */\n      tag_116\n        /* \"#utility.yul\":1518:1525   */\n      dup6\n        /* \"#utility.yul\":1509:1515   */\n      dup3\n        /* \"#utility.yul\":1498:1507   */\n      dup7\n        /* \"#utility.yul\":1494:1516   */\n      add\n        /* \"#utility.yul\":1473:1526   */\n      tag_78\n      jump\t// in\n    tag_116:\n        /* \"#utility.yul\":1463:1526   */\n      swap3\n      pop\n        /* \"#utility.yul\":1419:1536   */\n      pop\n        /* \"#utility.yul\":1575:1577   */\n      0x20\n        /* \"#utility.yul\":1601:1654   */\n      tag_117\n        /* \"#utility.yul\":1646:1653   */\n      dup6\n        /* \"#utility.yul\":1637:1643   */\n      dup3\n        /* \"#utility.yul\":1626:1635   */\n      dup7\n        /* \"#utility.yul\":1622:1644   */\n      add\n        /* \"#utility.yul\":1601:1654   */\n      tag_81\n      jump\t// in\n    tag_117:\n        /* \"#utility.yul\":1591:1654   */\n      swap2\n      pop\n        /* \"#utility.yul\":1546:1664   */\n      pop\n        /* \"#utility.yul\":1197:1671   */\n      swap3\n      pop\n      swap3\n      swap1\n      pop\n      jump\t// out\n        /* \"#utility.yul\":1677:2006   */\n    tag_17:\n        /* \"#utility.yul\":1736:1742   */\n      0x00\n        /* \"#utility.yul\":1785:1787   */\n      0x20\n        /* \"#utility.yul\":1773:1782   */\n      dup3\n        /* \"#utility.yul\":1764:1771   */\n      dup5\n        /* \"#utility.yul\":1760:1783   */\n      sub\n        /* \"#utility.yul\":1756:1788   */\n      slt\n        /* \"#utility.yul\":1753:1872   */\n      iszero\n      tag_119\n      jumpi\n        /* \"#utility.yul\":1791:1870   */\n      tag_120\n      tag_73\n      jump\t// in\n    tag_120:\n        /* \"#utility.yul\":1753:1872   */\n    tag_119:\n        /* \"#utility.yul\":1911:1912   */\n      0x00\n        /* \"#utility.yul\":1936:1989   */\n      tag_121\n        /* \"#utility.yul\":1981:1988   */\n      dup5\n        /* \"#utility.yul\":1972:1978   */\n      dup3\n        /* \"#utility.yul\":1961:1970   */\n      dup6\n        /* \"#utility.yul\":1957:1979   */\n      add\n        /* \"#utility.yul\":1936:1989   */\n      tag_78\n      jump\t// in\n    tag_121:\n        /* \"#utility.yul\":1926:1989   */\n      swap2\n      pop\n        /* \"#utility.yul\":1882:1999   */\n      pop\n        /* \"#utility.yul\":1677:2006   */\n      swap3\n      swap2\n      pop\n      pop\n      jump\t// out\n        /* \"#utility.yul\":2012:2130   */\n    tag_82:\n        /* \"#utility.yul\":2099:2123   */\n      tag_123\n        /* \"#utility.yul\":2117:2122   */\n      dup2\n        /* \"#utility.yul\":2099:2123   */\n      tag_79\n      jump\t// in\n    tag_123:\n        /* \"#utility.yul\":2094:2097   */\n      dup3\n        /* \"#utility.yul\":2087:2124   */\n      mstore\n        /* \"#utility.yul\":2012:2130   */\n      pop\n      pop\n      jump\t// out\n        /* \"#utility.yul\":2136:2358   */\n    tag_20:\n        /* \"#utility.yul\":2229:2233   */\n      0x00\n        /* \"#utility.yul\":2267:2269   */\n      0x20\n        /* \"#utility.yul\":2256:2265   */\n      dup3\n        /* \"#utility.yul\":2252:2270   */\n      add\n        /* \"#utility.yul\":2244:2270   */\n      swap1\n      pop\n        /* \"#utility.yul\":2280:2351   */\n      tag_125\n        /* \"#utility.yul\":2348:2349   */\n      0x00\n        /* \"#utility.yul\":2337:2346   */\n      dup4\n        /* \"#utility.yul\":2333:2350   */\n      add\n        /* \"#utility.yul\":2324:2330   */\n      dup5\n        /* \"#utility.yul\":2280:2351   */\n      tag_82\n      jump\t// in\n    tag_125:\n        /* \"#utility.yul\":2136:2358   */\n      swap3\n      swap2\n      pop\n      pop\n      jump\t// out\n        /* \"#utility.yul\":2364:2482   */\n    tag_83:\n        /* \"#utility.yul\":2451:2475   */\n      tag_127\n        /* \"#utility.yul\":2469:2474   */\n      dup2\n        /* \"#utility.yul\":2451:2475   */\n      tag_76\n      jump\t// in\n    tag_127:\n        /* \"#utility.yul\":2446:2449   */\n      dup3\n        /* \"#utility.yul\":2439:2476   */\n      mstore\n        /* \"#utility.yul\":2364:2482   */\n      pop\n      pop\n      jump\t// out\n        /* \"#utility.yul\":2488:2710   */\n    tag_24:\n        /* \"#utility.yul\":2581:2585   */\n      0x00\n        /* \"#utility.yul\":2619:2621   */\n      0x20\n        /* \"#utility.yul\":2608:2617   */\n      dup3\n        /* \"#utility.yul\":2604:2622   */\n      add\n        /* \"#utility.yul\":2596:2622   */\n      swap1\n      pop\n        /* \"#utility.yul\":2632:2703   */\n      tag_129\n        /* \"#utility.yul\":2700:2701   */\n      0x00\n        /* \"#utility.yul\":2689:2698   */\n      dup4\n        /* \"#utility.yul\":2685:2702   */\n      add\n        /* \"#utility.yul\":2676:2682   */\n      dup5\n        /* \"#utility.yul\":2632:2703   */\n      tag_83\n      jump\t// in\n    tag_129:\n        /* \"#utility.yul\":2488:2710   */\n      swap3\n      swap2\n      pop\n      pop\n      jump\t// out\n        /* \"#utility.yul\":2716:3335   */\n    tag_37:\n        /* \"#utility.yul\":2793:2799   */\n      0x00\n        /* \"#utility.yul\":2801:2807   */\n      dup1\n        /* \"#utility.yul\":2809:2815   */\n      0x00\n        /* \"#utility.yul\":2858:2860   */\n      0x60\n        /* \"#utility.yul\":2846:2855   */\n      dup5\n        /* \"#utility.yul\":2837:2844   */\n      dup7\n        /* \"#utility.yul\":2833:2856   */\n      sub\n        /* \"#utility.yul\":2829:2861   */\n      slt\n        /* \"#utility.yul\":2826:2945   */\n      iszero\n      tag_131\n      jumpi\n        /* \"#utility.yul\":2864:2943   */\n      tag_132\n      tag_73\n      jump\t// in\n    tag_132:\n        /* \"#utility.yul\":2826:2945   */\n    tag_131:\n        /* \"#utility.yul\":2984:2985   */\n      0x00\n        /* \"#utility.yul\":3009:3062   */\n      tag_133\n        /* \"#utility.yul\":3054:3061   */\n      dup7\n        /* \"#utility.yul\":3045:3051   */\n      dup3\n        /* \"#utility.yul\":3034:3043   */\n      dup8\n        /* \"#utility.yul\":3030:3052   */\n      add\n        /* \"#utility.yul\":3009:3062   */\n      tag_78\n      jump\t// in\n    tag_133:\n        /* \"#utility.yul\":2999:3062   */\n      swap4\n      pop\n        /* \"#utility.yul\":2955:3072   */\n      pop\n        /* \"#utility.yul\":3111:3113   */\n      0x20\n        /* \"#utility.yul\":3137:3190   */\n      tag_134\n        /* \"#utility.yul\":3182:3189   */\n      dup7\n        /* \"#utility.yul\":3173:3179   */\n      dup3\n        /* \"#utility.yul\":3162:3171   */\n      dup8\n        /* \"#utility.yul\":3158:3180   */\n      add\n        /* \"#utility.yul\":3137:3190   */\n      tag_78\n      jump\t// in\n    tag_134:\n        /* \"#utility.yul\":3127:3190   */\n      swap3\n      pop\n        /* \"#utility.yul\":3082:3200   */\n      pop\n        /* \"#utility.yul\":3239:3241   */\n      0x40\n        /* \"#utility.yul\":3265:3318   */\n      tag_135\n        /* \"#utility.yul\":3310:3317   */\n      dup7\n        /* \"#utility.yul\":3301:3307   */\n      dup3\n        /* \"#utility.yul\":3290:3299   */\n      dup8\n        /* \"#utility.yul\":3286:3308   */\n      add\n        /* \"#utility.yul\":3265:3318   */\n      tag_81\n      jump\t// in\n    tag_135:\n        /* \"#utility.yul\":3255:3318   */\n      swap2\n      pop\n        /* \"#utility.yul\":3210:3328   */\n      pop\n        /* \"#utility.yul\":2716:3335   */\n      swap3\n      pop\n      swap3\n      pop\n      swap3\n      jump\t// out\n        /* \"#utility.yul\":3341:3510   */\n    tag_84:\n        /* \"#utility.yul\":3425:3436   */\n      0x00\n        /* \"#utility.yul\":3459:3465   */\n      dup3\n        /* \"#utility.yul\":3454:3457   */\n      dup3\n        /* \"#utility.yul\":3447:3466   */\n      mstore\n        /* \"#utility.yul\":3499:3503   */\n      0x20\n        /* \"#utility.yul\":3494:3497   */\n      dup3\n        /* \"#utility.yul\":3490:3504   */\n      add\n        /* \"#utility.yul\":3475:3504   */\n      swap1\n      pop\n        /* \"#utility.yul\":3341:3510   */\n      swap3\n      swap2\n      pop\n      pop\n      jump\t// out\n        /* \"#utility.yul\":3516:3694   */\n    tag_85:\n        /* \"#utility.yul\":3656:3686   */\n      0x496e76616c696420696e7465726d656469617279206164647265737300000000\n        /* \"#utility.yul\":3652:3653   */\n      0x00\n        /* \"#utility.yul\":3644:3650   */\n      dup3\n        /* \"#utility.yul\":3640:3654   */\n      add\n        /* \"#utility.yul\":3633:3687   */\n      mstore\n        /* \"#utility.yul\":3516:3694   */\n      pop\n      jump\t// out\n        /* \"#utility.yul\":3700:4066   */\n    tag_86:\n        /* \"#utility.yul\":3842:3845   */\n      0x00\n        /* \"#utility.yul\":3863:3930   */\n      tag_139\n        /* \"#utility.yul\":3927:3929   */\n      0x1c\n        /* \"#utility.yul\":3922:3925   */\n      dup4\n        /* \"#utility.yul\":3863:3930   */\n      tag_84\n      jump\t// in\n    tag_139:\n        /* \"#utility.yul\":3856:3930   */\n      swap2\n      pop\n        /* \"#utility.yul\":3939:4032   */\n      tag_140\n        /* \"#utility.yul\":4028:4031   */\n      dup3\n        /* \"#utility.yul\":3939:4032   */\n      tag_85\n      jump\t// in\n    tag_140:\n        /* \"#utility.yul\":4057:4059   */\n      0x20\n        /* \"#utility.yul\":4052:4055   */\n      dup3\n        /* \"#utility.yul\":4048:4060   */\n      add\n        /* \"#utility.yul\":4041:4060   */\n      swap1\n      pop\n        /* \"#utility.yul\":3700:4066   */\n      swap2\n      swap1\n      pop\n      jump\t// out\n        /* \"#utility.yul\":4072:4491   */\n    tag_43:\n        /* \"#utility.yul\":4238:4242   */\n      0x00\n        /* \"#utility.yul\":4276:4278   */\n      0x20\n        /* \"#utility.yul\":4265:4274   */\n      dup3\n        /* \"#utility.yul\":4261:4279   */\n      add\n        /* \"#utility.yul\":4253:4279   */\n      swap1\n      pop\n        /* \"#utility.yul\":4325:4334   */\n      dup2\n        /* \"#utility.yul\":4319:4323   */\n      dup2\n        /* \"#utility.yul\":4315:4335   */\n      sub\n        /* \"#utility.yul\":4311:4312   */\n      0x00\n        /* \"#utility.yul\":4300:4309   */\n      dup4\n        /* \"#utility.yul\":4296:4313   */\n      add\n        /* \"#utility.yul\":4289:4336   */\n      mstore\n        /* \"#utility.yul\":4353:4484   */\n      tag_142\n        /* \"#utility.yul\":4479:4483   */\n      dup2\n        /* \"#utility.yul\":4353:4484   */\n      tag_86\n      jump\t// in\n    tag_142:\n        /* \"#utility.yul\":4345:4484   */\n      swap1\n      pop\n        /* \"#utility.yul\":4072:4491   */\n      swap2\n      swap1\n      pop\n      jump\t// out\n        /* \"#utility.yul\":4497:4668   */\n    tag_87:\n        /* \"#utility.yul\":4637:4660   */\n      0x496e76616c6964206c6f79616c7479206c6576656c0000000000000000000000\n        /* \"#utility.yul\":4633:4634   */\n      0x00\n        /* \"#utility.yul\":4625:4631   */\n      dup3\n        /* \"#utility.yul\":4621:4635   */\n      add\n        /* \"#utility.yul\":4614:4661   */\n      mstore\n        /* \"#utility.yul\":4497:4668   */\n      pop\n      jump\t// out\n        /* \"#utility.yul\":4674:5040   */\n    tag_88:\n        /* \"#utility.yul\":4816:4819   */\n      0x00\n        /* \"#utility.yul\":4837:4904   */\n      tag_145\n        /* \"#utility.yul\":4901:4903   */\n      0x15\n        /* \"#utility.yul\":4896:4899   */\n      dup4\n        /* \"#utility.yul\":4837:4904   */\n      tag_84\n      jump\t// in\n    tag_145:\n        /* \"#utility.yul\":4830:4904   */\n      swap2\n      pop\n        /* \"#utility.yul\":4913:5006   */\n      tag_146\n        /* \"#utility.yul\":5002:5005   */\n      dup3\n        /* \"#utility.yul\":4913:5006   */\n      tag_87\n      jump\t// in\n    tag_146:\n        /* \"#utility.yul\":5031:5033   */\n      0x20\n        /* \"#utility.yul\":5026:5029   */\n      dup3\n        /* \"#utility.yul\":5022:5034   */\n      add\n        /* \"#utility.yul\":5015:5034   */\n      swap1\n      pop\n        /* \"#utility.yul\":4674:5040   */\n      swap2\n      swap1\n      pop\n      jump\t// out\n        /* \"#utility.yul\":5046:5465   */\n    tag_48:\n        /* \"#utility.yul\":5212:5216   */\n      0x00\n        /* \"#utility.yul\":5250:5252   */\n      0x20\n        /* \"#utility.yul\":5239:5248   */\n      dup3\n        /* \"#utility.yul\":5235:5253   */\n      add\n        /* \"#utility.yul\":5227:5253   */\n      swap1\n      pop\n        /* \"#utility.yul\":5299:5308   */\n      dup2\n        /* \"#utility.yul\":5293:5297   */\n      dup2\n        /* \"#utility.yul\":5289:5309   */\n      sub\n        /* \"#utility.yul\":5285:5286   */\n      0x00\n        /* \"#utility.yul\":5274:5283   */\n      dup4\n        /* \"#utility.yul\":5270:5287   */\n      add\n        /* \"#utility.yul\":5263:5310   */\n      mstore\n        /* \"#utility.yul\":5327:5458   */\n      tag_148\n        /* \"#utility.yul\":5453:5457   */\n      dup2\n        /* \"#utility.yul\":5327:5458   */\n      tag_88\n      jump\t// in\n    tag_148:\n        /* \"#utility.yul\":5319:5458   */\n      swap1\n      pop\n        /* \"#utility.yul\":5046:5465   */\n      swap2\n      swap1\n      pop\n      jump\t// out\n        /* \"#utility.yul\":5471:5649   */\n    tag_89:\n        /* \"#utility.yul\":5611:5641   */\n      0x496e7465726d6564696172792061646472657373206e6f742073657400000000\n        /* \"#utility.yul\":5607:5608   */\n      0x00\n        /* \"#utility.yul\":5599:5605   */\n      dup3\n        /* \"#utility.yul\":5595:5609   */\n      add\n        /* \"#utility.yul\":5588:5642   */\n      mstore\n        /* \"#utility.yul\":5471:5649   */\n      pop\n      jump\t// out\n        /* \"#utility.yul\":5655:6021   */\n    tag_90:\n        /* \"#utility.yul\":5797:5800   */\n      0x00\n        /* \"#utility.yul\":5818:5885   */\n      tag_151\n        /* \"#utility.yul\":5882:5884   */\n      0x1c\n        /* \"#utility.yul\":5877:5880   */\n      dup4\n        /* \"#utility.yul\":5818:5885   */\n      tag_84\n      jump\t// in\n    tag_151:\n        /* \"#utility.yul\":5811:5885   */\n      swap2\n      pop\n        /* \"#utility.yul\":5894:5987   */\n      tag_152\n        /* \"#utility.yul\":5983:5986   */\n      dup3\n        /* \"#utility.yul\":5894:5987   */\n      tag_89\n      jump\t// in\n    tag_152:\n        /* \"#utility.yul\":6012:6014   */\n      0x20\n        /* \"#utility.yul\":6007:6010   */\n      dup3\n        /* \"#utility.yul\":6003:6015   */\n      add\n        /* \"#utility.yul\":5996:6015   */\n      swap1\n      pop\n        /* \"#utility.yul\":5655:6021   */\n      swap2\n      swap1\n      pop\n      jump\t// out\n        /* \"#utility.yul\":6027:6446   */\n    tag_52:\n        /* \"#utility.yul\":6193:6197   */\n      0x00\n        /* \"#utility.yul\":6231:6233   */\n      0x20\n        /* \"#utility.yul\":6220:6229   */\n      dup3\n        /* \"#utility.yul\":6216:6234   */\n      add\n        /* \"#utility.yul\":6208:6234   */\n      swap1\n      pop\n        /* \"#utility.yul\":6280:6289   */\n      dup2\n        /* \"#utility.yul\":6274:6278   */\n      dup2\n        /* \"#utility.yul\":6270:6290   */\n      sub\n        /* \"#utility.yul\":6266:6267   */\n      0x00\n        /* \"#utility.yul\":6255:6264   */\n      dup4\n        /* \"#utility.yul\":6251:6268   */\n      add\n        /* \"#utility.yul\":6244:6291   */\n      mstore\n        /* \"#utility.yul\":6308:6439   */\n      tag_154\n        /* \"#utility.yul\":6434:6438   */\n      dup2\n        /* \"#utility.yul\":6308:6439   */\n      tag_90\n      jump\t// in\n    tag_154:\n        /* \"#utility.yul\":6300:6439   */\n      swap1\n      pop\n        /* \"#utility.yul\":6027:6446   */\n      swap2\n      swap1\n      pop\n      jump\t// out\n        /* \"#utility.yul\":6452:6632   */\n    tag_91:\n        /* \"#utility.yul\":6500:6577   */\n      0x4e487b7100000000000000000000000000000000000000000000000000000000\n        /* \"#utility.yul\":6497:6498   */\n      0x00\n        /* \"#utility.yul\":6490:6578   */\n      mstore\n        /* \"#utility.yul\":6597:6601   */\n      0x11\n        /* \"#utility.yul\":6594:6595   */\n      0x04\n        /* \"#utility.yul\":6587:6602   */\n      mstore\n        /* \"#utility.yul\":6621:6625   */\n      0x24\n        /* \"#utility.yul\":6618:6619   */\n      0x00\n        /* \"#utility.yul\":6611:6626   */\n      revert\n        /* \"#utility.yul\":6638:7048   */\n    tag_54:\n        /* \"#utility.yul\":6678:6685   */\n      0x00\n        /* \"#utility.yul\":6701:6721   */\n      tag_157\n        /* \"#utility.yul\":6719:6720   */\n      dup3\n        /* \"#utility.yul\":6701:6721   */\n      tag_79\n      jump\t// in\n    tag_157:\n        /* \"#utility.yul\":6696:6721   */\n      swap2\n      pop\n        /* \"#utility.yul\":6735:6755   */\n      tag_158\n        /* \"#utility.yul\":6753:6754   */\n      dup4\n        /* \"#utility.yul\":6735:6755   */\n      tag_79\n      jump\t// in\n    tag_158:\n        /* \"#utility.yul\":6730:6755   */\n      swap3\n      pop\n        /* \"#utility.yul\":6790:6791   */\n      dup3\n        /* \"#utility.yul\":6787:6788   */\n      dup3\n        /* \"#utility.yul\":6783:6792   */\n      mul\n        /* \"#utility.yul\":6812:6842   */\n      tag_159\n        /* \"#utility.yul\":6830:6841   */\n      dup2\n        /* \"#utility.yul\":6812:6842   */\n      tag_79\n      jump\t// in\n    tag_159:\n        /* \"#utility.yul\":6801:6842   */\n      swap2\n      pop\n        /* \"#utility.yul\":6991:6992   */\n      dup3\n        /* \"#utility.yul\":6982:6989   */\n      dup3\n        /* \"#utility.yul\":6978:6993   */\n      div\n        /* \"#utility.yul\":6975:6976   */\n      dup5\n        /* \"#utility.yul\":6972:6994   */\n      eq\n        /* \"#utility.yul\":6952:6953   */\n      dup4\n        /* \"#utility.yul\":6945:6954   */\n      iszero\n        /* \"#utility.yul\":6925:7008   */\n      or\n        /* \"#utility.yul\":6902:7041   */\n      tag_160\n      jumpi\n        /* \"#utility.yul\":7021:7039   */\n      tag_161\n      tag_91\n      jump\t// in\n    tag_161:\n        /* \"#utility.yul\":6902:7041   */\n    tag_160:\n        /* \"#utility.yul\":6686:7048   */\n      pop\n        /* \"#utility.yul\":6638:7048   */\n      swap3\n      swap2\n      pop\n      pop\n      jump\t// out\n        /* \"#utility.yul\":7054:7234   */\n    tag_92:\n        /* \"#utility.yul\":7102:7179   */\n      0x4e487b7100000000000000000000000000000000000000000000000000000000\n        /* \"#utility.yul\":7099:7100   */\n      0x00\n        /* \"#utility.yul\":7092:7180   */\n      mstore\n        /* \"#utility.yul\":7199:7203   */\n      0x12\n        /* \"#utility.yul\":7196:7197   */\n      0x04\n        /* \"#utility.yul\":7189:7204   */\n      mstore\n        /* \"#utility.yul\":7223:7227   */\n      0x24\n        /* \"#utility.yul\":7220:7221   */\n      0x00\n        /* \"#utility.yul\":7213:7228   */\n      revert\n        /* \"#utility.yul\":7240:7425   */\n    tag_56:\n        /* \"#utility.yul\":7280:7281   */\n      0x00\n        /* \"#utility.yul\":7297:7317   */\n      tag_164\n        /* \"#utility.yul\":7315:7316   */\n      dup3\n        /* \"#utility.yul\":7297:7317   */\n      tag_79\n      jump\t// in\n    tag_164:\n        /* \"#utility.yul\":7292:7317   */\n      swap2\n      pop\n        /* \"#utility.yul\":7331:7351   */\n      tag_165\n        /* \"#utility.yul\":7349:7350   */\n      dup4\n        /* \"#utility.yul\":7331:7351   */\n      tag_79\n      jump\t// in\n    tag_165:\n        /* \"#utility.yul\":7326:7351   */\n      swap3\n      pop\n        /* \"#utility.yul\":7370:7371   */\n      dup3\n        /* \"#utility.yul\":7360:7395   */\n      tag_166\n      jumpi\n        /* \"#utility.yul\":7375:7393   */\n      tag_167\n      tag_92\n      jump\t// in\n    tag_167:\n        /* \"#utility.yul\":7360:7395   */\n    tag_166:\n        /* \"#utility.yul\":7417:7418   */\n      dup3\n        /* \"#utility.yul\":7414:7415   */\n      dup3\n        /* \"#utility.yul\":7410:7419   */\n      div\n        /* \"#utility.yul\":7405:7419   */\n      swap1\n      pop\n        /* \"#utility.yul\":7240:7425   */\n      swap3\n      swap2\n      pop\n      pop\n      jump\t// out\n        /* \"#utility.yul\":7431:7625   */\n    tag_60:\n        /* \"#utility.yul\":7471:7475   */\n      0x00\n        /* \"#utility.yul\":7491:7511   */\n      tag_169\n        /* \"#utility.yul\":7509:7510   */\n      dup3\n        /* \"#utility.yul\":7491:7511   */\n      tag_79\n      jump\t// in\n    tag_169:\n        /* \"#utility.yul\":7486:7511   */\n      swap2\n      pop\n        /* \"#utility.yul\":7525:7545   */\n      tag_170\n        /* \"#utility.yul\":7543:7544   */\n      dup4\n        /* \"#utility.yul\":7525:7545   */\n      tag_79\n      jump\t// in\n    tag_170:\n        /* \"#utility.yul\":7520:7545   */\n      swap3\n      pop\n        /* \"#utility.yul\":7569:7570   */\n      dup3\n        /* \"#utility.yul\":7566:7567   */\n      dup3\n        /* \"#utility.yul\":7562:7571   */\n      sub\n        /* \"#utility.yul\":7554:7571   */\n      swap1\n      pop\n        /* \"#utility.yul\":7593:7594   */\n      dup2\n        /* \"#utility.yul\":7587:7591   */\n      dup2\n        /* \"#utility.yul\":7584:7595   */\n      gt\n        /* \"#utility.yul\":7581:7618   */\n      iszero\n      tag_171\n      jumpi\n        /* \"#utility.yul\":7598:7616   */\n      tag_172\n      tag_91\n      jump\t// in\n    tag_172:\n        /* \"#utility.yul\":7581:7618   */\n    tag_171:\n        /* \"#utility.yul\":7431:7625   */\n      swap3\n      swap2\n      pop\n      pop\n      jump\t// out\n        /* \"#utility.yul\":7631:7822   */\n    tag_64:\n        /* \"#utility.yul\":7671:7674   */\n      0x00\n        /* \"#utility.yul\":7690:7710   */\n      tag_174\n        /* \"#utility.yul\":7708:7709   */\n      dup3\n        /* \"#utility.yul\":7690:7710   */\n      tag_79\n      jump\t// in\n    tag_174:\n        /* \"#utility.yul\":7685:7710   */\n      swap2\n      pop\n        /* \"#utility.yul\":7724:7744   */\n      tag_175\n        /* \"#utility.yul\":7742:7743   */\n      dup4\n        /* \"#utility.yul\":7724:7744   */\n      tag_79\n      jump\t// in\n    tag_175:\n        /* \"#utility.yul\":7719:7744   */\n      swap3\n      pop\n        /* \"#utility.yul\":7767:7768   */\n      dup3\n        /* \"#utility.yul\":7764:7765   */\n      dup3\n        /* \"#utility.yul\":7760:7769   */\n      add\n        /* \"#utility.yul\":7753:7769   */\n      swap1\n      pop\n        /* \"#utility.yul\":7788:7791   */\n      dup1\n        /* \"#utility.yul\":7785:7786   */\n      dup3\n        /* \"#utility.yul\":7782:7792   */\n      gt\n        /* \"#utility.yul\":7779:7815   */\n      iszero\n      tag_176\n      jumpi\n        /* \"#utility.yul\":7795:7813   */\n      tag_177\n      tag_91\n      jump\t// in\n    tag_177:\n        /* \"#utility.yul\":7779:7815   */\n    tag_176:\n        /* \"#utility.yul\":7631:7822   */\n      swap3\n      swap2\n      pop\n      pop\n      jump\t// out\n        /* \"#utility.yul\":7828:7982   */\n    tag_93:\n        /* \"#utility.yul\":7968:7974   */\n      0x5553445400000000000000000000000000000000000000000000000000000000\n        /* \"#utility.yul\":7964:7965   */\n      0x00\n        /* \"#utility.yul\":7956:7962   */\n      dup3\n        /* \"#utility.yul\":7952:7966   */\n      add\n        /* \"#utility.yul\":7945:7975   */\n      mstore\n        /* \"#utility.yul\":7828:7982   */\n      pop\n      jump\t// out\n        /* \"#utility.yul\":7988:8353   */\n    tag_94:\n        /* \"#utility.yul\":8130:8133   */\n      0x00\n        /* \"#utility.yul\":8151:8217   */\n      tag_180\n        /* \"#utility.yul\":8215:8216   */\n      0x04\n        /* \"#utility.yul\":8210:8213   */\n      dup4\n        /* \"#utility.yul\":8151:8217   */\n      tag_84\n      jump\t// in\n    tag_180:\n        /* \"#utility.yul\":8144:8217   */\n      swap2\n      pop\n        /* \"#utility.yul\":8226:8319   */\n      tag_181\n        /* \"#utility.yul\":8315:8318   */\n      dup3\n        /* \"#utility.yul\":8226:8319   */\n      tag_93\n      jump\t// in\n    tag_181:\n        /* \"#utility.yul\":8344:8346   */\n      0x20\n        /* \"#utility.yul\":8339:8342   */\n      dup3\n        /* \"#utility.yul\":8335:8347   */\n      add\n        /* \"#utility.yul\":8328:8347   */\n      swap1\n      pop\n        /* \"#utility.yul\":7988:8353   */\n      swap2\n      swap1\n      pop\n      jump\t// out\n        /* \"#utility.yul\":8359:8888   */\n    tag_68:\n        /* \"#utility.yul\":8553:8557   */\n      0x00\n        /* \"#utility.yul\":8591:8593   */\n      0x40\n        /* \"#utility.yul\":8580:8589   */\n      dup3\n        /* \"#utility.yul\":8576:8594   */\n      add\n        /* \"#utility.yul\":8568:8594   */\n      swap1\n      pop\n        /* \"#utility.yul\":8604:8675   */\n      tag_183\n        /* \"#utility.yul\":8672:8673   */\n      0x00\n        /* \"#utility.yul\":8661:8670   */\n      dup4\n        /* \"#utility.yul\":8657:8674   */\n      add\n        /* \"#utility.yul\":8648:8654   */\n      dup5\n        /* \"#utility.yul\":8604:8675   */\n      tag_82\n      jump\t// in\n    tag_183:\n        /* \"#utility.yul\":8722:8731   */\n      dup2\n        /* \"#utility.yul\":8716:8720   */\n      dup2\n        /* \"#utility.yul\":8712:8732   */\n      sub\n        /* \"#utility.yul\":8707:8709   */\n      0x20\n        /* \"#utility.yul\":8696:8705   */\n      dup4\n        /* \"#utility.yul\":8692:8710   */\n      add\n        /* \"#utility.yul\":8685:8733   */\n      mstore\n        /* \"#utility.yul\":8750:8881   */\n      tag_184\n        /* \"#utility.yul\":8876:8880   */\n      dup2\n        /* \"#utility.yul\":8750:8881   */\n      tag_94\n      jump\t// in\n    tag_184:\n        /* \"#utility.yul\":8742:8881   */\n      swap1\n      pop\n        /* \"#utility.yul\":8359:8888   */\n      swap3\n      swap2\n      pop\n      pop\n      jump\t// out\n\n    auxdata: 0xa264697066735822122083310d849130c78b1753d2f0597b8d15c31177b5d39ef0e8c2c00aa5ecbe825164736f6c63430008120033\n}\n",
				"bytecode": {
					"linkReferences": {},
					"object": "608060405234801561001057600080fd5b5073dac17f958d2ee523a2206206994597c13d831ec76000806101000a81548173ffffffffffffffffffffffffffffffffffffffff021916908373ffffffffffffffffffffffffffffffffffffffff160217905550610c4e806100746000396000f3fe608060405234801561001057600080fd5b506004361061007d5760003560e01c8063854572b41161005b578063854572b4146100ec578063a61bab2f1461011c578063d1ef621d14610138578063ebbc9b32146101545761007d565b80630b34b5551461008257806356b89be41461009e57806379fd022e146100ce575b600080fd5b61009c600480360381019061009791906107fc565b610170565b005b6100b860048036038101906100b3919061083c565b6101b8565b6040516100c59190610878565b60405180910390f35b6100d66101d0565b6040516100e391906108a2565b60405180910390f35b6101066004803603810190610101919061083c565b6101f6565b6040516101139190610878565b60405180910390f35b6101366004803603810190610131919061083c565b61020e565b005b610152600480360381019061014d91906107fc565b6102c1565b005b61016e600480360381019061016991906108bd565b61035a565b005b80600160008473ffffffffffffffffffffffffffffffffffffffff1673ffffffffffffffffffffffffffffffffffffffff168152602001908152602001600020819055505050565b60016020528060005260406000206000915090505481565b600360009054906101000a900473ffffffffffffffffffffffffffffffffffffffff1681565b60026020528060005260406000206000915090505481565b600073ffffffffffffffffffffffffffffffffffffffff168173ffffffffffffffffffffffffffffffffffffffff160361027d576040517f08c379a00000000000000000000000000000000000000000000000000000000081526004016102749061096d565b60405180910390fd5b80600360006101000a81548173ffffffffffffffffffffffffffffffffffffffff021916908373ffffffffffffffffffffffffffffffffffffffff16021790555050565b600181101580156102d3575060058111155b610312576040517f08c379a0000000000000000000000000000000000000000000000000000000008152600401610309906109d9565b60405180910390fd5b80600260008473ffffffffffffffffffffffffffffffffffffffff1673ffffffffffffffffffffffffffffffffffffffff168152602001908152602001600020819055505050565b600073ffffffffffffffffffffffffffffffffffffffff16600360009054906101000a900473ffffffffffffffffffffffffffffffffffffffff1673ffffffffffffffffffffffffffffffffffffffff16036103eb576040517f08c379a00000000000000000000000000000000000000000000000000000000081526004016103e290610a45565b60405180910390fd5b6000600260008573ffffffffffffffffffffffffffffffffffffffff1673ffffffffffffffffffffffffffffffffffffffff16815260200190815260200160002054905060006064828461043f9190610a94565b6104499190610b05565b905060006064600a8561045c9190610a94565b6104669190610b05565b9050600081856104769190610b36565b905084600160008973ffffffffffffffffffffffffffffffffffffffff1673ffffffffffffffffffffffffffffffffffffffff16815260200190815260200160002060008282546104c79190610b36565b9250508190555082826104da9190610b36565b60016000600360009054906101000a900473ffffffffffffffffffffffffffffffffffffffff1673ffffffffffffffffffffffffffffffffffffffff1673ffffffffffffffffffffffffffffffffffffffff168152602001908152602001600020600082825461054a9190610b6a565b9250508190555080600160008873ffffffffffffffffffffffffffffffffffffffff1673ffffffffffffffffffffffffffffffffffffffff16815260200190815260200160002060008282546105a09190610b6a565b9250508190555082600160008973ffffffffffffffffffffffffffffffffffffffff1673ffffffffffffffffffffffffffffffffffffffff16815260200190815260200160002060008282546105f69190610b6a565b925050819055508573ffffffffffffffffffffffffffffffffffffffff168773ffffffffffffffffffffffffffffffffffffffff167f7438b3ab3d18b29df7bf7fe592cc95dc9b3d321d1f880ad411f65b98df9bbd508760405161065a9190610bea565b60405180910390a3600360009054906101000a900473ffffffffffffffffffffffffffffffffffffffff1673ffffffffffffffffffffffffffffffffffffffff168773ffffffffffffffffffffffffffffffffffffffff167f7438b3ab3d18b29df7bf7fe592cc95dc9b3d321d1f880ad411f65b98df9bbd5085856106df9190610b36565b6040516106ec9190610bea565b60405180910390a38673ffffffffffffffffffffffffffffffffffffffff16600073ffffffffffffffffffffffffffffffffffffffff167f7438b3ab3d18b29df7bf7fe592cc95dc9b3d321d1f880ad411f65b98df9bbd50856040516107529190610bea565b60405180910390a350505050505050565b600080fd5b600073ffffffffffffffffffffffffffffffffffffffff82169050919050565b600061079382610768565b9050919050565b6107a381610788565b81146107ae57600080fd5b50565b6000813590506107c08161079a565b92915050565b6000819050919050565b6107d9816107c6565b81146107e457600080fd5b50565b6000813590506107f6816107d0565b92915050565b6000806040838503121561081357610812610763565b5b6000610821858286016107b1565b9250506020610832858286016107e7565b9150509250929050565b60006020828403121561085257610851610763565b5b6000610860848285016107b1565b91505092915050565b610872816107c6565b82525050565b600060208201905061088d6000830184610869565b92915050565b61089c81610788565b82525050565b60006020820190506108b76000830184610893565b92915050565b6000806000606084860312156108d6576108d5610763565b5b60006108e4868287016107b1565b93505060206108f5868287016107b1565b9250506040610906868287016107e7565b9150509250925092565b600082825260208201905092915050565b7f496e76616c696420696e7465726d656469617279206164647265737300000000600082015250565b6000610957601c83610910565b915061096282610921565b602082019050919050565b600060208201905081810360008301526109868161094a565b9050919050565b7f496e76616c6964206c6f79616c7479206c6576656c0000000000000000000000600082015250565b60006109c3601583610910565b91506109ce8261098d565b602082019050919050565b600060208201905081810360008301526109f2816109b6565b9050919050565b7f496e7465726d6564696172792061646472657373206e6f742073657400000000600082015250565b6000610a2f601c83610910565b9150610a3a826109f9565b602082019050919050565b60006020820190508181036000830152610a5e81610a22565b9050919050565b7f4e487b7100000000000000000000000000000000000000000000000000000000600052601160045260246000fd5b6000610a9f826107c6565b9150610aaa836107c6565b9250828202610ab8816107c6565b91508282048414831517610acf57610ace610a65565b5b5092915050565b7f4e487b7100000000000000000000000000000000000000000000000000000000600052601260045260246000fd5b6000610b10826107c6565b9150610b1b836107c6565b925082610b2b57610b2a610ad6565b5b828204905092915050565b6000610b41826107c6565b9150610b4c836107c6565b9250828203905081811115610b6457610b63610a65565b5b92915050565b6000610b75826107c6565b9150610b80836107c6565b9250828201905080821115610b9857610b97610a65565b5b92915050565b7f5553445400000000000000000000000000000000000000000000000000000000600082015250565b6000610bd4600483610910565b9150610bdf82610b9e565b602082019050919050565b6000604082019050610bff6000830184610869565b8181036020830152610c1081610bc7565b90509291505056fea264697066735822122083310d849130c78b1753d2f0597b8d15c31177b5d39ef0e8c2c00aa5ecbe825164736f6c63430008120033",
					"opcodes": "PUSH1 0x80 PUSH1 0x40 MSTORE CALLVALUE DUP1 ISZERO PUSH2 0x10 JUMPI PUSH1 0x0 DUP1 REVERT JUMPDEST POP PUSH20 0xDAC17F958D2EE523A2206206994597C13D831EC7 PUSH1 0x0 DUP1 PUSH2 0x100 EXP DUP2 SLOAD DUP2 PUSH20 0xFFFFFFFFFFFFFFFFFFFFFFFFFFFFFFFFFFFFFFFF MUL NOT AND SWAP1 DUP4 PUSH20 0xFFFFFFFFFFFFFFFFFFFFFFFFFFFFFFFFFFFFFFFF AND MUL OR SWAP1 SSTORE POP PUSH2 0xC4E DUP1 PUSH2 0x74 PUSH1 0x0 CODECOPY PUSH1 0x0 RETURN INVALID PUSH1 0x80 PUSH1 0x40 MSTORE CALLVALUE DUP1 ISZERO PUSH2 0x10 JUMPI PUSH1 0x0 DUP1 REVERT JUMPDEST POP PUSH1 0x4 CALLDATASIZE LT PUSH2 0x7D JUMPI PUSH1 0x0 CALLDATALOAD PUSH1 0xE0 SHR DUP1 PUSH4 0x854572B4 GT PUSH2 0x5B JUMPI DUP1 PUSH4 0x854572B4 EQ PUSH2 0xEC JUMPI DUP1 PUSH4 0xA61BAB2F EQ PUSH2 0x11C JUMPI DUP1 PUSH4 0xD1EF621D EQ PUSH2 0x138 JUMPI DUP1 PUSH4 0xEBBC9B32 EQ PUSH2 0x154 JUMPI PUSH2 0x7D JUMP JUMPDEST DUP1 PUSH4 0xB34B555 EQ PUSH2 0x82 JUMPI DUP1 PUSH4 0x56B89BE4 EQ PUSH2 0x9E JUMPI DUP1 PUSH4 0x79FD022E EQ PUSH2 0xCE JUMPI JUMPDEST PUSH1 0x0 DUP1 REVERT JUMPDEST PUSH2 0x9C PUSH1 0x4 DUP1 CALLDATASIZE SUB DUP2 ADD SWAP1 PUSH2 0x97 SWAP2 SWAP1 PUSH2 0x7FC JUMP JUMPDEST PUSH2 0x170 JUMP JUMPDEST STOP JUMPDEST PUSH2 0xB8 PUSH1 0x4 DUP1 CALLDATASIZE SUB DUP2 ADD SWAP1 PUSH2 0xB3 SWAP2 SWAP1 PUSH2 0x83C JUMP JUMPDEST PUSH2 0x1B8 JUMP JUMPDEST PUSH1 0x40 MLOAD PUSH2 0xC5 SWAP2 SWAP1 PUSH2 0x878 JUMP JUMPDEST PUSH1 0x40 MLOAD DUP1 SWAP2 SUB SWAP1 RETURN JUMPDEST PUSH2 0xD6 PUSH2 0x1D0 JUMP JUMPDEST PUSH1 0x40 MLOAD PUSH2 0xE3 SWAP2 SWAP1 PUSH2 0x8A2 JUMP JUMPDEST PUSH1 0x40 MLOAD DUP1 SWAP2 SUB SWAP1 RETURN JUMPDEST PUSH2 0x106 PUSH1 0x4 DUP1 CALLDATASIZE SUB DUP2 ADD SWAP1 PUSH2 0x101 SWAP2 SWAP1 PUSH2 0x83C JUMP JUMPDEST PUSH2 0x1F6 JUMP JUMPDEST PUSH1 0x40 MLOAD PUSH2 0x113 SWAP2 SWAP1 PUSH2 0x878 JUMP JUMPDEST PUSH1 0x40 MLOAD DUP1 SWAP2 SUB SWAP1 RETURN JUMPDEST PUSH2 0x136 PUSH1 0x4 DUP1 CALLDATASIZE SUB DUP2 ADD SWAP1 PUSH2 0x131 SWAP2 SWAP1 PUSH2 0x83C JUMP JUMPDEST PUSH2 0x20E JUMP JUMPDEST STOP JUMPDEST PUSH2 0x152 PUSH1 0x4 DUP1 CALLDATASIZE SUB DUP2 ADD SWAP1 PUSH2 0x14D SWAP2 SWAP1 PUSH2 0x7FC JUMP JUMPDEST PUSH2 0x2C1 JUMP JUMPDEST STOP JUMPDEST PUSH2 0x16E PUSH1 0x4 DUP1 CALLDATASIZE SUB DUP2 ADD SWAP1 PUSH2 0x169 SWAP2 SWAP1 PUSH2 0x8BD JUMP JUMPDEST PUSH2 0x35A JUMP JUMPDEST STOP JUMPDEST DUP1 PUSH1 0x1 PUSH1 0x0 DUP5 PUSH20 0xFFFFFFFFFFFFFFFFFFFFFFFFFFFFFFFFFFFFFFFF AND PUSH20 0xFFFFFFFFFFFFFFFFFFFFFFFFFFFFFFFFFFFFFFFF AND DUP2 MSTORE PUSH1 0x20 ADD SWAP1 DUP2 MSTORE PUSH1 0x20 ADD PUSH1 0x0 KECCAK256 DUP2 SWAP1 SSTORE POP POP POP JUMP JUMPDEST PUSH1 0x1 PUSH1 0x20 MSTORE DUP1 PUSH1 0x0 MSTORE PUSH1 0x40 PUSH1 0x0 KECCAK256 PUSH1 0x0 SWAP2 POP SWAP1 POP SLOAD DUP2 JUMP JUMPDEST PUSH1 0x3 PUSH1 0x0 SWAP1 SLOAD SWAP1 PUSH2 0x100 EXP SWAP1 DIV PUSH20 0xFFFFFFFFFFFFFFFFFFFFFFFFFFFFFFFFFFFFFFFF AND DUP2 JUMP JUMPDEST PUSH1 0x2 PUSH1 0x20 MSTORE DUP1 PUSH1 0x0 MSTORE PUSH1 0x40 PUSH1 0x0 KECCAK256 PUSH1 0x0 SWAP2 POP SWAP1 POP SLOAD DUP2 JUMP JUMPDEST PUSH1 0x0 PUSH20 0xFFFFFFFFFFFFFFFFFFFFFFFFFFFFFFFFFFFFFFFF AND DUP2 PUSH20 0xFFFFFFFFFFFFFFFFFFFFFFFFFFFFFFFFFFFFFFFF AND SUB PUSH2 0x27D JUMPI PUSH1 0x40 MLOAD PUSH32 0x8C379A000000000000000000000000000000000000000000000000000000000 DUP2 MSTORE PUSH1 0x4 ADD PUSH2 0x274 SWAP1 PUSH2 0x96D JUMP JUMPDEST PUSH1 0x40 MLOAD DUP1 SWAP2 SUB SWAP1 REVERT JUMPDEST DUP1 PUSH1 0x3 PUSH1 0x0 PUSH2 0x100 EXP DUP2 SLOAD DUP2 PUSH20 0xFFFFFFFFFFFFFFFFFFFFFFFFFFFFFFFFFFFFFFFF MUL NOT AND SWAP1 DUP4 PUSH20 0xFFFFFFFFFFFFFFFFFFFFFFFFFFFFFFFFFFFFFFFF AND MUL OR SWAP1 SSTORE POP POP JUMP JUMPDEST PUSH1 0x1 DUP2 LT ISZERO DUP1 ISZERO PUSH2 0x2D3 JUMPI POP PUSH1 0x5 DUP2 GT ISZERO JUMPDEST PUSH2 0x312 JUMPI PUSH1 0x40 MLOAD PUSH32 0x8C379A000000000000000000000000000000000000000000000000000000000 DUP2 MSTORE PUSH1 0x4 ADD PUSH2 0x309 SWAP1 PUSH2 0x9D9 JUMP JUMPDEST PUSH1 0x40 MLOAD DUP1 SWAP2 SUB SWAP1 REVERT JUMPDEST DUP1 PUSH1 0x2 PUSH1 0x0 DUP5 PUSH20 0xFFFFFFFFFFFFFFFFFFFFFFFFFFFFFFFFFFFFFFFF AND PUSH20 0xFFFFFFFFFFFFFFFFFFFFFFFFFFFFFFFFFFFFFFFF AND DUP2 MSTORE PUSH1 0x20 ADD SWAP1 DUP2 MSTORE PUSH1 0x20 ADD PUSH1 0x0 KECCAK256 DUP2 SWAP1 SSTORE POP POP POP JUMP JUMPDEST PUSH1 0x0 PUSH20 0xFFFFFFFFFFFFFFFFFFFFFFFFFFFFFFFFFFFFFFFF AND PUSH1 0x3 PUSH1 0x0 SWAP1 SLOAD SWAP1 PUSH2 0x100 EXP SWAP1 DIV PUSH20 0xFFFFFFFFFFFFFFFFFFFFFFFFFFFFFFFFFFFFFFFF AND PUSH20 0xFFFFFFFFFFFFFFFFFFFFFFFFFFFFFFFFFFFFFFFF AND SUB PUSH2 0x3EB JUMPI PUSH1 0x40 MLOAD PUSH32 0x8C379A000000000000000000000000000000000000000000000000000000000 DUP2 MSTORE PUSH1 0x4 ADD PUSH2 0x3E2 SWAP1 PUSH2 0xA45 JUMP JUMPDEST PUSH1 0x40 MLOAD DUP1 SWAP2 SUB SWAP1 REVERT JUMPDEST PUSH1 0x0 PUSH1 0x2 PUSH1 0x0 DUP6 PUSH20 0xFFFFFFFFFFFFFFFFFFFFFFFFFFFFFFFFFFFFFFFF AND PUSH20 0xFFFFFFFFFFFFFFFFFFFFFFFFFFFFFFFFFFFFFFFF AND DUP2 MSTORE PUSH1 0x20 ADD SWAP1 DUP2 MSTORE PUSH1 0x20 ADD PUSH1 0x0 KECCAK256 SLOAD SWAP1 POP PUSH1 0x0 PUSH1 0x64 DUP3 DUP5 PUSH2 0x43F SWAP2 SWAP1 PUSH2 0xA94 JUMP JUMPDEST PUSH2 0x449 SWAP2 SWAP1 PUSH2 0xB05 JUMP JUMPDEST SWAP1 POP PUSH1 0x0 PUSH1 0x64 PUSH1 0xA DUP6 PUSH2 0x45C SWAP2 SWAP1 PUSH2 0xA94 JUMP JUMPDEST PUSH2 0x466 SWAP2 SWAP1 PUSH2 0xB05 JUMP JUMPDEST SWAP1 POP PUSH1 0x0 DUP2 DUP6 PUSH2 0x476 SWAP2 SWAP1 PUSH2 0xB36 JUMP JUMPDEST SWAP1 POP DUP5 PUSH1 0x1 PUSH1 0x0 DUP10 PUSH20 0xFFFFFFFFFFFFFFFFFFFFFFFFFFFFFFFFFFFFFFFF AND PUSH20 0xFFFFFFFFFFFFFFFFFFFFFFFFFFFFFFFFFFFFFFFF AND DUP2 MSTORE PUSH1 0x20 ADD SWAP1 DUP2 MSTORE PUSH1 0x20 ADD PUSH1 0x0 KECCAK256 PUSH1 0x0 DUP3 DUP3 SLOAD PUSH2 0x4C7 SWAP2 SWAP1 PUSH2 0xB36 JUMP JUMPDEST SWAP3 POP POP DUP2 SWAP1 SSTORE POP DUP3 DUP3 PUSH2 0x4DA SWAP2 SWAP1 PUSH2 0xB36 JUMP JUMPDEST PUSH1 0x1 PUSH1 0x0 PUSH1 0x3 PUSH1 0x0 SWAP1 SLOAD SWAP1 PUSH2 0x100 EXP SWAP1 DIV PUSH20 0xFFFFFFFFFFFFFFFFFFFFFFFFFFFFFFFFFFFFFFFF AND PUSH20 0xFFFFFFFFFFFFFFFFFFFFFFFFFFFFFFFFFFFFFFFF AND PUSH20 0xFFFFFFFFFFFFFFFFFFFFFFFFFFFFFFFFFFFFFFFF AND DUP2 MSTORE PUSH1 0x20 ADD SWAP1 DUP2 MSTORE PUSH1 0x20 ADD PUSH1 0x0 KECCAK256 PUSH1 0x0 DUP3 DUP3 SLOAD PUSH2 0x54A SWAP2 SWAP1 PUSH2 0xB6A JUMP JUMPDEST SWAP3 POP POP DUP2 SWAP1 SSTORE POP DUP1 PUSH1 0x1 PUSH1 0x0 DUP9 PUSH20 0xFFFFFFFFFFFFFFFFFFFFFFFFFFFFFFFFFFFFFFFF AND PUSH20 0xFFFFFFFFFFFFFFFFFFFFFFFFFFFFFFFFFFFFFFFF AND DUP2 MSTORE PUSH1 0x20 ADD SWAP1 DUP2 MSTORE PUSH1 0x20 ADD PUSH1 0x0 KECCAK256 PUSH1 0x0 DUP3 DUP3 SLOAD PUSH2 0x5A0 SWAP2 SWAP1 PUSH2 0xB6A JUMP JUMPDEST SWAP3 POP POP DUP2 SWAP1 SSTORE POP DUP3 PUSH1 0x1 PUSH1 0x0 DUP10 PUSH20 0xFFFFFFFFFFFFFFFFFFFFFFFFFFFFFFFFFFFFFFFF AND PUSH20 0xFFFFFFFFFFFFFFFFFFFFFFFFFFFFFFFFFFFFFFFF AND DUP2 MSTORE PUSH1 0x20 ADD SWAP1 DUP2 MSTORE PUSH1 0x20 ADD PUSH1 0x0 KECCAK256 PUSH1 0x0 DUP3 DUP3 SLOAD PUSH2 0x5F6 SWAP2 SWAP1 PUSH2 0xB6A JUMP JUMPDEST SWAP3 POP POP DUP2 SWAP1 SSTORE POP DUP6 PUSH20 0xFFFFFFFFFFFFFFFFFFFFFFFFFFFFFFFFFFFFFFFF AND DUP8 PUSH20 0xFFFFFFFFFFFFFFFFFFFFFFFFFFFFFFFFFFFFFFFF AND PUSH32 0x7438B3AB3D18B29DF7BF7FE592CC95DC9B3D321D1F880AD411F65B98DF9BBD50 DUP8 PUSH1 0x40 MLOAD PUSH2 0x65A SWAP2 SWAP1 PUSH2 0xBEA JUMP JUMPDEST PUSH1 0x40 MLOAD DUP1 SWAP2 SUB SWAP1 LOG3 PUSH1 0x3 PUSH1 0x0 SWAP1 SLOAD SWAP1 PUSH2 0x100 EXP SWAP1 DIV PUSH20 0xFFFFFFFFFFFFFFFFFFFFFFFFFFFFFFFFFFFFFFFF AND PUSH20 0xFFFFFFFFFFFFFFFFFFFFFFFFFFFFFFFFFFFFFFFF AND DUP8 PUSH20 0xFFFFFFFFFFFFFFFFFFFFFFFFFFFFFFFFFFFFFFFF AND PUSH32 0x7438B3AB3D18B29DF7BF7FE592CC95DC9B3D321D1F880AD411F65B98DF9BBD50 DUP6 DUP6 PUSH2 0x6DF SWAP2 SWAP1 PUSH2 0xB36 JUMP JUMPDEST PUSH1 0x40 MLOAD PUSH2 0x6EC SWAP2 SWAP1 PUSH2 0xBEA JUMP JUMPDEST PUSH1 0x40 MLOAD DUP1 SWAP2 SUB SWAP1 LOG3 DUP7 PUSH20 0xFFFFFFFFFFFFFFFFFFFFFFFFFFFFFFFFFFFFFFFF AND PUSH1 0x0 PUSH20 0xFFFFFFFFFFFFFFFFFFFFFFFFFFFFFFFFFFFFFFFF AND PUSH32 0x7438B3AB3D18B29DF7BF7FE592CC95DC9B3D321D1F880AD411F65B98DF9BBD50 DUP6 PUSH1 0x40 MLOAD PUSH2 0x752 SWAP2 SWAP1 PUSH2 0xBEA JUMP JUMPDEST PUSH1 0x40 MLOAD DUP1 SWAP2 SUB SWAP1 LOG3 POP POP POP POP POP POP POP JUMP JUMPDEST PUSH1 0x0 DUP1 REVERT JUMPDEST PUSH1 0x0 PUSH20 0xFFFFFFFFFFFFFFFFFFFFFFFFFFFFFFFFFFFFFFFF DUP3 AND SWAP1 POP SWAP2 SWAP1 POP JUMP JUMPDEST PUSH1 0x0 PUSH2 0x793 DUP3 PUSH2 0x768 JUMP JUMPDEST SWAP1 POP SWAP2 SWAP1 POP JUMP JUMPDEST PUSH2 0x7A3 DUP2 PUSH2 0x788 JUMP JUMPDEST DUP2 EQ PUSH2 0x7AE JUMPI PUSH1 0x0 DUP1 REVERT JUMPDEST POP JUMP JUMPDEST PUSH1 0x0 DUP2 CALLDATALOAD SWAP1 POP PUSH2 0x7C0 DUP2 PUSH2 0x79A JUMP JUMPDEST SWAP3 SWAP2 POP POP JUMP JUMPDEST PUSH1 0x0 DUP2 SWAP1 POP SWAP2 SWAP1 POP JUMP JUMPDEST PUSH2 0x7D9 DUP2 PUSH2 0x7C6 JUMP JUMPDEST DUP2 EQ PUSH2 0x7E4 JUMPI PUSH1 0x0 DUP1 REVERT JUMPDEST POP JUMP JUMPDEST PUSH1 0x0 DUP2 CALLDATALOAD SWAP1 POP PUSH2 0x7F6 DUP2 PUSH2 0x7D0 JUMP JUMPDEST SWAP3 SWAP2 POP POP JUMP JUMPDEST PUSH1 0x0 DUP1 PUSH1 0x40 DUP4 DUP6 SUB SLT ISZERO PUSH2 0x813 JUMPI PUSH2 0x812 PUSH2 0x763 JUMP JUMPDEST JUMPDEST PUSH1 0x0 PUSH2 0x821 DUP6 DUP3 DUP7 ADD PUSH2 0x7B1 JUMP JUMPDEST SWAP3 POP POP PUSH1 0x20 PUSH2 0x832 DUP6 DUP3 DUP7 ADD PUSH2 0x7E7 JUMP JUMPDEST SWAP2 POP POP SWAP3 POP SWAP3 SWAP1 POP JUMP JUMPDEST PUSH1 0x0 PUSH1 0x20 DUP3 DUP5 SUB SLT ISZERO PUSH2 0x852 JUMPI PUSH2 0x851 PUSH2 0x763 JUMP JUMPDEST JUMPDEST PUSH1 0x0 PUSH2 0x860 DUP5 DUP3 DUP6 ADD PUSH2 0x7B1 JUMP JUMPDEST SWAP2 POP POP SWAP3 SWAP2 POP POP JUMP JUMPDEST PUSH2 0x872 DUP2 PUSH2 0x7C6 JUMP JUMPDEST DUP3 MSTORE POP POP JUMP JUMPDEST PUSH1 0x0 PUSH1 0x20 DUP3 ADD SWAP1 POP PUSH2 0x88D PUSH1 0x0 DUP4 ADD DUP5 PUSH2 0x869 JUMP JUMPDEST SWAP3 SWAP2 POP POP JUMP JUMPDEST PUSH2 0x89C DUP2 PUSH2 0x788 JUMP JUMPDEST DUP3 MSTORE POP POP JUMP JUMPDEST PUSH1 0x0 PUSH1 0x20 DUP3 ADD SWAP1 POP PUSH2 0x8B7 PUSH1 0x0 DUP4 ADD DUP5 PUSH2 0x893 JUMP JUMPDEST SWAP3 SWAP2 POP POP JUMP JUMPDEST PUSH1 0x0 DUP1 PUSH1 0x0 PUSH1 0x60 DUP5 DUP7 SUB SLT ISZERO PUSH2 0x8D6 JUMPI PUSH2 0x8D5 PUSH2 0x763 JUMP JUMPDEST JUMPDEST PUSH1 0x0 PUSH2 0x8E4 DUP7 DUP3 DUP8 ADD PUSH2 0x7B1 JUMP JUMPDEST SWAP4 POP POP PUSH1 0x20 PUSH2 0x8F5 DUP7 DUP3 DUP8 ADD PUSH2 0x7B1 JUMP JUMPDEST SWAP3 POP POP PUSH1 0x40 PUSH2 0x906 DUP7 DUP3 DUP8 ADD PUSH2 0x7E7 JUMP JUMPDEST SWAP2 POP POP SWAP3 POP SWAP3 POP SWAP3 JUMP JUMPDEST PUSH1 0x0 DUP3 DUP3 MSTORE PUSH1 0x20 DUP3 ADD SWAP1 POP SWAP3 SWAP2 POP POP JUMP JUMPDEST PUSH32 0x496E76616C696420696E7465726D656469617279206164647265737300000000 PUSH1 0x0 DUP3 ADD MSTORE POP JUMP JUMPDEST PUSH1 0x0 PUSH2 0x957 PUSH1 0x1C DUP4 PUSH2 0x910 JUMP JUMPDEST SWAP2 POP PUSH2 0x962 DUP3 PUSH2 0x921 JUMP JUMPDEST PUSH1 0x20 DUP3 ADD SWAP1 POP SWAP2 SWAP1 POP JUMP JUMPDEST PUSH1 0x0 PUSH1 0x20 DUP3 ADD SWAP1 POP DUP2 DUP2 SUB PUSH1 0x0 DUP4 ADD MSTORE PUSH2 0x986 DUP2 PUSH2 0x94A JUMP JUMPDEST SWAP1 POP SWAP2 SWAP1 POP JUMP JUMPDEST PUSH32 0x496E76616C6964206C6F79616C7479206C6576656C0000000000000000000000 PUSH1 0x0 DUP3 ADD MSTORE POP JUMP JUMPDEST PUSH1 0x0 PUSH2 0x9C3 PUSH1 0x15 DUP4 PUSH2 0x910 JUMP JUMPDEST SWAP2 POP PUSH2 0x9CE DUP3 PUSH2 0x98D JUMP JUMPDEST PUSH1 0x20 DUP3 ADD SWAP1 POP SWAP2 SWAP1 POP JUMP JUMPDEST PUSH1 0x0 PUSH1 0x20 DUP3 ADD SWAP1 POP DUP2 DUP2 SUB PUSH1 0x0 DUP4 ADD MSTORE PUSH2 0x9F2 DUP2 PUSH2 0x9B6 JUMP JUMPDEST SWAP1 POP SWAP2 SWAP1 POP JUMP JUMPDEST PUSH32 0x496E7465726D6564696172792061646472657373206E6F742073657400000000 PUSH1 0x0 DUP3 ADD MSTORE POP JUMP JUMPDEST PUSH1 0x0 PUSH2 0xA2F PUSH1 0x1C DUP4 PUSH2 0x910 JUMP JUMPDEST SWAP2 POP PUSH2 0xA3A DUP3 PUSH2 0x9F9 JUMP JUMPDEST PUSH1 0x20 DUP3 ADD SWAP1 POP SWAP2 SWAP1 POP JUMP JUMPDEST PUSH1 0x0 PUSH1 0x20 DUP3 ADD SWAP1 POP DUP2 DUP2 SUB PUSH1 0x0 DUP4 ADD MSTORE PUSH2 0xA5E DUP2 PUSH2 0xA22 JUMP JUMPDEST SWAP1 POP SWAP2 SWAP1 POP JUMP JUMPDEST PUSH32 0x4E487B7100000000000000000000000000000000000000000000000000000000 PUSH1 0x0 MSTORE PUSH1 0x11 PUSH1 0x4 MSTORE PUSH1 0x24 PUSH1 0x0 REVERT JUMPDEST PUSH1 0x0 PUSH2 0xA9F DUP3 PUSH2 0x7C6 JUMP JUMPDEST SWAP2 POP PUSH2 0xAAA DUP4 PUSH2 0x7C6 JUMP JUMPDEST SWAP3 POP DUP3 DUP3 MUL PUSH2 0xAB8 DUP2 PUSH2 0x7C6 JUMP JUMPDEST SWAP2 POP DUP3 DUP3 DIV DUP5 EQ DUP4 ISZERO OR PUSH2 0xACF JUMPI PUSH2 0xACE PUSH2 0xA65 JUMP JUMPDEST JUMPDEST POP SWAP3 SWAP2 POP POP JUMP JUMPDEST PUSH32 0x4E487B7100000000000000000000000000000000000000000000000000000000 PUSH1 0x0 MSTORE PUSH1 0x12 PUSH1 0x4 MSTORE PUSH1 0x24 PUSH1 0x0 REVERT JUMPDEST PUSH1 0x0 PUSH2 0xB10 DUP3 PUSH2 0x7C6 JUMP JUMPDEST SWAP2 POP PUSH2 0xB1B DUP4 PUSH2 0x7C6 JUMP JUMPDEST SWAP3 POP DUP3 PUSH2 0xB2B JUMPI PUSH2 0xB2A PUSH2 0xAD6 JUMP JUMPDEST JUMPDEST DUP3 DUP3 DIV SWAP1 POP SWAP3 SWAP2 POP POP JUMP JUMPDEST PUSH1 0x0 PUSH2 0xB41 DUP3 PUSH2 0x7C6 JUMP JUMPDEST SWAP2 POP PUSH2 0xB4C DUP4 PUSH2 0x7C6 JUMP JUMPDEST SWAP3 POP DUP3 DUP3 SUB SWAP1 POP DUP2 DUP2 GT ISZERO PUSH2 0xB64 JUMPI PUSH2 0xB63 PUSH2 0xA65 JUMP JUMPDEST JUMPDEST SWAP3 SWAP2 POP POP JUMP JUMPDEST PUSH1 0x0 PUSH2 0xB75 DUP3 PUSH2 0x7C6 JUMP JUMPDEST SWAP2 POP PUSH2 0xB80 DUP4 PUSH2 0x7C6 JUMP JUMPDEST SWAP3 POP DUP3 DUP3 ADD SWAP1 POP DUP1 DUP3 GT ISZERO PUSH2 0xB98 JUMPI PUSH2 0xB97 PUSH2 0xA65 JUMP JUMPDEST JUMPDEST SWAP3 SWAP2 POP POP JUMP JUMPDEST PUSH32 0x5553445400000000000000000000000000000000000000000000000000000000 PUSH1 0x0 DUP3 ADD MSTORE POP JUMP JUMPDEST PUSH1 0x0 PUSH2 0xBD4 PUSH1 0x4 DUP4 PUSH2 0x910 JUMP JUMPDEST SWAP2 POP PUSH2 0xBDF DUP3 PUSH2 0xB9E JUMP JUMPDEST PUSH1 0x20 DUP3 ADD SWAP1 POP SWAP2 SWAP1 POP JUMP JUMPDEST PUSH1 0x0 PUSH1 0x40 DUP3 ADD SWAP1 POP PUSH2 0xBFF PUSH1 0x0 DUP4 ADD DUP5 PUSH2 0x869 JUMP JUMPDEST DUP2 DUP2 SUB PUSH1 0x20 DUP4 ADD MSTORE PUSH2 0xC10 DUP2 PUSH2 0xBC7 JUMP JUMPDEST SWAP1 POP SWAP3 SWAP2 POP POP JUMP INVALID LOG2 PUSH5 0x6970667358 0x22 SLT KECCAK256 DUP4 BALANCE 0xD DUP5 SWAP2 ADDRESS 0xC7 DUP12 OR MSTORE8 0xD2 CREATE MSIZE PUSH28 0x8D15C31177B5D39EF0E8C2C00AA5ECBE825164736F6C634300081200 CALLER "
				},
				"gasEstimates": {
					"creation": {
						"codeDepositCost": "630000",
						"executionCost": "24931",
						"totalCost": "654931"
					},
					"external": {
						"balancesUSDT(address)": "2837",
						"intermediary()": "2559",
						"loyaltyLevels(address)": "2814",
						"payTrip(address,address,uint256)": "infinite",
						"setInitialBalance(address,uint256)": "22833",
						"setIntermediary(address)": "24779",
						"setLoyaltyLevel(address,uint256)": "22936"
					}
				},
				"methodIdentifiers": {
					"balancesUSDT(address)": "56b89be4",
					"intermediary()": "79fd022e",
					"loyaltyLevels(address)": "854572b4",
					"payTrip(address,address,uint256)": "ebbc9b32",
					"setInitialBalance(address,uint256)": "0b34b555",
					"setIntermediary(address)": "a61bab2f",
					"setLoyaltyLevel(address,uint256)": "d1ef621d"
				}
			},
			"storageLayout": {
				"storage": [
					{
						"astId": 83,
						"contract": "PapiGo_Contract.sol:PapiGo",
						"label": "tether",
						"offset": 0,
						"slot": "0",
						"type": "t_contract(IERC20)77"
					},
					{
						"astId": 87,
						"contract": "PapiGo_Contract.sol:PapiGo",
						"label": "balancesUSDT",
						"offset": 0,
						"slot": "1",
						"type": "t_mapping(t_address,t_uint256)"
					},
					{
						"astId": 91,
						"contract": "PapiGo_Contract.sol:PapiGo",
						"label": "loyaltyLevels",
						"offset": 0,
						"slot": "2",
						"type": "t_mapping(t_address,t_uint256)"
					},
					{
						"astId": 93,
						"contract": "PapiGo_Contract.sol:PapiGo",
						"label": "intermediary",
						"offset": 0,
						"slot": "3",
						"type": "t_address"
					}
				],
				"types": {
					"t_address": {
						"encoding": "inplace",
						"label": "address",
						"numberOfBytes": "20"
					},
					"t_contract(IERC20)77": {
						"encoding": "inplace",
						"label": "contract IERC20",
						"numberOfBytes": "20"
					},
					"t_mapping(t_address,t_uint256)": {
						"encoding": "mapping",
						"key": "t_address",
						"label": "mapping(address => uint256)",
						"numberOfBytes": "32",
						"value": "t_uint256"
					},
					"t_uint256": {
						"encoding": "inplace",
						"label": "uint256",
						"numberOfBytes": "32"
					}
				}
			},
			"userdoc": {
				"kind": "user",
				"methods": {},
				"version": 1
			}
		}
	}
}